:100000000C94CD040C943F050C943F050C943F05D3
:100010000C943F050C9488650C9427790C944466E5
:100020000C943F050C943F050C943F050C943F0540
:100030000C943F050C9430670C943F050C943F05DD
:100040000C943F050C943F050C943F050C943F0520
:100050000C943F050C943F050C943F050C94BA6634
:100060000C943F050C9431730C943F050C94AC73C5
:100070000C943F050C943F050C943F050C943F05F0
:100080000C943F050C943F050C943F050C943F05E0
:100090000C9426740C943F050C94A1740C94B772C4
:1000A0000C943F050C943F050C943F050C943F05C0
:1000B0000C943F050C943F050C943F050C943F05B0
:1000C0000C943F050C943F050C943F0534697D6901
:1000D000C469EA69FE69266A2E6A536A3169756ADB
:1000E000BC6AC26AC86ACE6AEB6AD46AEB6A216BE0
:1000F000F66A0B6B5254432074696D65205B2530A2
:1001000032643A253032643A253032645D0A002D7B
:100110002D2D2D2D2D2D2D2D2D2D2D2D2D2D2D2D0F
:100120002D2D2D2D2D2D2D2D2D2D2D2D2D2D2D2DFF
:100130002D2D2D2D2D2D2D2D2D2D2D2D2D2D2D2DEF
:100140002D2D2D2D2D2D2D2D2D2D2D2D2D2D2D2DDF
:100150002D2D2D2D2D2D2D2D2D2D2D2D2D2D2D2DCF
:100160002D2D2D2D2D2D2D2D2D2D2D2D2D2D0077A2
:10017000007561727430000A000A23446562756775
:1001800020000A23496E666F2020000A234E6F74F8
:10019000696320000A235761726E2020000A2345FC
:1001A0007272202020000A23437269742020000A02
:1001B00023416C65727420000A23456D65726720C7
:1001C000003F3F203C444D4B3E200057443A200026
:1001D00056533A200056453A200055543A200055CF
:1001E000443A200055413A200053523A20005350DF
:1001F0003A200053473A200053453A200053543ADE
:10020000200052543A200052433A2000504C3A20E9
:100210000050413A20004D443A20004D4D3A200014
:100220004D453A200053593A20004C473A20004CA3
:10023000453A20004B423A2000494E3A20004854AB
:100240003A2000464C3A200046413A200044503AB9
:100250002000434D3A200043483A200041553A20BF
:100260000030803000170780B0173C0600175000A0
:100270003F24000600162012008F570000CE1012F7
:1002800029009900004D0080404C180600D79600C8
:1002900028550D0000480D0600505B0930420080D3
:1002A000B00180144240BC182840C71336423C00BD
:1002B0003E03B81400031B1500C259D66F2400007A
:1002C0003603981228D55700004D000028402BF324
:1002D0003624004C80103E1438103E0A78133E0D30
:1002E000B8033E05F806009555093015141B00D4D7
:1002F000FF0300CEFF01000A000024CE168AB524B9
:100300000092F200945261240002FE2400B24824BC
:10031000004A4501B6F33605D8F3360D98F0360A93
:100320005800200000F036141861801336240012A3
:100330003E17B8123E1538053E14B8253624000085
:10034000000A80103E03B8944105B8113E24001104
:100350003E07B8143E1278143E0DF8033E0EF80620
:100360000051000028D5240000240088B8120004A1
:100370006405040000240000285821944024000053
:10038000240221000024009864030856FE2400B6CD
:10039000482400D64D2400103A24C0F03224C05620
:1003A000FE2400B6482400D64D240084438344969E
:1003B000638C8800F4D540003D2480060091003F06
:1003C00000C3FE060053000131248060FE2400BEFD
:1003D00048240034A6030C244324008442022C0643
:1003E0000011000028D8240031248006001150009C
:1003F0003924800600110000314C9884424C900052
:10040000F488400028452800002400F03C403809CA
:1004100030413809301038002000000000882709DA
:1004200030D01B002880280930811BF334CC1BF30B
:10043000360ED8F4360DD8F4361258F1360798F146
:10044000360518F036039805341490F3362400F27C
:1004500036151800200000F2361798AD80123E17AE
:10046000B8123E1538053E14B81536240000000AAF
:1004700080103E0278103E04F8113E1078143E12AF
:1004800078132980C9143E24C0132980C988404CA0
:100490001800F405400000C018006424000000C0EB
:1004A0001B00289530300010030028803F013824BD
:1004B00040006424000000401A002855370600D090
:1004C000550000037D84B84C180930053809300008
:1004D000008AFF24001D29007BB24824000000414F
:1004E00018060010508A4044B800290013884024A0
:1004F000000030CC1B14602400300051030028D5CC
:1005000036000024000600110000312400300051A4
:1005100003003824000028803F013924400064246F
:10052000003000D0030028553F0000037D0600D0B6
:100530005584B84C1809300538093000008AFF246A
:10054000001D29007BB24824008A40CC9B0000415A
:10055000180028553B060010509A682400003024EB
:100560000014602400300092030028853E060091AC
:100570000006001100000052180600530080B80069
:1005800024060091000438248030009203003B24AC
:1005900000013924400028803F013A2440013824DA
:1005A0004080B8D31BF4361258F1361058F0360498
:1005B000D8F036025805341490F3362400F236157C
:1005C0001800200000F236179830000000000045A7
:1005D0007869740000000053EF6E00000000457859
:1005E000697453EF6E4DEA6D540000000007060673
:1005F000060606060606060606060606060606069B
:10060000060606060606060606060606060606068A
:10061000060606060606060606060606060606067A
:100620000606060606060706060606060606060669
:10063000060606060606060606060606060606065A
:10064000060606060606060606060606060606064A
:100650000607060606060606060606060606060639
:10066000060606060606060606060606060606062A
:10067000060606060606060606060606060606061A
:10068000060606060606060606060606060606060A
:1006900006060606060606060606060606060606FA
:1006A00006060606060606060606060606060606EA
:1006B00006060606060606060606060606060606DA
:1006C00006060606060606060606060606060606CA
:1006D00006060606060606060606060606060606BA
:1006E00006060606060606060606070606060606A9
:1006F000060606060606060606060606060606069A
:100700000606060606060606060606060606060689
:100710000606060606060606060606060606060679
:100720000606060606060606060606060606060669
:100730000606060606060606060606060606060659
:100740000606060606060606060606060606060649
:100750000606060606060606060606060606060639
:100760000606060606060606060606060606060629
:100770000606060606060606060606060606060619
:100780000606060606060606060606060606060609
:1007900006060606060606060606060606060606F9
:1007A0000606546872656164206661696C65640060
:1007B00043617264507265730043617264207265B4
:1007C0006D6F766564004361726420696E73657253
:1007D000746564004572726F7220696E6974696134
:1007E0006C6973696E672046696C652073797374F0
:1007F000656D20616E6420436172642D6472697658
:1008000065720043617264206D6F756E746564007B
:10081000696E76616C696420537065656400657209
:10082000726F7220647572696E6720435344207240
:1008300065616400FFFFFF30FFFFFFFFFFFFFFFF69
:10084000FFFFFFFFFFFF00000000000000000000AE
:100850000000000000000000000000000000000098
:100860000000000000000000000000000000000088
:100870000000000000000000000000000000000078
:100880000000000000000000000000000000000068
:100890000000000000000000000000000000000058
:1008A0000000000000000000000000000000000048
:1008B0000000000000000000000000000000000038
:1008C0000000000000000000000000000000000028
:1008D0000000000000000000000000000000000018
:1008E0000000000000000000000000000000000008
:1008F00000000000000000000000000000000000F8
:1009000000000000000000000000000000000000E7
:1009100000000000000000000000000000000000D7
:1009200000000000000000000000000000000000C7
:1009300000000000000000000000000000000000B7
:1009400000000000000000000000000000000000A7
:100950000000000000000000000000000000000097
:100960000000000000000000000000000000000087
:100970000000000000000000000000000000000077
:100980000000000000000000000000000000000067
:100990000000000000000000000084E88093740064
:1009A000479A3F9A469A3E9A81EE809300C380E42C
:1009B000809301C385B78F7785BF80E090E0359B3A
:1009C00005C0019641F0359BF8CFFBCF019619F099
:1009D0003599F3CFFBCF85B7806885BF47983F989F
:1009E00046983E9887E08093C4008093CC00112401
:1009F0001FBECFEFD1E2DEBFCDBF18E0A0E0B2E076
:100A0000EEE9FCE001E00BBF02C007900D92A034BC
:100A1000B107D9F71CE0A0E4B8E001C01D92AB36E5
:100A2000B107E1F78FEF9FE79EBF8DBF8FEF9FE785
:100A30008B569C408158914040F06FEF7EE76B569B
:100A40007C408BE69CE00E948E580E945161892B6D
:100A500041F068EE76E081E59CE00E9457850E94B7
:100A6000386120E831E040E050E068E07CE281EF6E
:100A700096E00E9408640E9400000C944E860C943C
:100A8000000087EF84B98CE08AB98BB18C70836FDA
:100A90008BB98EE88DB98EB18E7881608EB985B7AD
:100AA000806885BF85B7806885BF8EE080BB81B3D5
:100AB0008E70816F81BB88E183BB0895EF92FF92B6
:100AC0000F931F93CF93DF93CDB7DEB762970FB627
:100AD000F894DEBF0FBECDBF0E945D0E84E60E947B
:100AE0007C5C0E9441050E94FF0F0E94DB080E946F
:100AF000410A0E948A060E943E060E94B5088FE0C5
:100B000091E09F938F9316EC1F930E9475070E94AC
:100B1000E30E0E948721CE0101960E94A3210F902F
:100B20000F900F90892BD9F489819A819F938F938D
:100B30008B819C819F938F938D819E819F938F93B7
:100B400084EF90E09F938F931F930E9475078DB75A
:100B50009EB709960FB6F8949EBF0FBE8DBF0E9438
:100B60005B1F0E94E90D0E94B90940E050E066EF6A
:100B700075E086E297E00E947B61892B49F485B598
:100B8000846085BDA89A80916E00816080936E001C
:100B90000E94ED2B78940E940C5F81E00E94B25B72
:100BA0000E949C0981E00E94FD0945E060E073E835
:100BB00088E797E00E940C61892B19F080E092E0B1
:100BC00002C085E192E00E942C800E949C09082FBF
:100BD0001127E016F10631F0E091CF0BF091D00B28
:100BE000C80119950E945B0E7801EFCF0E94E308BF
:100BF0000E948A0E08958CE292E00E942C800E944E
:100C0000BE2A64E670E080E090E00E948E5DF9CF3D
:100C100080914008909141080895809140089091FA
:100C20004108009731F00E94A17D10924108109276
:100C300040080895CF93DF93CDB7DEB724970FB662
:100C4000F894DEBF0FBECDBF69837A838B839C830C
:100C500080914008909141080E94437EAE014F5F11
:100C60005F4F63E171E00E94377D24960FB6F894E0
:100C7000DEBF0FBECDBFDF91CF910895EF92FF92FF
:100C80000F931F93CF93DF93CDB7DEB72D970FB69A
:100C9000F894DEBF0FBECDBF80E092ECA1E0B0E0E3
:100CA0008C839D83AE83BF8388E0E82EF12CEC0E0D
:100CB000FD1E61E771E0C7010E9409856FE671E0E2
:100CC0008E010F5F1F4FC8010E9409854091E907FF
:100CD0005091EA07B801C7010E94CF7E9093410866
:100CE00080934008009749F00E94437EAE014C5F1C
:100CF0005F4F61E071E00E94377D2D960FB6F8944A
:100D0000DEBF0FBECDBFDF91CF911F910F91FF903E
:100D1000EF900895109241081092400840E060E082
:100D200070E085E597E00E940C610895909142087B
:100D3000883010F480934208892F992708952F92C4
:100D40003F924F925F926F927F928F929F92AF925B
:100D5000BF92CF92DF92EF92FF920F931F93CF93A8
:100D6000DF93CDB7DEB7CD54D0400FB6F894DEBFD9
:100D70000FBECDBF7C016B011A01892B09F48EC017
:100D800094E0692E712C44245524AA24BB24A0E0AD
:100D9000B0E000E010E07EC0C5018F709070892B3C
:100DA00069F54DE450E060E270E08E010F5F1F4F87
:100DB000C8010E943C859301220F331F220F331F6D
:100DC0002450304040E050E0D801F201022E02C031
:100DD000F695E7950A94E2F7EF70F070E45CFD4F4A
:100DE00080818D934F5F5F4F2450304046155705EB
:100DF00061F7D301129683010C5C1F4FF6019081BD
:100E0000E92FE295EF70FF27E45CFD4F50814D0123
:100E10000894811C911CE92FFF27EF70F070E45CAF
:100E2000FD4F4081892F80528F3510F08EE201C036
:100E3000892F9E012F5F3F4FA20FB31F5C93F901D3
:100E4000E80DF91D4083F901E00FF11F80830F5F6A
:100E50001F4F0894A11CB11CC5018F709070892B85
:100E600019F0A214B30489F4F901E00FF11F108204
:100E7000B701C9010E94F47FB7018AE090E00E94A7
:100E8000CC7F80E190E0480E591E0894C11CD11C13
:100E9000D4011296A214B30409F07ECFC35BDF4FD6
:100EA0000FB6F894DEBF0FBECDBFDF91CF911F917B
:100EB0000F91FF90EF90DF90CF90BF90AF909F90F9
:100EC0008F907F906F905F904F903F902F900895FC
:100ED00060914308709144086115710529F09927C4
:100EE00087FD90950E94CC7F08951F93CF93DF9349
:100EF000CDB7DEB722970FB6F894DEBF0FBECDBFD9
:100F0000198560914308709144086115710509F4D1
:100F100010C1212F33272770307080914208992704
:100F2000821793070CF405C1812F87708330F1F08D
:100F3000843028F48130A1F08230A8F40EC08530CE
:100F4000D9F08530B0F08630D1F0873019F489E7D8
:100F500091E017C087E791E014C088EB91E011C0E1
:100F60008FEA91E00EC086EA91E00BC08DE991E036
:100F700008C084E991E005C08BE891E002C082E8F6
:100F800091E00E944E806091430870914408212FA7
:100F9000287F283709F4AAC0293790F5283309F4A7
:100FA00099C02933B0F4283109F48EC0293138F4BE
:100FB000283009F486C0203109F053C055C02832CA
:100FC00009F485C0203309F455C0203209F049C026
:100FD0004EC0283509F484C0293548F4283409F472
:100FE0007CC0203509F44CC02034D9F546C02836E1
:100FF00009F479C0203709F449C0203691F543C07F
:10100000283B09F47FC0293BA8F4283909F474C0AF
:10101000293940F4283809F46CC02039E9F1203826
:1010200001F537C0283A09F46AC0203BD9F1203ACB
:10103000C1F435C0283D09F46BC0293D40F4283C7B
:1010400009F463C0203DA1F1203C59F42EC0283E94
:1010500029F0203F99F1203E21F42DC08BEC91E046
:1010600059C081EC91E056C08CE592E053C087E511
:1010700092E050C082E592E04DC08DE492E04AC01B
:1010800088E492E047C083E492E044C08EE392E0BB
:1010900041C089E392E03EC084E392E03BC08FE22E
:1010A00092E038C08AE292E035C085E292E032C038
:1010B00080E292E02FC08BE192E02CC086E192E0CA
:1010C00029C081E192E026C08CE092E023C087E055
:1010D00092E020C082E092E01DC08DEF91E01AC046
:1010E00088EF91E017C083EF91E014C08EEE91E09D
:1010F00011C089EE91E00EC084EE91E00BC08FED3F
:1011000091E008C08AED91E005C085ED91E002C054
:1011100080ED91E00E944E80AE01445F5F4F5A83A4
:1011200049836A857B8580914308909144080E9499
:10113000628022960FB6F894DEBF0FBECDBFDF915E
:10114000CF911F9108958091430890914408109287
:101150004408109243080E94327E08950E940806B7
:101160009093440880934308089587E08093420851
:101170000E94AE080895833059F0843018F4882313
:1011800039F008C0853031F0853040F0863091F478
:101190008B9801C08B9A80934508089580914508EB
:1011A000813021F48B981092450808958B9A81E044
:1011B0008093450808958B98109245080895809172
:1011C000450899270895A398000000006FB1A39ADD
:1011D000A498000000004FB1A49A5B9800000000A2
:1011E0008FB15B9A5A98000000002FB15A9A62950D
:1011F0006F707727407F5527642B752B807F992749
:1012000034E0880F991F3A95E1F7682B792B207FFE
:101210003327322F2227622B732B70934908609358
:1012200048088FEF6F3B780709F45DC08FEF603C93
:10123000780720F58BEF6F3F780709F463C08CEFD8
:101240006030780770F48FEE6F3F780709F460C064
:1012500087EF6F3F780709F44CC06F5B7F4E89F5CD
:101260002DC08EEF6F3F780709F449C08FEF6F37BD
:10127000780781F16F5F7D4F21F547C08FEF673FA2
:10128000780759F18FEF683F780760F48FEF6F3D73
:10129000780791F18FEF6F3E780741F16F5C7F4FD8
:1012A00081F439C08FEF6D3F780789F08FEF6E3F83
:1012B0007807B1F06B5F7F4F21F406C083E190E0C7
:1012C0002CC088E890E029C081E090E026C082E050
:1012D00090E023C083E090E020C084E090E01DC057
:1012E00085E090E01AC086E090E017C087E090E0CB
:1012F00014C088E090E011C089E090E00EC08AE060
:1013000090E00BC08BE090E008C08CE090E005C05E
:101310008DE090E002C08EE090E080934A0808954E
:10132000E82F862F8150823030F4E03120F4FF27FF
:10133000E25BF74F6083089580914A0899270895EA
:1013400080934A08E0914608F0914708309739F4B5
:101350008FEF9FEF909347088093460808958FEF93
:10136000EF3FF80729F08481958101969583848366
:101370000895A39AA49A5B9A5A9A10924D088FEFF7
:101380009FEF90934908809348080FB6F8940F9206
:1013900010924708109246080F900FBE8FEF80936F
:1013A0004A08EEE4F8E082E0819398E0EE35F90730
:1013B000D9F710924C0810924B0861E088E00E9427
:1013C000900961E08BE00E94900961E08AE00E9450
:1013D000900961E08CE00E9490090895AB01BC0186
:1013E00086E498E00E94766020E030E08F5F9F4FB7
:1013F00011F421E030E0C9010895813011F4739AAD
:101400000895882309F4739808959AB19F70906F96
:101410009AB99BB19F70607F962B9BB9823011F473
:101420008A9801C08A9A729A0000000072988A987D
:101430008AB18F708AB98BB18F70806F8BB9089524
:101440000F931F93082F162F8A98899A729A00007B
:1014500000004F99FBCF72988A988998612F607F1E
:10146000802F0E94050A1295107F612F802F0E9405
:10147000050A1F910F910895682F83E00E94200AAA
:1014800008951F938CE80E947C5C10E063E382E087
:101490000E94050A84E00E947C5C1F5F1330B1F754
:1014A00062E282E00E94050A81E00E947C5C68E2C0
:1014B00082E00E94200A85E00E947C5C6CE082E071
:1014C0000E94200A85E00E947C5C61E082E00E942C
:1014D000200A85E00E947C5C66E082E00E94200A8F
:1014E00060E882E00E94200A1F91089561E082E096
:1014F0000E94200A85E00E947C5C08950FB6F89453
:101500000F929DB3882311F0EE9A01C0EE980F90D0
:101510000FBE892F992726E0969587952A95E1F7A2
:1015200081709070089580E00E947E0A982F8091CB
:101530005E08813011F410925E08892F0E947E0AA5
:1015400080E090E0089580915E0899270895809149
:101550005F0890916008089580915F0890916008FD
:1015600008950F931F93CF93DF93EC018B0180E0DD
:1015700090E00E94031005C0FE0184910E94EB0FD1
:10158000219601501040FFEF0F3F1F07A9F70E945F
:10159000E00FDF91CF911F910F9108951F9380E08D
:1015A0000E947E0A182F64E070E08FEC95E00E94A4
:1015B000B10A64E070E08BEC95E00E94B10A812FE3
:1015C0000E947E0A80E090E01F9108950F931F9380
:1015D000CF93DF938C01EB0180E090E00E94031039
:1015E00005C0F80181918F010E94EB0F2197FFEF59
:1015F000CF3FDF07B1F70E94E00FDF91CF911F913E
:101600000F910895EF92FF920F931F93F82E8B0185
:101610000E94E70FE82E80E00E94E40F80E090E057
:101620000E9403102C9882E00E94EB0F8F2D0E94E5
:10163000EB0F812F99270E94EB0F802F0E94EB0F59
:101640002C9A0E94E00F8E2D0E94E40F1F910F91A3
:10165000FF90EF900895DF92EF92FF920F931F9308
:10166000082FE62E80E00E947E0AD82E1127102F28
:101670000027FF240E291F29B8018BE00E94020BCE
:101680008D2D0E947E0A80E090E01F910F91FF90C7
:10169000EF90DF900895FF920F931F938C0180E0ED
:1016A0000E947E0AF82E1C60B80180E00E94020BA6
:1016B0008F2D0E947E0A80E090E01F910F91FF9095
:1016C00008951F93CF93DF93CDB7DEB721970FB661
:1016D000F894DEBF0FBECDBF898380E00E947E0AF2
:1016E000182F80E290E00E944B0B63E070E087EDE2
:1016F00095E00E94B10A61E070E0CE0101960E947F
:10170000E60A64E070E083ED95E00E94B10A812F63
:101710000E947E0A80E090E021960FB6F894DEBF2A
:101720000FBECDBFDF91CF911F910895282F332792
:1017300027703070C90153E0880F991F5A95E1F75F
:10174000820F931F885C0E94610B0895DF92EF92D5
:10175000FF920F931F93CF93DF93CDB7DEB72197FF
:101760000FB6F894DEBF0FBECDBF89837B0180E04A
:101770000E947E0AD82E80E290E00E944B0B898165
:101780008295807F885C898363E070E082EE95E0DB
:101790000E94B10A61E070E0CE0101960E94E60A63
:1017A0000AED15E064E070E0C8010E94B10A8E2DD8
:1017B0000E947C5C64E070E08EED95E00E94B10ACE
:1017C00064E070E0C8010E94B10A8D2D0E947E0A7B
:1017D00080E090E021960FB6F894DEBF0FBECDBF3B
:1017E000DF91CF911F910F91FF90EF90DF900895BF
:1017F0000F931F938C0180E00E947E0A10925E0876
:10180000C80184600E944B0B8AE00E947C5C80E4EB
:101810008CBB80E090E01F910F910895DF92EF92D2
:10182000FF920F931F93182F0E94E70FD82E80E08E
:101830000E94E40F80E090E00E9403102C9883E067
:101840000E94EB0F812F0E94EB0F0E94F00FE82EF9
:10185000FF24FE2CEE240E94F00F082F2C9A0E94E9
:10186000E00F8D2D0E94E40F1127C701802B912BD3
:101870001F910F91FF90EF90DF900895FF920F93CB
:101880001F9380E00E947E0AF82E8BE00E940E0CCF
:101890008C018F2D0E947E0AC8011F910F91FF902D
:1018A0000895FF920F931F93182F80E00E947E0AE5
:1018B000F82E812F0E940E0C8C018F2D0E947E0A23
:1018C000C8011F910F91FF90089589E00E94510C6B
:1018D0009C018FEF213E380790F58DE424353807C1
:1018E000A1F18DE42535380768F481E42435380703
:1018F000F9F08DE424333807D9F081E42434380733
:1019000009F516C087E52D363807F9F087E52E363C
:10191000380728F487E52D343807A1F409C086E795
:101920002536380729F08FEF203E380759F40DC0CF
:1019300080915F0890916008039739F403C020EE0E
:101940003FEF03C080E090E00895C901089580E072
:101950000E947E0A2F982C9A2898209A84E00E9450
:101960007C5C80E00E94E40F10925E082F9A84E075
:101970000E947C5C81E00E940E0C74E09695879535
:101980007A95E1F7877090709093600880935F0874
:10199000039719F460E070EE02C060E078E983E03C
:1019A0000E94020B82E30E947C5C80E090E00E9437
:1019B0004B0B60E080E00E942B0B82E30E947C5C7A
:1019C00080915F08909160080397029710F482E07D
:1019D00001C081E00E94E40F40E050E06FEF7CE046
:1019E00080E297E00E947B6166E070E080E297E031
:1019F0000E94F96180E48CBB80E090E00895BF9282
:101A0000CF92DF92EF92FF920F931F93CF93DF93CA
:101A1000CDB7DEB722970FB6F894DEBF0FBECDBFAD
:101A200080915E08813009F04FC0669B4DC080E018
:101A30000E947E0AB82E78941A82198280E090E083
:101A40000E940310F0E2EF2EF12C00E010E0CC2415
:101A5000DD2403C0EFE1EE2EF12C89819A81C816B6
:101A6000D906C0F0C114D10419F0C6010E949659DC
:101A7000CE0101960E9415598C0189819A81892B8A
:101A800019F0CC24DD2408C082E080935E08CC24C9
:101A9000DD2412C0892B41F0F80181918F010E9451
:101AA000EB0F0894C11CD11C6699D4CF0894E108AF
:101AB000F108E114F10489F60E94E00FC6010E94CA
:101AC000335A8B2D0E947E0A22960FB6F894DEBF01
:101AD0000FBECDBFDF91CF911F910F91FF90EF907F
:101AE000DF90CF90BF9008950F931F93CF93DF9314
:101AF00080915E08813009F435C080E00E947E0A42
:101B0000C1E6D2E0FE0165917491EDEEF5E0E4915D
:101B10008E2F0E94020B00E010E011C0FE016591C3
:101B20007491F801E351FA4FE4918E2F0E94020B59
:101B3000C80164EF71E00E94F285892B11F40E94C4
:101B40005B0E0F5F1F4F229681E0053B180731F7B0
:101B500081E080935E0880E090E00E94FF0C81E0CD
:101B60000E947E0A80E090E0DF91CF911F910F915B
:101B700008951F93CF93DF9380E090E00E94F80BCD
:101B800080E290E00E944B0B80E00E947E0A182FBA
:101B900068E070E085EE95E00E94B10A88E20E945C
:101BA0007C5C88E00E940E0CEC01812F0E947E0A72
:101BB00080915F0890916008039731F480E8CF37F7
:101BC000D80711F4C0E0D0E0CE01DF91CF911F9192
:101BD000089580916A008C7F80936A0040E050E015
:101BE0006EE07EE08AE197E00E947B61892B31F410
:101BF00080916A00826080936A00EC9A80918100F3
:101C0000836080938100AD9A0FB6F8940F92109282
:101C10006408109263080F900FBE089584E00E943C
:101C2000BB080E94E45D0895EF92FF920F931F930B
:101C3000AB01BC01A89521E0E12CE8E0FE2E012DCE
:101C4000112D01C02F5FD801C701022E04C0880FDB
:101C5000991FAA1FBB1F0A94D2F737E0B695A79524
:101C6000979587953A95D1F784179507A607B707F3
:101C700048F3209366082A3018F0297020936608EC
:101C80002091660823FF02C038E201C038E088E1F5
:101C900090E02770322B0FB6F894A89580936000DF
:101CA0000FBE3093600081E0809365081F910F9113
:101CB000FF90EF900895A895089580916508882376
:101CC00019F08F5F8093650888E10FB6F8948093D0
:101CD0006000109260000FBE089580916508823008
:101CE000C0F0815080936508813099F42091660896
:101CF00023FF02C038E201C038E088E190E027709D
:101D0000322B0FB6F894A895809360000FBE3093E5
:101D10006000089580916A0890916B088130910568
:101D200089F08130910530F08230910521F10397DF
:101D3000E9F52DC078993AC081E08093690881E087
:101D400090E020C0789912C0809169088F5F8093DD
:101D500069088E3159F581E08093680882E090E04F
:101D600090936B0880936A0881E021C010926B0801
:101D700010926A081BC0789B19C081E080936908A3
:101D800083E090E090936B0880936A080FC0809185
:101D900069088F5F80936908843141F41092680864
:101DA00010926B0810926A0880E001C082E09927C7
:101DB0000895809168089927089580916C08909102
:101DC0006D08089508950F931F93CF93DF93CDB7B8
:101DD000DEB72A970FB6F894DEBF0FBECDBF1092C4
:101DE0006B0810926A081092680860EB77E08E0129
:101DF0000F5F1F4FC8010E940985C8010E945E5BEA
:101E0000892BB1F420E033E040E050E064EA7FE069
:101E1000C8010E940864892B59F482EA97E09F93D5
:101E20008F9380EE8F930E9475070F900F900F9005
:101E30002A960FB6F894DEBF0FBECDBFDF91CF91CB
:101E40001F910F910895FF920F931F93CF93DF93EC
:101E5000CDB7DEB72A970FB6F894DEBF0FBECDBF61
:101E600082E592E00E94F060892BB9F480E00E9444
:101E70007E0AF82E40E067E070E080E592E00E9484
:101E80000C618C01892B51F540E067E070E083E73D
:101E900092E00E940C618C0121C00E94C51380E079
:101EA0000E947E0AF82EE0916302F091640230975E
:101EB00029F080E592E01995892B59F4E09186028A
:101EC000F0918702309741F083E792E01995892BD2
:101ED00019F00FEF1FEF02C000E010E08F2D0E94FD
:101EE0007E0A01151105C1F483E098E09F938F935A
:101EF00086EE8F930E94750760E070E0CE01019638
:101F00000E94497D0F900F900F902FEF8F3F920707
:101F100071F00E94217D0BC084ED97E09F938F9319
:101F200083EE8F930E9475070F900F900F90C8015A
:101F30002A960FB6F894DEBF0FBECDBFDF91CF91CA
:101F40001F910F91FF900895809168088093670812
:101F5000809168088130B9F480916708882349F539
:101F600086EC97E09F938F9386EE8F930E94750780
:101F70000E94230F0F900F900F90892B29F780E17B
:101F80000E94A009E1CF8823A1F4809167088130E5
:101F900081F489EB97E09F938F9386EE8F930E9455
:101FA000750780916808809367080F900F900F90D5
:101FB000CFCF64EF71E080E090E00E948E5DC8CFEB
:101FC000779A2E982D9A089580936E08089580919F
:101FD0006E08992708958EBD0DB407FEFDCF0895B4
:101FE0008FEF8EBD0DB407FEFDCF8EB599270895F6
:101FF0008EBD0DB407FEFDCF8EB599270895779A53
:102000002E982D9A08959C010097F9F480916E08FE
:10201000882321F481E08DBD81E504C0813021F465
:102020001DBC80E58CBD25C0823019F481E08DBDDA
:10203000F8CF80E198E09F938F938BE78F930E9476
:1020400075070F900F900F9014C0019741F481E035
:102050008DBD80E58CBD2D9A2E98779808951DBC76
:1020600080E58CBD2130310520F02230310541F46E
:1020700004C0779A2D9A2E9A0895779A2E982D98C3
:10208000089580E090E0089580E090E0089580E079
:1020900090E0089540E050E060E070E08FE698E066
:1020A0000E9476600895CF93DF93CEEFDFEF0E941A
:1020B000F00F8F3F11F42197D1F79927DF91CF913E
:1020C0000895CF93DF93CEEFDFEF0E94F00F8E3FA6
:1020D00011F02197D1F79927DF91CF910895DF92E1
:1020E000EF92FF920F931F93D82E8B017A0182E01B
:1020F00090E00E9403108FEF0E94EB0F8D2D806403
:102100000E94EB0F812F99270E94EB0F802F0E94D6
:10211000EB0F8F2D99270E94EB0F8E2D0E94EB0F56
:1021200085E90E94EB0F8FEF0E94EB0F1F910F913B
:10213000FF90EF90DF9008956F927F928F929F9221
:10214000AF92BF92CF92DF92EF92FF920F931F93C5
:10215000CF93DF935B0169017A01380188249924C8
:102160003AC0A601542F4427550FC701B60127E0F6
:1021700096958795779567952A95D1F781E10E9485
:102180006F100E9461108E3F29F00E94E00F81E0E5
:1021900090E026C08501C0E0D0E00E94F00FF80179
:1021A00081938F012196F2E0C030DF07B1F780E024
:1021B00092E0A80EB91E8FEF0E94EB0F8FEF0E94E6
:1021C000EB0F0E94E00F0894811C911C0894C11C25
:1021D000D11CE11CF11C8614970419F680E090E0F4
:1021E000DF91CF911F910F91FF90EF90DF90CF90F3
:1021F000BF90AF909F908F907F906F9008958FE6E3
:1022000098E00E94236008952F923F924F925F9230
:102210006F927F928F929F92AF92BF92CF92DF92F6
:10222000EF92FF920F931F93CF93DF93CDB7DEB75B
:1022300028970FB6F894DEBF0FBECDBFF82E6B0106
:1022400039014A0118010E944A10FF2019F022E0CA
:1022500030E0A8C0C801AA27BB27860D971DA81D7E
:10226000B91D2091740830917508409176085091FD
:102270007708281739074A075B0728F483E090E0BE
:102280009E838D8302C01E821D8280917108909171
:10229000720897FD04C0E2E0F0E0FE83ED8396FD56
:1022A0007FC02D813E81232B09F092C0DC82CB823E
:1022B00072C03FEF2316310409F010F4610103C02E
:1022C000C12CA1E0DA2E4B805C80840173011A825C
:1022D000198253C0A701542F4427550FC801B701D5
:1022E000E7E09695879577956795EA95D1F788E128
:1022F0000E946F100E9453108F3F09F445C08EEF6B
:102300000E94EB0F520118861F82F50181915F0137
:102310000E94EB0F2F8138852F5F3F4F38872F8327
:102320002050324091F7E0E0F2E04E0E5F1E8FEF5A
:102330000E94EB0F8FEF0E94EB0F8FEF0E94EB0FCD
:102340005FEFA52EB52E0E94F00F882339F4089474
:10235000A108B108A114B104B9F0F5CF0894E11CAB
:10236000F11C011D111DAB2879F00E94E00F29819D
:102370003A812F5F3F4F3A83298389819A818C1557
:102380009D0509F0A7CF11C00E94E00FE1E0F0E049
:10239000FE83ED831DC02114310409F08ACF18C0DB
:1023A00028E030E03E832D8313C0C601AA27BB2757
:1023B000680E791E8A1E9B1E2C183D08DC2CCC242E
:1023C000DD0C8B819C818C0D9D1D9C838B83E3CFC9
:1023D0000E94FF108D819E8128960FB6F894DEBF73
:1023E0000FBECDBFDF91CF911F910F91FF90EF9066
:1023F000DF90CF90BF90AF909F908F907F906F9025
:102400005F904F903F902F9008958F929F92AF9240
:10241000BF92CF92DF92EF92FF920F931F93CF93D1
:10242000DF93F82EEB0149015A0168010E944A101E
:10243000FF20F1F4809171089091720897FF18C005
:10244000C801AA27BB27880D991DAA1DBB1D209175
:1024500074083091750840917608509177082817D4
:1024600039074A075B0708F042C003E010E044C0A8
:1024700002E010E041C02FEFC216D10409F010F4C1
:10248000E60102C0C0E0D1E08E01A5019401B701D0
:1024900081E798E00E949C108C01892B69F5CE01A0
:1024A000AA27BB27880E991EAA1EBB1ECC1ADD0ABE
:1024B00080917808909179089C01C29FC001C39FC8
:1024C000900DD29F900D1124E80EF91EC114D10475
:1024D00091F600E010E010C001E010E0A5019401C9
:1024E000BE0181E798E00E949C108C0105C07E012E
:1024F0000130110559F7F0CF0E94FF10C801DF919C
:10250000CF911F910F91FF90EF90DF90CF90BF90F0
:10251000AF909F908F900895EF92FF920F931F932B
:10252000182F0E944A10112321F0EE24FF24870166
:1025300008C0E0907408F09075080091760810913A
:1025400077080E94FF10C801B7011F910F91FF90FB
:10255000EF9008951F93CF93DF93182F0E944A1096
:10256000112319F0C0E0D0E004C0C0917808D091E8
:1025700079080E94FF10CE01DF91CF911F9108953D
:10258000CF92DF92EF92FF920F931F93CF93DF933F
:10259000CDB7DEB760970FB6F894DEBF0FBECDBFE4
:1025A0006B010E944A10809171089091720897FF08
:1025B0008AC040E050E060E070E089E00E946F1067
:1025C0000E9461108E3F61F08EE198E09F938F939F
:1025D00083EF8F930E9475070F900F900F9073C039
:1025E0008E010F5F1F4F0E94F00FF80181938F0142
:1025F000CE014196E817F907B1F78FEF0E94EB0F74
:102600008FEF0E94EB0F0E94E00FEE80FFE0EF22C1
:1026100021E030E0C90102C0880F991FEA94E2F777
:102620007C016F81772763707070762F6627770F34
:10263000770FE885FF27EE0FFF1FEE0FFF1F6E2BB2
:102640007F2B09851127EA85FF27E370F070DF01F2
:10265000AA0FBB1FEA2BFB2BAB85BB2786E0169589
:1026600007958A95E1F7602B712B6F5F7F4F882765
:102670009927AA0FAB2FAA1FBB0BB195EA2BFB2BF7
:10268000329602C0220F331FEA95E2F744275527FE
:102690000E94B385609374087093750880937608E0
:1026A00090937708F0927908E09278080E94FF10E2
:1026B00001E010E020E030E040E050E0B60180E0D2
:1026C0000E94051204C00E94FF1081E090E0609615
:1026D0000FB6F894DEBF0FBECDBFDF91CF911F9133
:1026E0000F91FF90EF90DF90CF900895CF93DF93FD
:1026F00070937B0860937A0850937D0840937C0820
:1027000089E0E1E7F8E011928A95E9F71092730801
:102710008FE698E00E942360C0E0D0E08FEF0E9437
:10272000EB0F2196CA30D105C9F740E050E060E0D8
:1027300070E080E00E946F100E945310813099F485
:10274000CFEFDFEF07C040E050E060E070E081E0F5
:102750000E946F100E94F00F882319F0219799F7BB
:1027600002C0CD2B29F40E94E00F81E090E00AC066
:102770000E94E00F80E090E89093720880937108C7
:1027800080E090E0DF91CF91089510927F08109241
:102790007E080895EF92FF920F931F93CF93DF93DC
:1027A000EC017A018B018B8180FD1AC08EEF9FEFC7
:1027B000AFEFBFEFE80EF91E0A1F1B1F2A81332758
:1027C00044275527C801B7010E94B385AB01BC015E
:1027D0008A8D9B8DAC8DBD8D480F591F6A1F7B1F45
:1027E000CB01BA01DF91CF911F910F91FF90EF9034
:1027F00008958FEF9FEF08958FEF9FEF0895282F93
:102800008F3F11F420E006C0882321F099270E9411
:102810002786282F822F992787FD909508958F92DC
:102820009F92AF92BF92CF92DF92EF92FF920F935F
:102830001F93FC016A017B01838180FF07C0CB01EC
:10284000BA016F5F7F4F8F4F9F4F69C08081828831
:102850009388A488B588609182087091830881303C
:10286000A9F5A7019601A7E05695479537952795B5
:10287000AA95D1F7280D391D4A1D5B1D01E010E016
:1028800081810E9405128091820890918308F6014F
:10289000EF77F070EE0FFF1FEE0FFF1FE80FF91F2D
:1028A00060817181828193819F706F3F2FEF7207EA
:1028B0002FEF82072FE0920771F1673F2FEF72072A
:1028C0002FEF82072FE0920751F525C055274F2D96
:1028D0003E2D2D2D280D391D4A1D5B1D01E010E0F8
:1028E00081810E9405128091820890918308F601EF
:1028F000F070EE0FFF1FE80FF91F208131818FEF7D
:102900002F3F380741F08FEF273F380721F0B901FB
:102910008827992704C060E070E080E090E01F9174
:102920000F91FF90EF90DF90CF90BF90AF909F906E
:102930008F9008952F923F924F925F926F927F9265
:102940008F929F92AF92BF92CF92DF92EF92FF92BF
:102950000F931F93CF93DF93CDB7DEB76A970FB670
:10296000F894DEBF0FBECDBF988B8F877A8B698BB3
:102970005C8B4B8B18012901FE8AED8AD88ECF8A99
:10298000D7011D921D921D921C921397DA010D9092
:102990000020E9F71197A41BB50BCD010C966DE053
:1029A00070E00E94F285F62FF064F983F53E09F499
:1029B00096C18DE0689F900111243B832A832F33B9
:1029C00031050CF08CC17901BF2E1E86CC24DD248C
:1029D00080C1B201A1018F8598890E94CA136887BE
:1029E00079878A879B87EF85F8898281282F33270B
:1029F0003D872C8731E0231631044104510479F4DA
:102A00008081882361F482859385A485B585888734
:102A10009987AA87BB87268137813D872C87688461
:102A200079848A849B8442C1609182087091830872
:102A300001E010E0A4019301EF85F88981810E94F3
:102A4000051220918208309183083F832E83809164
:102A50008408909185089D838C833A8F298F9E8569
:102A6000913019F4E98DFA8D1DC02F89388D232BF3
:102A700099F5A98DBA8D8C91853E71F1882361F10C
:102A80004BE050E069897A89CD010E942685892B27
:102A900019F5E989FA899385E98DFA8D838589236A
:102AA0008917D1F484899589AA27BB27AC013327DC
:102AB0002227828D938DAA27BB27282B392B4A2BBF
:102AC0005B2B848D958DA68DB78DED89FE898083D6
:102AD0009183A283B38307C1E98DFA8D83858F30FB
:102AE00009F0D0C0A080AB1409F0CCC0B6FE0DC078
:102AF000BFEBAB2EAB20AC81BD81AE0DBF1D1C92D8
:102B00000894E108F108CC80DD80E98DFA8D868D8E
:102B1000978D0E94FF13F601EE0DFF1D8083870144
:102B200001501040E98DFA8D848D958D0E94FF1320
:102B3000F601E00FF11F808301501040E98DFA8DFE
:102B4000808D918D0E94FF13F601E00FF11F8083AD
:102B500001501040E98DFA8D868997890E94FF13F4
:102B6000F601E00FF11F808301501040E98DFA8DCE
:102B7000848995890E94FF13F601E00FF11F80837D
:102B800001501040E98DFA8D828993890E94FF13CC
:102B9000F601E00FF11F808301501040E98DFA8D9E
:102BA000808991890E94FF13F601E00FF11F808355
:102BB00001501040E98DFA8D868597850E94FF139C
:102BC000F601E00FF11F808301501040E98DFA8D6E
:102BD000818592850E94FF13F601E00FF11F80832B
:102BE00001501040E98DFA8D878190850E94FF1376
:102BF000F601E00FF11F808301501040E98DFA8D3E
:102C0000858196810E94FF13F601E00FF11F8083FA
:102C100001501040E98DFA8D838194810E94FF1349
:102C2000F601E00FF11F808301501040E98DFA8D0D
:102C3000818192810E94FF13F601E00FF11F8083D2
:102C4000BA2CBA9429F078010894E108F1081AC066
:102C5000AB89BC890D900020E9F711972B893C893D
:102C6000A21BB30BAD01B601C9010E942685892BB9
:102C700031F4EA80FB80B98031E03E8703C0EA800E
:102C8000FB80B980898D9A8D80969A8F898F8E81ED
:102C90009F8180509E4FA98DBA8DA817B90709F062
:102CA000DECE0894611C711C811C911CC301E88557
:102CB000F9858E1B9F0B2C853D85821793070CF49D
:102CC000B3CEB201A1018F8598890E940F141B0118
:102CD0002C01211431044104510409F07ACE20E082
:102CE00030E040E050E0CA01B9016A960FB6F894AE
:102CF000DEBF0FBECDBFDF91CF911F910F91FF902F
:102D0000EF90DF90CF90BF90AF909F908F907F908B
:102D10006F905F904F903F902F9008958CEE98E0C9
:102D20000E94236008958CEE98E00E94236008952D
:102D300040E050E060E070E08CEE98E00E94766049
:102D400008952F923F924F925F926F927F928F924F
:102D50009F92AF92BF92CF92DF92EF92FF920F932A
:102D60001F93CF93DF93CDB7DEB728970FB6F894B4
:102D7000DEBF0FBECDBF8C016B015E834D830E9411
:102D800098160115110509F4F6C0F80104811581A2
:102D900018870F830115110509F4EDC06D817E813F
:102DA0006115710509F4E7C0F801E484F58406852E
:102DB00017852081318142815381E216F306040791
:102DC000150708F0D2C0CB01AA2797FDA095BA2F0E
:102DD0008E0D9F1DA01FB11F281739074A075B07DB
:102DE00020F42E193F093E832D83EF81F885008C56
:102DF000F18DE02DFC83EB83DA82C982248035805B
:102E00004D805E80ABC0EF81F885608871888288D4
:102E100093885101CC24DD244085518562857385DA
:102E20008B819C810E94CA137B018C01C401B30178
:102E3000A60195010E940586442737FD4095542F31
:102E40002E0D3F1D401F511F609182087091830815
:102E500001E010E0EB81FC8181810E940512892B49
:102E600009F079C0C401B301A60195010E9405864D
:102E70006101421453040CF46201CB018C0D9D1DC1
:102E8000281639061CF46101C61AD70A80918208F7
:102E900090918308680F791FA60189819A810E9409
:102EA000338576010027F7FC0095102FEF81F88518
:102EB00024853585468557852E0D3F1D401F511FA2
:102EC000248735874687578780899189A289B38966
:102ED0008E0D9F1DA01FB11F808B918BA28BB38B7A
:102EE00080819181A281B381281739074A075B0746
:102EF00020F081E090E0978B868BEF81F885208928
:102F0000318942895389EB81FC81868D978DA0A1FF
:102F1000B1A1281739074A075B07A0F0EF81F885B0
:102F200040855185628573858B819C810E940F1439
:102F3000EF81F8856087718782879387108A118A6D
:102F4000128A138A69817A816C0D7D1D7A83698367
:102F50004C185D0803C08DEF9FEF09C04114510468
:102F600009F051CF0D811E8108C08EEF9FEFEF81D8
:102F7000F885958B848B00E010E00E949316C801C1
:102F800028960FB6F894DEBF0FBECDBFDF91CF916C
:102F90001F910F91FF90EF90DF90CF90BF90AF9077
:102FA0009F908F907F906F905F904F903F902F9069
:102FB0000895EF92FF920F931F93CF93DF93EC014D
:102FC0000E949816209749F0EC81FD81309729F0F6
:102FD000E080F1800281138108C00FEFE02E0FEF37
:102FE000F02E0FEF002F0FEF102F0E949316C80145
:102FF000B701DF91CF911F910F91FF90EF9008954E
:10300000CF93DF93EC010E949816209719F4CFEF2D
:10301000DFEF0BC08C819D81009711F00E94215839
:10302000CE010E942158C0E0D0E00E949316CE014C
:10303000DF91CF9108950F931F938C010E949816F2
:10304000012B11F4109288080E9493161F910F9182
:1030500008952F923F924F925F926F927F928F923C
:103060009F92AF92BF92CF92DF92EF92FF920F9317
:103070001F93CF93DF93CDB7DEB724970FB6F894A5
:10308000DEBF0FBECDBF182F0E949816809180081A
:1030900090918108892B41F480E490E00E94AE5722
:1030A000909381088093800880918408909185088E
:1030B000892B41F480E490E00E94AE5790938508FC
:1030C000809384088091820890918308892B59F419
:1030D00080E092E00E94AE5790938308809382082C
:1030E000892B09F445C18091800890918108892B32
:1030F00009F43EC18091840890918508892B09F4D8
:1031000037C182E2189FF0011124EA57F74F11925C
:103110008A95E9F7E12EFF242701440C551CC701CD
:1031200035E0880F991F3A95E1F7480E591E26E8B9
:1031300038E0420E531EF2011183812F0E94AA1221
:10314000F20195838483812F0E944110019721F41D
:10315000F201838181608383812F0E944410019753
:1031600021F4F201838182608383F201848195815D
:103170008050924019F001E010E0FCC0F201838120
:1031800081FF05C020E230E040E050E038C06091AF
:1031900082087091830801E010E020E030E040E018
:1031A00050E08E2D0E9405128C01892B09F0E2C09F
:1031B000E0918208F0918308E250FE4F8081918176
:1031C000EE5FF14085559A4A09F0D4C0E653FE4FB0
:1031D00080819181A281B381EA5CF1400097A105D1
:1031E000B10509F4C7C0EA53FE4F20813181428105
:1031F0005381211531054105510509F4BBC060918A
:1032000082087091830801E010E08E2D0E94051263
:1032100020908208309083084EEF51E0240E351E36
:10322000D1018D919C91E2E0FEEF2E0E3F1E85555F
:103230009A4A09F09DC0F1018585F2018283F1016E
:10324000268937892115310571F0C901AA27BB27C5
:1032500089839A83AB83BC83D2011C9281E090E086
:10326000A0E0B0E010C0F10124A135A146A157A112
:1032700029833A834B835C8381E0D2018C9384A5BC
:1032800095A5A6A5B7A5F20186879787A08BB18BD8
:10329000F101638574858189928925E0880F991FE2
:1032A0002A95E1F7860F971F01970E94DE853B0163
:1032B00088249924E684F78400271127A48CB58CF0
:1032C000C68CD78CAE0CBF1CC01ED11EF201A28AC8
:1032D000B38AC48AD58A29813A814B815C81A20E46
:1032E000B31EC41ED51EA68AB78AC08ED18EF10128
:1032F00060897727882799270E94B385F101248D5B
:10330000358D468D578DE20EF31E041F151FE60CFA
:10331000F71C081D191DE60EF71E081F191FF201E4
:10332000E28EF38E048F158FF10185859927F201C6
:1033300024813581AC01429FC001439F900D529F73
:10334000900D1124AA27BB27868F978FA0A3B1A326
:10335000668277828086918629813A814B815C8161
:10336000A20EB31EC41ED51EA286B386C486D58601
:1033700000E010E00E949316C80124960FB6F8945E
:10338000DEBF0FBECDBFDF91CF911F910F91FF9098
:10339000EF90DF90CF90BF90AF909F908F907F90F5
:1033A0006F905F904F903F902F9008952F923F9293
:1033B0004F925F926F927F928F929F92AF92BF9245
:1033C000CF92DF92EF92FF920F931F93CF93DF93F1
:1033D000CDB7DEB72E970FB6F894DEBF0FBECDBFC8
:1033E000FC01892B09F4A1C2848180330CF49DC2B5
:1033F00082330CF490C2863409F097C28CC20E94CA
:10340000981680918A0890918B080E94AE579E87EB
:103410008D87892B09F489C230908708832D0E94FB
:103420008C122B013C0180EE9FEFAFEFBFEF480EF7
:10343000591E6A1E7B1EE6E9F2E09F012C5F3F4F9A
:1034400080819181A281B38184159505A605B70578
:1034500038F0D9018C919927282E882341F00CC08F
:103460002B5F3F4F3596B2E0283B3B0749F78D85F0
:103470009E850E94215859C29927AA27BB27898374
:103480009A83AB83BC83C301B20129813A814B810A
:103490005C810E940586DA01C90102E0880F991F4C
:1034A000AA1FBB1F0A95D1F781509E4FAF4FBF4F48
:1034B00019E0B695A795979587951A95D1F78987BD
:1034C0009A87AB87BC874C015D01880C991CAA1CAC
:1034D000BB1C89819A81AB81BC81815A9F4FAF4FC0
:1034E000BF4F880E991EAA1EBB1E8F559040A0404C
:1034F000B04089839A83AB83BC8340918A08509102
:103500008B0860E070E08D859E850E943C85CC2410
:10351000DD24760110C001E010E0A70196016D8561
:103520007E85832D0E940411892B51F40894C11CBF
:10353000D11CE11CF11CC814D904EA04FB0459F79E
:1035400080E090E00E94B9806D837E838F839887AE
:1035500040918A0850918B0860E070E08D859E85CF
:103560000E943C85AD85BE85A254BE4F1D9281E070
:103570008D938D931D928BE08D931D921C921296CC
:10358000EFE3AE2EB12CC12CD12CFD01A192B19252
:10359000C192D192DF014082518262827382AA5C21
:1035A000B140BE87AD877EEFE72E71E0F72EEA0EC1
:1035B000FB1E65E5862E6AEA962EF70191828082CF
:1035C00001E010E020E030E040E050E0BD01832D5C
:1035D0000E9404118C01892B09F005C140918A08D1
:1035E00050918B0860E070E08D859E850E943C853F
:1035F0008BEEAD85BE858C9388E5FD01818380E9E6
:1036000082830DE4038393E5948384E485831FE43C
:103610001683978385E380878EE2818780E38287A4
:1036200080E092E094878387258680E290E0978708
:10363000868782E0808B128A118A148A138A88EF27
:10364000858B178A168A8FE390E0918F808F8FEF9A
:1036500090E0938F828FED85FE85A48EB58EC68E09
:10366000D78E40A251A262A273A289859A85AB85AA
:10367000BC8584A395A3A6A3B7A311A610A613A6E1
:1036800012A652E0A52EB12CC12CD12CED85FE85C1
:10369000A4A6B5A6C6A6D7A681E090E091AB80AB64
:1036A00086E090E093AB82ABE05CFF4F10823296F5
:1036B00089E28193FE87ED876D817E818F81988578
:1036C000A30192010E94B385AD85BE856D937D9364
:1036D0008D939D938EE48D931D9390E29D938D9396
:1036E00021E42D930D9385E48D939D939D939D935C
:1036F0009D9386E48D932D9384E58D9383E38D9341
:1037000082E38D939D939D939C93A955B040BE8772
:10371000AD87F7019182808201E010E02FE330E075
:1037200040E050E0BD01832D0E9404118C01892BE3
:1037300009F059C001E010E025E430E040E050E03D
:103740006D857E85832D0E940411892B09F0E7C0C9
:1037500040918A0850918B0860E070E08D859E85CD
:103760000E943C8581EA9FEFAFEFBFEF480E591EE4
:103770006A1E7B1E82E592E5A1E6B1E4ED85FE8539
:1037800080839183A283B383EC51FE4F82E792E75B
:10379000A1E4B1E681939193A193B193FE87ED8764
:1037A000C301B20129813A814B815C810E94058667
:1037B000AD85BE852D933D934D935D93FD01A08214
:1037C000B182C282D382EC5EF140FE87ED87D701E1
:1037D0008D929C9220E430E040E050E0BF01832DC8
:1037E0000E9404118C010115110509F086C0409159
:1037F0008A0850918B0860E070E08D859E850E945C
:103800003C852D853E8588EF9FEFAFEFBFE0F90146
:1038100081939193A193B1939F018FEF9FEFAFEFAE
:10382000BFE0ED85FE8584839583A683B783F90188
:1038300084839583A683B78301E010E02FE530E011
:1038400040E050E06D857E85832D0E9404118C013F
:10385000892B09F052C0C984DA84EB84FC848FE59B
:1038600090E0A0E0B0E0C80ED91EEA1EFB1E01E009
:1038700010E0A70196016D857E85832D0E940411BD
:10388000892B09F04CC040918A0850918B0860E068
:1038900070E08D859E850E943C8595E4AD85BE8552
:1038A0009C9324E5FD01218388E48283938382E550
:1038B00084838EE4858385E58683278380E2808701
:1038C0008187828788E08387158A148A138E128EF7
:1038D000ED85FE85148E158E168E178E89859A8538
:1038E000AB85BC85C80ED91EEA1EFB1EA70196013A
:1038F000BF01832D0E9404118C018D859E850E943D
:1039000021580E949316012B81F4832D0E942918BF
:10391000009769F00AC06050704139F470CD8D8510
:103920009E850E9421580E9493168FEF9FEF2E963E
:103930000FB6F894DEBF0FBECDBFDF91CF911F91C0
:103940000F91FF90EF90DF90CF90BF90AF909F903E
:103950008F907F906F905F904F903F902F90089541
:103960000F931F93CF93DF938C0180E092E00E942E
:10397000AE57EC01892B31F0802F0E942918CE011F
:103980000E942158DF91CF911F910F910895EF92DE
:10399000FF920F931F93CF93DF93FC0180917E08DA
:1039A00090917F080097A9F58281863409F03FC085
:1039B00083818134E1F584818435C9F584859585D9
:1039C0000797A9F537C04BE158E160EB7CE180E057
:1039D00090E00E9476138C01892B19F00EEF1FEFF7
:1039E00014C0B70180E090E00E94C012C0E0D0E0B7
:1039F0008C2F0E9429182196C330D105C9F781E088
:103A000090E090937F0880937E08C7010E94215820
:103A10001CC0019761F48281863449F483818D341E
:103A200031F48481803319F400E010E00EC00FEF10
:103A30001FEF0BC00E948E1680E092E00E94AE57EE
:103A40007C01892B09F0BFCFEFCFC801DF91CF9167
:103A50001F910F91FF90EF9008952F923F924F92F8
:103A60005F926F927F928F929F92AF92BF92CF920E
:103A7000DF92EF92FF920F931F93CF93DF93CDB717
:103A8000DEB7A6970FB6F894DEBF0FBECDBF9EA3DC
:103A90008DA34B0180917E0890917F08892B21F4A2
:103AA0008DA19EA10E94C71C0E949816609080085C
:103AB000709081088DA19EA1009709F422C1FC019C
:103AC000848180330CF41DC182330CF41DC1863413
:103AD00009F017C119C1F4018081882309F411C1CB
:103AE0008AE190E00E94AE575C0180919808909125
:103AF0009908A0919A08B0919B080097A105B1057B
:103B000009F41AC1A114B10409F4FBC0F4018081C5
:103B10008E3209F4E7C08AE1F50111928A95E9F73E
:103B200020909408309095084090960850909708FF
:103B3000F40180818F3209F006C102C1FFE3EF1664
:103B4000F1040CF003C183010E0D1F1D992787FDA1
:103B500090950E942786F80180830894E11CF11C4F
:103B60000894811C911CF40180818F3209F4D2C029
:103B70008C3509F4CFC0882309F7CCC06EE270E021
:103B8000C3010E944385009721F409301105D8F53F
:103B90000BC0DC011196FD0101900020E9F731977F
:103BA000EA1BFB0B349778F58E010B5F1F4F80E209
:103BB000F80111928A95E9F748E050E060E270E080
:103BC000C8010E943C8543E050E060E270E0CE0115
:103BD0000D960E943C85D801F301930104C08D939A
:103BE0002F5F3F4F319680818E3219F08823B9F7CD
:103BF0000DC0F901DE011D9601C08D9381813196C2
:103C00008823D9F703C021E030E002C020E030E093
:103C1000F40180818F3209F448C08C3509F445C025
:103C2000882309F05FC080E2888B8091890880FD3D
:103C30008DC086E8882E88E0982E69017E01089460
:103C4000E11CF11C92018101A301BE016B5F7F4F5A
:103C5000C4010E949A149B01AC0161157105810594
:103C6000910509F473C089819A81AB81BC81F5010A
:103C700080839183A283B3832483358346835783D0
:103C800020873187428753871486158616861786C4
:103C9000108A118A128A138A918E808E158A148A4C
:103CA000178A168A80E090E053C080E1888B80916B
:103CB000890880FD4BC069017E010894E11CF11C5C
:103CC00092018101A301BE016B5F7F4F86E898E0FE
:103CD0000E949A141B012C01611571058105910543
:103CE000A9F12EC0C5010E9421580BC086E090E0CA
:103CF0000E94AE578C01009771F5C5010E942158B2
:103D000033C00FEF1FEF30C080918808882309F07F
:103D1000E2CEF7CFE60CF71CF7011082F301019019
:103D20000020E9F78F0101501040061917090D30E6
:103D3000110508F068CF22CFA114B10499F6E1CFA4
:103D40000894811C911CEE24FF240DCF81E090E0AB
:103D5000019761F6C7CFFC01118210828DA19EA14F
:103D600093838283B582A4820E949316C801A6968B
:103D70000FB6F894DEBF0FBECDBFDF91CF911F917C
:103D80000F91FF90EF90DF90CF90BF90AF909F90FA
:103D90008F907F906F905F904F903F902F900895FD
:103DA0008FEF9FEF08952F923F924F925F926F9205
:103DB0007F928F929F92AF92BF92CF92DF92EF92BB
:103DC000FF920F931F93CF93DF935C016B014A0126
:103DD00029013801170181E090E00E940310C0E042
:103DE000D0E07601850109C0F80181918F010E9420
:103DF000F80FF70181937F012196C815D905A4F327
:103E0000C0E0D0E07301820109C0F80181918F0107
:103E10000E94F80FF70181937F012196C215D30507
:103E2000A4F30E94E00F80E090E0DF91CF911F911A
:103E30000F91FF90EF90DF90CF90BF90AF909F9049
:103E40008F907F906F905F904F903F902F9008954C
:103E5000EF92FF920F931F93CF93DF93CDB7DEB70F
:103E600022970FB6F894DEBF0FBECDBF87ED8983D2
:103E70008FEF8A83EE24FF2400E010E020E030E0A2
:103E800042E050E0CE010196BC010E94D31E892B76
:103E900019F08FEF90E002C08A81992722960FB621
:103EA000F894DEBF0FBECDBFDF91CF911F910F9170
:103EB000FF90EF9008950F931F930E94281F0E9478
:103EC000281F082F60E070E02091EE083091EF0885
:103ED0000EC06F5F7F4F808580239185891739F4ED
:103EE0008AE0189F900111242C543D4F18C0162FC2
:103EF000462F5527FA01EE0FFF1FCA01A3E0880FD6
:103F0000991FAA95E1F7E80FF91FEC54FD4F808146
:103F10009181A281B3810097A105B105D1F63093BB
:103F2000EF082093EE08CA011F910F910895EF92B8
:103F3000FF920F931F93CF93DF937B018C01EA01D4
:103F400019C0209731F461E070E080E090E00E94B9
:103F50008E5D0894E108F108010911098FEFE81658
:103F60008FEFF8068FEF08078FEF180719F48FEF20
:103F70009FEF06C00E94281F87FFE3CF80E090E0FC
:103F8000DF91CF911F910F91FF90EF9008955F9275
:103F90006F927F928F929F92AF92BF92CF92DF9259
:103FA000EF92FF920F931F93CF93DF93582E4A0106
:103FB0005B01E90138018701293031051CF08FEFE1
:103FC0009FEF23C0A90160E070E080EF98E00E94BD
:103FD0003C855092F00881149104A104B10469F069
:103FE000C501AA27BB278093F108BB27AB2D9A2DCB
:103FF000892D8093F2088092F30876019301AE0137
:1040000060EF78E0CB010E94D31EDF91CF911F912A
:104010000F91FF90EF90DF90CF90BF90AF909F9067
:104020008F907F906F905F9008958F929F92AF9244
:10403000BF92CF92DF92EF92FF920F931F93CF9395
:10404000DF934B015C018A016901C9010E94DE8096
:10405000EC01009719F40FEF1FEF36C07C0124E04C
:1040600030E040E050E060E070E084E80E94C71F6C
:10407000892B29F5E091EE08F091EF08068004C045
:10408000880C991CAA1CBB1C0A94D2F7CC24DD24F2
:10409000EE24FF2400E010E024E030E0B501A401AC
:1040A00083E80E94C71F892B51F441E050E068EE7D
:1040B00073E080E090E00E94971F8C0102C00FEF38
:1040C0001FEFCE010E94DB80C801DF91CF911F91CD
:1040D0000F91FF90EF90DF90CF90BF90AF909F90A7
:1040E0008F900895CF92DF92EF92FF920F931F93DC
:1040F000E091EE08F091EF08068004C0660F771F8C
:10410000881F991F0A94D2F769017A018A0128E071
:1041100030E0AB01BC0188EE0E94C71F1F910F91D8
:10412000FF90EF90DF90CF900895CF92DF92EF92C3
:10413000FF920F931F93AA27BB27CC24DD24EE24E4
:10414000FF2400E010E024E030E0AC01BD0181E894
:104150000E94C71F1F910F91FF90EF90DF90CF90AB
:10416000089560957095809590952091F80830910C
:10417000F9084091FA085091FB0826233723482379
:1041800059232093F8083093F9084093FA08509384
:10419000FB0880E090E00895AF92BF92CF92DF924B
:1041A000EF92FF920F931F93CF93DF93CDB7DEB7BC
:1041B00022970FB6F894DEBF0FBECDBF9B015A0108
:1041C000492F552749838A83CC24DD247601850134
:1041D00042E050E0BE016F5F7F4F87E50E94937120
:1041E0008A159B0519F480E090E002C08FEF9FEFE5
:1041F00022960FB6F894DEBF0FBECDBFDF91CF91F0
:104200001F910F91FF90EF90DF90CF90BF90AF90F4
:104210000895AF92BF92CF92DF92EF92FF920F93E9
:104220001F93CF93DF93CDB7DEB722970FB6F894E5
:10423000DEBF0FBECDBF9B015A0119828A83CC24F9
:10424000DD2476018A0142E050E0BE016F5F7F4FBE
:104250008FE60E9493718A159B0519F480E090E027
:1042600002C08FEF9FEF22960FB6F894DEBF0FBE0D
:10427000CDBFDF91CF911F910F91FF90EF90DF9015
:10428000CF90BF90AF9008950F931F93CF93DF937C
:10429000CDB7DEB721970FB6F894DEBF0FBECDBF06
:1042A0008C0141E050E0BE016F5F7F4F8FE30E94C1
:1042B0000921892BE9F489819927AA27BB27209115
:1042C000F8083091F9084091FA085091FB08822BC8
:1042D000932BA42BB52B8093F8089093F908A09307
:1042E000FA08B093FB08F80180839183A283B3831B
:1042F0008091F8089091F90821960FB6F894DEBFE6
:104300000FBECDBFDF91CF911F910F910895CF9335
:10431000DF93CDB7DEB724970FB6F894DEBF0FBE9C
:10432000CDBF80E00E948F70009721F4CE010196EE
:104330000E94442124960FB6F894DEBF0FBECDBF75
:10434000DF91CF910895EF92FF920F931F93CF9338
:10435000DF93CDB7DEB728970FB6F894DEBF0FBE58
:10436000CDBF8C0148E050E0BE016F5F7F4F80E31E
:104370000E9409217C01892B09F073C02981822FB9
:1043800082958F706AE0869FC00111242F70820F82
:10439000911DD8018D939C932A81822F82958F70D5
:1043A000869FC00111242F70820F911DF801938305
:1043B00082832B813327C9018F739070B4E0959568
:1043C0008795BA95E1F7AC01A3E0440F551FAA9574
:1043D000E1F7880F991F840F951F2F703070820F9F
:1043E000931F958384832C81822F82958F70869F63
:1043F000C00111242F70820F911D978386832D8118
:10440000822F82958F70869FC00111242F70820F9A
:10441000911D0197918780878E81282F22952F707B
:10442000269FA001112499278F7090708C599F4F5F
:10443000480F591F538742872885822F82958F7096
:10444000869FC00111242F70820F911D4A9724F07E
:104450004C595F4F538742878F819927F801958781
:104460008487C70128960FB6F894DEBF0FBECDBF74
:10447000DF91CF911F910F91FF90EF900895AF9230
:10448000BF92CF92DF92EF92FF920F931F93CF9341
:10449000DF93CDB7DEB723970FB6F894DEBF0FBE1C
:1044A000CDBF19822FE32A835E010894A11CB11CA1
:1044B000892BA1F082E08B83CC24DD24760100E0FF
:1044C00010E020E030E043E050E0B5018FE60E94CC
:1044D0009371009789F486E08B8306C01B82CC24FD
:1044E000DD24760100E010E020E030E043E050E021
:1044F000B5018FE60E94937123960FB6F894DEBF44
:104500000FBECDBFDF91CF911F910F91FF90EF9024
:10451000DF90CF90BF90AF900895AF92BF92CF92AF
:10452000DF92EF92FF920F931F93CF93DF93CDB75C
:10453000DEB721970FB6F894DEBF0FBECDBF13E1F3
:10454000A12EB12C0FC061E070E080E090E00E94ED
:104550008E5D0894A108B108A114B10419F48FEF7D
:104560009FEF14C0CC24DD24760101E010E09E0111
:104570002F5F3F4F40E050E060E070E087E50E9431
:1045800093718F5F9F4FF9F280E090E021960FB614
:10459000F894DEBF0FBECDBFDF91CF911F910F9179
:1045A000FF90EF90DF90CF90BF90AF9008952F9243
:1045B0003F924F925F926F927F928F929F92AF92B3
:1045C000BF92CF92DF92EF92FF920F931F93CF9300
:1045D000DF933C014A012B0100E010E046C0C3011B
:1045E0008F73907020E430E0281B390B540128159C
:1045F000390508F4590182E0282E312C2A0C3B1C85
:10460000C1010E94DE80EC01892BA1F1872D992741
:1046100088836982A501B201CE0102960E9433858A
:1046200081E090E00E943F228C01892B31F5CC245F
:10463000DD24760100E010E020E030E0A101BE01C1
:1046400087E50E9493718C01CE010E94DB800115E9
:104650001105B1F40E948D228C01892B89F48A18EE
:104660009B086A0C7B1C4A0C5B1C8114910409F0AA
:10467000B6CF06C00FEF1FEF03C0CE010E94DB8054
:1046800080E090E00E943F22C801DF91CF911F910E
:104690000F91FF90EF90DF90CF90BF90AF909F90E1
:1046A0008F907F906F905F904F903F902F900895E4
:1046B0008F929F92AF92BF92CF92DF92EF92FF9232
:1046C0000F931F93CF93DF934C015B01EA0181E0CD
:1046D00090E00E943F228C01892BC1F4CC24DD2480
:1046E000760100E010E020E030E0AE01B5018FE699
:1046F0000E9493718C01892B29F4892819F00E945A
:104700008D228C0180E090E00E943F22C801DF9161
:10471000CF911F910F91FF90EF90DF90CF90BF90BE
:10472000AF909F908F900895EF92FF920F931F93F9
:10473000CF93DF93CDB7DEB72A970FB6F894DEBFDD
:104740000FBECDBF8B017A012AE0FE013196119296
:104750002A95E9F723E0880F991F2A95E1F78A83C4
:104760006115710509F47AC040FF12C0FB01408158
:104770005181842F6AE00E94D285282F2295207FC4
:10478000CA016AE070E00E94F285280F20682B833E
:10479000E1FE12C0F80142815381842F6AE00E9439
:1047A000D285282F2295207FCA016AE070E00E94FE
:1047B000F285280F20682C83E2FE12C0F8014481A4
:1047C0005581842F6AE00E94D285282F2295207F70
:1047D000CA016AE070E00E94F285280F20682D83EC
:1047E000E3FE12C0F80146815781842F6AE00E94DF
:1047F000D285282F2295207FCA016AE070E00E94AE
:10480000F285280F20682E83E4FE14C0F80140854D
:104810005185842F8F5F6AE00E94D285282F2295D0
:10482000207FCA0101966AE070E00E94F285280F9D
:1048300020682F83E7FE12C0F80144855585842F38
:104840006AE00E94D285282F2295207FCA016AE063
:1048500070E00E94F285280F206829874AE050E026
:10486000BE016F5F7F4F81E090E00E9458232A963F
:104870000FB6F894DEBF0FBECDBFDF91CF911F9171
:104880000F91FF90EF900895EF92FF920F931F9377
:10489000CF93DF93CDB7DEB728970FB6F894DEBF7E
:1048A0000FBECDBF7B018A01FA011182108292E115
:1048B000FB0111929A95E9F748E050E0BE016F5F65
:1048C0007F4F880F880F880F0E940921BC01892B18
:1048D00009F09FC0298127FF20C0F80180819181C4
:1048E0008160918380833327C9018F779070F4E0D2
:1048F00095958795FA95E1F7AC01E3E0440F551FD4
:10490000EA95E1F7880F991F840F951F2F7030707B
:10491000820F931FF701918380833A8137FF13C081
:10492000F80180819181826091838083832F8295B9
:104930008F702AE0829FC00111243F70830F911D68
:10494000F701938382832B8127FF20C0F8018081A8
:1049500091818460918380833327C9018F77907020
:10496000A4E095958795AA95E1F7AC01F3E0440F93
:10497000551FFA95E1F7880F991F840F951F2F7027
:104980003070820F931FF701958384833C8137FF3A
:1049900013C0F80180819181886091838083832F87
:1049A00082958F702AE0829FC00111243F70830F8F
:1049B000911DF701978386833D8137FF14C0F8016D
:1049C00080819181806191838083832F82958F7014
:1049D0002AE0829FC00111243F70830F911D01972F
:1049E000F701918780873F8137FF13C0F8018081ED
:1049F0009181806891838083832F82958F702AE0D4
:104A0000829FC00111243F70830F911DF70195878C
:104A10008487CB0128960FB6F894DEBF0FBECDBFBA
:104A2000DF91CF911F910F91FF90EF9008950F9319
:104A30001F93CF93DF93CDB7DEB72A970FB6F894C5
:104A4000DEBF0FBECDBF8C018AE0FE013196119210
:104A50008A95E9F70115110509F481C080E38A837D
:104A6000F80140815181842F6AE00E94D285282F6D
:104A70002295207FCA016AE070E00E94F285280F2B
:104A80002B8342815381842F6AE00E94D285282F94
:104A90002295207FCA016AE070E00E94F285280F0B
:104AA0002C8344815581842F6AE00E94D285282F6F
:104AB0002295207FCA016AE070E00E94F285280FEB
:104AC00020682D8346815781842F6AE00E94D28519
:104AD000282F2295207FCA016AE070E00E94F285AB
:104AE000280F2E8340855185842F8F5F6AE00E94B6
:104AF000D285282F2295207FCA0101966AE070E0B6
:104B00000E94F285280F2F83428553854436510534
:104B10009CF0842F84566AE00E94D285282F22952B
:104B2000207FCA01845690406AE070E00E94F285BE
:104B3000280F288780E20FC0842F6AE00E94D28568
:104B4000282F2295207FCA016AE070E00E94F2853A
:104B5000280F288789E18A87F801848589874AE0B8
:104B600050E0BE016F5F7F4F80E090E00E945823CD
:104B70002A960FB6F894DEBF0FBECDBFDF91CF915E
:104B80001F910F9108959093010980930009089552
:104B90000E943C0A0895CF92DF92EF92FF920F930A
:104BA0001F93CF93DF936C0160E482E00E94200AA0
:104BB000EE24FF2414C0CE0125E0880F991F2A950A
:104BC000E1F7F80161918F01682B83E00E94200AD0
:104BD0002196C830D10579F70894E11CF11CEC143A
:104BE000FD045CF4870183E0000F111F8A95E1F753
:104BF000085E1C4FC0E0D0E0DECF60E882E00E949B
:104C0000200ADF91CF911F910F91FF90EF90DF90DD
:104C1000CF900895009719F0019751F405C060589E
:104C200082E00E94200A0895605482E00E94200AD7
:104C300008959093FF088093FE08009719F001975C
:104C400031F402C080E001C081E00E94BB0884E032
:104C50000E94BB0808958091FE089091FF0802977A
:104C600019F484E00E94BB088091FC089091FD0833
:104C700018161906DCF48091020990910309019637
:104C80009093030980930209209100093091010952
:104C9000821793075CF01092030910920209109298
:104CA000FD081092FC0880E00E94FD090895CF9352
:104CB000DF93EC01009719F0019781F408C080E0C0
:104CC0000E94FD091092FD081092FC0807C081E0C7
:104CD0000E94FD09D093FD08C093FC08DF91CF919D
:104CE000089561E082E00E94200A85E00E947C5CD9
:104CF0000895AF92BF92CF92DF92EF92FF920F93FF
:104D00001F93CF93DF93EC01FC0101900020E9F7A2
:104D10003197E81BF90BE131F105B0F400E010E048
:104D20007C0107C0F70181917F010E943C0A0F5F5F
:104D30001F4FFE0101900020E9F73197EC1BFD0B9E
:104D40000E171F0778F330C030EFA32E3FEFB32EBE
:104D5000AE0EBF1EEE24FF241EC00E9471266E01FF
:104D6000CE0CDF1C870107C0F60181916F010E9404
:104D70003C0A0F5F1F4FFE0101900020E9F73197B9
:104D8000EC1BFD0B0E171F0778F38AEF0E947C5C6B
:104D90000894E11CF11CAE14BF04FCF668EE73E04D
:104DA00080E090E00E948E5DDF91CF911F910F9186
:104DB000FF90EF90DF90CF90BF90AF9008950F934A
:104DC0001F938C0160E070E00E940A2684E093E06B
:104DD0000E94792660E070E0C8010E940A261F91B7
:104DE0000F9108950E94410A84E090E00E94CB2533
:104DF000089588E393E00E942C8081E090E09093F6
:104E00000509809304090895AF92BF92CF92DF9273
:104E1000EF92FF920F931F93CF93DF93CDB7DEB73F
:104E200021970FB6F894DEBF0FBECDBF5C0119828B
:104E30009C0141E050E061E070E0CE0101960E94EB
:104E4000657F019709F076C02981222319F480E05B
:104E500090E072C0422F5527213278F05F934F9334
:104E600088E493E09F938F930E9405808FEF9FEFDC
:104E70000F900F900F900F905FC08A0184E0000F99
:104E8000111F8A95E1F7C80101960E94DE807C011E
:104E9000892B09F44FC0CC24DD249501A80161E0E1
:104EA00070E0C7018C0D9D1D0E94657F18161906C4
:104EB0000CF040C0081B190B39F0C80ED91EF701C1
:104EC000EC0DFD1D1082E9CFFF92EF928EE693E08C
:104ED0009F938F930E94058046E059E06AE773E054
:104EE000C7010E946C859F938F938CE793E09F93FB
:104EF0008F930E94058080910609909107099F93E6
:104F00008F9387E893E09F938F930E94058081E0C1
:104F100090E00E945726C7010E94DB8080E090E06D
:104F20002DB73EB7245F3F4F0FB6F8943EBF0FBE7C
:104F30002DBF02C08FEF9FEF21960FB6F894DEBF12
:104F40000FBECDBFDF91CF911F910F91FF90EF90DA
:104F5000DF90CF90BF90AF9008952F923F924F92E5
:104F60005F926F927F928F929F92AF92BF92CF92F9
:104F7000DF92EF92FF921F93CF93DF93CDB7DEB70F
:104F800026970FB6F894DEBF0FBECDBF1C013A01C5
:104F90004B0180E090E20E94CE58892B19F482E9FF
:104FA00093E00CC00E94A70C892B31F480E090E0C4
:104FB0000E94F80B892B29F080EB93E00E942C8053
:104FC000C2C080E00E947E0A182F0E94AF58812F35
:104FD0000E947E0A0E94605E6B837C838D839E8329
:104FE00064015301EE24FF24A7C080E00E947E0AE2
:104FF000182FCE0101960E94E9582C01812F0E94A2
:105000007E0A0E94A30A813001F189819A81805031
:10501000944078F00E94605E2B813C814D815E81DE
:10502000621B730B840B950B65307105810591052F
:1050300060F00E94605E6B837C838D839E8380ED35
:1050400093E00E942C800E94740D6114710481040D
:10505000910459F089819A81AA27BB27A816B9061D
:10506000CA06DB0610F4BA82A982F20156C0910189
:1050700061E070E0CF010E94657F7C01892B09F41B
:1050800062C080E00E947E0A182FC7010E944E591C
:105090002C01812F0E947E0A611471048104910405
:1050A00069F0C701AA27BB27A81AB90ACA0ADB0AEE
:1050B00029F4C1010E9404276401530189819A8166
:1050C000E816F90608F530E0E31632E0F306E0F4FE
:1050D0000E949E5A9F938F937F936F938CED93E0E2
:1050E0009F938F930E9405806AEF70E080E090E0CC
:1050F0000E948E5D4DB75EB74A5F5F4F0FB6F89462
:105100005EBF0FBE4DBF02C00E94365CF2018981B6
:105110009A818E199F099A83898349815A81411501
:10512000510539F08091040990910509892B09F402
:105130009ECFE114F10439F08091040990910509A2
:10514000892B09F452CF26960FB6F894DEBF0FBE16
:10515000CDBFDF91CF911F91FF90EF90DF90CF9067
:10516000BF90AF909F908F907F906F905F904F9087
:105170003F902F9008958F929F92AF92BF92CF92BF
:10518000DF92EF92FF920F931F93CF93DF93EC0187
:105190005A016B0179014801CB01BA010E942B45EC
:1051A000FF92EF929F938F938AEE93E09F938F935A
:1051B0000E9405809701B601A501CE010E944741DA
:1051C0002DB73EB72A5F3F4F0FB6F8943EBF0FBED4
:1051D0002DBF892BA9F0CE010E94273D9F938F936D
:1051E0008EEF93E09F938F930E940580CE010E94E3
:1051F0001740EE24FF240F900F900F900F9090C057
:105200008DE194E00E942C8060E274E0CE010E9467
:10521000E17D7C01892B29F484E294E00E942C80BA
:105220007FC00FE314E01F930F938BE494E09F93F0
:105230008F930E9405801F930F938DE594E09F93B9
:105240008F93FF92EF920E94AE7FC601B5010E943C
:105250002B459F938F938FE694E09F938F93FF92BC
:10526000EF920E94AE7FB7018AE794E00E94F47F3C
:10527000B70181E994E00E94F47FB7018FE994E0DF
:105280000E94F47FB70181EB94E00E94F47FB701A4
:1052900085EC94E00E94F47FC7010E94327E80E09A
:1052A00092E00E94DE80EC018DB79EB740960FB66B
:1052B000F8949EBF0FBE8DBF24C06DE070E0CE019C
:1052C0000E944385FC01892B19F488EC94E017C0F7
:1052D000108288818823E9F04CE050E067EE74E0AA
:1052E000CE010E945E85892B49F4CE010C960E9466
:1052F000D984F4016083718382839383CE010E94F9
:105300002C80A70160E072E0CE010E943A7F892BD9
:10531000A1F68AE090E00E942580CE010E94DB8009
:10532000C701DF91CF911F910F91FF90EF90DF9018
:10533000CF90BF90AF909F908F9008952F923F9203
:105340004F925F926F927F928F929F92AF92BF9295
:10535000CF92DF92EF92FF920F931F93CF93DF9341
:10536000CDB7DEB726970FB6F894DEBF0FBECDBF20
:105370002C019F938F9384EF94E09F938F930E94CF
:10538000058020E63AEE40E050E060E070E0C201C7
:105390000E94732D0F900F900F900F90892B09F49E
:1053A0006BC0DE011196E0E9F6E086E001900D9217
:1053B0008150E1F784E095E09F938F930E940580F0
:1053C00020E63AEE40E050E01E010894211C311C1A
:1053D000B101C2010E94732D0F900F90892B09F427
:1053E0004BC086E195E00E94D5445B016C0186E2EA
:1053F00095E00E94D5447B018C0184E395E00E94F6
:10540000D5443B014C0184E495E09F938F930E9427
:105410000580A6019501B101C2010E9437470F9096
:105420000F90892B19F085E595E021C06114710476
:105430008104910409F18AE695E09F938F930E947D
:10544000058098E7C92E97E0D92E8401730120E0EA
:1054500030E040E050E060E070E080E090E00E94EA
:10546000A3430F900F90892B39F48DE795E00E94AC
:105470002C808FEF9FEF69C08DE194E00E942C801B
:105480008091250C99279F938F938091240C9927C5
:105490009F938F938091230C99279F938F93809153
:1054A000220C99279F938F938091210C99279F938A
:1054B0008F938091200C99279F938F9386E995E095
:1054C0009F938F930E9405806091260C7091270C0A
:1054D0008091280C9091290C0E942B459F938F93CB
:1054E0008BEB95E09F938F930E94058060912A0C2F
:1054F00070912B0C80912C0C90912D0C0E942B45BF
:105500009F938F9385EC95E09F938F930E940580E6
:1055100060912E0C70912F0C8091300C9091310C79
:105520000E942B459F938F938FEC95E09F938F93D1
:105530000E94058080E090E02DB73EB7265E3F4F89
:105540000FB6F8943EBF0FBE2DBF26960FB6F89447
:10555000DEBF0FBECDBFDF91CF911F910F91FF90A6
:10556000EF90DF90CF90BF90AF909F908F907F9003
:105570006F905F904F903F902F900895EF92FF9221
:105580000F931F93CF93DF93CDB7DEB760970FB61E
:10559000F894DEBF0FBECDBF8AED95E00E942C804F
:1055A000109205091092040980E092ECA1E0B0E0AD
:1055B0008D879E87AF87B88B85EF95E00E94D54495
:1055C00088E392E29A83898388EB9BE0A0E0B0E0D5
:1055D0008D839E83AF83B88784EB95E09C838B8318
:1055E00040E060E070E082E397E00E940C6140914F
:1055F000E9075091EA0763E076E085E096E00E94D3
:10560000CF7E8091E9079091EA070E94437EAE0128
:10561000435F5F4F61E071E00E94377D0E949558C3
:105620009F938F938BE096E09F938F930E940580CA
:105630008BE196E00E949E290F900F900F900F90A3
:10564000892B09F0FFCF0E94AD407C01009729F41F
:1056500080E296E00E942C80FFCF22E030E0AE0195
:105660004D5F5F4F62E070E00E942640892B21F081
:105670008BE396E00E942C8024E030E0AE014B5F8B
:105680005F4F66E070E1C7010E942640892B21F040
:105690008EE496E00E942C8022E030E0AE014F5F65
:1056A0005F4F62E070E1C7010E942640892B21F024
:1056B00080E696E00E942C8085EF95E00E94D5441C
:1056C000AB01BC018E01075F1F4F20E530E0C70131
:1056D0000E94BB288C01892B71F085E796E00E941F
:1056E0002C8049855A856B857C85C8010E94AD2731
:1056F000C8010E94A17DC7010E9417400E94930A21
:1057000064EF71E080E090E00E948E5DC8010E942D
:10571000A17D82E896E00E942C8064E670E080E043
:1057200090E00E948E5DF9CF8091CF0B9091D00BCD
:105730002BE2873C920729F486E996E00E947926BD
:105740000895895A9B4221F489E996E00E947926BE
:1057500008958930910549F0893091059CF08A308F
:10576000910551F00C9771F407C08DE996E00E9405
:105770002C800E94F92606C087EC9BE29093D00B08
:105780008093CF0B0E9471260E94942B089589303C
:10579000910549F089309105DCF08A30910591F04E
:1057A0000C97B1F40FC088EB96E00E942C8020E0AB
:1057B00032E040E050E068EF7BE284ED96E00E944A
:1057C000086406C089EA9BE29093D00B8093CF0BCC
:1057D0000E9471260E94942B089587EC9BE290937F
:1057E000D00B8093CF0B0E9471260E94942B0895BA
:1057F00087ED96E00E942C800E94BE2A68EE73E03E
:1058000080E090E00E948E5DF9CF8093FB060895C2
:105810000E940C5F20E033E040E050E06EE575E070
:1058200086EF96E00E9408648EEF0E94B25B0E94B1
:10583000365C0E947D5B2091FB062F3FC1F393B73E
:1058400083B7817F822B83BF83B7816083BF8895B5
:1058500083B78E7F83BF83B7817F9E70892B83BF81
:10586000E6CFCF93DF93DC01FC0187E3819393E0E4
:10587000ED019983DF01119681E08183FD01918320
:1058800086E0828385E090E0DF91CF91089580915A
:105890000D099927089580910E0990910F09109292
:1058A0000F0910920E09089520E030E080910D0953
:1058B000853011F421E030E0C9010895DF92EF92C4
:1058C000FF920F931F93CF93DF93D62E79018A0116
:1058D0000E94F060EC01892B51F08B85833039F404
:1058E000EF85F889309719F08081863049F081E1A1
:1058F00090E090930F0980930E098FEF9FEF35C0D2
:105900000E94E45D609318097093190980931A0945
:1059100090931B09E0921409F0921509009316095F
:1059200010931709D0920D0980910B0990910C09E1
:10593000892B69F420E032E0AE0165EE71E38CEF73
:1059400096E00E94086490930C0980930B0980E113
:1059500099E00E94236040E050E060E070E082E166
:1059600099E00E94766080E090E0DF91CF911F91F6
:105970000F91FF90EF90DF900895FC019A01AB0129
:1059800080910D09882349F083E090E090930F09FE
:1059900080930E098FEF9FEF089568E0CF010E947A
:1059A0005E2C0895FC019A01AB0180910D098530B0
:1059B00049F083E090E090930F0980930E098FEFF8
:1059C0009FEF089569E0CF010E945E2C0895CF9269
:1059D000DF92EF92FF920F931F93CF93DF93FC011F
:1059E00084E292E0DF011D920197E9F781E0808374
:1059F000818386E08283DF015C96C0E2DCE009906F
:105A00000D928150E1F724833583468357830C2C14
:105A1000CD2CD02CD186C086E486F58606871787E4
:105A2000DF01A451BF4F93E6FD01919382E8ED01A0
:105A30008983DF01119683E58183FD013196ED01B4
:105A40009983DF01119685E3818381E0FD018183E4
:105A5000628387E090E0DF91CF911F910F91FF90DB
:105A6000EF90DF90CF900895CF93DF93CDB7DEB75F
:105A700022970FB6F894DEBF0FBECDBFDC015A836C
:105A80004983FC0161939F0182E0FD01818389814B
:105A90009A81082E892F902DF9019283818384E0C9
:105AA00090E022960FB6F894DEBF0FBECDBFDF9117
:105AB000CF9108950F931F93CF93DF93DC01CA0119
:105AC000022FFD016193ED0129831127A801BC017B
:105AD000CF0101960E943385C8010296DF91CF91D4
