:100000000C94CD040C943F050C943F050C943F05D3
:100010000C943F050C9482650C9421790C943E66F7
:100020000C943F050C943F050C943F050C943F0540
:100030000C943F050C942A670C943F050C943F05E3
:100040000C943F050C943F050C943F050C943F0520
:100050000C943F050C943F050C943F050C94B4663A
:100060000C943F050C942B730C943F050C94A673D1
:100070000C943F050C943F050C943F050C943F05F0
:100080000C943F050C943F050C943F050C943F05E0
:100090000C9420740C943F050C949B740C94B172D6
:1000A0000C943F050C943F050C943F050C943F05C0
:1000B0000C943F050C943F050C943F050C943F05B0
:1000C0000C943F050C943F050C943F052E6977690D
:1000D000BE69E469F869206A286A4D6A2B696F6A0B
:1000E000B66ABC6AC26AC86AE56ACE6AE56A1B6B10
:1000F000F06A056B5254432074696D65205B2530AE
:1001000032643A253032643A253032645D0A002D7B
:100110002D2D2D2D2D2D2D2D2D2D2D2D2D2D2D2D0F
:100120002D2D2D2D2D2D2D2D2D2D2D2D2D2D2D2DFF
:100130002D2D2D2D2D2D2D2D2D2D2D2D2D2D2D2DEF
:100140002D2D2D2D2D2D2D2D2D2D2D2D2D2D2D2DDF
:100150002D2D2D2D2D2D2D2D2D2D2D2D2D2D2D2DCF
:100160002D2D2D2D2D2D2D2D2D2D2D2D2D2D0077A2
:10017000007561727430000A000A23446562756775
:1001800020000A23496E666F2020000A234E6F74F8
:10019000696320000A235761726E2020000A2345FC
:1001A0007272202020000A23437269742020000A02
:1001B00023416C65727420000A23456D65726720C7
:1001C000003F3F203C444D4B3E200057443A200026
:1001D00056533A200056453A200055543A200055CF
:1001E000443A200055413A200053523A20005350DF
:1001F0003A200053473A200053453A200053543ADE
:10020000200052543A200052433A2000504C3A20E9
:100210000050413A20004D443A20004D4D3A200014
:100220004D453A200053593A20004C473A20004CA3
:10023000453A20004B423A2000494E3A20004854AB
:100240003A2000464C3A200046413A200044503AB9
:100250002000434D3A200043483A200041553A20BF
:100260000030803000170780B0173C0600175000A0
:100270003F24000600162012008F570000CE1012F7
:1002800029009900004D0080404C180600D79600C8
:1002900028550D0000480D0600505B0930420080D3
:1002A000B00180144240BC182840C71336423C00BD
:1002B0003E03B81400031B1500C259D66F2400007A
:1002C0003603981228D55700004D000028402BF324
:1002D0003624004C80103E1438103E0A78133E0D30
:1002E000B8033E05F806009555093015141B00D4D7
:1002F000FF0300CEFF01000A000024CE168AB524B9
:100300000092F200945261240002FE2400B24824BC
:10031000004A4501B6F33605D8F3360D98F0360A93
:100320005800200000F036141861801336240012A3
:100330003E17B8123E1538053E14B8253624000085
:10034000000A80103E03B8944105B8113E24001104
:100350003E07B8143E1278143E0DF8033E0EF80620
:100360000051000028D5240000240088B8120004A1
:100370006405040000240000285821944024000053
:10038000240221000024009864030856FE2400B6CD
:10039000482400D64D2400103A24C0F03224C05620
:1003A000FE2400B6482400D64D240084438344969E
:1003B000638C8800F4D540003D2480060091003F06
:1003C00000C3FE060053000131248060FE2400BEFD
:1003D00048240034A6030C244324008442022C0643
:1003E0000011000028D8240031248006001150009C
:1003F0003924800600110000314C9884424C900052
:10040000F488400028452800002400F03C403809CA
:1004100030413809301038002000000000882709DA
:1004200030D01B002880280930811BF334CC1BF30B
:10043000360ED8F4360DD8F4361258F1360798F146
:10044000360518F036039805341490F3362400F27C
:1004500036151800200000F2361798AD80123E17AE
:10046000B8123E1538053E14B81536240000000AAF
:1004700080103E0278103E04F8113E1078143E12AF
:1004800078132980C9143E24C0132980C988404CA0
:100490001800F405400000C018006424000000C0EB
:1004A0001B00289530300010030028803F013824BD
:1004B00040006424000000401A002855370600D090
:1004C000550000037D84B84C180930053809300008
:1004D000008AFF24001D29007BB24824000000414F
:1004E00018060010508A4044B800290013884024A0
:1004F000000030CC1B14602400300051030028D5CC
:1005000036000024000600110000312400300051A4
:1005100003003824000028803F013924400064246F
:10052000003000D0030028553F0000037D0600D0B6
:100530005584B84C1809300538093000008AFF246A
:10054000001D29007BB24824008A40CC9B0000415A
:10055000180028553B060010509A682400003024EB
:100560000014602400300092030028853E060091AC
:100570000006001100000052180600530080B80069
:1005800024060091000438248030009203003B24AC
:1005900000013924400028803F013A2440013824DA
:1005A0004080B8D31BF4361258F1361058F0360498
:1005B000D8F036025805341490F3362400F236157C
:1005C0001800200000F236179830000000000045A7
:1005D0007869740000000053EF6E00000000457859
:1005E000697453EF6E4DEA6D540000000007060673
:1005F000060606060606060606060606060606069B
:10060000060606060606060606060606060606068A
:10061000060606060606060606060606060606067A
:100620000606060606060706060606060606060669
:10063000060606060606060606060606060606065A
:10064000060606060606060606060606060606064A
:100650000607060606060606060606060606060639
:10066000060606060606060606060606060606062A
:10067000060606060606060606060606060606061A
:10068000060606060606060606060606060606060A
:1006900006060606060606060606060606060606FA
:1006A00006060606060606060606060606060606EA
:1006B00006060606060606060606060606060606DA
:1006C00006060606060606060606060606060606CA
:1006D00006060606060606060606060606060606BA
:1006E00006060606060606060606070606060606A9
:1006F000060606060606060606060606060606069A
:100700000606060606060606060606060606060689
:100710000606060606060606060606060606060679
:100720000606060606060606060606060606060669
:100730000606060606060606060606060606060659
:100740000606060606060606060606060606060649
:100750000606060606060606060606060606060639
:100760000606060606060606060606060606060629
:100770000606060606060606060606060606060619
:100780000606060606060606060606060606060609
:1007900006060606060606060606060606060606F9
:1007A0000606546872656164206661696C65640060
:1007B00043617264507265730043617264207265B4
:1007C0006D6F766564004361726420696E73657253
:1007D000746564004572726F7220696E6974696134
:1007E0006C6973696E672046696C652073797374F0
:1007F000656D20616E6420436172642D6472697658
:1008000065720043617264206D6F756E746564007B
:10081000696E76616C696420537065656400657209
:10082000726F7220647572696E6720435344207240
:1008300065616400FFFFFF30FFFFFFFFFFFFFFFF69
:10084000FFFFFFFFFFFF00000000000000000000AE
:100850000000000000000000000000000000000098
:100860000000000000000000000000000000000088
:100870000000000000000000000000000000000078
:100880000000000000000000000000000000000068
:100890000000000000000000000000000000000058
:1008A0000000000000000000000000000000000048
:1008B0000000000000000000000000000000000038
:1008C0000000000000000000000000000000000028
:1008D0000000000000000000000000000000000018
:1008E0000000000000000000000000000000000008
:1008F00000000000000000000000000000000000F8
:1009000000000000000000000000000000000000E7
:1009100000000000000000000000000000000000D7
:1009200000000000000000000000000000000000C7
:1009300000000000000000000000000000000000B7
:1009400000000000000000000000000000000000A7
:100950000000000000000000000000000000000097
:100960000000000000000000000000000000000087
:100970000000000000000000000000000000000077
:100980000000000000000000000000000000000067
:100990000000000000000000000084E88093740064
:1009A000479A3F9A469A3E9A81EE809300C380E42C
:1009B000809301C385B78F7785BF80E090E0359B3A
:1009C00005C0019641F0359BF8CFFBCF019619F099
:1009D0003599F3CFFBCF85B7806885BF47983F989F
:1009E00046983E9887E08093C4008093CC00112401
:1009F0001FBECFEFD1E2DEBFCDBF17E0A0E0B2E077
:100A0000E2E9FCE001E00BBF02C007900D92A83FB5
:100A1000B107D9F71CE0A8EFB7E001C01D92A332DF
:100A2000B107E1F78FEF9FE79EBF8DBF8FEF9FE785
:100A300083529C408158914040F06FEF7EE76352B3
:100A40007C4083E29CE00E9488580E944B61892B85
:100A500041F060EA76E089E09CE00E9451850E94C6
:100A6000326120E831E040E050E062E07CE289EA77
:100A700096E00E9402640E9400000C9448860C9448
:100A8000000087EF84B98CE08AB98BB18C70836FDA
:100A90008BB98EE88DB98EB18E7881608EB985B7AD
:100AA000806885BF85B7806885BF8EE080BB81B3D5
:100AB0008E70816F81BB88E183BB0895EF92FF92B6
:100AC0000F931F93CF93DF93CDB7DEB762970FB627
:100AD000F894DEBF0FBECDBF0E94630E84E60E9475
:100AE000765C0E9441050E9405100E94E1080E9468
:100AF000470A0E9490060E9444060E94BB088FE0AD
:100B000091E09F938F9316EC1F930E947B070E94A6
:100B1000E90E0E948D21CE0101960E94A9210F901D
:100B20000F900F90892BD9F489819A819F938F938D
:100B30008B819C819F938F938D819E819F938F93B7
:100B400084EF90E09F938F931F930E947B078DB754
:100B50009EB709960FB6F8949EBF0FBE8DBF0E9438
:100B6000611F0E94EF0D0E94BF0940E050E06CEF52
:100B700075E08EED96E00E947561892B49F485B58C
:100B8000846085BDA89A80916E00816080936E001C
:100B90000E94EB2B78940E94065F81E00E94AC5B80
:100BA0000E94A20981E00E94030A45E060E073E828
:100BB00080E397E00E940661892B19F080E092E0C3
:100BC00002C085E192E00E9426800E94A209082FBF
:100BD0001127E016F10631F0E091870BF091880BB8
:100BE000C801199564E670E080E090E00E94885D9D
:100BF0000E94610E7801E9CF0E94E9080E94900EE0
:100C000008958CE292E00E9426800E94C42A64E645
:100C100070E080E090E00E94885DF9CF8091F80755
:100C20009091F90708958091F8079091F90700973E
:100C300031F00E949B7D1092F9071092F8070895F9
:100C4000CF93DF93CDB7DEB724970FB6F894DEBF0E
:100C50000FBECDBF69837A838B839C838091F80715
:100C60009091F9070E943D7EAE014F5F5F4F63E1B7
:100C700071E00E94317D24960FB6F894DEBF0FBE5E
:100C8000CDBFDF91CF910895EF92FF920F931F9305
:100C9000CF93DF93CDB7DEB72D970FB6F894DEBFB5
:100CA0000FBECDBF80E092ECA1E0B0E08C839D83CD
:100CB000AE83BF8388E0E82EF12CEC0EFD1E61E7C9
:100CC00071E0C7010E9403856FE671E08E010F5F3E
:100CD0001F4FC8010E9403854091A1075091A207B0
:100CE000B801C7010E94C97E9093F9078093F80765
:100CF000009749F00E943D7EAE014C5F5F4F61E07E
:100D000071E00E94317D2D960FB6F894DEBF0FBEC4
:100D1000CDBFDF91CF911F910F91FF90EF9008957C
:100D20001092F9071092F80740E060E070E08DE063
:100D300097E00E94066108959091FA07883010F4B8
:100D40008093FA07892F992708952F923F924F9207
:100D50005F926F927F928F929F92AF92BF92CF924B
:100D6000DF92EF92FF920F931F93CF93DF93CDB754
:100D7000DEB7CD54D0400FB6F894DEBF0FBECDBF66
:100D80007C016B011A01892B09F48EC094E0692E55
:100D9000712C44245524AA24BB24A0E0B0E000E038
:100DA00010E07EC0C5018F709070892B69F54DE40D
:100DB00050E060E270E08E010F5F1F4FC8010E949B
:100DC00036859301220F331F220F331F24503040EA
:100DD00040E050E0D801F201022E02C0F695E795FE
:100DE0000A94E2F7EF70F070E45CFD4F80818D9320
:100DF0004F5F5F4F245030404615570561F7D301D0
:100E0000129683010C5C1F4FF6019081E92FE29549
:100E1000EF70FF27E45CFD4F50814D010894811C69
:100E2000911CE92FFF27EF70F070E45CFD4F4081CB
:100E3000892F80528F3510F08EE201C0892F9E01DC
:100E40002F5F3F4FA20FB31F5C93F901E80DF91D0F
:100E50004083F901E00FF11F80830F5F1F4F08945B
:100E6000A11CB11CC5018F709070892B19F0A214C0
:100E7000B30489F4F901E00FF11F1082B701C90131
:100E80000E94EE7FB7018AE090E00E94C67F80E179
:100E900090E0480E591E0894C11CD11CD401129632
:100EA000A214B30409F07ECFC35BDF4F0FB6F894F2
:100EB000DEBF0FBECDBFDF91CF911F910F91FF908D
:100EC000EF90DF90CF90BF90AF909F908F907F90EA
:100ED0006F905F904F903F902F9008956091FB0727
:100EE0007091FC076115710529F0992787FD909590
:100EF0000E94C67F08951F93CF93DF93CDB7DEB7CF
:100F000022970FB6F894DEBF0FBECDBF1985609152
:100F1000FB077091FC076115710509F410C1212FC1
:100F20003327277030708091FA079927821793072B
:100F30000CF405C1812F87708330F1F0843028F4E0
:100F40008130A1F08230A8F40EC08530D9F0853010
:100F5000B0F08630D1F0873019F489E791E017C0FE
:100F600087E791E014C088EB91E011C08FEA91E02F
:100F70000EC086EA91E00BC08DE991E008C084E9DB
:100F800091E005C08BE891E002C082E891E00E9408
:100F900048806091FB077091FC07212F287F28373C
:100FA00009F4AAC0293790F5283309F499C02933E8
:100FB000B0F4283109F48EC0293138F4283009F40E
:100FC00086C0203109F053C055C0283209F485C0CD
:100FD000203309F455C0203209F049C04EC02835ED
:100FE00009F484C0293548F4283409F47CC020353C
:100FF00009F44CC02034D9F546C0283609F479C02C
:10100000203709F449C0203691F543C0283B09F444
:101010007FC0293BA8F4283909F474C0293940F469
:10102000283809F46CC02039E9F1203801F537C0BF
:10103000283A09F46AC0203BD9F1203AC1F435C0FE
:10104000283D09F46BC0293D40F4283C09F463C0F5
:10105000203DA1F1203C59F42EC0283E29F0203F2C
:1010600099F1203E21F42DC08BEC91E059C081EC28
:1010700091E056C08CE592E053C087E592E050C005
:1010800082E592E04DC08DE492E04AC088E492E0AF
:1010900047C083E492E044C08EE392E041C089E31C
:1010A00092E03EC084E392E03BC08FE292E038C021
:1010B0008AE292E035C085E292E032C080E292E0BE
:1010C0002FC08BE192E02CC086E192E029C081E143
:1010D00092E026C08CE092E023C087E092E020C03E
:1010E00082E092E01DC08DEF91E01AC088EF91E0A0
:1010F00017C083EF91E014C08EEE91E011C089EE2D
:1011000091E00EC084EE91E00BC08FED91E008C03D
:101110008AED91E005C085ED91E002C080ED91E09F
:101120000E944880AE01445F5F4F5A8349836A85BD
:101130007B858091FB079091FC070E945C80229642
:101140000FB6F894DEBF0FBECDBFDF91CF911F91D8
:1011500008958091FB079091FC071092FC07109274
:10116000FB070E942C7E08950E940E069093FC07B8
:101170008093FB07089587E08093FA070E94B408E4
:101180000895833059F0843018F4882339F008C06A
:10119000853031F0853040F0863091F48B9801C075
:1011A0008B9A8093FD0708958091FD07813021F48B
:1011B0008B981092FD0708958B9A81E08093FD072C
:1011C00008958B981092FD0708958091FD07992747
:1011D0000895A398000000006FB1A39AA49800009E
:1011E00000004FB1A49A5B98000000008FB15B9A99
:1011F0005A98000000002FB15A9A62956F707727B5
:10120000407F5527642B752B807F992734E0880F0A
:10121000991F3A95E1F7682B792B207F3327322FDE
:101220002227622B732B70930108609300088FEFC5
:101230006F3B780709F45DC08FEF603C780720F5BD
:101240008BEF6F3F780709F463C08CEF603078074D
:1012500070F48FEE6F3F780709F460C087EF6F3F3F
:10126000780709F44CC06F5B7F4E89F52DC08EEF77
:101270006F3F780709F449C08FEF6F37780781F126
:101280006F5F7D4F21F547C08FEF673F780759F1BA
:101290008FEF683F780760F48FEF6F3D780791F12B
:1012A0008FEF6F3E780741F16F5C7F4F81F439C05B
:1012B0008FEF6D3F780789F08FEF6E3F7807B1F0C1
:1012C0006B5F7F4F21F406C083E190E02CC088E87B
:1012D00090E029C081E090E026C082E090E023C049
:1012E00083E090E020C084E090E01DC085E090E0C5
:1012F0001AC086E090E017C087E090E014C088E054
:1013000090E011C089E090E00EC08AE090E00BC050
:101310008BE090E008C08CE090E005C08DE090E0AC
:1013200002C08EE090E0809302080895E82F862F97
:101330008150823030F4E03120F4FF27EA5FF74F2C
:101340006083089580910208992708958093020888
:10135000E091FE07F091FF07309739F48FEF9FEF90
:101360009093FF078093FE0708958FEFEF3FF807F4
:1013700029F0848195810196958384830895A39AA9
:10138000A49A5B9A5A9A109205088FEF9FEF909358
:101390000108809300080FB6F8940F921092FF078F
:1013A0001092FE070F900FBE8FEF80930208E6E0C9
:1013B000F8E082E0819398E0E631F907D9F71092DE
:1013C00004081092030861E088E00E94960961E039
:1013D0008BE00E94960961E08AE00E94960961E034
:1013E0008CE00E9496090895AB01BC018EEF97E056
:1013F0000E94706020E030E08F5F9F4F11F421E089
:1014000030E0C9010895813011F4739A089588235A
:1014100009F4739808959AB19F70906F9AB99BB12F
:101420009F70607F962B9BB9823011F48A9801C01F
:101430008A9A729A0000000072988A988AB18F7016
:101440008AB98BB18F70806F8BB908950F931F93FA
:10145000082F162F8A98899A729A000000004F99D7
:10146000FBCF72988A988998612F607F802F0E94A5
:101470000B0A1295107F612F802F0E940B0A1F917B
:101480000F910895682F83E00E94260A08951F9304
:101490008CE80E94765C10E063E382E00E940B0A15
:1014A00084E00E94765C1F5F1330B1F762E282E055
:1014B0000E940B0A81E00E94765C68E282E00E9452
:1014C000260A85E00E94765C6CE082E00E94260A93
:1014D00085E00E94765C61E082E00E94260A85E059
:1014E0000E94765C66E082E00E94260A60E882E064
:1014F0000E94260A1F91089561E082E00E94260A58
:1015000085E00E94765C08950FB6F8940F929DB323
:10151000882311F0EE9A01C0EE980F900FBE892F2C
:10152000992726E0969587952A95E1F78170907026
:10153000089580E00E94840A982F809116088130D7
:1015400011F410921608892F0E94840A80E090E01E
:101550000895809116089927089580911708909111
:1015600018080895809117089091180808950F930E
:101570001F93CF93DF93EC018B0180E090E00E94FA
:10158000091005C0FE0184910E94F10F21960150BF
:101590001040FFEF0F3F1F07A9F70E94E60FDF91F2
:1015A000CF911F910F9108951F9380E00E94840AAC
:1015B000182F64E070E08FEC95E00E94B70A64E0B9
:1015C00070E08BEC95E00E94B70A812F0E94840A9C
:1015D00080E090E01F9108950F931F93CF93DF93C6
:1015E0008C01EB0180E090E00E94091005C0F80139
:1015F00081918F010E94F10F2197FFEFCF3FDF070D
:10160000B1F70E94E60FDF91CF911F910F910895DE
:10161000EF92FF920F931F93F82E8B010E94ED0F14
:10162000E82E80E00E94EA0F80E090E00E9409101E
:101630002C9882E00E94F10F8F2D0E94F10F812FD4
:1016400099270E94F10F802F0E94F10F2C9A0E947F
:10165000E60F8E2D0E94EA0F1F910F91FF90EF90E1
:101660000895DF92EF92FF920F931F93082FE62EBB
:1016700080E00E94840AD82E1127102F0027FF2413
:101680000E291F29B8018BE00E94080B8D2D0E94A6
:10169000840A80E090E01F910F91FF90EF90DF901F
:1016A0000895FF920F931F938C0180E00E94840A9B
:1016B000F82E1C60B80180E00E94080B8F2D0E945C
:1016C000840A80E090E01F910F91FF9008951F938E
:1016D000CF93DF93CDB7DEB721970FB6F894DEBF77
:1016E0000FBECDBF898380E00E94840A182F80E25C
:1016F00090E00E94510B63E070E087ED95E00E945E
:10170000B70A61E070E0CE0101960E94EC0A64E045
:1017100070E083ED95E00E94B70A812F0E94840A51
:1017200080E090E021960FB6F894DEBF0FBECDBFEB
:10173000DF91CF911F910895282F332727703070A4
:10174000C90153E0880F991F5A95E1F7820F931F43
:10175000885C0E94670B0895DF92EF92FF920F93CF
:101760001F93CF93DF93CDB7DEB721970FB6F894D1
:10177000DEBF0FBECDBF89837B0180E00E94840A5B
:10178000D82E80E290E00E94510B89818295807F63
:10179000885C898363E070E082EE95E00E94B70A7E
:1017A00061E070E0CE0101960E94EC0A0AED15E0BE
:1017B00064E070E0C8010E94B70A8E2D0E94765C3A
:1017C00064E070E08EED95E00E94B70A64E070E09E
:1017D000C8010E94B70A8D2D0E94840A80E090E023
:1017E00021960FB6F894DEBF0FBECDBFDF91CF912B
:1017F0001F910F91FF90EF90DF9008950F931F932B
:101800008C0180E00E94840A10921608C80184604E
:101810000E94510B8AE00E94765C80E48CBB80E0E1
:1018200090E01F910F910895DF92EF92FF920F9336
:101830001F93182F0E94ED0FD82E80E00E94EA0F10
:1018400080E090E00E9409102C9883E00E94F10F44
:10185000812F0E94F10F0E94F60FE82EFF24FE2C2C
:10186000EE240E94F60F082F2C9A0E94E60F8D2D71
:101870000E94EA0F1127C701802B912B1F910F9116
:10188000FF90EF90DF900895FF920F931F9380E0F9
:101890000E94840AF82E8BE00E94140C8C018F2D7C
:1018A0000E94840AC8011F910F91FF900895FF9232
:1018B0000F931F93182F80E00E94840AF82E812F27
:1018C0000E94140C8C018F2D0E94840AC8011F9164
:1018D0000F91FF90089589E00E94570C9C018FEFB3
:1018E000213E380790F58DE424353807A1F18DE4C9
:1018F0002535380768F481E424353807F9F08DE49C
:1019000024333807D9F081E42434380709F516C0A8
:1019100087E52D363807F9F087E52E36380728F4A5
:1019200087E52D343807A1F409C086E72536380746
:1019300029F08FEF203E380759F40DC08091170829
:1019400090911808039739F403C020EE3FEF03C0CD
:1019500080E090E00895C901089580E00E94840A23
:101960002F982C9A2898209A84E00E94765C80E038
:101970000E94EA0F109216082F9A84E00E94765C6B
:1019800081E00E94140C74E0969587957A95E1F7B2
:10199000877090709093180880931708039719F434
:1019A00060E070EE02C060E078E983E00E94080B1E
:1019B00082E30E94765C80E090E00E94510B60E040
:1019C00080E00E94310B82E30E94765C80911708D0
:1019D000909118080397029710F482E001C081E00B
:1019E0000E94EA0F40E050E065E07DE088ED96E07F
:1019F0000E94756166E070E088ED96E00E94F361F8
:101A000080E48CBB80E090E00895BF92CF92DF929B
:101A1000EF92FF920F931F93CF93DF93CDB7DEB773
:101A200022970FB6F894DEBF0FBECDBF8091160887
:101A3000813009F04FC0669B4DC080E00E94840A4F
:101A4000B82E78941A82198280E090E00E940910E2
:101A5000F0E2EF2EF12C00E010E0CC24DD2403C0F6
:101A6000EFE1EE2EF12C89819A81C816D906C0F0DB
:101A7000C114D10419F0C6010E949059CE010196FB
:101A80000E940F598C0189819A81892B19F0CC24ED
:101A9000DD2408C082E080931608CC24DD2412C027
:101AA000892B41F0F80181918F010E94F10F089478
:101AB000C11CD11C6699D4CF0894E108F108E11447
:101AC000F10489F60E94E60FC6010E942D5A8B2D63
:101AD0000E94840A22960FB6F894DEBF0FBECDBFD7
:101AE000DF91CF911F910F91FF90EF90DF90CF90FA
:101AF000BF9008950F931F93CF93DF9380911608A3
:101B0000813009F435C080E00E94840AC1E6D2E049
:101B1000FE0165917491EDEEF5E0E4918E2F0E9447
:101B2000080B00E010E011C0FE0165917491F8010E
:101B3000E351FA4FE4918E2F0E94080BC80164EF25
:101B400071E00E94EC85892B11F40E94610E0F5FF9
:101B50001F4F229681E0053B180731F781E0809303
:101B6000160880E090E00E94050D81E00E94840A42
:101B700080E090E0DF91CF911F910F9108951F9326
:101B8000CF93DF9380E090E00E94FE0B80E290E034
:101B90000E94510B80E00E94840A182F68E070E0D8
:101BA00085EE95E00E94B70A88E20E94765C88E0A4
:101BB0000E94140CEC01812F0E94840A8091170866
:101BC00090911808039731F480E8CF37D80711F4C3
:101BD000C0E0D0E0CE01DF91CF911F9108958091B8
:101BE0006A008C7F80936A0040E050E064E17EE010
:101BF00082ED96E00E947561892B31F480916A0034
:101C0000826080936A00EC9A809181008360809367
:101C10008100AD9A0FB6F8940F9210921C081092A2
:101C20001B080F900FBE089584E00E94C1080E9417
:101C3000DE5D0895EF92FF920F931F93AB01BC01FD
:101C4000A89521E0E12CE8E0FE2E012D112D01C028
:101C50002F5FD801C701022E04C0880F991FAA1F49
:101C6000BB1F0A94D2F737E0B695A795979587954D
:101C70003A95D1F784179507A607B70748F320933D
:101C80001E082A3018F0297020931E0820911E0883
:101C900023FF02C038E201C038E088E190E02770FD
:101CA000322B0FB6F894A895809360000FBE309346
:101CB000600081E080931D081F910F91FF90EF90CD
:101CC0000895A895089580911D08882319F08F5FC5
:101CD00080931D0888E10FB6F894809360001092FD
:101CE00060000FBE089580911D088230C0F08150C1
:101CF00080931D08813099F420911E0823FF02C0B3
:101D000038E201C038E088E190E02770322B0FB64E
:101D1000F894A895809360000FBE309360000895FA
:101D200080912208909123088130910589F08130BB
:101D3000910530F08230910521F10397E9F52DC02E
:101D400078993AC081E08093210881E090E020C03A
:101D5000789912C0809121088F5F809321088E317D
:101D600059F581E08093200882E090E09093230869
:101D70008093220881E021C010922308109222084B
:101D80001BC0789B19C081E08093210883E090E01C
:101D900090932308809322080FC0809121088F5FC1
:101DA00080932108843141F4109220081092230876
:101DB0001092220880E001C082E099270895809166
:101DC0002008992708958091240890912508089566
:101DD00008950F931F93CF93DF93CDB7DEB72A9764
:101DE0000FB6F894DEBF0FBECDBF1092230810923D
:101DF00022081092200860EB77E08E010F5F1F4FE2
:101E0000C8010E940385C8010E94585B892BB1F468
:101E100020E033E040E050E06AEA7FE0C8010E9441
:101E20000264892B59F482EA97E09F938F9380EEA6
:101E30008F930E947B070F900F900F902A960FB6FA
:101E4000F894DEBF0FBECDBFDF91CF911F910F91F0
:101E50000895FF920F931F93CF93DF93CDB7DEB713
:101E60002A970FB6F894DEBF0FBECDBF82E592E091
:101E70000E94EA60892BB9F480E00E94840AF82E5F
:101E800040E067E070E080E592E00E9406618C012E
:101E9000892B51F540E067E070E083E792E00E9413
:101EA00006618C0121C00E94CB1380E00E94840A4D
:101EB000F82EE0916302F0916402309729F080E5FA
:101EC00092E01995892B59F4E0918602F0918702EE
:101ED000309741F083E792E01995892B19F00FEFC5
:101EE0001FEF02C000E010E08F2D0E94840A011550
:101EF0001105C1F483E098E09F938F9386EE8F9352
:101F00000E947B0760E070E0CE0101960E94437D55
:101F10000F900F900F902FEF8F3F920771F00E945C
:101F20001B7D0BC084ED97E09F938F9383EE8F937F
:101F30000E947B070F900F900F90C8012A960FB652
:101F4000F894DEBF0FBECDBFDF91CF911F910F91EF
:101F5000FF9008958091200880931F0880912008A9
:101F60008130B9F480911F08882349F586EC97E009
:101F70009F938F9386EE8F930E947B070E94290F79
:101F80000F900F900F90892B29F780E10E94A609EE
:101F9000E1CF8823A1F480911F08813081F489EB7F
:101FA00097E09F938F9386EE8F930E947B0780919B
:101FB000200880931F080F900F900F90CFCF64EFF1
:101FC00071E080E090E00E94885DC8CF779A2E98FB
:101FD0002D9A0895809326080895809126089927C0
:101FE00008958EBD0DB407FEFDCF08958FEF8EBD11
:101FF0000DB407FEFDCF8EB5992708958EBD0DB4A3
:1020000007FEFDCF8EB599270895779A2E982D9AC1
:1020100008959C010097F9F480912608882321F403
:1020200081E08DBD81E504C0813021F41DBC80E5D7
:102030008CBD25C0823019F481E08DBDF8CF80E1E0
:1020400098E09F938F938BE78F930E947B070F906D
:102050000F900F9014C0019741F481E08DBD80E591
:102060008CBD2D9A2E98779808951DBC80E58CBD67
:102070002130310520F02230310541F404C0779A37
:102080002D9A2E9A0895779A2E982D98089580E08B
:1020900090E0089580E090E0089580E090E0089559
:1020A00040E050E060E070E087E298E00E947060FD
:1020B0000895CF93DF93CEEFDFEF0E94F60F8F3FAF
:1020C00011F42197D1F79927DF91CF910895CF93FC
:1020D000DF93CEEFDFEF0E94F60F8E3F11F02197D6
:1020E000D1F79927DF91CF910895DF92EF92FF9278
:1020F0000F931F93D82E8B017A0182E090E00E940B
:1021000009108FEF0E94F10F8D2D80640E94F10F56
:10211000812F99270E94F10F802F0E94F10F8F2DA0
:1021200099270E94F10F8E2D0E94F10F85E90E94E0
:10213000F10F8FEF0E94F10F1F910F91FF90EF9021
:10214000DF9008956F927F928F929F92AF92BF928D
:10215000CF92DF92EF92FF920F931F93CF93DF9373
:102160005B0169017A013801882499243AC0A601EB
:10217000542F4427550FC701B60127E09695879540
:10218000779567952A95D1F781E10E9475100E9495
:1021900067108E3F29F00E94E60F81E090E026C094
:1021A0008501C0E0D0E00E94F60FF80181938F0115
:1021B0002196F2E0C030DF07B1F780E092E0A80E90
:1021C000B91E8FEF0E94F10F8FEF0E94F10F0E9456
:1021D000E60F0894811C911C0894C11CD11CE11CC1
:1021E000F11C8614970419F680E090E0DF91CF91FE
:1021F0001F910F91FF90EF90DF90CF90BF90AF9025
:102200009F908F907F906F90089587E298E00E9452
:102210001D6008952F923F924F925F926F927F922E
:102220008F929F92AF92BF92CF92DF92EF92FF92E6
:102230000F931F93CF93DF93CDB7DEB728970FB6D9
:10224000F894DEBF0FBECDBFF82E6B0139014A01F5
:1022500018010E945010FF2019F022E030E0A8C0C1
:10226000C801AA27BB27860D971DA81DB91D20915F
:102270002C0830912D0840912E0850912F082817D6
:1022800039074A075B0728F483E090E09E838D833B
:1022900002C01E821D828091290890912A0897FD14
:1022A00004C0E2E0F0E0FE83ED8396FD7FC02D8167
:1022B0003E81232B09F092C0DC82CB8272C03FEFBB
:1022C0002316310409F010F4610103C0C12CA1E010
:1022D000DA2E4B805C80840173011A82198253C00C
:1022E000A701542F4427550FC801B701E7E0969581
:1022F000879577956795EA95D1F788E10E947510E3
:102300000E9459108F3F09F445C08EEF0E94F10FD3
:10231000520118861F82F50181915F010E94F10F21
:102320002F8138852F5F3F4F38872F8320503240D1
:1023300091F7E0E0F2E04E0E5F1E8FEF0E94F10F8A
:102340008FEF0E94F10F8FEF0E94F10F5FEFA52E2C
:10235000B52E0E94F60F882339F40894A108B1081D
:10236000A114B104B9F0F5CF0894E11CF11C011DD2
:10237000111DAB2879F00E94E60F29813A812F5F69
:102380003F4F3A83298389819A818C159D0509F0F5
:10239000A7CF11C00E94E60FE1E0F0E0FE83ED83DD
:1023A0001DC02114310409F08ACF18C028E030E0A4
:1023B0003E832D8313C0C601AA27BB27680E791E52
:1023C0008A1E9B1E2C183D08DC2CCC24DD0C8B8136
:1023D0009C818C0D9D1D9C838B83E3CF0E940511F6
:1023E0008D819E8128960FB6F894DEBF0FBECDBFBB
:1023F000DF91CF911F910F91FF90EF90DF90CF90E1
:10240000BF90AF909F908F907F906F905F904F9014
:102410003F902F9008958F929F92AF92BF92CF924C
:10242000DF92EF92FF920F931F93CF93DF93F82EDB
:10243000EB0149015A0168010E945010FF20F1F49C
:102440008091290890912A0897FF18C0C801AA27EF
:10245000BB27880D991DAA1DBB1D20912C0830910A
:102460002D0840912E0850912F08281739074A0748
:102470005B0708F042C003E010E044C002E010E057
:1024800041C02FEFC216D10409F010F4E60102C0DA
:10249000C0E0D1E08E01A5019401B70189E298E086
:1024A0000E94A2108C01892B69F5CE01AA27BB27B7
:1024B000880E991EAA1EBB1ECC1ADD0A8091300818
:1024C000909131089C01C29FC001C39F900DD29F83
:1024D000900D1124E80EF91EC114D10491F600E00C
:1024E00010E010C001E010E0A5019401BE0189E2F6
:1024F00098E00E94A2108C0105C07E0101301105F8
:1025000059F7F0CF0E940511C801DF91CF911F91BB
:102510000F91FF90EF90DF90CF90BF90AF909F9082
:102520008F900895EF92FF920F931F93182F0E94A0
:102530005010112321F0EE24FF24870108C0E09001
:102540002C08F0902D0800912E0810912F080E9461
:102550000511C801B7011F910F91FF90EF900895E9
:102560001F93CF93DF93182F0E945010112319F05F
:10257000C0E0D0E004C0C0913008D09131080E9482
:102580000511CE01DF91CF911F910895CF92DF9277
:10259000EF92FF920F931F93CF93DF93CDB7DEB7E8
:1025A00060970FB6F894DEBF0FBECDBF6B010E94DF
:1025B00050108091290890912A0897FF8AC040E026
:1025C00050E060E070E089E00E9475100E946710A2
:1025D0008E3F61F08EE198E09F938F9383EF8F930E
:1025E0000E947B070F900F900F9073C08E010F5FBA
:1025F0001F4F0E94F60FF80181938F01CE01419683
:10260000E817F907B1F78FEF0E94F10F8FEF0E94E3
:10261000F10F0E94E60FEE80FFE0EF2221E030E0B4
:10262000C90102C0880F991FEA94E2F77C016F810B
:10263000772763707070762F6627770F770FE8859E
:10264000FF27EE0FFF1FEE0FFF1F6E2B7F2B09855D
:102650001127EA85FF27E370F070DF01AA0FBB1F87
:10266000EA2BFB2BAB85BB2786E0169507958A9551
:10267000E1F7602B712B6F5F7F4F88279927AA0F97
:10268000AB2FAA1FBB0BB195EA2BFB2B329602C0D6
:10269000220F331FEA95E2F7442755270E94AD85A4
:1026A00060932C0870932D0880932E0890932F0828
:1026B000F0923108E09230080E94051101E010E02C
:1026C00020E030E040E050E0B60180E00E940B12D4
:1026D00004C00E94051181E090E060960FB6F89466
:1026E000DEBF0FBECDBFDF91CF911F910F91FF9045
:1026F000EF90DF90CF900895CF93DF9370933308DE
:1027000060933208509335084093340889E0E9E239
:10271000F8E011928A95E9F710922B0887E298E089
:102720000E941D60C0E0D0E08FEF0E94F10F219663
:10273000CA30D105C9F740E050E060E070E080E0C9
:102740000E9475100E945910813099F4CFEFDFEF8D
:1027500007C040E050E060E070E081E00E9475104A
:102760000E94F60F882319F0219799F702C0CD2B0C
:1027700029F40E94E60F81E090E00AC00E94E60F73
:1027800080E090E890932A088093290880E090E008
:10279000DF91CF910895109237081092360808956E
:1027A000EF92FF920F931F93CF93DF93EC017A0187
:1027B0008B018B8180FD1AC08EEF9FEFAFEFBFEFD3
:1027C000E80EF91E0A1F1B1F2A81332744275527AD
:1027D000C801B7010E94AD85AB01BC018A8D9B8DFC
:1027E000AC8DBD8D480F591F6A1F7B1FCB01BA01ED
:1027F000DF91CF911F910F91FF90EF9008958FEF90
:102800009FEF08958FEF9FEF0895282F8F3F11F4CA
:1028100020E006C0882321F099270E942186282FD6
:10282000822F992787FD909508958F929F92AF925E
:10283000BF92CF92DF92EF92FF920F931F93FC0112
:102840006A017B01838180FF07C0CB01BA016F5F02
:102850007F4F8F4F9F4F69C0808182889388A48863
:10286000B58860913A0870913B088130A9F5A701BD
:102870009601A7E05695479537952795AA95D1F7E4
:10288000280D391D4A1D5B1D01E010E081810E9469
:102890000B1280913A0890913B08F601EF77F070A7
:1028A000EE0FFF1FEE0FFF1FE80FF91F6081718110
:1028B000828193819F706F3F2FEF72072FEF820706
:1028C0002FE0920771F1673F2FEF72072FEF82071A
:1028D0002FE0920751F525C055274F2D3E2D2D2D68
:1028E000280D391D4A1D5B1D01E010E081810E9409
:1028F0000B1280913A0890913B08F601F070EE0FB0
:10290000FF1FE80FF91F208131818FEF2F3F38071C
:1029100041F08FEF273F380721F0B9018827992729
:1029200004C060E070E080E090E01F910F91FF90A4
:10293000EF90DF90CF90BF90AF909F908F900895D1
:102940002F923F924F925F926F927F928F929F92BF
:10295000AF92BF92CF92DF92EF92FF920F931F93AD
:10296000CF93DF93CDB7DEB76A970FB6F894DEBF8B
:102970000FBECDBF988B8F877A8B698B5C8B4B8B0F
:1029800018012901FE8AED8AD88ECF8AD7011D92BF
:102990001D921D921C921397DA010D900020E9F709
:1029A0001197A41BB50BCD010C966DE070E00E9451
:1029B000EC85F62FF064F983F53E09F496C18DE0BD
:1029C000689F900111243B832A832F3331050CF03B
:1029D0008CC17901BF2E1E86CC24DD2480C1B201BA
:1029E000A1018F8598890E94D013688779878A878B
:1029F0009B87EF85F8898281282F33273D872C8795
:102A000031E0231631044104510479F48081882394
:102A100061F482859385A485B58588879987AA877F
:102A2000BB87268137813D872C87688479848A8497
:102A30009B8442C160913A0870913B0801E010E02C
:102A4000A4019301EF85F88981810E940B122091E6
:102A50003A0830913B083F832E8380913C08909147
:102A60003D089D838C833A8F298F9E85913019F480
:102A7000E98DFA8D1DC02F89388D232B99F5A98DED
:102A8000BA8D8C91853E71F1882361F14BE050E065
:102A900069897A89CD010E942085892B19F5E989F8
:102AA000FA899385E98DFA8D838589238917D1F475
:102AB00084899589AA27BB27AC0133272227828DD9
:102AC000938DAA27BB27282B392B4A2B5B2B848D70
:102AD000958DA68DB78DED89FE8980839183A28324
:102AE000B38307C1E98DFA8D83858F3009F0D0C09B
:102AF000A080AB1409F0CCC0B6FE0DC0BFEBAB2E6E
:102B0000AB20AC81BD81AE0DBF1D1C920894E108C5
:102B1000F108CC80DD80E98DFA8D868D978D0E943D
:102B20000514F601EE0DFF1D808387010150104052
:102B3000E98DFA8D848D958D0E940514F601E00FC4
:102B4000F11F808301501040E98DFA8D808D918DA9
:102B50000E940514F601E00FF11F80830150104020
:102B6000E98DFA8D868997890E940514F601E00F98
:102B7000F11F808301501040E98DFA8D8489958979
:102B80000E940514F601E00FF11F808301501040F0
:102B9000E98DFA8D828993890E940514F601E00F70
:102BA000F11F808301501040E98DFA8D8089918951
:102BB0000E940514F601E00FF11F808301501040C0
:102BC000E98DFA8D868597850E940514F601E00F40
:102BD000F11F808301501040E98DFA8D8185928527
:102BE0000E940514F601E00FF11F80830150104090
:102BF000E98DFA8D878190850E940514F601E00F1A
:102C0000F11F808301501040E98DFA8D85819681F6
:102C10000E940514F601E00FF11F8083015010405F
:102C2000E98DFA8D838194810E940514F601E00FED
:102C3000F11F808301501040E98DFA8D81819281CE
:102C40000E940514F601E00FF11F8083BA2CBA949C
:102C500029F078010894E108F1081AC0AB89BC8911
:102C60000D900020E9F711972B893C89A21BB30B2B
:102C7000AD01B601C9010E942085892B31F4EA809B
:102C8000FB80B98031E03E8703C0EA80FB80B980D9
:102C9000898D9A8D80969A8F898F8E819F818050A1
:102CA0009E4FA98DBA8DA817B90709F0DECE0894FA
:102CB000611C711C811C911CC301E885F9858E1B68
:102CC0009F0B2C853D85821793070CF4B3CEB20180
:102CD000A1018F8598890E9415141B012C012114D4
:102CE00031044104510409F07ACE20E030E040E0A4
:102CF00050E0CA01B9016A960FB6F894DEBF0FBE64
:102D0000CDBFDF91CF911F910F91FF90EF90DF909A
:102D1000CF90BF90AF909F908F907F906F905F907B
:102D20004F903F902F90089584EA98E00E941D6094
:102D3000089584EA98E00E941D60089540E050E004
:102D400060E070E084EA98E00E94706008952F923D
:102D50003F924F925F926F927F928F929F92AF922B
:102D6000BF92CF92DF92EF92FF920F931F93CF9378
:102D7000DF93CDB7DEB728970FB6F894DEBF0FBE4E
:102D8000CDBF8C016B015E834D830E949E160115A1
:102D9000110509F4F6C0F8010481158118870F8325
:102DA0000115110509F4EDC06D817E816115710574
:102DB00009F4E7C0F801E484F584068517852081CD
:102DC000318142815381E216F3060407150708F0AA
:102DD000D2C0CB01AA2797FDA095BA2F8E0D9F1DBB
:102DE000A01FB11F281739074A075B0720F42E19C7
:102DF0003F093E832D83EF81F885008CF18DE02D16
:102E0000FC83EB83DA82C982248035804D805E802A
:102E1000ABC0EF81F8856088718882889388510102
:102E2000CC24DD2440855185628573858B819C810E
:102E30000E94D0137B018C01C401B301A60195014E
:102E40000E94FF85442737FD4095542F2E0D3F1DCE
:102E5000401F511F60913A0870913B0801E010E05B
:102E6000EB81FC8181810E940B12892B09F079C0D2
:102E7000C401B301A60195010E94FF8561014214BE
:102E800053040CF46201CB018C0D9D1D28163906EC
:102E90001CF46101C61AD70A80913A0890913B0848
:102EA000680F791FA60189819A810E942D8576017C
:102EB0000027F7FC0095102FEF81F88524853585D4
:102EC000468557852E0D3F1D401F511F248735878E
:102ED0004687578780899189A289B3898E0D9F1D66
:102EE000A01FB11F808B918BA28BB38B80819181AE
:102EF000A281B381281739074A075B0720F081E0D8
:102F000090E0978B868BEF81F88520893189428903
:102F10005389EB81FC81868D978DA0A1B1A12817E3
:102F200039074A075B07A0F0EF81F8854085518596
:102F3000628573858B819C810E941514EF81F885D1
:102F40006087718782879387108A118A128A138A11
:102F500069817A816C0D7D1D7A8369834C185D08C7
:102F600003C08DEF9FEF09C04114510409F051CF08
:102F70000D811E8108C08EEF9FEFEF81F885958B44
:102F8000848B00E010E00E949916C80128960FB6C5
:102F9000F894DEBF0FBECDBFDF91CF911F910F918F
:102FA000FF90EF90DF90CF90BF90AF909F908F9069
:102FB0007F906F905F904F903F902F900895EF9289
:102FC000FF920F931F93CF93DF93EC010E949E1605
:102FD000209749F0EC81FD81309729F0E080F18065
:102FE0000281138108C00FEFE02E0FEFF02E0FEFDC
:102FF000002F0FEF102F0E949916C801B701DF9123
:10300000CF911F910F91FF90EF900895CF93DF9391
:10301000EC010E949E16209719F4CFEFDFEF0BC052
:103020008C819D81009711F00E941B58CE010E9457
:103030001B58C0E0D0E00E949916CE01DF91CF91DD
:1030400008950F931F938C010E949E16012B11F47B
:10305000109240080E9499161F910F9108952F9287
:103060003F924F925F926F927F928F929F92AF9218
:10307000BF92CF92DF92EF92FF920F931F93CF9365
:10308000DF93CDB7DEB724970FB6F894DEBF0FBE3F
:10309000CDBF182F0E949E16809138089091390854
:1030A000892B41F480E490E00E94A857909339085E
:1030B0008093380880913C0890913D08892B41F419
:1030C00080E490E00E94A85790933D0880933C08CC
:1030D00080913A0890913B08892B59F480E092E066
:1030E0000E94A85790933B0880933A08892B09F4D3
:1030F00045C18091380890913908892B09F43EC167
:1031000080913C0890913D08892B09F437C182E2F7
:10311000189FF0011124E25CF74F11928A95E9F7AC
:10312000E12EFF242701440C551CC70135E0880F10
:10313000991F3A95E1F7480E591E2EE338E0420EEA
:10314000531EF2011183812F0E94B012F201958368
:103150008483812F0E944710019721F4F20183811B
:1031600081608383812F0E944A10019721F4F2012C
:10317000838182608383F2018481958180509240B3
:1031800019F001E010E0FCC0F201838181FF05C06D
:1031900020E230E040E050E038C060913A087091A1
:1031A0003B0801E010E020E030E040E050E08E2DF0
:1031B0000E940B128C01892B09F0E2C0E0913A08C1
:1031C000F0913B08E250FE4F80819181EE5FF1402B
:1031D00085559A4A09F0D4C0E653FE4F808191810B
:1031E000A281B381EA5CF1400097A105B10509F421
:1031F000C7C0EA53FE4F208131814281538121159E
:1032000031054105510509F4BBC060913A08709140
:103210003B0801E010E08E2D0E940B1220903A082E
:1032200030903B084EEF51E0240E351ED1018D91B8
:103230009C91E2E0FEEF2E0E3F1E85559A4A09F062
:103240009DC0F1018585F2018283F10126893789CC
:103250002115310571F0C901AA27BB2789839A83FB
:10326000AB83BC83D2011C9281E090E0A0E0B0E08F
:1032700010C0F10124A135A146A157A129833A83A9
:103280004B835C8381E0D2018C9384A595A5A6A590
:10329000B7A5F20186879787A08BB18BF101638573
:1032A00074858189928925E0880F991F2A95E1F715
:1032B000860F971F01970E94D8853B018824992487
:1032C000E684F78400271127A48CB58CC68CD78C94
:1032D000AE0CBF1CC01ED11EF201A28AB38AC48AE2
:1032E000D58A29813A814B815C81A20EB31EC41E0E
:1032F000D51EA68AB78AC08ED18EF1016089772744
:10330000882799270E94AD85F101248D358D468D42
:10331000578DE20EF31E041F151FE60CF71C081D47
:10332000191DE60EF71E081F191FF201E28EF38E1B
:10333000048F158FF10185859927F201248135814C
:10334000AC01429FC001439F900D529F900D1124EC
:10335000AA27BB27868F978FA0A3B1A36682778207
:103360008086918629813A814B815C81A20EB31EB1
:10337000C41ED51EA286B386C486D58600E010E0A2
:103380000E949916C80124960FB6F894DEBF0FBEAE
:10339000CDBFDF91CF911F910F91FF90EF90DF9004
:1033A000CF90BF90AF909F908F907F906F905F90E5
:1033B0004F903F902F9008952F923F924F925F929F
:1033C0006F927F928F929F92AF92BF92CF92DF9235
:1033D000EF92FF920F931F93CF93DF93CDB7DEB79A
:1033E0002E970FB6F894DEBF0FBECDBFFC01892B20
:1033F00009F4A1C2848180330CF49DC282330CF4A1
:1034000090C2863409F097C28CC20E949E168091A9
:103410004208909143080E94A8579E878D87892B68
:1034200009F489C230903F08832D0E9492122B012B
:103430003C0180EE9FEFAFEFBFEF480E591E6A1EB2
:103440007B1EE6E9F2E09F012C5F3F4F8081918176
:10345000A281B38184159505A605B70538F0D90179
:103460008C919927282E882341F00CC02B5F3F4F69
:103470003596B2E0283B3B0749F78D859E850E9433
:103480001B5859C29927AA27BB2789839A83AB83E4
:10349000BC83C301B20129813A814B815C810E94C6
:1034A000FF85DA01C90102E0880F991FAA1FBB1F1F
:1034B0000A95D1F781509E4FAF4FBF4F19E0B69597
:1034C000A795979587951A95D1F789879A87AB879E
:1034D000BC874C015D01880C991CAA1CBB1C89810E
:1034E0009A81AB81BC81815A9F4FAF4FBF4F880EED
:1034F000991EAA1EBB1E8F559040A040B0408983E4
:103500009A83AB83BC83409142085091430860E0AA
:1035100070E08D859E850E943685CC24DD24760161
:1035200010C001E010E0A70196016D857E85832D16
:103530000E940A11892B51F40894C11CD11CE11C72
:10354000F11CC814D904EA04FB0459F780E090E0A8
:103550000E94B3806D837E838F8398874091420859
:103560005091430860E070E08D859E850E9436850D
:10357000AD85BE85A254BE4F1D9281E08D938D9383
:103580001D928BE08D931D921C921296EFE3AE2E4E
:10359000B12CC12CD12CFD01A192B192C192D1923A
:1035A000DF014082518262827382AA5CB140BE8791
:1035B000AD877EEFE72E71E0F72EEA0EFB1E65E584
:1035C000862E6AEA962EF7019182808201E010E051
:1035D00020E030E040E050E0BD01832D0E940A1160
:1035E0008C01892B09F005C1409142085091430894
:1035F00060E070E08D859E850E9436858BEEAD85FE
:10360000BE858C9388E5FD01818380E982830DE48A
:10361000038393E5948384E485831FE4168397836F
:1036200085E380878EE2818780E3828780E092E075
:1036300094878387258680E290E09787868782E05B
:10364000808B128A118A148A138A88EF858B178AD5
:10365000168A8FE390E0918F808F8FEF90E0938FA9
:10366000828FED85FE85A48EB58EC68ED78E40A244
:1036700051A262A273A289859A85AB85BC8584A379
:1036800095A3A6A3B7A311A610A613A612A652E04F
:10369000A52EB12CC12CD12CED85FE85A4A6B5A6F6
:1036A000C6A6D7A681E090E091AB80AB86E090E023
:1036B00093AB82ABE05CFF4F1082329689E281933C
:1036C000FE87ED876D817E818F819885A3019201B0
:1036D0000E94AD85AD85BE856D937D938D939D9341
:1036E0008EE48D931D9390E29D938D9321E42D9311
:1036F0000D9385E48D939D939D939D939D9386E477
:103700008D932D9384E58D9383E38D9382E38D9345
:103710009D939D939C93A955B040BE87AD87F701BB
:103720009182808201E010E02FE330E040E050E041
:10373000BD01832D0E940A118C01892B09F059C00B
:1037400001E010E025E430E040E050E06D857E854A
:10375000832D0E940A11892B09F0E7C0409142088D
:103760005091430860E070E08D859E850E9436850B
:1037700081EA9FEFAFEFBFEF480E591E6A1E7B1E16
:1037800082E592E5A1E6B1E4ED85FE858083918333
:10379000A283B383EC51FE4F82E792E7A1E4B1E646
:1037A00081939193A193B193FE87ED87C301B201F9
:1037B00029813A814B815C810E94FF85AD85BE8560
:1037C0002D933D934D935D93FD01A082B182C28202
:1037D000D382EC5EF140FE87ED87D7018D929C92FB
:1037E00020E430E040E050E0BF01832D0E940A1148
:1037F0008C010115110509F086C0409142085091D5
:10380000430860E070E08D859E850E9436852D8599
:103810003E8588EF9FEFAFEFBFE0F9018193919371
:10382000A193B1939F018FEF9FEFAFEFBFE0ED85C5
:10383000FE8584839583A683B783F901848395836A
:10384000A683B78301E010E02FE530E040E050E0D0
:103850006D857E85832D0E940A118C01892B09F0CC
:1038600052C0C984DA84EB84FC848FE590E0A0E048
:10387000B0E0C80ED91EEA1EFB1E01E010E0A70151
:1038800096016D857E85832D0E940A11892B09F092
:103890004CC0409142085091430860E070E08D8533
:1038A0009E850E94368595E4AD85BE859C9324E572
:1038B000FD01218388E48283938382E584838EE4FF
:1038C000858385E58683278380E280878187828759
:1038D00088E08387158A148A138E128EED85FE8503
:1038E000148E158E168E178E89859A85AB85BC85AC
:1038F000C80ED91EEA1EFB1EA7019601BF01832D2B
:103900000E940A118C018D859E850E941B580E9481
:103910009916012B81F4832D0E942F18009769F0CE
:103920000AC06050704139F470CD8D859E850E942B
:103930001B580E9499168FEF9FEF2E960FB6F894A2
:10394000DEBF0FBECDBFDF91CF911F910F91FF90D2
:10395000EF90DF90CF90BF90AF909F908F907F902F
:103960006F905F904F903F902F9008950F931F930B
:10397000CF93DF938C0180E092E00E94A857EC0186
:10398000892B31F0802F0E942F18CE010E941B58E6
:10399000DF91CF911F910F910895EF92FF920F93B6
:1039A0001F93CF93DF93FC018091360890913708E5
:1039B0000097A9F58281863409F03FC08381813464
:1039C000E1F584818435C9F5848595850797A9F546
:1039D00037C041E258E166EB7CE180E090E00E9474
:1039E0007C138C01892B19F00EEF1FEF14C0B70167
:1039F00080E090E00E94C612C0E0D0E08C2F0E94D0
:103A00002F182196C330D105C9F781E090E090933B
:103A1000370880933608C7010E941B581CC00197C5
:103A200061F48281863449F483818D3431F4848158
:103A3000803319F400E010E00EC00FEF1FEF0BC051
:103A40000E94941680E092E00E94A8577C01892B86
:103A500009F0BFCFEFCFC801DF91CF911F910F9138
:103A6000FF90EF9008952F923F924F925F926F9246
:103A70007F928F929F92AF92BF92CF92DF92EF92FE
:103A8000FF920F931F93CF93DF93CDB7DEB7A69727
:103A90000FB6F894DEBF0FBECDBF9EA38DA34B0122
:103AA0008091360890913708892B21F48DA19EA131
:103AB0000E94CD1C0E949E166090380870903908B4
:103AC0008DA19EA1009709F422C1FC01848180335D
:103AD0000CF41DC182330CF41DC1863409F017C1EA
:103AE00019C1F4018081882309F411C18AE190E0B1
:103AF0000E94A8575C018091500890915108A091B4
:103B00005208B09153080097A105B10509F41AC1F4
:103B1000A114B10409F4FBC0F40180818E3209F4D0
:103B2000E7C08AE1F50111928A95E9F720904C08E7
:103B300030904D0840904E0850904F08F40180811D
:103B40008F3209F006C102C1FFE3EF16F1040CF059
:103B500003C183010E0D1F1D992787FD90950E94BB
:103B60002186F80180830894E11CF11C0894811CD3
:103B7000911CF40180818F3209F4D2C08C3509F494
:103B8000CFC0882309F7CCC06EE270E0C3010E9469
:103B90003D85009721F409301105D8F50BC0DC01F3
:103BA0001196FD0101900020E9F73197EA1BFB0B0C
:103BB000349778F58E010B5F1F4F80E2F801119268
:103BC0008A95E9F748E050E060E270E0C8010E94A1
:103BD000368543E050E060E270E0CE010D960E9431
:103BE0003685D801F301930104C08D932F5F3F4FB9
:103BF000319680818E3219F08823B9F70DC0F90112
:103C0000DE011D9601C08D93818131968823D9F7FD
:103C100003C021E030E002C020E030E0F401808108
:103C20008F3209F448C08C3509F445C0882309F067
:103C30005FC080E2888B8091410880FD8DC08EE35B
:103C4000882E88E0982E69017E010894E11CF11C01
:103C500092018101A301BE016B5F7F4FC4010E94ED
:103C6000A0149B01AC01611571058105910509F452
:103C700073C089819A81AB81BC81F5018083918376
:103C8000A283B38324833583468357832087318778
:103C9000428753871486158616861786108A118ADE
:103CA000128A138A918E808E158A148A178A168A30
:103CB00080E090E053C080E1888B8091410880FDD6
:103CC0004BC069017E010894E11CF11C9201810145
:103CD000A301BE016B5F7F4F8EE398E00E94A014AA
:103CE0001B012C016115710581059105A9F12EC0FB
:103CF000C5010E941B580BC086E090E00E94A857A7
:103D00008C01009771F5C5010E941B5833C00FEF5D
:103D10001FEF30C080914008882309F0E2CEF7CF32
:103D2000E60CF71CF7011082F30101900020E9F77F
:103D30008F0101501040061917090D30110508F0C8
:103D400068CF22CFA114B10499F6E1CF0894811C69
:103D5000911CEE24FF240DCF81E090E0019761F6E5
:103D6000C7CFFC01118210828DA19EA19383828313
:103D7000B582A4820E949916C801A6960FB6F8943F
:103D8000DEBF0FBECDBFDF91CF911F910F91FF908E
:103D9000EF90DF90CF90BF90AF909F908F907F90EB
:103DA0006F905F904F903F902F9008958FEF9FEF0F
:103DB00008952F923F924F925F926F927F928F92CF
:103DC0009F92AF92BF92CF92DF92EF92FF920F93AA
:103DD0001F93CF93DF935C016B014A0129013801E6
:103DE000170181E090E00E940910C0E0D0E0760168
:103DF000850109C0F80181918F010E94FE0FF70132
:103E000081937F012196C815D905A4F3C0E0D0E0C5
:103E10007301820109C0F80181918F010E94FE0F98
:103E2000F70181937F012196C215D305A4F30E9467
:103E3000E60F80E090E0DF91CF911F910F91FF900E
:103E4000EF90DF90CF90BF90AF909F908F907F903A
:103E50006F905F904F903F902F900895EF92FF9258
:103E60000F931F93CF93DF93CDB7DEB722970FB693
:103E7000F894DEBF0FBECDBF87ED89838FEF8A83B5
:103E8000EE24FF2400E010E020E030E042E050E0CB
:103E9000CE010196BC010E94D91E892B19F08FEF2B
:103EA00090E002C08A81992722960FB6F894DEBF6F
:103EB0000FBECDBFDF91CF911F910F91FF90EF907B
:103EC00008950F931F930E942E1F0E942E1F082FEC
:103ED00060E070E02091A6083091A7080EC06F5FE7
:103EE0007F4F808580239185891739F48AE0189F58
:103EF000900111242C543D4F18C0162F462F5527E2
:103F0000FA01EE0FFF1FCA01A3E0880F991FAA95BF
:103F1000E1F7E80FF91FEC54FD4F80819181A281F8
:103F2000B3810097A105B105D1F63093A70820937E
:103F3000A608CA011F910F910895EF92FF920F9367
:103F40001F93CF93DF937B018C01EA0119C0209767
:103F500031F461E070E080E090E00E94885D0894B8
:103F6000E108F108010911098FEFE8168FEFF80653
:103F70008FEF08078FEF180719F48FEF9FEF06C038
:103F80000E942E1F87FFE3CF80E090E0DF91CF916A
:103F90001F910F91FF90EF9008955F926F927F9223
:103FA0008F929F92AF92BF92CF92DF92EF92FF9249
:103FB0000F931F93CF93DF93582E4A015B01E901C2
:103FC00038018701293031051CF08FEF9FEF23C0A6
:103FD000A90160E070E088EA98E00E94368550927E
:103FE000A80881149104A104B10469F0C501AA27AD
:103FF000BB278093A908BB27AB2D9A2D892D8093D1
:10400000AA088092AB0876019301AE0168EA78E0D5
:10401000CB010E94D91EDF91CF911F910F91FF908C
:10402000EF90DF90CF90BF90AF909F908F907F9058
:104030006F905F9008958F929F92AF92BF92CF92B0
:10404000DF92EF92FF920F931F93CF93DF934B0179
:104050005C018A016901C9010E94D880EC010097C6
:1040600019F40FEF1FEF36C07C0124E030E040E090
:1040700050E060E070E084E80E94CD1F892B29F5B4
:10408000E091A608F091A708068004C0880C991C4E
:10409000AA1CBB1C0A94D2F7CC24DD24EE24FF24F6
:1040A00000E010E024E030E0B501A40183E80E94C4
:1040B000CD1F892B51F441E050E068EE73E080E0C1
:1040C00090E00E949D1F8C0102C00FEF1FEFCE01F8
:1040D0000E94D580C801DF91CF911F910F91FF9071
:1040E000EF90DF90CF90BF90AF909F908F9008950A
:1040F000CF92DF92EF92FF920F931F93E091A60869
:10410000F091A708068004C0660F771F881F991FCB
:104110000A94D2F769017A018A0128E030E0AB0104
:10412000BC0188EE0E94CD1F1F910F91FF90EF9070
:10413000DF90CF900895CF92DF92EF92FF920F938E
:104140001F93AA27BB27CC24DD24EE24FF2400E004
:1041500010E024E030E0AC01BD0181E80E94CD1FF9
:104160001F910F91FF90EF90DF90CF900895609591
:104170007095809590952091B0083091B10840914C
:10418000B2085091B308262337234823592320939C
:10419000B0083093B1084093B2085093B30880E060
:1041A00090E00895AF92BF92CF92DF92EF92FF928C
:1041B0000F931F93CF93DF93CDB7DEB722970FB640
:1041C000F894DEBF0FBECDBF9B015A01492F552782
:1041D00049838A83CC24DD247601850142E050E0C6
:1041E000BE016F5F7F4F87E50E948D718A159B0529
:1041F00019F480E090E002C08FEF9FEF22960FB697
:10420000F894DEBF0FBECDBFDF91CF911F910F910C
:10421000FF90EF90DF90CF90BF90AF900895AF9256
:10422000BF92CF92DF92EF92FF920F931F93CF93A3
:10423000DF93CDB7DEB722970FB6F894DEBF0FBE7F
:10424000CDBF9B015A0119828A83CC24DD247601DB
:104250008A0142E050E0BE016F5F7F4F8FE60E940F
:104260008D718A159B0519F480E090E002C08FEFF4
:104270009FEF22960FB6F894DEBF0FBECDBFDF9141
:10428000CF911F910F91FF90EF90DF90CF90BF9053
:10429000AF9008950F931F93CF93DF93CDB7DEB701
:1042A00021970FB6F894DEBF0FBECDBF8C0141E061
:1042B00050E0BE016F5F7F4F8FE30E940F21892B7B
:1042C000E9F489819927AA27BB272091B00830916A
:1042D000B1084091B2085091B308822B932BA42BC4
:1042E000B52B8093B0089093B108A093B208B09317
:1042F000B308F80180839183A283B3838091B008CF
:104300009091B10821960FB6F894DEBF0FBECDBFD5
:10431000DF91CF911F910F910895CF93DF93CDB788
:10432000DEB724970FB6F894DEBF0FBECDBF80E096
:104330000E948970009721F4CE0101960E944A21C3
:1043400024960FB6F894DEBF0FBECDBFDF91CF919C
:104350000895EF92FF920F931F93CF93DF93CDB702
:10436000DEB728970FB6F894DEBF0FBECDBF8C0125
:1043700048E050E0BE016F5F7F4F80E30E940F2155
:104380007C01892B09F073C02981822F82958F705F
:104390006AE0869FC00111242F70820F911DD80101
:1043A0008D939C932A81822F82958F70869FC00166
:1043B00011242F70820F911DF801938382832B812A
:1043C0003327C9018F739070B4E095958795BA959E
:1043D000E1F7AC01A3E0440F551FAA95E1F7880F60
:1043E000991F840F951F2F703070820F931F958334
:1043F00084832C81822F82958F70869FC001112427
:104400002F70820F911D978386832D81822F829535
:104410008F70869FC00111242F70820F911D01970C
:10442000918780878E81282F22952F70269FA0014B
:10443000112499278F7090708C599F4F480F591FE6
:10444000538742872885822F82958F70869FC0016F
:1044500011242F70820F911D4A9724F04C595F4F01
:10446000538742878F819927F80195878487C701F1
:1044700028960FB6F894DEBF0FBECDBFDF91CF9167
:104480001F910F91FF90EF900895AF92BF92CF923E
:10449000DF92EF92FF920F931F93CF93DF93CDB7ED
:1044A000DEB723970FB6F894DEBF0FBECDBF1982DB
:1044B0002FE32A835E010894A11CB11C892BA1F073
:1044C00082E08B83CC24DD24760100E010E020E044
:1044D00030E043E050E0B5018FE60E948D71009717
:1044E00089F486E08B8306C01B82CC24DD24760110
:1044F00000E010E020E030E043E050E0B5018FE65E
:104500000E948D7123960FB6F894DEBF0FBECDBF0B
:10451000DF91CF911F910F91FF90EF90DF90CF909F
:10452000BF90AF900895AF92BF92CF92DF92EF927B
:10453000FF920F931F93CF93DF93CDB7DEB72197F1
:104540000FB6F894DEBF0FBECDBF13E1A12EB12C84
:104550000FC061E070E080E090E00E94885D089408
:10456000A108B108A114B10419F48FEF9FEF14C092
:10457000CC24DD24760101E010E09E012F5F3F4F47
:1045800040E050E060E070E087E50E948D718F5F51
:104590009F4FF9F280E090E021960FB6F894DEBFCD
:1045A0000FBECDBFDF91CF911F910F91FF90EF9084
:1045B000DF90CF90BF90AF9008952F923F924F928F
:1045C0005F926F927F928F929F92AF92BF92CF92A3
:1045D000DF92EF92FF920F931F93CF93DF933C01F3
:1045E0004A012B0100E010E046C0C3018F739070B8
:1045F00020E430E0281B390B54012815390508F454
:10460000590182E0282E312C2A0C3B1CC1010E944A
:10461000D880EC01892BA1F1872D992788836982A5
:10462000A501B201CE0102960E942D8581E090E0A5
:104630000E9445228C01892B31F5CC24DD247601A2
:1046400000E010E020E030E0A101BE0187E50E941B
:104650008D718C01CE010E94D58001151105B1F438
:104660000E9493228C01892B89F48A189B086A0C7A
:104670007B1C4A0C5B1C8114910409F0B6CF06C068
:104680000FEF1FEF03C0CE010E94D58080E090E0C5
:104690000E944522C801DF91CF911F910F91FF9099
:1046A000EF90DF90CF90BF90AF909F908F907F90D2
:1046B0006F905F904F903F902F9008958F929F92B0
:1046C000AF92BF92CF92DF92EF92FF920F931F9320
:1046D000CF93DF934C015B01EA0181E090E00E94FF
:1046E00045228C01892BC1F4CC24DD24760100E025
:1046F00010E020E030E0AE01B5018FE60E948D7140
:104700008C01892B29F4892819F00E9493228C01AD
:1047100080E090E00E944522C801DF91CF911F9177
:104720000F91FF90EF90DF90CF90BF90AF909F9050
:104730008F900895EF92FF920F931F93CF93DF9383
:10474000CDB7DEB72A970FB6F894DEBF0FBECDBF48
:104750008B017A012AE0FE01319611922A95E9F740
:1047600023E0880F991F2A95E1F78A836115710567
:1047700009F47AC040FF12C0FB0140815181842FAF
:104780006AE00E94CC85282F2295207FCA016AE02A
:1047900070E00E94EC85280F20682B83E1FE12C098
:1047A000F80142815381842F6AE00E94CC85282F32
:1047B0002295207FCA016AE070E00E94EC85280FF4
:1047C00020682C83E2FE12C0F80144815581842FB9
:1047D0006AE00E94CC85282F2295207FCA016AE0DA
:1047E00070E00E94EC85280F20682D83E3FE12C044
:1047F000F80146815781842F6AE00E94CC85282FDA
:104800002295207FCA016AE070E00E94EC85280FA3
:1048100020682E83E4FE14C0F80140855185842F62
:104820008F5F6AE00E94CC85282F2295207FCA01E5
:1048300001966AE070E00E94EC85280F20682F83C3
:10484000E7FE12C0F80144855585842F6AE00E9476
:10485000CC85282F2295207FCA016AE070E00E9453
:10486000EC85280F206829874AE050E0BE016F5F81
:104870007F4F81E090E00E945E232A960FB6F89465
:10488000DEBF0FBECDBFDF91CF911F910F91FF9083
:10489000EF900895EF92FF920F931F93CF93DF93C2
:1048A000CDB7DEB728970FB6F894DEBF0FBECDBFE9
:1048B0007B018A01FA011182108292E1FB011192BF
:1048C0009A95E9F748E050E0BE016F5F7F4F880F8F
:1048D000880F880F0E940F21BC01892B09F09FC00F
:1048E000298127FF20C0F801808191818160918317
:1048F00080833327C9018F779070F4E09595879571
:10490000FA95E1F7AC01E3E0440F551FEA95E1F7B2
:10491000880F991F840F951F2F703070820F931F7F
:10492000F701918380833A8137FF13C0F8018081BA
:104930009181826091838083832F82958F702AE09A
:10494000829FC00111243F70830F911DF701938353
:1049500082832B8127FF20C0F801808191818460B0
:10496000918380833327C9018F779070A4E0959558
:104970008795AA95E1F7AC01F3E0440F551FFA952E
:10498000E1F7880F991F840F951F2F703070820FE9
:10499000931FF701958384833C8137FF13C0F8018F
:1049A00080819181886091838083832F82958F702D
:1049B0002AE0829FC00111243F70830F911DF701EF
:1049C000978386833D8137FF14C0F80180819181F0
:1049D000806191838083832F82958F702AE0829FEC
:1049E000C00111243F70830F911D0197F70191873A
:1049F00080873F8137FF13C0F801808191818068F3
:104A000091838083832F82958F702AE0829FC001DB
:104A100011243F70830F911DF70195878487CB0187
:104A200028960FB6F894DEBF0FBECDBFDF91CF91B1
:104A30001F910F91FF90EF9008950F931F93CF93C5
:104A4000DF93CDB7DEB72A970FB6F894DEBF0FBE5F
:104A5000CDBF8C018AE0FE01319611928A95E9F76B
:104A60000115110509F481C080E38A83F8014081B2
:104A70005181842F6AE00E94CC85282F2295207FC7
:104A8000CA016AE070E00E94EC85280F2B83428106
:104A90005381842F6AE00E94CC85282F2295207FA5
:104AA000CA016AE070E00E94EC85280F2C834481E3
:104AB0005581842F6AE00E94CC85282F2295207F83
:104AC000CA016AE070E00E94EC85280F20682D83FF
:104AD00046815781842F6AE00E94CC85282F229539
:104AE000207FCA016AE070E00E94EC85280F2E83C7
:104AF00040855185842F8F5F6AE00E94CC85282FE6
:104B00002295207FCA0101966AE070E00E94EC8540
:104B1000280F2F8342855385443651059CF0842FFE
:104B200084566AE00E94CC85282F2295207FCA01F6
:104B3000845690406AE070E00E94EC85280F288738
:104B400080E20FC0842F6AE00E94CC85282F229536
:104B5000207FCA016AE070E00E94EC85280F288758
:104B600089E18A87F801848589874AE050E0BE019F
:104B70006F5F7F4F80E090E00E945E232A960FB621
:104B8000F894DEBF0FBECDBFDF91CF911F910F9183
:104B900008959093B9088093B80808950E94420A36
:104BA0000895CF92DF92EF92FF920F931F93CF93CE
:104BB000DF936C0160E482E00E94260AEE24FF2469
:104BC00014C0CE0125E0880F991F2A95E1F7F8015E
:104BD00061918F01682B83E00E94260A2196C830DC
:104BE000D10579F70894E11CF11CEC14FD045CF488
:104BF000870183E0000F111F8A95E1F7085E1C4FC3
:104C0000C0E0D0E0DECF60E882E00E94260ADF91BB
:104C1000CF911F910F91FF90EF90DF90CF9008956B
:104C2000009719F0019751F405C0605882E00E9486
:104C3000260A0895605482E00E94260A08959093FF
:104C4000B7088093B608009719F0019731F402C0B5
:104C500080E001C081E00E94C10884E00E94C10898
:104C600008958091B6089091B708029719F484E0EE
:104C70000E94C1088091B4089091B50818161906D1
:104C8000DCF48091BA089091BB0801969093BB0820
:104C90008093BA082091B8083091B9088217930719
:104CA0005CF01092BB081092BA081092B5081092EE
:104CB000B40880E00E94030A0895CF93DF93EC01CB
:104CC000009719F0019781F408C080E00E94030A60
:104CD0001092B5081092B40807C081E00E94030A40
:104CE000D093B508C093B408DF91CF91089561E0E7
:104CF00082E00E94260A85E00E94765C0895AF92C9
:104D0000BF92CF92DF92EF92FF920F931F93CF93B8
:104D1000DF93EC01FC0101900020E9F73197E81BDB
:104D2000F90BE131F105B0F400E010E07C0107C0BF
:104D3000F70181917F010E94420A0F5F1F4FFE0120
:104D400001900020E9F73197EC1BFD0B0E171F07B0
:104D500078F330C030EFA32E3FEFB32EAE0EBF1E60
:104D6000EE24FF241EC00E9477266E01CE0CDF1CAD
:104D7000870107C0F60181916F010E94420A0F5F0F
:104D80001F4FFE0101900020E9F73197EC1BFD0B4E
:104D90000E171F0778F38AEF0E94765C0894E11CD7
:104DA000F11CAE14BF04FCF668EE73E080E090E006
:104DB0000E94885DDF91CF911F910F91FF90EF903E
:104DC000DF90CF90BF90AF9008950F931F938C0109
:104DD00060E070E00E94102684E093E00E947F264D
:104DE00060E070E0C8010E9410261F910F910895A5
:104DF0000E94470A84E090E00E94D125089588E34C
:104E000093E00E94268081E090E09093BD0880931B
:104E1000BC080895AF92BF92CF92DF92EF92FF92BB
:104E20000F931F93CF93DF93CDB7DEB721970FB6C4
:104E3000F894DEBF0FBECDBF5C0119829C0141E03A
:104E400050E061E070E0CE0101960E945F7F019723
:104E500009F076C02981222319F480E090E072C025
:104E6000422F5527213278F05F934F9388E493E0E7
:104E70009F938F930E94FF7F8FEF9FEF0F900F9074
:104E80000F900F905FC08A0184E0000F111F8A9578
:104E9000E1F7C80101960E94D8807C01892B09F4B2
:104EA0004FC0CC24DD249501A80161E070E0C7016A
:104EB0008C0D9D1D0E945F7F181619060CF040C0D6
:104EC000081B190B39F0C80ED91EF701EC0DFD1D9A
:104ED0001082E9CFFF92EF928EE693E09F938F933B
:104EE0000E94FF7F4EEB58E06AE773E0C7010E9423
:104EF00066859F938F938CE793E09F938F930E9497
:104F0000FF7F8091BE089091BF089F938F9387E8A1
:104F100093E09F938F930E94FF7F81E090E00E9437
:104F20005D26C7010E94D58080E090E02DB73EB796
:104F3000245F3F4F0FB6F8943EBF0FBE2DBF02C097
:104F40008FEF9FEF21960FB6F894DEBF0FBECDBF57
:104F5000DF91CF911F910F91FF90EF90DF90CF9055
:104F6000BF90AF9008952F923F924F925F926F92B1
:104F70007F928F929F92AF92BF92CF92DF92EF92E9
:104F8000FF921F93CF93DF93CDB7DEB726970FB66F
:104F9000F894DEBF0FBECDBF1C013A014B0180E08B
:104FA00090E20E94C858892B19F482E993E00CC062
:104FB0000E94AD0C892B31F480E090E00E94FE0B42
:104FC000892B29F080EB93E00E942680C2C080E00C
:104FD0000E94840A182F0E94A958812F0E94840AD7
:104FE0000E945A5E6B837C838D839E836401530190
:104FF000EE24FF24A7C080E00E94840A182FCE016F
:1050000001960E94E3582C01812F0E94840A0E947D
:10501000A90A813001F189819A818050944078F009
:105020000E945A5E2B813C814D815E81621B730B15
:10503000840B950B653071058105910560F00E9428
:105040005A5E6B837C838D839E8380ED93E00E9408
:1050500026800E947A0D611471048104910459F034
:1050600089819A81AA27BB27A816B906CA06DB063A
:1050700010F4BA82A982F20156C0910161E070E099
:10508000CF010E945F7F7C01892B09F462C080E020
:105090000E94840A182FC7010E9448592C01812FB1
:1050A0000E94840A611471048104910469F0C701AB
:1050B000AA27BB27A81AB90ACA0ADB0A29F4C10120
:1050C0000E940A276401530189819A81E816F90632
:1050D00008F530E0E31632E0F306E0F40E94985A57
:1050E0009F938F937F936F938CED93E09F938F9318
:1050F0000E94FF7F6AEF70E080E090E00E94885D90
:105100004DB75EB74A5F5F4F0FB6F8945EBF0FBEF4
:105110004DBF02C00E94305CF20189819A818E19D4
:105120009F099A83898349815A814115510539F034
:105130008091BC089091BD08892B09F49ECFE114A1
:10514000F10439F08091BC089091BD08892B09F4D5
:1051500052CF26960FB6F894DEBF0FBECDBFDF91BB
:10516000CF911F91FF90EF90DF90CF90BF90AF90C5
:105170009F908F907F906F905F904F903F902F9077
:1051800008958F929F92AF92BF92CF92DF92EF924B
:10519000FF920F931F93CF93DF93EC015A016B01A2
:1051A00079014801CB01BA010E942545FF92EF9297
:1051B0009F938F938AEE93E09F938F930E94FF7F3C
:1051C0009701B601A501CE010E9441412DB73EB71E
:1051D0002A5F3F4F0FB6F8943EBF0FBE2DBF892BFD
:1051E000A9F0CE010E94213D9F938F938EEF93E013
:1051F0009F938F930E94FF7FCE010E941140EE2467
:10520000FF240F900F900F900F9090C08DE194E0CD
:105210000E94268060E274E0CE010E94DB7D7C016A
:10522000892B29F484E294E00E9426807FC00FE35A
:1052300014E01F930F938BE494E09F938F930E944D
:10524000FF7F1F930F938DE594E09F938F93FF92C1
:10525000EF920E94A87FC601B5010E9425459F9349
:105260008F938FE694E09F938F93FF92EF920E942B
:10527000A87FB7018AE794E00E94EE7FB70181E939
:1052800094E00E94EE7FB7018FE994E00E94EE7FE8
:10529000B70181EB94E00E94EE7FB70185EC94E0CA
:1052A0000E94EE7FC7010E942C7E80E092E00E9467
:1052B000D880EC018DB79EB740960FB6F8949EBF8C
:1052C0000FBE8DBF24C06DE070E0CE010E943D8511
:1052D000FC01892B19F488EC94E017C010828881B6
:1052E0008823E9F04CE050E067EE74E0CE010E94C4
:1052F0005885892B49F4CE010C960E94D384F40181
:105300006083718382839383CE010E942680A701EC
:1053100060E072E0CE010E94347F892BA1F68AE022
:1053200090E00E941F80CE010E94D580C701DF91CE
:10533000CF911F910F91FF90EF90DF90CF90BF9092
:10534000AF909F908F9008952F923F924F925F92CF
:105350006F927F928F929F92AF92BF92CF92DF9285
:10536000EF92FF920F931F93CF93DF93CDB7DEB7EA
:1053700026970FB6F894DEBF0FBECDBF2C019F93CA
:105380008F9384EF94E09F938F930E94FF7F20E69A
:105390003AEE40E050E060E070E0C2010E946D2D06
:1053A0000F900F900F900F90892B09F46BC0DE01C6
:1053B0001196E0E9F6E086E001900D928150E1F768
:1053C00084E095E09F938F930E94FF7F20E63AEE62
:1053D00040E050E01E010894211C311CB101C201C3
:1053E0000E946D2D0F900F90892B09F44BC086E120
:1053F00095E00E94CF445B016C0186E295E00E943B
:10540000CF447B018C0184E395E00E94CF443B01B3
:105410004C0184E495E09F938F930E94FF7FA60147
:105420009501B101C2010E9431470F900F90892B65
:1054300019F085E595E021C061147104810491049F
:1054400009F18AE695E09F938F930E94FF7F90E396
:10545000C92E97E0D92E8401730120E030E040E0AE
:1054600050E060E070E080E090E00E949D430F908B
:105470000F90892B39F48DE795E00E9426808FEFFD
:105480009FEF69C08DE194E00E9426808091DD0B42
:1054900099279F938F938091DC0B99279F938F93EC
:1054A0008091DB0B99279F938F938091DA0B99273B
:1054B0009F938F938091D90B99279F938F9380917E
:1054C000D80B99279F938F9386E995E09F938F93AD
:1054D0000E94FF7F6091DE0B7091DF0B8091E00BEB
:1054E0009091E10B0E9425459F938F938BEB95E064
:1054F0009F938F930E94FF7F6091E20B7091E30B6B
:105500008091E40B9091E50B0E9425459F938F932A
:1055100085EC95E09F938F930E94FF7F6091E60B4F
:105520007091E70B8091E80B9091E90B0E94254563
:105530009F938F938FEC95E09F938F930E94FF7FB3
:1055400080E090E02DB73EB7265E3F4F0FB6F8944F
:105550003EBF0FBE2DBF26960FB6F894DEBF0FBE1E
:10556000CDBFDF91CF911F910F91FF90EF90DF9012
:10557000CF90BF90AF909F908F907F906F905F90F3
:105580004F903F902F900895EF92FF920F931F93AB
:10559000CF93DF93CDB7DEB760970FB6F894DEBF39
:1055A0000FBECDBF8AED95E00E9426801092BD0807
:1055B0001092BC0880E092ECA1E0B0E08D879E875D
:1055C000AF87B88B85EF95E00E94CF4488E392E2E5
:1055D0009A83898388EB9BE0A0E0B0E08D839E8373
:1055E000AF83B88784EB95E09C838B8340E060E0D9
:1055F00070E08AEE96E00E9406614091A10750910A
:10560000A20763E076E085E096E00E94C97E809183
:10561000A1079091A2070E943D7EAE01435F5F4FBC
:1056200061E071E00E94317D0E948F589F938F93BB
:105630008BE096E09F938F930E94FF7F8BE196E033
:105640000E94A4290F900F900F900F90892B09F0C2
:10565000FFCF0E94A7407C01009729F480E296E0EA
:105660000E942680FFCF22E030E0AE014D5F5F4F09
:1056700062E070E00E942040892B21F08BE396E0ED
:105680000E94268024E030E0AE014B5F5F4F66E071
:1056900070E1C7010E942040892B21F08EE496E042
:1056A0000E94268022E030E0AE014F5F5F4F62E053
:1056B00070E1C7010E942040892B21F080E696E02E
:1056C0000E94268085EF95E00E94CF44AB01BC018B
:1056D0008E01075F1F4F20E530E0C7010E94C128FF
:1056E0008C01892B71F085E796E00E942680498520
:1056F0005A856B857C85C8010E94B327C8010E942A
:105700009B7DC7010E9411400E94990A64EF71E0DD
:1057100080E090E00E94885DC8010E949B7D82E845
:1057200096E00E94268064E670E080E090E00E94AF
:10573000885DF9CF8091870B9091880B2BE2893C93
:10574000920729F486E996E00E947F2608958F5AF1
:105750009B4221F489E996E00E947F2608958930D2
:10576000910549F0893091057CF08A30910531F03E
:105770000C9751F403C00E94FF2606C089EC9BE2FF
:105780009093880B8093870B0E9477260E949A2B18
:1057900008958930910549F089309105BCF08A302F
:1057A000910571F00C9791F40BC020E032E040E0DD
:1057B00050E066EF7BE28DE996E00E94026406C04D
:1057C0008FEA9BE29093880B8093870B0E94772649
:1057D0000E949A2B089589EC9BE29093880B80930A
:1057E000870B0E9477260E949A2B08950E94C42A54
:1057F00064E670E080E090E00E94885DF9CF8093DD
:10580000B30608950E94065F20E033E040E050E0D8
:105810006EE575E08EEA96E00E9402648EEF0E94CB
:10582000AC5B0E94305C0E94775B2091B3062F3FF7
:10583000C1F393B783B7817F822B83BF83B7816026
:1058400083BF889583B78E7F83BF83B7817F9E7028
:10585000892B83BFE6CFCF93DF93DC01FC0187E385
:10586000819393E0ED019983DF01119681E08183BB
:10587000FD01918386E0828385E090E0DF91CF9106
:1058800008958091C508992708958091C608909140
:10589000C7081092C7081092C608089520E030E0AB
:1058A0008091C508853011F421E030E0C9010895E8
:1058B000DF92EF92FF920F931F93CF93DF93D62E39
:1058C00079018A010E94EA60EC01892B51F08B85F5
:1058D000833039F4EF85F889309719F0808186306C
:1058E00049F081E190E09093C7088093C6088FEF5C
:1058F0009FEF35C00E94DE5D6093D0087093D108A1
:105900008093D2089093D308E092CC08F092CD080F
:105910000093CE081093CF08D092C5088091C30899
:105920009091C408892B69F420E032E0AE016FED5C
:1059300071E384EB96E00E9402649093C408809324
:10594000C30888EC98E00E941D6040E050E060E0F1
:1059500070E08AEC98E00E94706080E090E0DF9157
:10596000CF911F910F91FF90EF90DF900895FC0170
:105970009A01AB018091C508882349F083E090E04B
:105980009093C7088093C6088FEF9FEF089568E053
:10599000CF010E94582C0895FC019A01AB0180911F
:1059A000C508853049F083E090E09093C708809364
:1059B000C6088FEF9FEF089569E0CF010E94582C31
:1059C0000895CF92DF92EF92FF920F931F93CF93A0
:1059D000DF93FC0184E292E0DF011D920197E9F779
:1059E00081E08083818386E08283DF015C96C8ED5D
:1059F000DBE009900D928150E1F7248335834683E3
:105A000057830C2CCD2CD02CD186C086E486F5860D
:105A100006871787DF01A451BF4F93E6FD019193DD
:105A200082E8ED018983DF01119683E58183FD0121
:105A30003196ED019983DF01119685E3818381E041
:105A4000FD018183628387E090E0DF91CF911F9118
:105A50000F91FF90EF90DF90CF900895CF93DF9359
:105A6000CDB7DEB722970FB6F894DEBF0FBECDBF1D
:105A7000DC015A834983FC0161939F0182E0FD01AF
:105A8000818389819A81082E892F902DF901928333
:105A9000818384E090E022960FB6F894DEBF0FBEBB
:105AA000CDBFDF91CF9108950F931F93CF93DF93D5
:105AB000DC01CA01022FFD016193ED012983112749
:105AC000A801BC01CF0101960E942D85C801029654
:105AD000DF91CF911F910F9108954F925F926F9236
