:100000000C949B040C940D050C940D050C940D059B
:100010000C940D050C9414320C940D050C94D032F4
:100020000C940D050C940D050C940D050C940D0508
:100030000C940D050C94BC330C940D050C940D051B
:100040000C940D050C940D050C940D050C940D05E8
:100050000C940D050C940D050C940D050C94463371
:100060000C940D050C94343F0C940D050C94AF3F8B
:100070000C940D050C940D050C940D050C940D05B8
:100080000C940D050C940D050C940D050C940D05A8
:100090000C9429400C940D050C94A4400C94BA3E89
:1000A0000C940D050C940D050C940D050C940D0588
:1000B0000C940D050C940D050C940D050C940D0578
:1000C0000C940D050C940D050C940D0537358035F9
:1000D000C735ED3501362936313656363435783662
:1000E000BF36C536CB36D136EE36D736EE36243768
:1000F000F9360E375254432074696D65205B253004
:1001000032643A253032643A253032645D002D2D58
:100110002D2D2D2D2D2D2D2D2D2D2D2D2D2D2D2D0F
:100120002D2D2D2D2D2D2D2D2D2D2D2D2D2D2D2DFF
:100130002D2D2D2D2D2D2D2D2D2D2D2D2D2D2D2DEF
:100140002D2D2D2D2D2D2D2D2D2D2D2D2D2D2D2DDF
:100150002D2D2D2D2D2D2D2D2D2D2D2D2D2D2D2DCF
:100160002D2D2D2D2D2D2D2D2D2D2D2D2D005431C1
:100170000077007561727430000A000A23446562DA
:10018000756720000A23496E666F2020000A234EFF
:100190006F74696320000A235761726E2020000A81
:1001A00023457272202020000A23437269742020A4
:1001B000000A23416C65727420000A23456D657244
:1001C0006720003F3F203C444D4B3E200057443ABF
:1001D000200056533A200056453A200055543A2004
:1001E0000055443A200055413A200053523A20002D
:1001F00053503A200053473A200053453A200053C9
:10020000543A200052543A200052433A2000504CB5
:100210003A200050413A20004D443A20004D4D3ADA
:1002200020004D453A200053593A20004C473A20CF
:10023000004C453A20004B423A2000494E3A2000FB
:1002400048543A2000464C3A200046413A200044A7
:10025000503A2000434D3A200043483A200041558F
:100260003A200030803000170780B0173C06001796
:1002700050003F24000600162012008F570000CEC9
:10028000101229009900004D0080404C180600D73C
:10029000960028550D0000480D0600505B093042BD
:1002A0000080B00180144240BC182840C713364279
:1002B0003C003E03B81400031B1500C259D66F243E
:1002C00000003603981228D55700004D0000284042
:1002D0002BF33624004C80103E1438103E0A78135D
:1002E0003E0DB8033E05F806009555093015141B60
:1002F00000D4FF0300CEFF01000A000024CE168ABE
:10030000B5240092F200945261240002FE2400B24F
:100310004824004A4501B6F33605D8F3360D98F067
:10032000360A5800200000F0361418618013362475
:1003300000123E17B8123E1538053E14B825362473
:100340000000000A80103E03B8944105B8113E2415
:1003500000113E07B8143E1278143E0DF8033E0E0D
:10036000F8060051000028D5240000240088B812A7
:10037000000464050400002400002858219440244F
:100380000000240221000024009864030856FE2483
:1003900000B6482400D64D2400103A24C0F0322480
:1003A000C056FE2400B6482400D64D240084438362
:1003B0004496638C8800F4D540003D24800600916B
:1003C000003F00C3FE060053000131248060FE247C
:1003D00000BE48240034A6030C24432400844202B7
:1003E0002C060011000028D82400312480060011BA
:1003F00050003924800600110000314C9884424C92
:100400009000F488400028452800002400F03C407B
:1004100038093041380930103800200000000088C9
:10042000270930D01B002880280930811BF334CCE9
:100430001BF3360ED8F4360DD8F4361258F13607C1
:1004400098F1360518F036039805341490F33624E5
:1004500000F236151800200000F2361798AD801211
:100460003E17B8123E1538053E14B8153624000064
:10047000000A80103E0278103E04F8113E107814F5
:100480003E1278132980C9143E24C0132980C988DC
:10049000404C1800F405400000C01800642400001F
:1004A00000C01B00289530300010030028803F0159
:1004B000382440006424000000401A002855370604
:1004C00000D0550000037D84B84C18093005380968
:1004D0003000008AFF24001D29007BB24824000060
:1004E000004118060010508A4044B80029001388C3
:1004F0004024000030CC1B14602400300051030065
:1005000028D53600002400060011000031240030F8
:10051000005103003824000028803F0139244000A6
:100520006424003000D0030028553F0000037D06FE
:1005300000D05584B84C1809300538093000008ABD
:10054000FF24001D29007BB24824008A40CC9B0078
:100550000041180028553B060010509A68240000FE
:1005600030240014602400300092030028853E06E9
:100570000091000600110000005218060053008090
:10058000B800240600910004382480300092030053
:100590003B2400013924400028803F013A244001D7
:1005A00038244080B8D31BF4361258F1361058F076
:1005B0003604D8F036025805341490F3362400F28D
:1005C00036151800200000F23617983000000000A1
:1005D00000457869740000000053EF6E00000000D1
:1005E0004578697453EF6E4DEA6D540000000007C2
:1005F000060606060606060606060606060606069B
:10060000060606060606060606060606060606068A
:10061000060606060606060606060606060606067A
:100620000606060606060606070606060606060669
:10063000060606060606060606060606060606065A
:10064000060606060606060606060606060606064A
:100650000606060706060606060606060606060639
:10066000060606060606060606060606060606062A
:10067000060606060606060606060606060606061A
:10068000060606060606060606060606060606060A
:1006900006060606060606060606060606060606FA
:1006A00006060606060606060606060606060606EA
:1006B00006060606060606060606060606060606DA
:1006C00006060606060606060606060606060606CA
:1006D00006060606060606060606060606060606BA
:1006E00006060606060606060606060607060606A9
:1006F000060606060606060606060606060606069A
:100700000606060606060606060606060606060689
:100710000606060606060606060606060606060679
:100720000606060606060606060606060606060669
:100730000606060606060606060606060606060659
:100740000606060606060606060606060606060649
:100750000606060606060606060606060606060639
:100760000606060606060606060606060606060629
:100770000606060606060606060606060606060619
:100780000606060606060606060606060606060609
:1007900006060606060606060606060606060606F9
:1007A00006060606546872656164206661696C65B8
:1007B0006400436172645072657300436172642027
:1007C00072656D6F766564004361726420696E7353
:1007D0006572746564004572726F7220696E697427
:1007E00069616C6973696E672046696C652073790D
:1007F0007374656D20616E6420436172642D647250
:10080000697665720043617264206D6F756E746500
:100810006400696E76616C6964205370656564007C
:100820006572726F7220647572696E6720435344FB
:1008300020726561640000000000000000000000FC
:1008400000000000000000000000000000000000A8
:100850000000000000000000000000000000000098
:100860000000000000000000000000000000000088
:100870000000000000000000000000000000000078
:100880000000000000000000000000000000000068
:100890000000000000000000000000000000000058
:1008A0000000000000000000000000000000000048
:1008B0000000000000000000000000000000000038
:1008C0000000000000000000000000000000000028
:1008D0000000000000000000000000000000000018
:1008E0000000000000000000000000000000000008
:1008F00000000000000000000000000000000000F8
:1009000000000000000000000000000000000000E7
:1009100000000000000000000000000000000000D7
:1009200000000000000000000000000000000000C7
:1009300000000000000084E880937400479A3F9A0A
:10094000469A3E9A81EE809300C380E4809301C36F
:1009500085B78F7785BF80E090E0359B05C0019615
:1009600041F0359BF8CFFBCF019619F03599F3CFC5
:10097000FBCF85B7806885BF47983F9846983E98DB
:1009800087E08093C4008093CC0011241FBECFEF7A
:10099000D1E2DEBFCDBF13E0A0E0B2E0E8E5F0E9D0
:1009A00000E00BBF02C007900D92A639B107D9F73E
:1009B00017E0A6E9B3E001C01D92A232B107E1F74A
:1009C0008FEF9FE79EBF8DBF8FEF9FE782529740CB
:1009D0008158914040F06FEF7EE76252774082E2AB
:1009E00097E00E94A2260E94652F892B41F060EDBE
:1009F00072E088E097E00E9489470E944C2F20E82F
:100A000031E040E050E069E975E289ED92E00E9452
:100A100094300E9400000C942B480C94000087EF47
:100A200084B98CE08AB98BB18C70836F8BB98EE8F6
:100A30008DB98EB18E7881608EB985B7806885BF9B
:100A400085B7806885BF8EE080BB81B38E70816F73
:100A500081BB88E183BB08951F93CF93DF93CDB70C
:100A6000DEB762970FB6F894DEBF0FBECDBF0E940F
:100A7000300E84E60E94902A0E940F050E94D20F39
:100A80000E949C080E94FA090E944B060E94FF05E2
:100A90000E9476088EE091E09F938F9316EC1F934F
:100AA0000E9436070E94B60E0E945A21CE0101967E
:100AB0000E9476210F900F900F90892BD9F4898195
:100AC0009A819F938F938B819C819F938F938D812C
:100AD0009E819F938F9384EF90E09F938F931F93BA
:100AE0000E9436078DB79EB709960FB6F8949EBF41
:100AF0000FBE8DBF0E942E1F0E949A0D0E94720988
:100B000040E050E062EB75E080EF92E00E948F2FB2
:100B1000892B49F485B5846085BDA89A80916E00C3
:100B2000816080936E0081E00E94C62920E032E05F
:100B300040E050E067EB75E080E092E00E94943086
:100B400078940E94202D84E60E94902A0E945509E4
:100B5000873011F481E001C080E00E94B6090E9454
:100B60002E0EF1CF0E94A4080E945D0E089568EE3B
:100B700073E080E090E00E94A22B8EE691E09F93CC
:100B80008F9386EC8F930E9436070F900F900F90F3
:100B9000EECF8091960390919703089580919603EC
:100BA00090919703009731F00E944A411092970369
:100BB000109296030895CF93DF93CDB7DEB72497B5
:100BC0000FB6F894DEBF0FBECDBF69837A838B83E7
:100BD0009C8380919603909197030E949B41AE0164
:100BE0004F5F5F4F63E171E00E94E04024960FB6D3
:100BF000F894DEBF0FBECDBFDF91CF910895EF9285
:100C0000FF920F931F93CF93DF93CDB7DEB72D974E
:100C10000FB6F894DEBF0FBECDBF80E092ECA1E02E
:100C2000B0E08C839D83AE83BF8388E0E82EF12CF7
:100C3000EC0EFD1E63E771E0C7010E943B4761E7D0
:100C400071E08E010F5F1F4FC8010E943B4740912A
:100C50003F0350914003B801C7010E94FB419093AC
:100C6000970380939603009749F00E949B41AE0141
:100C70004C5F5F4F61E071E00E94E0402D960FB63F
:100C8000F894DEBF0FBECDBFDF91CF911F910F91C2
:100C9000FF90EF900895109297031092960340E012
:100CA00060E070E08CEF92E00E94202F0895909118
:100CB0009803883010F480939803892F992708951A
:100CC0002F923F924F925F926F927F928F929F925C
:100CD000AF92BF92CF92DF92EF92FF920F931F934A
:100CE000CF93DF93CDB7DEB7CD54D0400FB6F89495
:100CF000DEBF0FBECDBF7C016B011A01892B09F449
:100D00008EC094E0692E712C44245524AA24BB245F
:100D1000A0E0B0E000E010E07EC0C5018F709070F0
:100D2000892B69F54DE450E060E270E08E010F5FC1
:100D30001F4FC8010E946E479301220F331F220FDD
:100D4000331F2450304040E050E0D801F201022E21
:100D500002C0F695E7950A94E2F7EF70F070ED5F48
:100D6000FD4F80818D934F5F5F4F2450304046157B
:100D7000570561F7D301129683010C5C1F4FF601F2
:100D80009081E92FE295EF70FF27ED5FFD4F5081D5
:100D90004D010894811C911CE92FFF27EF70F07022
:100DA000ED5FFD4F4081892F80528F3510F08EE22C
:100DB00001C0892F9E012F5F3F4FA20FB31F5C938D
:100DC000F901E80DF91D4083F901E00FF11F80835F
:100DD0000F5F1F4F0894A11CB11CC5018F7090704C
:100DE000892B19F0A214B30489F4F901E00FF11F63
:100DF0001082B701C9010E948E42B7018AE090E0DB
:100E00000E94664280E190E0480E591E0894C11C81
:100E1000D11CD4011296A214B30409F07ECFC35B97
:100E2000DF4F0FB6F894DEBF0FBECDBFDF91CF917D
:100E30001F910F91FF90EF90DF90CF90BF90AF90F8
:100E40009F908F907F906F905F904F903F902F90EA
:100E500008956091990370919A036115710529F0C5
:100E6000992787FD90950E94664208951F93CF931E
:100E7000DF93CDB7DEB722970FB6F894DEBF0FBE73
:100E8000CDBF19856091990370919A036115710521
:100E900009F410C1212F33272770307080919803F7
:100EA0009927821793070CF405C1812F877083302F
:100EB000F1F0843028F48130A1F08230A8F40EC023
:100EC0008530D9F08530B0F08630D1F0873019F414
:100ED0008BE791E017C089E791E014C08AEB91E0BD
:100EE00011C081EB91E00EC088EA91E00BC08FE960
:100EF00091E008C086E991E005C08DE891E002C06C
:100F000084E891E00E94CA426091990370919A032B
:100F1000212F287F283709F4AAC0293790F52833D4
:100F200009F499C02933B0F4283109F48EC029316D
:100F300038F4283009F486C0203109F053C055C078
:100F4000283209F485C0203309F455C0203209F055
:100F500049C04EC0283509F484C0293548F42834E6
:100F600009F47CC0203509F44CC02034D9F546C0C2
:100F7000283609F479C0203709F449C0203691F5A4
:100F800043C0283B09F47FC0293BA8F4283909F461
:100F900074C0293940F4283809F46CC02039E9F1CB
:100FA000203801F537C0283A09F46AC0203BD9F14E
:100FB000203AC1F435C0283D09F46BC0293D40F406
:100FC000283C09F463C0203DA1F1203C59F42EC017
:100FD000283E29F0203F99F1203E21F42DC08DECD0
:100FE00091E059C083EC91E056C08EE592E053C089
:100FF00089E592E050C084E592E04DC08FE492E034
:101000004AC08AE492E047C085E492E044C080E4AC
:1010100092E041C08BE392E03EC086E392E03BC0A9
:1010200081E392E038C08CE292E035C087E292E042
:1010300032C082E292E02FC08DE192E02CC088E1C4
:1010400092E029C083E192E026C08EE092E023C0C6
:1010500089E092E020C084E092E01DC08FEF91E033
:101060001AC08AEF91E017C085EF91E014C080EFBD
:1010700091E011C08BEE91E00EC086EE91E00BC0C6
:1010800081EE91E008C08CED91E005C087ED91E024
:1010900002C082ED91E00E94CA42AE01445F5F4F00
:1010A0005A8349836A857B858091990390919A033D
:1010B0000E94DE4222960FB6F894DEBF0FBECDBF6F
:1010C000DF91CF911F9108958091990390919A0398
:1010D00010929A03109299030E948A4108950E94E7
:1010E000C90590939A0380939903089587E08093AC
:1010F00098030E946F080895833059F0843018F4E3
:10110000882339F008C0853031F0853040F08630D2
:1011100091F48B9801C08B9A80939B0308958091E2
:101120009B03813021F48B9810929B0308958B9A36
:1011300081E080939B0308958B9810929B03089500
:1011400080919B0399270895A398000000006FB138
:10115000A39AA498000000004FB1A49A5B980000E5
:1011600000008FB15B9A5A98000000002FB15A9A84
:1011700062956F707727407F5527642B752B807F92
:10118000992734E0880F991F3A95E1F7682B792B5E
:10119000207F3327322F2227622B732B70939F03DC
:1011A00060939E038FEF6F3B780709F458C08FEF71
:1011B000603C7807F8F48BEF6F3F780709F45EC066
:1011C0008CEF6030780748F48FEE6F3F780709F4B2
:1011D0005BC06F5F774F89F548C08EEF6F3F780730
:1011E00009F449C08FEF6F37780781F16F5F7D4F4A
:1011F00021F547C08FEF673F780759F18FEF683FC0
:10120000780760F48FEF6F3D780791F18FEF6F3EB5
:10121000780741F16F5C7F4F81F40CC08FEF6D3F19
:10122000780789F08FEF6E3F7807B1F06B5F7F4FE3
:1012300021F406C08EE090E029C088E890E026C046
:1012400081E090E023C082E090E020C083E090E065
:101250001DC084E090E01AC085E090E017C086E0F1
:1012600090E014C087E090E011C088E090E00EC0EC
:1012700089E090E00BC08AE090E008C08BE090E04D
:1012800005C08CE090E002C08DE090E08093A00368
:101290000895E82F862F8150823030F4E03120F419
:1012A000FF27EC55FC4F608308958091A003992798
:1012B00008958093A003E0919C03F0919D033097E3
:1012C00039F48FEF9FEF90939D0380939C030895D3
:1012D0008FEFEF3FF80729F0848195810196958380
:1012E00084830895A39AA49A5B9A5A9A1092A303AE
:1012F0008FEF9FEF90939F0380939E030FB6F89418
:101300000F9210929D0310929C030F900FBE8FEFCF
:101310008093A003E4EAF3E082E0819393E0E43B6E
:10132000F907D9F71092A2031092A10361E088E0B7
:101330000E94490961E08BE00E94490961E08AE06E
:101340000E94490961E08CE00E9449090895AB01BF
:10135000BC018CE993E00E948A2E20E030E08F5F90
:101360009F4F11F421E030E0C9010895813011F45C
:10137000739A0895882309F4739808959AB19F7019
:10138000906F9AB99BB19F70607F962B9BB982300A
:1013900011F48A9801C08A9A729A0000000072982B
:1013A0008A988AB18F708AB98BB18F70806F8BB930
:1013B00008950F931F93082F162F8A98899A729A6F
:1013C000000000004F99FBCF72988A988998612F8E
:1013D000607F802F0E94BE091295107F612F802FA1
:1013E0000E94BE091F910F910895682F83E00E940B
:1013F000D90908951F938CE80E94902A10E063E3B6
:1014000082E00E94BE0984E00E94902A1F5F133090
:10141000B1F762E282E00E94BE0981E00E94902A58
:1014200068E282E00E94D90985E00E94902A6CE07F
:1014300082E00E94D90985E00E94902A61E082E062
:101440000E94D90985E00E94902A66E082E00E940D
:10145000D90960E882E00E94D9091F9108950FB66A
:10146000F8940F929DB3882311F0EE9A01C0EE9884
:101470000F900FBE892F992726E0969587952A957C
:10148000E1F781709070089580E00E942F0A982FF4
:101490008091B403813011F41092B403892F0E941B
:1014A0002F0A80E090E008958091B4039927089571
:1014B0008091B5039091B60308958091B503909102
:1014C000B60308950F931F93CF93DF93EC018B0125
:1014D00080E090E00E94D60F05C0FE0184910E943A
:1014E000BE0F219601501040FFEF0F3F1F07A9F7D5
:1014F0000E94B30FDF91CF911F910F9108951F9319
:1015000080E00E942F0A182F64E070E081ED95E0E2
:101510000E94620A64E070E08DEC95E00E94620A2D
:10152000812F0E942F0A80E090E01F9108950F9371
:101530001F93CF93DF938C01EB0180E090E00E943A
:10154000D60F05C0F80181918F010E94BE0F21972F
:10155000FFEFCF3FDF07B1F70E94B30FDF91CF91CD
:101560001F910F910895EF92FF920F931F93F82E02
:101570008B010E94BA0FE82E80E00E94B70F80E036
:1015800090E00E94D60F2C9882E00E94BE0F8F2D13
:101590000E94BE0F812F99270E94BE0F802F0E94AC
:1015A000BE0F2C9A0E94B30F8E2D0E94B70F1F9171
:1015B0000F91FF90EF900895DF92EF92FF920F93BB
:1015C0001F93082FE62E80E00E942F0AD82E1127A5
:1015D000102F0027FF240E291F29B8018BE00E943D
:1015E000B30A8D2D0E942F0A80E090E01F910F9189
:1015F000FF90EF90DF900895FF920F931F938C015F
:1016000080E00E942F0AF82E1C60B80180E00E9442
:10161000B30A8F2D0E942F0A80E090E01F910F9156
:10162000FF9008951F93CF93DF93CDB7DEB7219737
:101630000FB6F894DEBF0FBECDBF898380E00E9455
:101640002F0A182F80E290E00E94FC0A63E070E00D
:1016500089ED95E00E94620A61E070E0CE0101969A
:101660000E94970A64E070E085ED95E00E94620AAE
:10167000812F0E942F0A80E090E021960FB6F89407
:10168000DEBF0FBECDBFDF91CF911F910895282FF0
:10169000332727703070C90153E0880F991F5A957E
:1016A000E1F7820F931F885C0E94120B0895DF926E
:1016B000EF92FF920F931F93CF93DF93CDB7DEB7D7
:1016C00021970FB6F894DEBF0FBECDBF89837B0193
:1016D00080E00E942F0AD82E80E290E00E94FC0A4F
:1016E00089818295807F885C898363E070E084EEE5
:1016F00095E00E94620A61E070E0CE0101960E94CE
:10170000970A0CED15E064E070E0C8010E94620ADF
:101710008E2D0E94902A64E070E080EE95E00E9499
:10172000620A64E070E0C8010E94620A8D2D0E9486
:101730002F0A80E090E021960FB6F894DEBF0FBE2E
:10174000CDBFDF91CF911F910F91FF90EF90DF9070
:1017500008950F931F938C0180E00E942F0A10922E
:10176000B403C80184600E94FC0A8AE00E94902AA7
:1017700080E48CBB80E090E01F910F910895DF9290
:10178000EF92FF920F931F93182F0E94BA0FD82E3B
:1017900080E00E94B70F80E090E00E94D60F2C9866
:1017A00083E00E94BE0F812F0E94BE0F0E94C30FD4
:1017B000E82EFF24FE2CEE240E94C30F082F2C9A43
:1017C0000E94B30F8D2D0E94B70F1127C701802BE8
:1017D000912B1F910F91FF90EF90DF900895FF9252
:1017E0000F931F9380E00E942F0AF82E8BE00E9437
:1017F000BF0B8C018F2D0E942F0AC8011F910F91E2
:10180000FF900895FF920F931F93182F80E00E947E
:101810002F0AF82E812F0E94BF0B8C018F2D0E9462
:101820002F0AC8011F910F91FF90089589E00E942F
:10183000020C9C018FEF213E380790F58DE4243592
:101840003807A1F18DE42535380768F481E42435A3
:101850003807F9F08DE424333807D9F081E42434D3
:10186000380709F516C087E52D363807F9F087E502
:101870002E36380728F487E52D343807A1F409C03F
:1018800086E72536380729F08FEF203E380759F4D0
:101890000DC08091B5039091B603039739F403C04E
:1018A00020EE3FEF03C080E090E00895C901089565
:1018B00080E00E942F0A2F982C9A2898209A84E082
:1018C0000E94902A80E00E94B70F1092B4032F9AD2
:1018D00084E00E94902A81E00E94BF0B74E09695FC
:1018E00087957A95E1F7877090709093B60380930F
:1018F000B503039719F460E070EE02C060E078E988
:1019000083E00E94B30A82E30E94902A80E090E084
:101910000E94FC0A60E080E00E94DC0A82E30E94F0
:10192000902A8091B5039091B6030397029710F423
:1019300082E001C081E00E94B70F40E050E060EB20
:101940007CE08AEE92E00E948F2F66E070E08AEEE3
:1019500092E00E940D3080E48CBB80E090E008951E
:10196000BF92CF92DF92EF92FF920F931F93CF938C
:10197000DF93CDB7DEB722970FB6F894DEBF0FBE68
:10198000CDBF8091B403813009F04FC0669B4DC03C
:1019900080E00E942F0AB82E78941A82198280E083
:1019A00090E00E94D60FF0E2EF2EF12C00E010E064
:1019B000CC24DD2403C0EFE1EE2EF12C89819A8145
:1019C000C816D906C0F0C114D10419F0C6010E948E
:1019D000AA27CE0101960E9429278C0189819A812C
:1019E000892B19F0CC24DD2408C082E08093B40355
:1019F000CC24DD2412C0892B41F0F80181918F01A4
:101A00000E94BE0F0894C11CD11C6699D4CF0894C3
:101A1000E108F108E114F10489F60E94B30FC60150
:101A20000E9447288B2D0E942F0A22960FB6F89409
:101A3000DEBF0FBECDBFDF91CF911F910F91FF9001
:101A4000EF90DF90CF90BF9008950F931F93CF93A7
:101A5000DF938091B403813009F435C080E00E94A7
:101A60002F0AC3E6D2E0FE0165917491EFEEF5E036
:101A7000E4918E2F0E94B30A00E010E011C0FE0135
:101A800065917491F801E151FA4FE4918E2F0E9413
:101A9000B30AC80164EF71E00E94CF47892B11F4AB
:101AA0000E942E0E0F5F1F4F229681E0053B180704
:101AB00031F781E08093B40380E090E00E94B00CA5
:101AC00081E00E942F0A80E090E0DF91CF911F918A
:101AD0000F9108951F93CF93DF9380E090E00E94D1
:101AE000A90B80E290E00E94FC0A80E00E942F0A8D
:101AF000182F68E070E087EE95E00E94620A88E2A5
:101B00000E94902A88E00E94BF0BEC01812F0E9466
:101B10002F0A8091B5039091B603039731F480E8C2
:101B2000CF37D80711F4C0E0D0E0CE01DF91CF91DC
:101B30001F91089580916A008C7F80936A0040E035
:101B400050E06FEB7DE084EE92E00E948F2F892BB6
:101B500031F480916A00826080936A00EC9A8091EF
:101B60008100836080938100AD9A0FB6F8940F9244
:101B70001092BA031092B9030F900FBE0895EF921E
:101B8000FF920F931F9384E00E947C080E94F82B21
:101B9000AA2797FDA095BA2F8E199F09A00BB10B0C
:101BA000BF93AF939F938F9383E192E09F938F9323
:101BB0000E949F428DB79EB706960FB6F8949EBFBF
:101BC0000FBE8DBF1F910F91FF90EF900895EF9280
:101BD000FF920F931F93AB01BC01A89521E0E12C6C
:101BE000E8E0FE2E012D112D01C02F5FD801C701A5
:101BF000022E04C0880F991FAA1FBB1F0A94D2F798
:101C000037E0B695A795979587953A95D1F78417BC
:101C10009507A607B70748F32093BC032A3018F0AE
:101C200029702093BC032091BC0323FF02C038E23B
:101C300001C038E088E190E02770322B0FB6F894AD
:101C4000A895809360000FBE3093600081E0809380
:101C5000BB031F910F91FF90EF900895A8950895F1
:101C60008091BB03882319F08F5F8093BB0388E1C9
:101C70000FB6F89480936000109260000FBE089534
:101C80008091BB038230C0F081508093BB038130D0
:101C900099F42091BC0323FF02C038E201C038E070
:101CA00088E190E02770322B0FB6F894A8958093C6
:101CB00060000FBE3093600008958091C003909142
:101CC000C1038130910589F08130910530F0823077
:101CD000910521F10397E9F52DC078993AC081E08B
:101CE0008093BF0381E090E020C0789912C080917A
:101CF000BF038F5F8093BF038E3159F581E08093DE
:101D0000BE0382E090E09093C1038093C00381E022
:101D100021C01092C1031092C0031BC0789B19C050
:101D200081E08093BF0383E090E09093C1038093B0
:101D3000C0030FC08091BF038F5F8093BF038431C6
:101D400041F41092BE031092C1031092C00380E0D0
:101D500001C082E0992708958091BE0399270895D4
:101D60008091C2039091C303089508950F931F9328
:101D7000CF93DF93CDB7DEB72A970FB6F894DEBFC7
:101D80000FBECDBF1092C1031092C0031092BE03CC
:101D900062EB77E08E010F5F1F4FC8010E943B4747
:101DA000C8010E947229892BB1F420E033E040E0A1
:101DB00050E067E77FE0C8010E949430892B59F416
:101DC00084EA97E09F938F9380EE8F930E9436076B
:101DD0000F900F900F902A960FB6F894DEBF0FBEAB
:101DE000CDBFDF91CF911F910F910895FF920F9377
:101DF0001F93CF93DF93CDB7DEB72A970FB6F89432
:101E0000DEBF0FBECDBF8EE192E00E94042F892B72
:101E1000B9F480E00E942F0AF82E40E067E070E0FD
:101E20008CE192E00E94202F8C01892B51F540E03B
:101E300067E070E08FE392E00E94202F8C0121C0C8
:101E40000E94981380E00E942F0AF82EE0912F0242
:101E5000F0913002309729F08CE192E01995892BAE
:101E600059F4E0915202F0915302309741F08FE320
:101E700092E01995892B19F00FEF1FEF02C000E0D7
:101E800010E08F2D0E942F0A01151105C1F485E085
:101E900098E09F938F9386EE8F930E94360760E0C1
:101EA00070E0CE0101960E94F2400F900F900F90CB
:101EB0002FEF8F3F920771F00E94CA400BC086ED52
:101EC00097E09F938F9383EE8F930E9436070F9036
:101ED0000F900F90C8012A960FB6F894DEBF0FBE80
:101EE000CDBFDF91CF911F910F91FF900895809109
:101EF000BE038093BD038091BE038130B9F480910D
:101F0000BD03882349F588EC97E09F938F9386EE75
:101F10008F930E9436070E94F60E0F900F900F903D
:101F2000892B29F780E10E945909E1CF8823A1F488
:101F30008091BD03813081F48BEB97E09F938F9369
:101F400086EE8F930E9436078091BE038093BD0377
:101F50000F900F900F90CFCF64EF71E080E090E092
:101F60000E94A22BC8CF779A2E982D9A089580931D
:101F7000C40308958091C403992708958EBD0DB4BC
:101F800007FEFDCF08958FEF8EBD0DB407FEFDCF88
:101F90008EB5992708958EBD0DB407FEFDCF8EB581
:101FA00099270895779A2E982D9A08959C01009765
:101FB000F9F48091C403882321F481E08DBD81E58B
:101FC00004C0813021F41DBC80E58CBD25C0823069
:101FD00019F481E08DBDF8CF82E198E09F938F9353
:101FE0008BE78F930E9436070F900F900F9014C0CD
:101FF000019741F481E08DBD80E58CBD2D9A2E982E
:10200000779808951DBC80E58CBD2130310520F006
:102010002230310541F404C0779A2D9A2E9A089502
:10202000779A2E982D98089580E090E0089580E0AA
:1020300090E0089580E090E0089540E050E060E096
:1020400070E085EC93E00E948A2E0895CF93DF9391
:10205000CEEFDFEF0E94C30F8F3F11F42197D1F72E
:102060009927DF91CF910895CF93DF93CEEFDFEFE4
:102070000E94C30F8E3F11F02197D1F79927DF916E
:10208000CF910895DF92EF92FF920F931F93D82E76
:102090008B017A0182E090E00E94D60F8FEF0E94C0
:1020A000BE0F8D2D80640E94BE0F812F99270E9444
:1020B000BE0F802F0E94BE0F8F2D99270E94BE0F4A
:1020C0008E2D0E94BE0F85E90E94BE0F8FEF0E94E9
:1020D000BE0F1F910F91FF90EF90DF9008956F92C8
:1020E0007F928F929F92AF92BF92CF92DF92EF92A8
:1020F000FF920F931F93CF93DF935B0169017A01E6
:102100003801882499243AC0A601542F4427550F3A
:10211000C701B60127E096958795779567952A952B
:10212000D1F781E10E9442100E9434108E3F29F0C5
:102130000E94B30F81E090E026C08501C0E0D0E0AE
:102140000E94C30FF80181938F012196F2E0C03005
:10215000DF07B1F780E092E0A80EB91E8FEF0E9472
:10216000BE0F8FEF0E94BE0F0E94B30F0894811C18
:10217000911C0894C11CD11CE11CF11C861497040D
:1021800019F680E090E0DF91CF911F910F91FF90C1
:10219000EF90DF90CF90BF90AF909F908F907F9007
:1021A0006F90089585EC93E00E94372E08952F924A
:1021B0003F924F925F926F927F928F929F92AF92D7
:1021C000BF92CF92DF92EF92FF920F931F93CF9324
:1021D000DF93CDB7DEB728970FB6F894DEBF0FBEFA
:1021E000CDBFF82E6B0139014A0118010E941D1064
:1021F000FF2019F022E030E0A8C0C801AA27BB27C1
:10220000860D971DA81DB91D2091CA033091CB03DF
:102210004091CC035091CD03281739074A075B073B
:1022200028F483E090E09E838D8302C01E821D828D
:102230008091C7039091C80397FD04C0E2E0F0E0ED
:10224000FE83ED8396FD7FC02D813E81232B09F017
:1022500092C0DC82CB8272C03FEF2316310409F0BA
:1022600010F4610103C0C12CA1E0DA2E4B805C8028
:10227000840173011A82198253C0A701542F442785
:10228000550FC801B701E7E0969587957795679553
:10229000EA95D1F788E10E9442100E9426108F3FF4
:1022A00009F445C08EEF0E94BE0F520118861F82AE
:1022B000F50181915F010E94BE0F2F8138852F5F4C
:1022C0003F4F38872F832050324091F7E0E0F2E013
:1022D0004E0E5F1E8FEF0E94BE0F8FEF0E94BE0F4B
:1022E0008FEF0E94BE0F5FEFA52EB52E0E94C30F89
:1022F000882339F40894A108B108A114B104B9F0F5
:10230000F5CF0894E11CF11C011D111DAB2879F0DB
:102310000E94B30F29813A812F5F3F4F3A8329836F
:1023200089819A818C159D0509F0A7CF11C00E9463
:10233000B30FE1E0F0E0FE83ED831DC02114310412
:1023400009F08ACF18C028E030E03E832D8313C007
:10235000C601AA27BB27680E791E8A1E9B1E2C1851
:102360003D08DC2CCC24DD0C8B819C818C0D9D1DCB
:102370009C838B83E3CF0E94D2108D819E8128960F
:102380000FB6F894DEBF0FBECDBFDF91CF911F9186
:102390000F91FF90EF90DF90CF90BF90AF909F9004
:1023A0008F907F906F905F904F903F902F90089507
:1023B0008F929F92AF92BF92CF92DF92EF92FF9255
:1023C0000F931F93CF93DF93F82EEB0149015A012E
:1023D00068010E941D10FF20F1F48091C7039091C5
:1023E000C80397FF18C0C801AA27BB27880D991DED
:1023F000AA1DBB1D2091CA033091CB034091CC0391
:102400005091CD03281739074A075B0708F042C0EF
:1024100003E010E044C002E010E041C02FEFC2161C
:10242000D10409F010F4E60102C0C0E0D1E08E0151
:10243000A5019401B70187EC93E00E946F108C0115
:10244000892B69F5CE01AA27BB27880E991EAA1EE3
:10245000BB1ECC1ADD0A8091CE039091CF039C0164
:10246000C29FC001C39F900DD29F900D1124E80E12
:10247000F91EC114D10491F600E010E010C001E093
:1024800010E0A5019401BE0187EC93E00E946F105B
:102490008C0105C07E010130110559F7F0CF0E9473
:1024A000D210C801DF91CF911F910F91FF90EF9053
:1024B000DF90CF90BF90AF909F908F900895EF9254
:1024C000FF920F931F93182F0E941D10112321F0CC
:1024D000EE24FF24870108C0E090CA03F090CB03EC
:1024E0000091CC031091CD030E94D210C801B70116
:1024F0001F910F91FF90EF9008951F93CF93DF935B
:10250000182F0E941D10112319F0C0E0D0E004C064
:10251000C091CE03D091CF030E94D210CE01DF91A3
:10252000CF911F910895CF92DF92EF92FF920F9378
:102530001F93CF93DF93CDB7DEB760970FB6F894B4
:10254000DEBF0FBECDBF6B010E941D108091C7037F
:102550009091C80397FF8AC040E050E060E070E0CF
:1025600089E00E9442100E9434108E3F61F080E2A8
:1025700098E09F938F9383EF8F930E9436070F907D
:102580000F900F9073C08E010F5F1F4F0E94C30FFB
:10259000F80181938F01CE014196E817F907B1F751
:1025A0008FEF0E94BE0F8FEF0E94BE0F0E94B30FED
:1025B000EE80FFE0EF2221E030E0C90102C0880F89
:1025C000991FEA94E2F77C016F817727637070703E
:1025D000762F6627770F770FE885FF27EE0FFF1F0F
:1025E000EE0FFF1F6E2B7F2B09851127EA85FF2732
:1025F000E370F070DF01AA0FBB1FEA2BFB2BAB854A
:10260000BB2786E0169507958A95E1F7602B712B1D
:102610006F5F7F4F88279927AA0FAB2FAA1FBB0B8D
:10262000B195EA2BFB2B329602C0220F331FEA959D
:10263000E2F7442755270E9490476093CA0370939E
:10264000CB038093CC039093CD03F092CF03E09221
:10265000CE030E94D21001E010E020E030E040E024
:1026600050E0B60180E00E94D81104C00E94D21050
:1026700081E090E060960FB6F894DEBF0FBECDBF4C
:10268000DF91CF911F910F91FF90EF90DF90CF904E
:102690000895CF93DF937093D1036093D003509349
:1026A000D3034093D20389E0E7ECF3E011928A95DB
:1026B000E9F71092C90385EC93E00E94372EC0E041
:1026C000D0E08FEF0E94BE0F2196CA30D105C9F726
:1026D00040E050E060E070E080E00E9442100E9424
:1026E0002610813099F4CFEFDFEF07C040E050E0D3
:1026F00060E070E081E00E9442100E94C30F8823D6
:1027000019F0219799F702C0CD2B29F40E94B30F3D
:1027100081E090E00AC00E94B30F80E090E89093BF
:10272000C8038093C70380E090E0DF91CF910895C4
:102730001092D5031092D4030895EF92FF920F9355
:102740001F93CF93DF93EC017A018B018B8180FD86
:102750001AC08EEF9FEFAFEFBFEFE80EF91E0A1F12
:102760001B1F2A81332744275527C801B7010E9420
:102770009047AB01BC018A8D9B8DAC8DBD8D480F00
:10278000591F6A1F7B1FCB01BA01DF91CF911F91A7
:102790000F91FF90EF9008958FEF9FEF08958FEFC7
:1027A0009FEF0895282F8F3F11F420E006C0882363
:1027B00021F099270E940448282F822F992787FD0E
:1027C000909508958F929F92AF92BF92CF92DF9291
:1027D000EF92FF920F931F93FC016A017B018381AB
:1027E00080FF07C0CB01BA016F5F7F4F8F4F9F4FB4
:1027F00069C0808182889388A488B5886091D80355
:102800007091D9038130A9F5A7019601A7E05695EB
:10281000479537952795AA95D1F7280D391D4A1D5B
:102820005B1D01E010E081810E94D8118091D803E6
:102830009091D903F601EF77F070EE0FFF1FEE0FC6
:10284000FF1FE80FF91F60817181828193819F7062
:102850006F3F2FEF72072FEF82072FE0920771F182
:10286000673F2FEF72072FEF82072FE0920751F596
:1028700025C055274F2D3E2D2D2D280D391D4A1DC4
:102880005B1D01E010E081810E94D8118091D80386
:102890009091D903F601F070EE0FFF1FE80FF91FBA
:1028A000208131818FEF2F3F380741F08FEF273F95
:1028B000380721F0B9018827992704C060E070E04B
:1028C00080E090E01F910F91FF90EF90DF90CF900C
:1028D000BF90AF909F908F9008952F923F924F920C
:1028E0005F926F927F928F929F92AF92BF92CF92A0
:1028F000DF92EF92FF920F931F93CF93DF93CDB7A9
:10290000DEB76A970FB6F894DEBF0FBECDBF988BC7
:102910008F877A8B698B5C8B4B8B18012901FE8A20
:10292000ED8AD88ECF8AD7011D921D921D921C92DE
:102930001397DA010D900020E9F71197A41BB50B4E
:10294000CD010C966DE070E00E94CF47F62FF06449
:10295000F983F53E09F496C18DE0689F900111243A
:102960003B832A832F3331050CF08CC17901BF2EB4
:102970001E86CC24DD2480C1B201A1018F859889F7
:102980000E949D13688779878A879B87EF85F889DE
:102990008281282F33273D872C8731E0231631048D
:1029A0004104510479F48081882361F48285938500
:1029B000A485B58588879987AA87BB8726813781B3
:1029C0003D872C87688479848A849B8442C1609186
:1029D000D8037091D90301E010E0A4019301EF85C1
:1029E000F88981810E94D8112091D8033091D903B0
:1029F0003F832E838091DA039091DB039D838C8348
:102A00003A8F298F9E85913019F4E98DFA8D1DC07A
:102A10002F89388D232B99F5A98DBA8D8C91853E00
:102A200071F1882361F14BE050E069897A89CD0129
:102A30000E945847892B19F5E989FA899385E98D10
:102A4000FA8D838589238917D1F484899589AA27EA
:102A5000BB27AC0133272227828D938DAA27BB2762
:102A6000282B392B4A2B5B2B848D958DA68DB78D0A
:102A7000ED89FE8980839183A283B38307C1E98DA9
:102A8000FA8D83858F3009F0D0C0A080AB1409F097
:102A9000CCC0B6FE0DC0BFEBAB2EAB20AC81BD8170
:102AA000AE0DBF1D1C920894E108F108CC80DD80BA
:102AB000E98DFA8D868D978D0E94D213F601EE0D69
:102AC000FF1D8083870101501040E98DFA8D848DB0
:102AD000958D0E94D213F601E00FF11F8083015003
:102AE0001040E98DFA8D808D918D0E94D213F601F0
:102AF000E00FF11F808301501040E98DFA8D868927
:102B000097890E94D213F601E00FF11F80830150D4
:102B10001040E98DFA8D848995890E94D213F601BF
:102B2000E00FF11F808301501040E98DFA8D8289FA
:102B300093890E94D213F601E00FF11F80830150A8
:102B40001040E98DFA8D808991890E94D213F60197
:102B5000E00FF11F808301501040E98DFA8D8685CA
:102B600097850E94D213F601E00FF11F8083015078
:102B70001040E98DFA8D818592850E94D213F6016D
:102B8000E00FF11F808301501040E98DFA8D87819D
:102B900090850E94D213F601E00FF11F808301504F
:102BA0001040E98DFA8D858196810E94D213F6013D
:102BB000E00FF11F808301501040E98DFA8D838171
:102BC00094810E94D213F601E00FF11F808301501F
:102BD0001040E98DFA8D818192810E94D213F60115
:102BE000E00FF11F8083BA2CBA9429F07801089481
:102BF000E108F1081AC0AB89BC890D900020E9F703
:102C000011972B893C89A21BB30BAD01B601C901F9
:102C10000E945847892B31F4EA80FB80B98031E06B
:102C20003E8703C0EA80FB80B980898D9A8D8096AB
:102C30009A8F898F8E819F8180509E4FA98DBA8DEA
:102C4000A817B90709F0DECE0894611C711C811C1D
:102C5000911CC301E885F9858E1B9F0B2C853D8552
:102C6000821793070CF4B3CEB201A1018F85988926
:102C70000E94E2131B012C01211431044104510470
:102C800009F07ACE20E030E040E050E0CA01B9011E
:102C90006A960FB6F894DEBF0FBECDBFDF91CF911D
:102CA0001F910F91FF90EF90DF90CF90BF90AF906A
:102CB0009F908F907F906F905F904F903F902F905C
:102CC000089582E494E00E94372E089582E494E00F
:102CD0000E94372E089540E050E060E070E082E40A
:102CE00094E00E948A2E08952F923F924F925F9215
:102CF0006F927F928F929F92AF92BF92CF92DF920C
:102D0000EF92FF920F931F93CF93DF93CDB7DEB770
:102D100028970FB6F894DEBF0FBECDBF8C016B01B4
:102D20005E834D830E946B160115110509F4F6C0F0
:102D3000F8010481158118870F830115110509F425
:102D4000EDC06D817E816115710509F4E7C0F80160
:102D5000E484F58406851785208131814281538181
:102D6000E216F3060407150708F0D2C0CB01AA2724
:102D700097FDA095BA2F8E0D9F1DA01FB11F28177C
:102D800039074A075B0720F42E193F093E832D833C
:102D9000EF81F885008CF18DE02DFC83EB83DA82E6
:102DA000C982248035804D805E80ABC0EF81F8857C
:102DB00060887188828893885101CC24DD24408505
:102DC0005185628573858B819C810E949D137B0157
:102DD0008C01C401B301A60195010E94E24744277A
:102DE00037FD4095542F2E0D3F1D401F511F609100
:102DF000D8037091D90301E010E0EB81FC8181815F
:102E00000E94D811892B09F079C0C401B301A60131
:102E100095010E94E2476101421453040CF46201DF
:102E2000CB018C0D9D1D281639061CF46101C61AB4
:102E3000D70A8091D8039091D903680F791FA60112
:102E400089819A810E94654776010027F7FC0095E9
:102E5000102FEF81F88524853585468557852E0D01
:102E60003F1D401F511F248735874687578780891C
:102E70009189A289B3898E0D9F1DA01FB11F808BE0
:102E8000918BA28BB38B80819181A281B381281712
:102E900039074A075B0720F081E090E0978B868B2B
:102EA000EF81F8852089318942895389EB81FC8142
:102EB000868D978DA0A1B1A1281739074A075B0716
:102EC000A0F0EF81F88540855185628573858B81FF
:102ED0009C810E94E213EF81F88560877187828769
:102EE0009387108A118A128A138A69817A816C0DFC
:102EF0007D1D7A8369834C185D0803C08DEF9FEFB9
:102F000009C04114510409F051CF0D811E8108C040
:102F10008EEF9FEFEF81F885958B848B00E010E0BA
:102F20000E946616C80128960FB6F894DEBF0FBE41
:102F3000CDBFDF91CF911F910F91FF90EF90DF9068
:102F4000CF90BF90AF909F908F907F906F905F9049
:102F50004F903F902F900895EF92FF920F931F9301
:102F6000CF93DF93EC010E946B16209749F0EC8120
:102F7000FD81309729F0E080F1800281138108C043
:102F80000FEFE02E0FEFF02E0FEF002F0FEF102FAF
:102F90000E946616C801B701DF91CF911F910F9172
:102FA000FF90EF900895CF93DF93EC010E946B1692
:102FB000209719F4CFEFDFEF0BC08C819D81009734
:102FC00011F00E943526CE010E943526C0E0D0E0E7
:102FD0000E946616CE01DF91CF9108950F931F9343
:102FE0008C010E946B16012B11F41092DE030E94DB
:102FF00066161F910F9108952F923F924F925F9204
:103000006F927F928F929F92AF92BF92CF92DF92F8
:10301000EF92FF920F931F93CF93DF93CDB7DEB75D
:1030200024970FB6F894DEBF0FBECDBF182F0E94B5
:103030006B168091D6039091D703892B41F480E4DD
:1030400090E00E94C2259093D7038093D60380918D
:10305000DA039091DB03892B41F480E490E00E9435
:10306000C2259093DB038093DA038091D80390917B
:10307000D903892B59F480E092E00E94C2259093F5
:10308000D9038093D803892B09F445C18091D603D5
:103090009091D703892B09F43EC18091DA03909176
:1030A000DB03892B09F437C182E2189FF001112458
:1030B000E452FC4F11928A95E9F7E12EFF24270193
:1030C000440C551CC70135E0880F991F3A95E1F76C
:1030D000480E591E2CED33E0420E531EF2011183AF
:1030E000812F0E947D12F20195838483812F0E949B
:1030F0001410019721F4F201838181608383812F71
:103100000E941710019721F4F2018381826083836A
:10311000F201848195818050924019F001E010E025
:10312000FCC0F201838181FF05C020E230E040E075
:1031300050E038C06091D8037091D90301E010E0ED
:1031400020E030E040E050E08E2D0E94D8118C014C
:10315000892B09F0E2C0E091D803F091D903E25045
:10316000FE4F80819181EE5FF14085559A4A09F0CA
:10317000D4C0E653FE4F80819181A281B381EA5C85
:10318000F1400097A105B10509F4C7C0EA53FE4F0D
:10319000208131814281538121153105410551053D
:1031A00009F4BBC06091D8037091D90301E010E02D
:1031B0008E2D0E94D8112090D8033090D9034EEF65
:1031C00051E0240E351ED1018D919C91E2E0FEEF7D
:1031D0002E0E3F1E85559A4A09F09DC0F101858546
:1031E000F2018283F101268937892115310571F0B9
:1031F000C901AA27BB2789839A83AB83BC83D201E9
:103200001C9281E090E0A0E0B0E010C0F10124A1A8
:1032100035A146A157A129833A834B835C8381E082
:10322000D2018C9384A595A5A6A5B7A5F2018687A2
:103230009787A08BB18BF101638574858189928911
:1032400025E0880F991F2A95E1F7860F971F0197B0
:103250000E94BB473B0188249924E684F784002719
:103260001127A48CB58CC68CD78CAE0CBF1CC01E8D
:10327000D11EF201A28AB38AC48AD58A29813A81F1
:103280004B815C81A20EB31EC41ED51EA68AB78ACE
:10329000C08ED18EF10160897727882799270E94F7
:1032A0009047F101248D358D468D578DE20EF31E2A
:1032B000041F151FE60CF71C081D191DE60EF71E4E
:1032C000081F191FF201E28EF38E048F158FF10192
:1032D00085859927F20124813581AC01429FC00187
:1032E000439F900D529F900D1124AA27BB27868FD4
:1032F000978FA0A3B1A36682778280869186298169
:103300003A814B815C81A20EB31EC41ED51EA286DB
:10331000B386C486D58600E010E00E946616C80118
:1033200024960FB6F894DEBF0FBECDBFDF91CF91CC
:103330001F910F91FF90EF90DF90CF90BF90AF90D3
:103340009F908F907F906F905F904F903F902F90C5
:1033500008952F923F924F925F926F927F928F9239
:103360009F92AF92BF92CF92DF92EF92FF920F9314
:103370001F93CF93DF93CDB7DEB72E970FB6F89498
:10338000DEBF0FBECDBFFC01892B09F4A1C2848131
:1033900080330CF49DC282330CF490C2863409F061
:1033A00097C28CC20E946B168091E0039091E1035A
:1033B0000E94C2259E878D87892B09F489C230908F
:1033C000DD03832D0E945F122B013C0180EE9FEFF5
:1033D000AFEFBFEF480E591E6A1E7B1EE2E6F2E019
:1033E0009F012C5F3F4F80819181A281B381841521
:1033F0009505A605B70538F0D9018C919927282E97
:10340000882341F00CC02B5F3F4F3596B2E0243843
:103410003B0749F78D859E850E94352659C299271D
:10342000AA27BB2789839A83AB83BC83C301B201DC
:1034300029813A814B815C810E94E247DA01C9010E
:1034400002E0880F991FAA1FBB1F0A95D1F7815070
:103450009E4FAF4FBF4F19E0B695A79597958795AB
:103460001A95D1F789879A87AB87BC874C015D0194
:10347000880C991CAA1CBB1C89819A81AB81BC81D8
:10348000815A9F4FAF4FBF4F880E991EAA1EBB1E79
:103490008F559040A040B04089839A83AB83BC8312
:1034A0004091E0035091E10360E070E08D859E85DE
:1034B0000E946E47CC24DD24760110C001E010E0AC
:1034C000A70196016D857E85832D0E94D710892BDB
:1034D00051F40894C11CD11CE11CF11CC814D9047E
:1034E000EA04FB0459F780E090E00E9435436D83C5
:1034F0007E838F8398874091E0035091E10360E0E1
:1035000070E08D859E850E946E47AD85BE85A25474
:10351000BE4F1D9281E08D938D931D928BE08D9314
:103520001D921C921296EFE3AE2EB12CC12CD12C21
:10353000FD01A192B192C192D192DF0140825182EC
:1035400062827382AA5CB140BE87AD877EEFE72EB0
:1035500071E0F72EEA0EFB1E65E5862E6AEA962ECE
:10356000F7019182808201E010E020E030E040E04D
:1035700050E0BD01832D0E94D7108C01892B09F0EA
:1035800005C14091E0035091E10360E070E08D855A
:103590009E850E946E478BEEAD85BE858C9388E537
:1035A000FD01818380E982830DE4038393E59483A5
:1035B00084E485831FE41683978385E380878EE206
:1035C000818780E3828780E092E0948783872586E5
:1035D00080E290E09787868782E0808B128A118A4A
:1035E000148A138A88EF858B178A168A8FE390E0F6
:1035F000918F808F8FEF90E0938F828FED85FE8586
:10360000A48EB58EC68ED78E40A251A262A273A29E
:1036100089859A85AB85BC8584A395A3A6A3B7A30A
:1036200011A610A613A612A652E0A52EB12CC12CED
:10363000D12CED85FE85A4A6B5A6C6A6D7A681E0A9
:1036400090E091AB80AB86E090E093AB82ABE05C26
:10365000FF4F1082329689E28193FE87ED876D815C
:103660007E818F819885A30192010E949047AD854C
:10367000BE856D937D938D939D938EE48D931D9365
:1036800090E29D938D9321E42D930D9385E48D938A
:103690009D939D939D939D9386E48D932D9384E5B7
:1036A0008D9383E38D9382E38D939D939D939C9360
:1036B000A955B040BE87AD87F7019182808201E0B5
:1036C00010E02FE330E040E050E0BD01832D0E9488
:1036D000D7108C01892B09F059C001E010E025E4D6
:1036E00030E040E050E06D857E85832D0E94D7104C
:1036F000892B09F0E7C04091E0035091E10360E0BD
:1037000070E08D859E850E946E4781EA9FEFAFEF46
:10371000BFEF480E591E6A1E7B1E82E592E5A1E6A8
:10372000B1E4ED85FE8580839183A283B383EC5160
:10373000FE4F82E792E7A1E4B1E681939193A193D2
:10374000B193FE87ED87C301B20129813A814B8194
:103750005C810E94E247AD85BE852D933D934D93DC
:103760005D93FD01A082B182C282D382EC5EF14002
:10377000FE87ED87D7018D929C9220E430E040E0F7
:1037800050E0BF01832D0E94D7108C010115110557
:1037900009F086C04091E0035091E10360E070E0E1
:1037A0008D859E850E946E472D853E8588EF9FEF13
:1037B000AFEFBFE0F90181939193A193B1939F0182
:1037C0008FEF9FEFAFEFBFE0ED85FE85848395839C
:1037D000A683B783F90184839583A683B78301E029
:1037E00010E02FE530E040E050E06D857E85832DD0
:1037F0000E94D7108C01892B09F052C0C984DA8449
:10380000EB84FC848FE590E0A0E0B0E0C80ED91E08
:10381000EA1EFB1E01E010E0A70196016D857E8582
:10382000832D0E94D710892B09F04CC04091E003F2
:103830005091E10360E070E08D859E850E946E47A7
:1038400095E4AD85BE859C9324E5FD01218388E444
:103850008283938382E584838EE4858385E58683F2
:10386000278380E280878187828788E08387158A23
:10387000148A138E128EED85FE85148E158E168E8B
:10388000178E89859A85AB85BC85C80ED91EEA1E20
:10389000FB1EA7019601BF01832D0E94D7108C014A
:1038A0008D859E850E9435260E946616012B81F427
:1038B000832D0E94FC17009769F00AC06050704188
:1038C00039F470CD8D859E850E9435260E9466163E
:1038D0008FEF9FEF2E960FB6F894DEBF0FBECDBFD1
:1038E000DF91CF911F910F91FF90EF90DF90CF90DC
:1038F000BF90AF909F908F907F906F905F904F9010
:103900003F902F9008950F931F93CF93DF938C01D7
:1039100080E092E00E94C225EC01892B31F0802FDB
:103920000E94FC17CE010E943526DF91CF911F9196
:103930000F910895EF92FF920F931F93CF93DF9310
:10394000FC018091D4039091D5030097A9F5828161
:10395000863409F03FC083818134E1F58481843568
:10396000C9F5848595850797A9F537C04EEE57E1CF
:1039700063E87CE180E090E00E9449138C01892B90
:1039800019F00EEF1FEF14C0B70180E090E00E9425
:103990009312C0E0D0E08C2F0E94FC172196C33018
:1039A000D105C9F781E090E09093D5038093D403CB
:1039B000C7010E9435261CC0019761F482818634BC
:1039C00049F483818D3431F48481803319F400E02B
:1039D00010E00EC00FEF1FEF0BC00E94611680E0D9
:1039E00092E00E94C2257C01892B09F0BFCFEFCF66
:1039F000C801DF91CF911F910F91FF90EF90089533
:103A00002F923F924F925F926F927F928F929F92EE
:103A1000AF92BF92CF92DF92EF92FF920F931F93DC
:103A2000CF93DF93CDB7DEB7A6970FB6F894DEBF7E
:103A30000FBECDBF9EA38DA34B018091D403909167
:103A4000D503892B21F48DA19EA10E949A1C0E946E
:103A50006B166090D6037090D7038DA19EA100973E
:103A600009F422C1FC01848180330CF41DC182332E
:103A70000CF41DC1863409F017C119C1F40180810D
:103A8000882309F411C18AE190E00E94C2255C01FB
:103A90008091EE039091EF03A091F003B091F103B8
:103AA0000097A105B10509F41AC1A114B10409F4E4
:103AB000FBC0F40180818E3209F4E7C08AE1F50190
:103AC00011928A95E9F72090EA033090EB03409039
:103AD000EC035090ED03F40180818F3209F006C1B0
:103AE00002C1FFE3EF16F1040CF003C183010E0DD8
:103AF0001F1D992787FD90950E940448F801808337
:103B00000894E11CF11C0894811C911CF401808133
:103B10008F3209F4D2C08C3509F4CFC0882309F75D
:103B2000CCC06EE270E0C3010E947547009721F49B
:103B300009301105D8F50BC0DC011196FD0101908B
:103B40000020E9F73197EA1BFB0B349778F58E01DB
:103B50000B5F1F4F80E2F80111928A95E9F748E068
:103B600050E060E270E0C8010E946E4743E050E020
:103B700060E270E0CE010D960E946E47D801F3011D
:103B8000930104C08D932F5F3F4F319680818E3219
:103B900019F08823B9F70DC0F901DE011D9601C0A7
:103BA0008D93818131968823D9F703C021E030E0DD
:103BB00002C020E030E0F40180818F3209F448C077
:103BC0008C3509F445C0882309F05FC080E2888BFA
:103BD0008091DF0380FD8DC08CED882E83E0982ED0
:103BE00069017E010894E11CF11C92018101A3018D
:103BF000BE016B5F7F4FC4010E946D149B01AC013D
:103C0000611571058105910509F473C089819A8157
:103C1000AB81BC81F50180839183A283B38324832C
:103C2000358346835783208731874287538714869D
:103C3000158616861786108A118A128A138A918E23
:103C4000808E158A148A178A168A80E090E053C005
:103C500080E1888B8091DF0380FD4BC069017E018C
:103C60000894E11CF11C92018101A301BE016B5F6C
:103C70007F4F8CED93E00E946D141B012C016115A8
:103C8000710581059105A9F12EC0C5010E94352657
:103C90000BC086E090E00E94C2258C01009771F570
:103CA000C5010E94352633C00FEF1FEF30C0809151
:103CB000DE03882309F0E2CEF7CFE60CF71CF7010C
:103CC0001082F30101900020E9F78F0101501040AC
:103CD000061917090D30110508F068CF22CFA1147D
:103CE000B10499F6E1CF0894811C911CEE24FF24C5
:103CF0000DCF81E090E0019761F6C7CFFC01118202
:103D000010828DA19EA193838283B582A4820E949A
:103D10006616C801A6960FB6F894DEBF0FBECDBFDB
:103D2000DF91CF911F910F91FF90EF90DF90CF9097
:103D3000BF90AF909F908F907F906F905F904F90CB
:103D40003F902F9008958FEF9FEF08952F923F920D
:103D50004F925F926F927F928F929F92AF92BF929B
:103D6000CF92DF92EF92FF920F931F93CF93DF9347
:103D70005C016B014A0129013801170181E090E0E3
:103D80000E94D60FC0E0D0E07601850109C0F8019D
:103D900081918F010E94CB0FF70181937F012196C2
:103DA000C815D905A4F3C0E0D0E07301820109C0B1
:103DB000F80181918F010E94CB0FF70181937F0160
:103DC0002196C215D305A4F30E94B30F80E090E0C2
:103DD000DF91CF911F910F91FF90EF90DF90CF90E7
:103DE000BF90AF909F908F907F906F905F904F901B
:103DF0003F902F900895EF92FF920F931F93CF93D0
:103E0000DF93CDB7DEB722970FB6F894DEBF0FBEB3
:103E1000CDBF87ED89838FEF8A83EE24FF2400E0F6
:103E200010E020E030E042E050E0CE010196BC011D
:103E30000E94A61E892B19F08FEF90E002C08A81A4
:103E4000992722960FB6F894DEBF0FBECDBFDF9143
:103E5000CF911F910F91FF90EF9008950F931F93B3
:103E60000E94FB1E0E94FB1E082F60E070E0209164
:103E70004404309145040EC06F5F7F4F80858023DE
:103E80009185891739F48AE0189F900111242058F0
:103E90003D4F18C0162F462F5527FA01EE0FFF1F72
:103EA000CA01A3E0880F991FAA95E1F7E80FF91F4F
:103EB000E058FD4F80819181A281B3810097A105D7
:103EC000B105D1F63093450420934404CA011F91F3
:103ED0000F910895EF92FF920F931F93CF93DF936B
:103EE0007B018C01EA0119C0209731F461E070E098
:103EF00080E090E00E94A22B0894E108F1080109FB
:103F000011098FEFE8168FEFF8068FEF08078FEF94
:103F1000180719F48FEF9FEF06C00E94FB1E87FF62
:103F2000E3CF80E090E0DF91CF911F910F91FF9060
:103F3000EF9008955F926F927F928F929F92AF92CF
:103F4000BF92CF92DF92EF92FF920F931F93CF9386
:103F5000DF93582E4A015B01E901380187012930BE
:103F600031051CF08FEF9FEF23C0A90160E070E0E6
:103F700086E494E00E946E475092460481149104B6
:103F8000A104B10469F0C501AA27BB2780934704A7
:103F9000BB27AB2D9A2D892D80934804809249042C
:103FA00076019301AE0166E474E0CB010E94A61E87
:103FB000DF91CF911F910F91FF90EF90DF90CF9005
:103FC000BF90AF909F908F907F906F905F9008957B
:103FD0008F929F92AF92BF92CF92DF92EF92FF9219
:103FE0000F931F93CF93DF934B015C018A0169010B
:103FF000C9010E945A43EC01009719F40FEF1FEF1B
:1040000036C07C0124E030E040E050E060E070E049
:1040100084E80E949A1F892B29F5E0914404F091CD
:104020004504068004C0880C991CAA1CBB1C0A9479
:10403000D2F7CC24DD24EE24FF2400E010E024E0BD
:1040400030E0B501A40183E80E949A1F892B51F446
:1040500041E050E068EE73E080E090E00E946A1F6B
:104060008C0102C00FEF1FEFCE010E945743C80121
:10407000DF91CF911F910F91FF90EF90DF90CF9044
:10408000BF90AF909F908F900895CF92DF92EF9264
:10409000FF920F931F93E0914404F0914504068032
:1040A00004C0660F771F881F991F0A94D2F7690111
:1040B0007A018A0128E030E0AB01BC0188EE0E9461
:1040C0009A1F1F910F91FF90EF90DF90CF9008956E
:1040D000CF92DF92EF92FF920F931F93AA27BB27F5
:1040E000CC24DD24EE24FF2400E010E024E030E0C6
:1040F000AC01BD0181E80E949A1F1F910F91FF90B2
:10410000EF90DF90CF900895609570958095909591
:1041100020914E0430914F0440915004509151042D
:10412000262337234823592320934E0430934F04EA
:10413000409350045093510480E090E00895AF9272
:10414000BF92CF92DF92EF92FF920F931F93CF9384
:10415000DF93CDB7DEB722970FB6F894DEBF0FBE60
:10416000CDBF9B015A01492F552749838A83CC240F
:10417000DD247601850142E050E0BE016F5F7F4F94
:1041800087E50E94963D8A159B0519F480E090E032
:1041900002C08FEF9FEF22960FB6F894DEBF0FBEDE
:1041A000CDBFDF91CF911F910F91FF90EF90DF90E6
:1041B000CF90BF90AF900895AF92BF92CF92DF9211
:1041C000EF92FF920F931F93CF93DF93CDB7DEB79C
:1041D00022970FB6F894DEBF0FBECDBF9B015A01E8
:1041E00019828A83CC24DD2476018A0142E050E0E2
:1041F000BE016F5F7F4F8FE60E94963D8A159B053B
:1042000019F480E090E002C08FEF9FEF22960FB686
:10421000F894DEBF0FBECDBFDF91CF911F910F91FC
:10422000FF90EF90DF90CF90BF90AF9008950F93E5
:104230001F93CF93DF93CDB7DEB721970FB6F894D6
:10424000DEBF0FBECDBF8C0141E050E0BE016F5F0D
:104250007F4F8FE30E94DC20892BE9F48981992725
:10426000AA27BB2720914E0430914F04409150045F
:1042700050915104822B932BA42BB52B80934E0489
:1042800090934F04A0935004B0935104F80180839D
:104290009183A283B38380914E0490914F04219621
:1042A0000FB6F894DEBF0FBECDBFDF91CF911F9147
:1042B0000F910895CF93DF93CDB7DEB724970FB654
:1042C000F894DEBF0FBECDBF80E00E94923C009705
:1042D00021F4CE0101960E94172124960FB6F8947E
:1042E000DEBF0FBECDBFDF91CF910895EF92FF9259
:1042F0000F931F93CF93DF93CDB7DEB728970FB6F9
:10430000F894DEBF0FBECDBF8C0148E050E0BE0187
:104310006F5F7F4F80E30E94DC207C01892B09F0D6
:1043200073C02981822F82958F706AE0869FC001B9
:1043300011242F70820F911DD8018D939C932A8197
:10434000822F82958F70869FC00111242F70820F5B
:10435000911DF801938382832B813327C9018F73C9
:104360009070B4E095958795BA95E1F7AC01A3E01C
:10437000440F551FAA95E1F7880F991F840F951FC9
:104380002F703070820F931F958384832C81822F2E
:1043900082958F70869FC00111242F70820F911D0E
:1043A000978386832D81822F82958F70869FC0018F
:1043B00011242F70820F911D0197918780878E8124
:1043C000282F22952F70269FA001112499278F70E6
:1043D00090708C599F4F480F591F538742872885EB
:1043E000822F82958F70869FC00111242F70820FBB
:1043F000911D4A9724F04C595F4F538742878F8114
:104400009927F80195878487C70128960FB6F894F5
:10441000DEBF0FBECDBFDF91CF911F910F91FF90F7
:10442000EF900895AF92BF92CF92DF92EF92FF92FA
:104430000F931F93CF93DF93CDB7DEB723970FB6BC
:10444000F894DEBF0FBECDBF19822FE32A835E0131
:104450000894A11CB11C892BA1F082E08B83CC2491
:10446000DD24760100E010E020E030E043E050E0A1
:10447000B5018FE60E94963D009789F486E08B8314
:1044800006C01B82CC24DD24760100E010E020E091
:1044900030E043E050E0B5018FE60E94963D239660
:1044A0000FB6F894DEBF0FBECDBFDF91CF911F9145
:1044B0000F91FF90EF90DF90CF90BF90AF90089555
:1044C000AF92BF92CF92DF92EF92FF920F931F9322
:1044D000CF93DF93CDB7DEB721970FB6F894DEBF49
:1044E0000FBECDBF13E1A12EB12C0FC061E070E073
:1044F00080E090E00E94A22B0894A108B108A114CA
:10450000B10419F48FEF9FEF14C0CC24DD247601A1
:1045100001E010E09E012F5F3F4F40E050E060E07F
:1045200070E087E50E94963D8F5F9F4FF9F280E033
:1045300090E021960FB6F894DEBF0FBECDBFDF919D
:10454000CF911F910F91FF90EF90DF90CF90BF9090
:10455000AF9008952F923F924F925F926F927F9209
:104560008F929F92AF92BF92CF92DF92EF92FF9283
:104570000F931F93CF93DF933C014A012B0100E07F
:1045800010E046C0C3018F73907020E430E0281B18
:10459000390B54012815390508F4590182E0282EF9
:1045A000312C2A0C3B1CC1010E945A43EC01892B7F
:1045B000A1F1872D992788836982A501B201CE01D7
:1045C00002960E94654781E090E00E9412228C01D1
:1045D000892B31F5CC24DD24760100E010E020E0C9
:1045E00030E0A101BE0187E50E94963D8C01CE011D
:1045F0000E94574301151105B1F40E9460228C01FD
:10460000892B89F48A189B086A0C7B1C4A0C5B1C5A
:104610008114910409F0B6CF06C00FEF1FEF03C05D
:10462000CE010E94574380E090E00E941222C80110
:10463000DF91CF911F910F91FF90EF90DF90CF907E
:10464000BF90AF909F908F907F906F905F904F90B2
:104650003F902F9008958F929F92AF92BF92CF92EA
:10466000DF92EF92FF920F931F93CF93DF934C0152
:104670005B01EA0181E090E00E9412228C01892B0B
:10468000C1F4CC24DD24760100E010E020E030E02D
:10469000AE01B5018FE60E94963D8C01892B29F46D
:1046A000892819F00E9460228C0180E090E00E942D
:1046B0001222C801DF91CF911F910F91FF90EF90CF
:1046C000DF90CF90BF90AF909F908F900895EF9222
:1046D000FF920F931F93CF93DF93CDB7DEB72A9747
:1046E0000FB6F894DEBF0FBECDBF8B017A012AE072
:1046F000FE01319611922A95E9F723E0880F991F60
:104700002A95E1F78A836115710509F47AC040FFA3
:1047100012C0FB0140815181842F6AE00E94AF47A3
:10472000282F2295207FCA016AE070E00E94CF47BF
:10473000280F20682B83E1FE12C0F80142815381CB
:10474000842F6AE00E94AF47282F2295207FCA015C
:104750006AE070E00E94CF47280F20682C83E2FEB9
:1047600012C0F80144815581842F6AE00E94AF474E
:10477000282F2295207FCA016AE070E00E94CF476F
:10478000280F20682D83E3FE12C0F801468157816F
:10479000842F6AE00E94AF47282F2295207FCA010C
:1047A0006AE070E00E94CF47280F20682E83E4FE65
:1047B00014C0F80140855185842F8F5F6AE00E9404
:1047C000AF47282F2295207FCA0101966AE070E04A
:1047D0000E94CF47280F20682F83E7FE12C0F80100
:1047E00044855585842F6AE00E94AF47282F229583
:1047F000207FCA016AE070E00E94CF47280F20683E
:1048000029874AE050E0BE016F5F7F4F81E090E072
:104810000E942B232A960FB6F894DEBF0FBECDBFA1
:10482000DF91CF911F910F91FF90EF900895EF923C
:10483000FF920F931F93CF93DF93CDB7DEB72897E7
:104840000FB6F894DEBF0FBECDBF7B018A01FA011F
:104850001182108292E1FB0111929A95E9F748E0EA
:1048600050E0BE016F5F7F4F880F880F880F0E9456
:10487000DC20BC01892B09F09FC0298127FF20C0C3
:10488000F801808191818160918380833327C90100
:104890008F779070F4E095958795FA95E1F7AC01E4
:1048A000E3E0440F551FEA95E1F7880F991F840F45
:1048B000951F2F703070820F931FF70191838083B3
:1048C0003A8137FF13C0F801808191818260918322
:1048D0008083832F82958F702AE0829FC0011124EC
:1048E0003F70830F911DF701938382832B8127FFF4
:1048F00020C0F80180819181846091838083332777
:10490000C9018F779070A4E095958795AA95E1F7F6
:10491000AC01F3E0440F551FFA95E1F7880F991F9A
:10492000840F951F2F703070820F931FF7019583AE
:1049300084833C8137FF13C0F801808191818860B6
:1049400091838083832F82958F702AE0829FC0019C
:1049500011243F70830F911DF701978386833D815A
:1049600037FF14C0F8018081918180619183808339
:10497000832F82958F702AE0829FC00111243F709F
:10498000830F911D0197F701918780873F8137FF42
:1049900013C0F80180819181806891838083832F87
:1049A00082958F702AE0829FC00111243F70830F8F
:1049B000911DF70195878487CB0128960FB6F8944F
:1049C000DEBF0FBECDBFDF91CF911F910F91FF9042
:1049D000EF9008950F931F93CF93DF93CDB7DEB77A
:1049E0002A970FB6F894DEBF0FBECDBF8C018AE0C8
:1049F000FE01319611928A95E9F70115110509F426
:104A000081C080E38A83F80140815181842F6AE06C
:104A10000E94AF47282F2295207FCA016AE070E0EC
:104A20000E94CF47280F2B8342815381842F6AE055
:104A30000E94AF47282F2295207FCA016AE070E0CC
:104A40000E94CF47280F2C8344815581842F6AE030
:104A50000E94AF47282F2295207FCA016AE070E0AC
:104A60000E94CF47280F20682D8346815781842FCD
:104A70006AE00E94AF47282F2295207FCA016AE092
:104A800070E00E94CF47280F2E8340855185842FE8
:104A90008F5F6AE00E94AF47282F2295207FCA01CE
:104AA00001966AE070E00E94CF47280F2F8342856D
:104AB0005385443651059CF0842F84566AE00E9449
:104AC000AF47282F2295207FCA01845690406AE084
:104AD00070E00E94CF47280F288780E20FC0842F04
:104AE0006AE00E94AF47282F2295207FCA016AE022
:104AF00070E00E94CF47280F288789E18A87F80154
:104B0000848589874AE050E0BE016F5F7F4F80E077
:104B100090E00E942B232A960FB6F894DEBF0FBEBA
:104B2000CDBFDF91CF911F910F9108958093E30244
:104B300008950E94202D20E033E040E050E06CE238
:104B400075E08EED92E00E9494308EEF0E94C629AF
:104B50000E944A2A0E9491292091E3022F3FC1F32B
:104B600093B783B7817F822B83BF83B7816083BF75
:104B7000889583B78E7F83BF83B7817F9E70892B93
:104B800083BFE6CF0F931F93CF93DF93009153041E
:104B9000109154048017910730F080E090E060C0DD
:104BA000EF01DB012FC0AC014A5F5F4F443051057C
:104BB00010F444E050E0E091F106F091F20661EF6C
:104BC00076E0C0E0D0E0A0E0B0E017C02081318105
:104BD0002417350760F02417350711F3209729F0C3
:104BE000888199812817390710F4EF01DB01BF0193
:104BF0006E5F7F4F0280F381E02D309739F7CE0151
:104C0000209771F128813981CA010A966A817B81D6
:104C10008217930770F4FE01E40FF51F241B350B78
:104C2000318320837383628359834883ED93FC939C
:104C300002C06D937C93E881F9810E1B1F0B1093CA
:104C4000540400935304EC0FFD1F34978FEE9EEB3A
:104C5000ADEABEED80839183A283B383CE01029639
:104C6000DF91CF911F910F910895CF93DF93DC01D6
:104C700012976D917C911197E091F106F091F206F7
:104C8000C1EFD6E03AC040815181CF01840F951F1A
:104C90008A179B07C1F49A01260F371F318320839F
:104CA00082819381DF01A20FB31FA817B90791F585
:104CB0008D919C911197280F391F31832083ED012D
:104CC0008A819B8125C0AE17BF0778F4B983A8837A
:104CD0002D913C911197CD01820F931F8E179F0745
:104CE00079F0ED01FB83EA8315C0A817B90728F115
:104CF000EF0122960280F381E02D309721F617C054
:104D0000240F351F11963C932E9382819381FD01D0
:104D1000938382838091530490915404860F971F4C
:104D2000909354048093530480E090E008C0FD0108
:104D300013821282B983A883EDCF8FEF9FEFDF91AB
:104D4000CF910895FC0161937193CF010E943526A4
:104D50000895809153049091540408950F931F93E4
:104D6000CF93DF938C010E94C225EC01009729F0BC
:104D7000A80160E070E00E946E47CE01DF91CF9104
:104D80001F910F91089580915E0490915F0490931C
:104D90006304809362049093660480936504109288
:104DA00064041092670422E02093FFFF21E0209327
:104DB000550410925A0410925B0410925C041092F5
:104DC0005D04089580E090E890935F0480935E0412
:104DD00080E090EC909361048093600480E090E820
:104DE000A7E0B0E08093560490935704A093580432
:104DF000B09359040E94C3260895FC018091550484
:104E0000882389F49091640480916704981759F479
:104E1000209162043091630480916504909166044E
:104E20008217930740F4809160049091610420916F
:104E3000620430916304821B930B91838083809181
:104E400064048E5F8093FFFF8091620490916304FD
:104E50000895FC0180915504882319F01182108275
:104E600027C09091640480916704981759F42091A9
:104E70006504309166048091620490916304281760
:104E8000390768F080916004909161042091650475
:104E900030916604821B930B9183808309C0821B2F
:104EA000930B91838083892B19F481E080935504BF
:104EB000809167048E5F8093FFFF809165049091DD
:104EC00066040895009709F440C0609162047091EF
:104ED0006304680F791F70936304609362041092F7
:104EE00055049C014427552780915A0490915B04F6
:104EF000A0915C04B0915D04820F931FA41FB51FA5
:104F000080935A0490935B04A0935C04B0935D0477
:104F1000809160049091610468177907B1F48091E1
:104F20005E0490915F049093630480936204809187
:104F300064048F5F809364048E3114F010926404D3
:104F4000809164048E5F8093FFFF80916204909152
:104F500063040895009709F452C06091650470914C
:104F60006604680F791F70936604609365049C0162
:104F70004427552780915A0490915B04A0915C04CA
:104F8000B0915D04821B930BA40BB50B80935A0464
:104F900090935B04A0935C04B0935D0480916004E3
:104FA0009091610468177907B1F480915E04909143
:104FB0005F049093660480936504809167048F5F1B
:104FC000809367048E3114F0109267048091670417
:104FD0008E5F8093FFFF209165043091660480917D
:104FE0006204909163042817390749F4909167048B
:104FF00080916404981719F481E08093550480919E
:1050000065049091660408950097D9F16091620457
:1050100070916304680F791F709363046093620456
:105020009C014427552780915A0490915B04A091DC
:105030005C04B0915D04820F931FA41FB51F809381
:105040005A0490935B04A0935C04B0935D041092A7
:10505000550480916004909161046817790789F480
:1050600080915E0490915F04909363048093620446
:10507000809164048F5F809364048E3114F01092E9
:105080006404809167048E5F8093FFFF089500970A
:1050900009F44DC06091650470916604680F791F32
:1050A00070936604609365049C01442755278091A2
:1050B0005A0490915B04A0915C04B0915D04821B42
:1050C000930BA40BB50B80935A0490935B04A093AD
:1050D0005C04B0935D048091600490916104681752
:1050E000790789F480915E0490915F04909366043F
:1050F00080936504809167048F5F809367048E318D
:1051000014F0109267042091650430916604809138
:105110006204909163042817390749F49091670459
:1051200080916404981719F481E08093550480916C
:1051300064048E5F8093FFFF089560915604709120
:105140005704809158049091590420915A04309149
:105150005B0440915C0450915D04621B730B840BF3
:10516000950B089560915A0470915B0480915C04E2
:1051700090915D04089580915A0490915B04A091F0
:105180005C04B0915D0480509044A040B040809396
:105190005A0490935B04A0935C04B0935D048091E7
:1051A00067048F5F809367048E3114F01092670458
:1051B000809167048E5F8093FFFF0895CF93DF9304
:1051C000DC019B01EC01788F6F8B1D821C820FB676
:1051D000F8940F92EB01E881F9818FEFEF3FF80728
:1051E00049F4ED018C819D8101969D838C83E0E0E3
:1051F000F0E015C0309799F00F900FBEED019A893D
:1052000008C09F012E5F3F4F0280F381E02D309751
:1052100019F082899817A8F70FB6F8940F92ED014C
:10522000FB83EA83F901B183A083EA81FB81309794
:1052300071F084819581892B51F08C819D8124812D
:105240003581820F931F9D838C83158214820F906A
:105250000FBEDF91CF910895CF93DF939C01DB01C7
:105260000FB6F8940F92ED91FC9111970F900FBE2D
:105270008FEFEF3FF80731F527C082819381E21766
:10528000F307E9F40FB6F8940F9211969C938E935E
:1052900084819581892B59F0A281B381109729F0DF
:1052A00084819581ED019D838C83158214820F90FA
:1052B0000FBEF90113821282108E178A05C0DF011A
:1052C0001296FC013097C9F6DF91CF910895FB014A
:1052D000168A158A82E0878765EF76E0CF010E9403
:1052E000DE2808950F931F93CF93DF938C01C09115
:1052F000F306D091F4060CC0B801CE0106960E94C8
:105300008047892B11F4CE0107C00990D881C02DA8
:10531000209791F780E090E0DF91CF911F910F915E
:105320000895E091F906F091FA06309741F08389EB
:1053300094890E9435261092FA061092F906089573
:10534000CF93DF93C091F306D091F4060E94912988
:105350002091F7063091F806E3EFF6E00AC0888165
:105360009981C217D30719F49183808304C0FE0189
:10537000EC012097A1F78091F7069091F8069093A1
:10538000FA068093F906DF91CF9108950F931F934A
:10539000182FE091F706F091F806028965EF76E0A4
:1053A000CF010E942C29E091F706F091F806128BAC
:1053B0001F3F49F065EF76E08091F7069091F8067F
:1053C0000E94DE2802C00E94A029E091F706F09119
:1053D000F8068091F5069091F606E817F90719F49A
:1053E00081E0878709C082E087870FB6F8940F9223
:1053F0000E9455300F900FBE802F99271F910F915B
:1054000008958FEF0E94C6290895CF93DF93C0912E
:10541000F306D091F40620C00FB6F8940F928C8159
:105420009D810F900FBE892BA1F0EF89F88D0FB6EB
:10543000F8940F928C819D8101979D838C830F90AE
:105440000FBE808191818F5F9F4F19F0CF010E9425
:10545000A82D0990D881C02D2097F1F60E94942C98
:10546000E091F706F091F8068091F5069091F60626
:10547000E817F90761F08785813011F482E08787AA
:105480000FB6F8940F920E9455300F900FBEDF9127
:10549000CF910895E091F706F091F806828193810B
:1054A000892B69F065EF76E0CF010E942C2965EF2A
:1054B00076E08091F7069091F8060E94DE280E941F
:1054C000052A08958091010790910207A091030792
:1054D000B09104070196A11DB11D8093010790931F
:1054E0000207A0930307B093040708959B01AC0142
:1054F0006091FB067091FC068091FD069091FE067E
:105500000E94904728EE33E040E050E00E94E247DE
:1055100001C000002150310941095109D0F7089517
:105520009927AA27BB27BC01CD0128EE33E040E034
:1055300050E00E9490470E94762A0895CF93DF930F
:10554000EC011B821A82E091FF06F09100071AC05D
:10555000288539854A855B8580859185A285B385B7
:10556000281739074A075B0780F0281B390B4A0BBD
:105570005B0B288739874A875B87FB83EA83019027
:10558000F081E02D309721F718C0821B930BA40BFC
:10559000B50B80879187A287B387F983E883D3838C
:1055A000C283EA81FB81309719F0D183C08308C0A0
:1055B000D0930007C093FF0603C019821882F1CF71
:1055C000DF91CF910895CF93DF93FC011482158270
:1055D000168217821586148680859185A285B385EB
:1055E0000097A105B10561F1A281B381808191810C
:1055F000109719F08D939C9304C0909300078093AB
:10560000FF06C081D1812097A1F0828193819B8385
:105610008A8388859985AA85BB85208531854285C1
:105620005385820F931FA41FB51F88879987AA8768
:10563000BB871086118612861386CF010E949E2A90
:10564000DF91CF9108950FB6F8940F926091010702
:105650007091020780910307909104070F900FBE8D
:105660000895AF92BF92CF92DF92EF92FF920F9385
:10567000CF93DF936B017C01EA01590180E190E057
:105680000E94C225FC01892B81F10FB6F8940F927C
:105690008091010790910207A0910307B091040740
:1056A0000F900FBE8C0D9D1DAE1DBF1D2091680477
:1056B0003091690440916A0450916B04821B930BF2
:1056C000A40BB50B80879187A287B38700FF05C025
:1056D000148215821682178204C0C482D582E682A3
:1056E000F782D587C487B786A686CF01DF91CF9191
:1056F0000F91FF90EF90DF90CF90BF90AF90089503
:105700000F93CF93DF930E94312BEC01009711F0A0
:105710000E949E2ACE01DF91CF910F910895CF92E2
:10572000DF92EF92FF920F936A0179010E94663136
:105730009701A6010E94802B0F91FF90EF90DF90C0
:10574000CF900895AF92BF92CF92DF92EF92FF92E7
:105750000F93CF93DF935B016C0161157105810598
:105760009105D1F1C5EFD6E0BE018091F706909189
:10577000F8060E942C29E091F706F091F80683E0E4
:105780008787E090F706F090F80601E0970147E67A
:1057900059E2C601B5010E948F2BF701968B858BCC
:1057A000892B19F00E94052A19C0E091F706F091A3
:1057B000F806D08FC78B8091F5069091F6069383FB
:1057C000828381E087878091F7069091F806909315
:1057D000F6068093F50602C00E944A2ADF91CF9117
:1057E0000F91FF90EF90DF90CF90BF90AF90089512
:1057F0002F923F924F925F926F927F928F929F92E1
:10580000AF92BF92CF92DF92EF92FF920F931F93CE
:10581000CF93DF93CDB7DEB724970FB6F894DEBFF2
:105820000FBECDBF0FB6F8940F92A0900107B090B5
:105830000207C0900307D09004070F900FBE0E948C
:105840003C319B01AC01C601B5010E94E247390120
:105850004A010E943C311B012C010E943C316983AA
:105860007A838B839C83C401B30128EE33E040E04C
:1058700050E00E9490477B018C01C401B301A2015A
:1058800091010E949047A61AB70AC80AD90AC60110
:10589000B50128EE33E040E050E00E9490472981B6
:1058A0003A814B815C810E94E247E20EF31E041FA5
:1058B000151FC801B70124960FB6F894DEBF0FBEBE
:1058C000CDBFDF91CF911F910F91FF90EF90DF90AF
:1058D000CF90BF90AF909F908F907F906F905F9090
:1058E0004F903F902F900895EF92FF920F931F9348
:1058F0000FB6F8940F92E0900107F0900207009124
:105900000307109104070F900FBE0E943C319B01CA
:10591000AC01C801B7010E94E247CA01B9011F9159
:105920000F91FF90EF900895EF92FF920F931F93C6
:10593000CF93DF930FB6F8940F9220910107309127
:10594000020740910307509104070F900FBE80910A
:10595000680490916904A0916A04B0916B04790184
:105960008A01E81AF90A0A0B1B0B2093680430938A
:10597000690440936A0450936B044FC088859985ED
:10598000AA85BB85E816F9060A071B07A0F48E193D
:105990009F09A00BB10B88879987AA87BB870097BF
:1059A000A105B10521F0EE24FF24870136C0EE24C5
:1059B000FF24870108C0E81AF90A0A0B1B0B188696
:1059C00019861A861B86EC85FD85309721F06E8539
:1059D0007F85CE011995E091FF06F09100070190B7
:1059E000F081E02DF0930007E093FF06309711F06F
:1059F000138212828C819D81AE81BF8188879987B5
:105A0000AA87BB870097A105B10521F4CE010E94AA
:105A1000352603C0CE010E949E2AC091FF06D09178
:105A20000007209731F0E114F1040105110509F098
:105A3000A5CFDF91CF911F910F91FF90EF90089527
:105A400082E69AE20E9441318091700082608093E8
:105A500070000FB6F8940F92209101073091020761
:105A600040910307509104070F900FBE0FB6F894B2
:105A70000F928091010790910207A0910307B091C6
:105A800004070F900FBE281739074A075B0771F309
:105A90000FB6F8940F9220910107309102074091C0
:105AA0000307509104070F900FBE13C08091FB06AF
:105AB0009091FC06A091FD06B091FE060196A11DF5
:105AC000B11D8093FB069093FC06A093FD06B09356
:105AD000FE060FB6F8940F9280910107909102078D
