:100000000C94CA040C943C050C943C050C943C05DF
:100010000C943C050C942F650C94CE780C94EB65F5
:100020000C943C050C943C050C943C050C943C054C
:100030000C943C050C94D7660C943C050C943C0540
:100040000C943C050C943C050C943C050C943C052C
:100050000C943C050C943C050C943C050C94616696
:100060000C943C050C94D8720C943C050C9453737E
:100070000C943C050C943C050C943C050C943C05FC
:100080000C943C050C943C050C943C050C943C05EC
:100090000C94CD730C943C050C9448740C945E72D3
:1000A0000C943C050C943C050C943C050C943C05CC
:1000B0000C943C050C943C050C943C050C943C05BC
:1000C0000C943C050C943C050C943C05DB682469BD
:1000D0006B699169A569CD69D569FA69D8681C6AA7
:1000E000636A696A6F6A756A926A7B6A926AC86AA9
:1000F0009D6AB26A5254432074696D65205B253055
:1001000032643A253032643A253032645D002D2D58
:100110002D2D2D2D2D2D2D2D2D2D2D2D2D2D2D2D0F
:100120002D2D2D2D2D2D2D2D2D2D2D2D2D2D2D2DFF
:100130002D2D2D2D2D2D2D2D2D2D2D2D2D2D2D2DEF
:100140002D2D2D2D2D2D2D2D2D2D2D2D2D2D2D2DDF
:100150002D2D2D2D2D2D2D2D2D2D2D2D2D2D2D2DCF
:100160002D2D2D2D2D2D2D2D2D2D2D2D2D005431C1
:100170000077007561727430000A000A23446562DA
:10018000756720000A23496E666F2020000A234EFF
:100190006F74696320000A235761726E2020000A81
:1001A00023457272202020000A23437269742020A4
:1001B000000A23416C65727420000A23456D657244
:1001C0006720003F3F203C444D4B3E200057443ABF
:1001D000200056533A200056453A200055543A2004
:1001E0000055443A200055413A200053523A20002D
:1001F00053503A200053473A200053453A200053C9
:10020000543A200052543A200052433A2000504CB5
:100210003A200050413A20004D443A20004D4D3ADA
:1002200020004D453A200053593A20004C473A20CF
:10023000004C453A20004B423A2000494E3A2000FB
:1002400048543A2000464C3A200046413A200044A7
:10025000503A2000434D3A200043483A200041558F
:100260003A200030803000170780B0173C06001796
:1002700050003F24000600162012008F570000CEC9
:10028000101229009900004D0080404C180600D73C
:10029000960028550D0000480D0600505B093042BD
:1002A0000080B00180144240BC182840C713364279
:1002B0003C003E03B81400031B1500C259D66F243E
:1002C00000003603981228D55700004D0000284042
:1002D0002BF33624004C80103E1438103E0A78135D
:1002E0003E0DB8033E05F806009555093015141B60
:1002F00000D4FF0300CEFF01000A000024CE168ABE
:10030000B5240092F200945261240002FE2400B24F
:100310004824004A4501B6F33605D8F3360D98F067
:10032000360A5800200000F0361418618013362475
:1003300000123E17B8123E1538053E14B825362473
:100340000000000A80103E03B8944105B8113E2415
:1003500000113E07B8143E1278143E0DF8033E0E0D
:10036000F8060051000028D5240000240088B812A7
:10037000000464050400002400002858219440244F
:100380000000240221000024009864030856FE2483
:1003900000B6482400D64D2400103A24C0F0322480
:1003A000C056FE2400B6482400D64D240084438362
:1003B0004496638C8800F4D540003D24800600916B
:1003C000003F00C3FE060053000131248060FE247C
:1003D00000BE48240034A6030C24432400844202B7
:1003E0002C060011000028D82400312480060011BA
:1003F00050003924800600110000314C9884424C92
:100400009000F488400028452800002400F03C407B
:1004100038093041380930103800200000000088C9
:10042000270930D01B002880280930811BF334CCE9
:100430001BF3360ED8F4360DD8F4361258F13607C1
:1004400098F1360518F036039805341490F33624E5
:1004500000F236151800200000F2361798AD801211
:100460003E17B8123E1538053E14B8153624000064
:10047000000A80103E0278103E04F8113E107814F5
:100480003E1278132980C9143E24C0132980C988DC
:10049000404C1800F405400000C01800642400001F
:1004A00000C01B00289530300010030028803F0159
:1004B000382440006424000000401A002855370604
:1004C00000D0550000037D84B84C18093005380968
:1004D0003000008AFF24001D29007BB24824000060
:1004E000004118060010508A4044B80029001388C3
:1004F0004024000030CC1B14602400300051030065
:1005000028D53600002400060011000031240030F8
:10051000005103003824000028803F0139244000A6
:100520006424003000D0030028553F0000037D06FE
:1005300000D05584B84C1809300538093000008ABD
:10054000FF24001D29007BB24824008A40CC9B0078
:100550000041180028553B060010509A68240000FE
:1005600030240014602400300092030028853E06E9
:100570000091000600110000005218060053008090
:10058000B800240600910004382480300092030053
:100590003B2400013924400028803F013A244001D7
:1005A00038244080B8D31BF4361258F1361058F076
:1005B0003604D8F036025805341490F3362400F28D
:1005C00036151800200000F23617983000000000A1
:1005D00000457869740000000053EF6E00000000D1
:1005E0004578697453EF6E4DEA6D540000000007C2
:1005F000060606060606060606060606060606069B
:10060000060606060606060606060606060606068A
:10061000060606060606060606060606060606067A
:100620000606060606060606070606060606060669
:10063000060606060606060606060606060606065A
:10064000060606060606060606060606060606064A
:100650000606060706060606060606060606060639
:10066000060606060606060606060606060606062A
:10067000060606060606060606060606060606061A
:10068000060606060606060606060606060606060A
:1006900006060606060606060606060606060606FA
:1006A00006060606060606060606060606060606EA
:1006B00006060606060606060606060606060606DA
:1006C00006060606060606060606060606060606CA
:1006D00006060606060606060606060606060606BA
:1006E00006060606060606060606060607060606A9
:1006F000060606060606060606060606060606069A
:100700000606060606060606060606060606060689
:100710000606060606060606060606060606060679
:100720000606060606060606060606060606060669
:100730000606060606060606060606060606060659
:100740000606060606060606060606060606060649
:100750000606060606060606060606060606060639
:100760000606060606060606060606060606060629
:100770000606060606060606060606060606060619
:100780000606060606060606060606060606060609
:1007900006060606060606060606060606060606F9
:1007A00006060606546872656164206661696C65B8
:1007B0006400436172645072657300436172642027
:1007C00072656D6F766564004361726420696E7353
:1007D0006572746564004572726F7220696E697427
:1007E00069616C6973696E672046696C652073790D
:1007F0007374656D20616E6420436172642D647250
:10080000697665720043617264206D6F756E746500
:100810006400696E76616C6964205370656564007C
:100820006572726F7220647572696E6720435344FB
:10083000207265616400FFFFFF30FFFFFFFFFFFFD5
:10084000FFFFFFFFFFFFFFFF0000000000000000B0
:100850000000000000000000000000000000000098
:100860000000000000000000000000000000000088
:100870000000000000000000000000000000000078
:100880000000000000000000000000000000000068
:100890000000000000000000000000000000000058
:1008A0000000000000000000000000000000000048
:1008B0000000000000000000000000000000000038
:1008C0000000000000000000000000000000000028
:1008D0000000000000000000000000000000000018
:1008E0000000000000000000000000000000000008
:1008F00000000000000000000000000000000000F8
:1009000000000000000000000000000000000000E7
:1009100000000000000000000000000000000000D7
:1009200000000000000000000000000000000000C7
:1009300000000000000000000000000000000000B7
:1009400000000000000000000000000000000000A7
:100950000000000000000000000000000000000097
:100960000000000000000000000000000000000087
:100970000000000000000000000000000000000077
:100980000000000000000000000000000000000067
:100990000000000084E880937400479A3F9A469ACA
:1009A0003E9A81EE809300C380E4809301C385B7B3
:1009B0008F7785BF80E090E0359B05C0019641F0C0
:1009C000359BF8CFFBCF019619F03599F3CFFBCFCC
:1009D00085B7806885BF47983F9846983E9887E0DE
:1009E0008093C4008093CC0011241FBECFEFD1E2CE
:1009F000DEBFCDBF17E0A0E0B2E0ECEEFBE001E02F
:100A00000BBF02C007900D92AE3AB107D9F71BE0B9
:100A1000AEEAB7E001C01D92AA3DB107E1F78FEF42
:100A20009FE79EBF8DBF8FEF9FE78A5D9B408158F8
:100A3000914040F06FEF7EE76A5D7B408AED9BE07E
:100A40000E9435580E94F860892B41F066E576E0F7
:100A500080EC9BE00E94FE840E94DF6020E831E091
:100A600040E050E06FEA7BE28FE596E00E94AF63E2
:100A70000E9400000C94F5850C94000087EF84B967
:100A80008CE08AB98BB18C70836F8BB98EE88DB98D
:100A90008EB18E7881608EB985B7806885BF85B745
:100AA000806885BF8EE080BB81B38E70816F81BB13
:100AB00088E183BB089568EE73E080E090E00E94D7
:100AC000355D8EE691E09F938F9386EC8F930E9425
:100AD0008F070F900F900F90EECF1F93CF93DF9360
:100AE000CDB7DEB762970FB6F894DEBF0FBECDBFAD
:100AF0000E94770E84E60E94235C0E943E050E94BD
:100B000019100E94F5080E945B0A0E94A4060E9428
:100B100058060E94CF088EE091E09F938F9316ECC9
:100B20001F930E948F070E94FD0E0E94A121CE01FB
:100B300001960E94BD210F900F900F90892BD9F440
:100B400089819A819F938F938B819C819F938F93AF
:100B50008D819E819F938F9384EF90E09F938F93DD
:100B60001F930E948F078DB79EB709960FB6F89412
:100B70009EBF0FBE8DBF0E94751F0E94030E0E9474
:100B8000D30940E050E06CE076E084E996E00E9412
:100B90002261892B49F485B5846085BDA89A80912E
:100BA0006E00816080936E0078940E94B35E81E055
:100BB0000E94595B45E060E073E886EE96E00E9493
:100BC000B360892B29F080E092E00E94D37FFFCFB1
:100BD0000E94B609873019F481E00E94170A0E942A
:100BE000B609863051F420E032E040E050E061E1A7
:100BF00076E085E192E00E94AF630E94B609813001
:100C000011F40E94132764E670E080E090E00E94F7
:100C1000355D0E94750EDCCF0E94FD080E94A40E77
:100C2000089588E192E09F938F930E94AC7F0E9489
:100C3000DA2A0F900F9064E670E080E090E00E9466
:100C4000355DF9CF8091AE079091AF0708958091FF
:100C5000AE079091AF07009731F00E94487D109247
:100C6000AF071092AE070895CF93DF93CDB7DEB7ED
:100C700024970FB6F894DEBF0FBECDBF69837A8389
:100C80008B839C838091AE079091AF070E94EA7D91
:100C9000AE014F5F5F4F63E171E00E94DE7C2496FE
:100CA0000FB6F894DEBF0FBECDBFDF91CF91089590
:100CB000EF92FF920F931F93CF93DF93CDB7DEB7E1
:100CC0002D970FB6F894DEBF0FBECDBF80E092EC3B
:100CD000A1E0B0E08C839D83AE83BF8388E0E82EE3
:100CE000F12CEC0EFD1E63E771E0C7010E94B08499
:100CF00061E771E08E010F5F1F4FC8010E94B08451
:100D00004091570750915807B801C7010E94767E5D
:100D10009093AF078093AE07009749F00E94EA7D59
:100D2000AE014C5F5F4F61E071E00E94DE7C2D966A
:100D30000FB6F894DEBF0FBECDBFDF91CF911F91EC
:100D40000F91FF90EF9008951092AF071092AE07A9
:100D500040E060E070E083EC96E00E94B3600895AC
:100D60009091B007883010F48093B007892F9927AD
:100D700008952F923F924F925F926F927F928F923F
:100D80009F92AF92BF92CF92DF92EF92FF920F931A
:100D90001F93CF93DF93CDB7DEB7CD54D0400FB6BE
:100DA000F894DEBF0FBECDBF7C016B011A01892B09
:100DB00009F48EC094E0692E712C44245524AA2491
:100DC000BB24A0E0B0E000E010E07EC0C5018F7061
:100DD0009070892B69F54DE450E060E270E08E017F
:100DE0000F5F1F4FC8010E94E3849301220F331F3E
:100DF000220F331F2450304040E050E0D801F20170
:100E0000022E02C0F695E7950A94E2F7EF70F070B3
:100E1000E95DFD4F80818D934F5F5F4F24503040DF
:100E20004615570561F7D301129683010C5C1F4FDD
:100E3000F6019081E92FE295EF70FF27E95DFD4F04
:100E400050814D010894811C911CE92FFF27EF7000
:100E5000F070E95DFD4F4081892F80528F3510F091
:100E60008EE201C0892F9E012F5F3F4FA20FB31F5B
:100E70005C93F901E80DF91D4083F901E00FF11FC2
:100E800080830F5F1F4F0894A11CB11CC5018F7098
:100E90009070892B19F0A214B30489F4F901E00FC2
:100EA000F11F1082B701C9010E949B7FB7018AE040
:100EB00090E00E94737F80E190E0480E591E0894F4
:100EC000C11CD11CD4011296A214B30409F07ECF28
:100ED000C35BDF4F0FB6F894DEBF0FBECDBFDF910F
:100EE000CF911F910F91FF90EF90DF90CF90BF9027
:100EF000AF909F908F907F906F905F904F903F90BA
:100F00002F9008956091B1077091B2076115710536
:100F100029F0992787FD90950E94737F08951F936C
:100F2000CF93DF93CDB7DEB722970FB6F894DEBF2D
:100F30000FBECDBF19856091B1077091B2076115E1
:100F4000710509F410C1212F33272770307080916B
:100F5000B0079927821793070CF405C1812F87707A
:100F60008330F1F0843028F48130A1F08230A8F48D
:100F70000EC08530D9F08530B0F08630D1F08730A2
:100F800019F48BE791E017C089E791E014C08AEB70
:100F900091E011C081EB91E00EC088EA91E00BC0B6
:100FA0008FE991E008C086E991E005C08DE891E005
:100FB00002C084E891E00E94F57F6091B1077091D2
:100FC000B207212F287F283709F4AAC0293790F5C6
:100FD000283309F499C02933B0F4283109F48EC0BC
:100FE000293138F4283009F486C0203109F053C083
:100FF00055C0283209F485C0203309F455C0203289
:1010000009F049C04EC0283509F484C0293548F498
:10101000283409F47CC0203509F44CC02034D9F5BB
:1010200046C0283609F479C0203709F449C0203673
:1010300091F543C0283B09F47FC0293BA8F4283927
:1010400009F474C0293940F4283809F46CC02039F7
:10105000E9F1203801F537C0283A09F46AC0203B8D
:10106000D9F1203AC1F435C0283D09F46BC0293DBF
:1010700040F4283C09F463C0203DA1F1203C59F420
:101080002EC0283E29F0203F99F1203E21F42DC0AA
:101090008DEC91E059C083EC91E056C08EE592E072
:1010A00053C089E592E050C084E592E04DC08FE4E2
:1010B00092E04AC08AE492E047C085E492E044C0EE
:1010C00080E492E041C08BE392E03EC086E392E090
:1010D0003BC081E392E038C08CE292E035C087E209
:1010E00092E032C082E292E02FC08DE192E02CC00B
:1010F00088E192E029C083E192E026C08EE092E090
:1011000023C089E092E020C084E092E01DC08FEF10
:1011100091E01AC08AEF91E017C085EF91E014C00A
:1011200080EF91E011C08BEE91E00EC086EE91E071
:101130000BC081EE91E008C08CED91E005C087ED19
:1011400091E002C082ED91E00E94F57FAE01445F24
:101150005F4F5A8349836A857B858091B10790915F
:10116000B2070E94098022960FB6F894DEBF0FBE28
:10117000CDBFDF91CF911F9108958091B1079091DC
:10118000B2071092B2071092B1070E94D97D08955C
:101190000E9422069093B2078093B107089587E0DA
:1011A0008093B0070E94C8080895833059F08430B6
:1011B00018F4882339F008C0853031F0853040F0CC
:1011C000863091F48B9801C08B9A8093B307089571
:1011D0008091B307813021F48B981092B307089562
:1011E0008B9A81E08093B30708958B981092B30790
:1011F00008958091B30799270895A39800000000EF
:101200006FB1A39AA498000000004FB1A49A5B9814
:10121000000000008FB15B9A5A98000000002FB1C7
:101220005A9A62956F707727407F5527642B752BEC
:10123000807F992734E0880F991F3A95E1F7682B52
:10124000792B207F3327322F2227622B732B709329
:10125000B7076093B6078FEF6F3B780709F45DC05F
:101260008FEF603C780720F58BEF6F3F780709F42C
:1012700063C08CEF6030780770F48FEE6F3F7807B3
:1012800009F460C087EF6F3F780709F44CC06F5BCB
:101290007F4E89F52DC08EEF6F3F780709F449C066
:1012A0008FEF6F37780781F16F5F7D4F21F547C072
:1012B0008FEF673F780759F18FEF683F780760F449
:1012C0008FEF6F3D780791F18FEF6F3E780741F117
:1012D0006F5C7F4F81F439C08FEF6D3F780789F0E5
:1012E0008FEF6E3F7807B1F06B5F7F4F21F406C040
:1012F00083E190E02CC088E890E029C081E090E094
:1013000026C082E090E023C083E090E020C084E02B
:1013100090E01DC085E090E01AC086E090E017C024
:1013200087E090E014C088E090E011C089E090E090
:101330000EC08AE090E00BC08BE090E008C08CE02B
:1013400090E005C08DE090E002C08EE090E08093D8
:10135000B8070895E82F862F8150823030F4E031AD
:1013600020F4FF27E454F84F608308958091B80774
:10137000992708958093B807E091B407F091B507D5
:10138000309739F48FEF9FEF9093B5078093B407B0
:1013900008958FEFEF3FF80729F08481958101963A
:1013A000958384830895A39AA49A5B9A5A9A10927B
:1013B000BB078FEF9FEF9093B7078093B6070FB6E9
:1013C000F8940F921092B5071092B4070F900FBEC9
:1013D0008FEF8093B807ECEBF7E082E0819397E022
:1013E000EC3CF907D9F71092BA071092B90761E0FF
:1013F00088E00E94AA0961E08BE00E94AA0961E0EE
:101400008AE00E94AA0961E08CE00E94AA0908957E
:10141000AB01BC0184EB97E00E941D6020E030E04E
:101420008F5F9F4F11F421E030E0C90108958130B2
:1014300011F4739A0895882309F4739808959AB162
:101440009F70906F9AB99BB19F70607F962B9BB9EC
:10145000823011F48A9801C08A9A729A00000000C2
:1014600072988A988AB18F708AB98BB18F70806FA9
:101470008BB908950F931F93082F162F8A98899A76
:10148000729A000000004F99FBCF72988A98899851
:10149000612F607F802F0E941F0A1295107F612F9D
:1014A000802F0E941F0A1F910F910895682F83E0DB
:1014B0000E943A0A08951F938CE80E94235C10E072
:1014C00063E382E00E941F0A84E00E94235C1F5FA6
:1014D0001330B1F762E282E00E941F0A81E00E94AD
:1014E000235C68E282E00E943A0A85E00E94235C65
:1014F0006CE082E00E943A0A85E00E94235C61E091
:1015000082E00E943A0A85E00E94235C66E082E065
:101510000E943A0A60E882E00E943A0A1F91089508
:1015200061E082E00E943A0A85E00E94235C08950F
:101530000FB6F8940F929DB3882311F0EE9A01C074
:10154000EE980F900FBE892F992726E096958795E4
:101550002A95E1F781709070089580E00E94980AC2
:10156000982F8091CC07813011F41092CC07892FED
:101570000E94980A80E090E008958091CC07992716
:1015800008958091CD079091CE0708958091CD0761
:101590009091CE0708950F931F93CF93DF93EC01A3
:1015A0008B0180E090E00E941D1005C0FE01849137
:1015B0000E940510219601501040FFEF0F3F1F07BA
:1015C000A9F70E94FA0FDF91CF911F910F91089513
:1015D0001F9380E00E94980A182F64E070E081ED6C
:1015E00095E00E94CB0A64E070E08DEC95E00E94EB
:1015F000CB0A812F0E94980A80E090E01F91089505
:101600000F931F93CF93DF938C01EB0180E090E069
:101610000E941D1005C0F80181918F010E940510E4
:101620002197FFEFCF3FDF07B1F70E94FA0FDF915D
:10163000CF911F910F910895EF92FF920F931F93F7
:10164000F82E8B010E940110E82E80E00E94FE0F10
:1016500080E090E00E941D102C9882E00E9405100E
:101660008F2D0E940510812F99270E940510802F31
:101670000E9405102C9A0E94FA0F8E2D0E94FE0FD8
:101680001F910F91FF90EF900895DF92EF92FF92DC
:101690000F931F93082FE62E80E00E94980AD82E01
:1016A0001127102F0027FF240E291F29B8018BE0D6
:1016B0000E941C0B8D2D0E94980A80E090E01F91E3
:1016C0000F91FF90EF90DF900895FF920F931F937B
:1016D0008C0180E00E94980AF82E1C60B80180E01E
:1016E0000E941C0B8F2D0E94980A80E090E01F91B1
:1016F0000F91FF9008951F93CF93DF93CDB7DEB77F
:1017000021970FB6F894DEBF0FBECDBF898380E06E
:101710000E94980A182F80E290E00E94650B63E017
:1017200070E089ED95E00E94CB0A61E070E0CE01A7
:1017300001960E94000B64E070E085ED95E00E9448
:10174000CB0A812F0E94980A80E090E021960FB684
:10175000F894DEBF0FBECDBFDF91CF911F910895EA
:10176000282F332727703070C90153E0880F991F45
:101770005A95E1F7820F931F885C0E947B0B0895B6
:10178000DF92EF92FF920F931F93CF93DF93CDB72A
:10179000DEB721970FB6F894DEBF0FBECDBF8983A9
:1017A0007B0180E00E94980AD82E80E290E00E949F
:1017B000650B89818295807F885C898363E070E016
:1017C00084EE95E00E94CB0A61E070E0CE010196C4
:1017D0000E94000B0CED15E064E070E0C8010E946F
:1017E000CB0A8E2D0E94235C64E070E080EE95E0D1
:1017F0000E94CB0A64E070E0C8010E94CB0A8D2DE4
:101800000E94980A80E090E021960FB6F894DEBF1F
:101810000FBECDBFDF91CF911F910F91FF90EF9041
:10182000DF9008950F931F938C0180E00E94980A27
:101830001092CC07C80184600E94650B8AE00E9468
:10184000235C80E48CBB80E090E01F910F910895B1
:10185000DF92EF92FF920F931F93182F0E940110B7
:10186000D82E80E00E94FE0F80E090E00E941D10C4
:101870002C9883E00E940510812F0E9405100E9481
:101880000A10E82EFF24FE2CEE240E940A10082FD6
:101890002C9A0E94FA0F8D2D0E94FE0F1127C7016E
:1018A000802B912B1F910F91FF90EF90DF90089567
:1018B000FF920F931F9380E00E94980AF82E8BE00E
:1018C0000E94280C8C018F2D0E94980AC8011F913C
:1018D0000F91FF900895FF920F931F93182F80E0B0
:1018E0000E94980AF82E812F0E94280C8C018F2DBF
:1018F0000E94980AC8011F910F91FF90089589E0F6
:101900000E946B0C9C018FEF213E380790F58DE40F
:1019100024353807A1F18DE42535380768F481E4D2
:1019200024353807F9F08DE424333807D9F081E401
:101930002434380709F516C087E52D363807F9F045
:1019400087E52E36380728F487E52D343807A1F4CB
:1019500009C086E72536380729F08FEF203E380783
:1019600059F40DC08091CD079091CE07039739F4BB
:1019700003C020EE3FEF03C080E090E00895C9016E
:10198000089580E00E94980A2F982C9A2898209A0F
:1019900084E00E94235C80E00E94FE0F1092CC073E
:1019A0002F9A84E00E94235C81E00E94280C74E05E
:1019B000969587957A95E1F7877090709093CE070A
:1019C0008093CD07039719F460E070EE02C060E0E9
:1019D00078E983E00E941C0B82E30E94235C80E094
:1019E00090E00E94650B60E080E00E94450B82E37E
:1019F0000E94235C8091CD079091CE0703970297B8
:101A000010F482E001C081E00E94FE0F40E050E04F
:101A100069E17DE08EE896E00E94226166E070E078
:101A20008EE896E00E94A06180E48CBB80E090E0AC
:101A30000895BF92CF92DF92EF92FF920F931F9380
:101A4000CF93DF93CDB7DEB722970FB6F894DEBF02
:101A50000FBECDBF8091CC07813009F04FC0669B8F
:101A60004DC080E00E94980AB82E78941A8219829C
:101A700080E090E00E941D10F0E2EF2EF12C00E0DB
:101A800010E0CC24DD2403C0EFE1EE2EF12C89819F
:101A90009A81C816D906C0F0C114D10419F0C60144
:101AA0000E943D59CE0101960E94BC588C0189814B
:101AB0009A81892B19F0CC24DD2408C082E0809320
:101AC000CC07CC24DD2412C0892B41F0F801819190
:101AD0008F010E9405100894C11CD11C6699D4CFB7
:101AE0000894E108F108E114F10489F60E94FA0F64
:101AF000C6010E94DA598B2D0E94980A22960FB6D1
:101B0000F894DEBF0FBECDBFDF91CF911F910F9133
:101B1000FF90EF90DF90CF90BF9008950F931F93A9
:101B2000CF93DF938091CC07813009F435C080E0FA
:101B30000E94980AC3E6D2E0FE0165917491EFEE2F
:101B4000F5E0E4918E2F0E941C0B00E010E011C024
:101B5000FE0165917491F801E151FA4FE4918E2FE5
:101B60000E941C0BC80164EF71E00E949985892BCB
:101B700011F40E94750E0F5F1F4F229681E0053B06
:101B8000180731F781E08093CC0780E090E00E9455
:101B9000190D81E00E94980A80E090E0DF91CF91DA
:101BA0001F910F9108951F93CF93DF9380E090E0F2
:101BB0000E94120C80E290E00E94650B80E00E947F
:101BC000980A182F68E070E087EE95E00E94CB0A33
:101BD00088E20E94235C88E00E94280CEC01812F9F
:101BE0000E94980A8091CD079091CE07039731F417
:101BF00080E8CF37D80711F4C0E0D0E0CE01DF9104
:101C0000CF911F91089580916A008C7F80936A0024
:101C100040E050E068E27EE088E896E00E942261C1
:101C2000892B31F480916A00826080936A00EC9A7B
:101C300080918100836080938100AD9A0FB6F89403
:101C40000F921092D2071092D1070F900FBE0895F5
:101C500084E00E94D5080E948B5D0895EF92FF9268
:101C60000F931F93AB01BC01A89521E0E12CE8E0A4
:101C7000FE2E012D112D01C02F5FD801C701022EAC
:101C800004C0880F991FAA1FBB1F0A94D2F737E020
:101C9000B695A795979587953A95D1F784179507A7
:101CA000A607B70748F32093D4072A3018F0297005
:101CB0002093D4072091D40723FF02C038E201C04B
:101CC00038E088E190E02770322B0FB6F894A895A1
:101CD000809360000FBE3093600081E08093D30753
:101CE0001F910F91FF90EF900895A895089580910E
:101CF000D307882319F08F5F8093D30788E10FB64D
:101D0000F89480936000109260000FBE0895809157
:101D1000D3078230C0F081508093D307813099F48B
:101D20002091D40723FF02C038E201C038E088E1E7
:101D300090E02770322B0FB6F894A895809360003E
:101D40000FBE3093600008958091D8079091D90715
:101D50008130910589F08130910530F08230910514
:101D600021F10397E9F52DC078993AC081E080937D
:101D7000D70781E090E020C0789912C08091D70702
:101D80008F5F8093D7078E3159F581E08093D60716
:101D900082E090E09093D9078093D80781E021C03A
:101DA0001092D9071092D8071BC0789B19C081E008
:101DB0008093D70783E090E09093D9078093D8076A
:101DC0000FC08091D7078F5F8093D707843141F48C
:101DD0001092D6071092D9071092D80780E001C060
:101DE00082E0992708958091D607992708958091D8
:101DF000DA079091DB07089508950F931F93CF930F
:101E0000DF93CDB7DEB72A970FB6F894DEBF0FBECB
:101E1000CDBF1092D9071092D8071092D60762EB67
:101E200077E08E010F5F1F4FC8010E94B084C80188
:101E30000E94055B892BB1F420E033E040E050E0E4
:101E40006EEB7FE0C8010E94AF63892B59F484EAEE
:101E500097E09F938F9380EE8F930E948F070F9050
:101E60000F900F902A960FB6F894DEBF0FBECDBF2D
:101E7000DF91CF911F910F910895FF920F931F93C0
:101E8000CF93DF93CDB7DEB72A970FB6F894DEBFB6
:101E90000FBECDBF8DE392E00E949760892BB9F40D
:101EA00080E00E94980AF82E40E067E070E08BE343
:101EB00092E00E94B3608C01892B51F540E067E00D
:101EC00070E08EE592E00E94B3608C0121C00E9418
:101ED000DF1380E00E94980AF82EE0914E02F09104
:101EE0004F02309729F08BE392E01995892B59F432
:101EF000E0917102F0917202309741F08EE592E02C
:101F00001995892B19F00FEF1FEF02C000E010E0C8
:101F10008F2D0E94980A01151105C1F485E098E003
:101F20009F938F9386EE8F930E948F0760E070E0FF
:101F3000CE0101960E94F07C0F900F900F902FEF32
:101F40008F3F920771F00E94C87C0BC086ED97E02E
:101F50009F938F9383EE8F930E948F070F900F9024
:101F60000F90C8012A960FB6F894DEBF0FBECDBF02
:101F7000DF91CF911F910F91FF9008958091D60727
:101F80008093D5078091D6078130B9F48091D50729
:101F9000882349F588EC97E09F938F9386EE8F9383
:101FA0000E948F070E943D0F0F900F900F90892B7A
:101FB00029F780E10E94BA09E1CF8823A1F480913A
:101FC000D507813081F48BEB97E09F938F9386EE5A
:101FD0008F930E948F078091D6078093D5070F902B
:101FE0000F900F90CFCF64EF71E080E090E00E94FF
:101FF000355DC8CF779A2E982D9A08958093DC0787
:1020000008958091DC07992708958EBD0DB407FED1
:10201000FDCF08958FEF8EBD0DB407FEFDCF8EB5B9
:10202000992708958EBD0DB407FEFDCF8EB5992773
:102030000895779A2E982D9A08959C010097F9F4A7
:102040008091DC07882321F481E08DBD81E504C007
:10205000813021F41DBC80E58CBD25C0823019F48F
:1020600081E08DBDF8CF82E198E09F938F938BE75D
:102070008F930E948F070F900F900F9014C00197BD
:1020800041F481E08DBD80E58CBD2D9A2E98779826
:1020900008951DBC80E58CBD2130310520F0223033
:1020A000310541F404C0779A2D9A2E9A0895779AB3
:1020B0002E982D98089580E090E0089580E090E0BB
:1020C000089580E090E0089540E050E060E070E026
:1020D0008DED97E00E941D600895CF93DF93CEEFC2
:1020E000DFEF0E940A108F3F11F42197D1F7992753
:1020F000DF91CF910895CF93DF93CEEFDFEF0E9472
:102100000A108E3F11F02197D1F79927DF91CF91D7
:102110000895DF92EF92FF920F931F93D82E8B01B9
:102120007A0182E090E00E941D108FEF0E9405105E
:102130008D2D80640E940510812F99270E94051023
:10214000802F0E9405108F2D99270E9405108E2D3B
:102150000E94051085E90E9405108FEF0E9405106E
:102160001F910F91FF90EF90DF9008956F927F92F3
:102170008F929F92AF92BF92CF92DF92EF92FF9297
:102180000F931F93CF93DF935B0169017A013801AD
:10219000882499243AC0A601542F4427550FC7011B
:1021A000B60127E096958795779567952A95D1F79B
:1021B00081E10E9489100E947B108E3F29F00E94CD
:1021C000FA0F81E090E026C08501C0E0D0E00E94D7
:1021D0000A10F80181938F012196F2E0C030DF07E9
:1021E000B1F780E092E0A80EB91E8FEF0E940510B3
:1021F0008FEF0E9405100E94FA0F0894811C911C19
:102200000894C11CD11CE11CF11C8614970419F61A
:1022100080E090E0DF91CF911F910F91FF90EF90C0
:10222000DF90CF90BF90AF909F908F907F906F90F6
:1022300008958DED97E00E94CA5F08952F923F9216
:102240004F925F926F927F928F929F92AF92BF92C6
:10225000CF92DF92EF92FF920F931F93CF93DF9372
:10226000CDB7DEB728970FB6F894DEBF0FBECDBF4F
:10227000F82E6B0139014A0118010E946410FF20F9
:1022800019F022E030E0A8C0C801AA27BB27860DBC
:10229000971DA81DB91D2091E2073091E3074091D9
:1022A000E4075091E507281739074A075B0728F428
:1022B00083E090E09E838D8302C01E821D82809108
:1022C000DF079091E00797FD04C0E2E0F0E0FE83B5
:1022D000ED8396FD7FC02D813E81232B09F092C0B6
:1022E000DC82CB8272C03FEF2316310409F010F478
:1022F000610103C0C12CA1E0DA2E4B805C80840117
:1023000073011A82198253C0A701542F4427550F15
:10231000C801B701E7E09695879577956795EA95A7
:10232000D1F788E10E9489100E946D108F3F09F457
:1023300045C08EEF0E940510520118861F82F501DC
:1023400081915F010E9405102F8138852F5F3F4FDB
:1023500038872F832050324091F7E0E0F2E04E0EB4
:102360005F1E8FEF0E9405108FEF0E9405108FEF08
:102370000E9405105FEFA52EB52E0E940A1088233B
:1023800039F40894A108B108A114B104B9F0F5CF4B
:102390000894E11CF11C011D111DAB2879F00E946D
:1023A000FA0F29813A812F5F3F4F3A832983898130
:1023B0009A818C159D0509F0A7CF11C00E94FA0FD4
:1023C000E1E0F0E0FE83ED831DC02114310409F04B
:1023D0008ACF18C028E030E03E832D8313C0C601A9
:1023E000AA27BB27680E791E8A1E9B1E2C183D0843
:1023F000DC2CCC24DD0C8B819C818C0D9D1D9C8361
:102400008B83E3CF0E9419118D819E8128960FB690
:10241000F894DEBF0FBECDBFDF91CF911F910F911A
:10242000FF90EF90DF90CF90BF90AF909F908F90F4
:102430007F906F905F904F903F902F9008958F9274
:102440009F92AF92BF92CF92DF92EF92FF920F9343
:102450001F93CF93DF93F82EEB0149015A016801D6
:102460000E946410FF20F1F48091DF079091E00753
:1024700097FF18C0C801AA27BB27880D991DAA1D60
:10248000BB1D2091E2073091E3074091E407509192
:10249000E507281739074A075B0708F042C003E041
:1024A00010E044C002E010E041C02FEFC216D1049A
:1024B00009F010F4E60102C0C0E0D1E08E01A501F0
:1024C0009401B7018FED97E00E94B6108C01892B23
:1024D00069F5CE01AA27BB27880E991EAA1EBB1E2E
:1024E000CC1ADD0A8091E6079091E7079C01C29F14
:1024F000C001C39F900DD29F900D1124E80EF91ECC
:10250000C114D10491F600E010E010C001E010E029
:10251000A5019401BE018FED97E00E94B6108C01D9
:1025200005C07E010130110559F7F0CF0E94191145
:10253000C801DF91CF911F910F91FF90EF90DF9035
:10254000CF90BF90AF909F908F900895EF92FF92A1
:102550000F931F93182F0E946410112321F0EE2473
:10256000FF24870108C0E090E207F090E3070091A4
:10257000E4071091E5070E941911C801B7011F91E6
:102580000F91FF90EF9008951F93CF93DF93182F33
:102590000E946410112319F0C0E0D0E004C0C09183
:1025A000E607D091E7070E941911CE01DF91CF9184
:1025B0001F910895CF92DF92EF92FF920F931F9396
:1025C000CF93DF93CDB7DEB760970FB6F894DEBF39
:1025D0000FBECDBF6B010E9464108091DF07909108
:1025E000E00797FF8AC040E050E060E070E089E0DB
:1025F0000E9489100E947B108E3F61F080E298E07B
:102600009F938F9383EF8F930E948F070F900F906C
:102610000F9073C08E010F5F1F4F0E940A10F801C8
:1026200081938F01CE014196E817F907B1F78FEF3B
:102630000E9405108FEF0E9405100E94FA0FEE8095
:10264000FFE0EF2221E030E0C90102C0880F991FAE
:10265000EA94E2F77C016F81772763707070762FC0
:102660006627770F770FE885FF27EE0FFF1FEE0F26
:10267000FF1F6E2B7F2B09851127EA85FF27E3704B
:10268000F070DF01AA0FBB1FEA2BFB2BAB85BB272A
:1026900086E0169507958A95E1F7602B712B6F5FA1
:1026A0007F4F88279927AA0FAB2FAA1FBB0BB19585
:1026B000EA2BFB2B329602C0220F331FEA95E2F77A
:1026C000442755270E945A856093E2077093E307D9
:1026D0008093E4079093E507F092E707E092E6071E
:1026E0000E94191101E010E020E030E040E050E0ED
:1026F000B60180E00E941F1204C00E94191181E0FF
:1027000090E060960FB6F894DEBF0FBECDBFDF91AC
:10271000CF911F910F91FF90EF90DF90CF90089590
:10272000CF93DF937093E9076093E8075093EB072B
:102730004093EA0789E0EFEDF7E011928A95E9F717
:102740001092E1078DED97E00E94CA5FC0E0D0E0F3
:102750008FEF0E9405102196CA30D105C9F740E0DD
:1027600050E060E070E080E00E9489100E946D10EF
:10277000813099F4CFEFDFEF07C040E050E060E038
:1027800070E081E00E9489100E940A10882319F0ED
:10279000219799F702C0CD2B29F40E94FA0F81E00E
:1027A00090E00AC00E94FA0F80E090E89093E00762
:1027B0008093DF0780E090E0DF91CF910895109241
:1027C000ED071092EC070895EF92FF920F931F937D
:1027D000CF93DF93EC017A018B018B8180FD1AC0CE
:1027E0008EEF9FEFAFEFBFEFE80EF91E0A1F1B1F22
:1027F0002A81332744275527C801B7010E945A85EB
:10280000AB01BC018A8D9B8DAC8DBD8D480F591FCE
:102810006A1F7B1FCB01BA01DF91CF911F910F91EE
:10282000FF90EF9008958FEF9FEF08958FEF9FEF48
:102830000895282F8F3F11F420E006C0882321F04F
:1028400099270E94CE85282F822F992787FD909562
:1028500008958F929F92AF92BF92CF92DF92EF92A4
:10286000FF920F931F93FC016A017B01838180FF1C
:1028700007C0CB01BA016F5F7F4F8F4F9F4F69C079
:10288000808182889388A488B5886091F0077091D0
:10289000F1078130A9F5A7019601A7E05695479564
:1028A00037952795AA95D1F7280D391D4A1D5B1D2F
:1028B00001E010E081810E941F128091F007909149
:1028C000F107F601EF77F070EE0FFF1FEE0FFF1F1D
:1028D000E80FF91F60817181828193819F706F3F42
:1028E0002FEF72072FEF82072FE0920771F1673FFA
:1028F0002FEF72072FEF82072FE0920751F525C0C7
:1029000055274F2D3E2D2D2D280D391D4A1D5B1DA0
:1029100001E010E081810E941F128091F0079091E8
:10292000F107F601F070EE0FFF1FE80FF91F20818D
:1029300031818FEF2F3F380741F08FEF273F380766
:1029400021F0B9018827992704C060E070E080E099
:1029500090E01F910F91FF90EF90DF90CF90BF908C
:10296000AF909F908F9008952F923F924F925F92D9
:102970006F927F928F929F92AF92BF92CF92DF928F
:10298000EF92FF920F931F93CF93DF93CDB7DEB7F4
:102990006A970FB6F894DEBF0FBECDBF988B8F87B6
:1029A0007A8B698B5C8B4B8B18012901FE8AED8A2F
:1029B000D88ECF8AD7011D921D921D921C9213971B
:1029C000DA010D900020E9F71197A41BB50BCD019A
:1029D0000C966DE070E00E949985F62FF064F98303
:1029E000F53E09F496C18DE0689F900111243B8368
:1029F0002A832F3331050CF08CC17901BF2E1E863E
:102A0000CC24DD2480C1B201A1018F8598890E9468
:102A1000E413688779878A879B87EF85F8898281A5
:102A2000282F33273D872C8731E0231631044104BA
:102A3000510479F48081882361F482859385A4858B
:102A4000B58588879987AA87BB87268137813D8787
:102A50002C87688479848A849B8442C16091F007C2
:102A60007091F10701E010E0A4019301EF85F8896E
:102A700081810E941F122091F0073091F1073F835E
:102A80002E838091F2079091F3079D838C833A8F78
:102A9000298F9E85913019F4E98DFA8D1DC02F89FB
:102AA000388D232B99F5A98DBA8D8C91853E71F1C6
:102AB000882361F14BE050E069897A89CD010E9459
:102AC000CD84892B19F5E989FA899385E98DFA8DE9
:102AD000838589238917D1F484899589AA27BB27FF
:102AE000AC0133272227828D938DAA27BB27282B61
:102AF000392B4A2B5B2B848D958DA68DB78DED8957
:102B0000FE8980839183A283B38307C1E98DFA8D07
:102B100083858F3009F0D0C0A080AB1409F0CCC001
:102B2000B6FE0DC0BFEBAB2EAB20AC81BD81AE0DB0
:102B3000BF1D1C920894E108F108CC80DD80E98D6E
:102B4000FA8D868D978D0E941914F601EE0DFF1DEA
:102B50008083870101501040E98DFA8D848D958D19
:102B60000E941914F601E00FF11F808301501040FC
:102B7000E98DFA8D808D918D0E941914F601E00F78
:102B8000F11F808301501040E98DFA8D8689978965
:102B90000E941914F601E00FF11F808301501040CC
:102BA000E98DFA8D848995890E941914F601E00F48
:102BB000F11F808301501040E98DFA8D828993893D
:102BC0000E941914F601E00FF11F8083015010409C
:102BD000E98DFA8D808991890E941914F601E00F20
:102BE000F11F808301501040E98DFA8D868597850D
:102BF0000E941914F601E00FF11F8083015010406C
:102C0000E98DFA8D818592850E941914F601E00FF5
:102C1000F11F808301501040E98DFA8D87819085E6
:102C20000E941914F601E00FF11F8083015010403B
:102C3000E98DFA8D858196810E941914F601E00FC5
:102C4000F11F808301501040E98DFA8D83819481BA
:102C50000E941914F601E00FF11F8083015010400B
:102C6000E98DFA8D818192810E941914F601E00F9D
:102C7000F11F8083BA2CBA9429F078010894E108F6
:102C8000F1081AC0AB89BC890D900020E9F71197B3
:102C90002B893C89A21BB30BAD01B601C9010E946F
:102CA000CD84892B31F4EA80FB80B98031E03E8706
:102CB00003C0EA80FB80B980898D9A8D80969A8FB7
:102CC000898F8E819F8180509E4FA98DBA8DA817C4
:102CD000B90709F0DECE0894611C711C811C911C9F
:102CE000C301E885F9858E1B9F0B2C853D858217D6
:102CF00093070CF4B3CEB201A1018F8598890E948D
:102D000029141B012C01211431044104510409F040
:102D10007ACE20E030E040E050E0CA01B9016A9686
:102D20000FB6F894DEBF0FBECDBFDF91CF911F91DC
:102D30000F91FF90EF90DF90CF90BF90AF909F905A
:102D40008F907F906F905F904F903F902F9008955D
:102D50008AE598E00E94CA5F08958AE598E00E949B
:102D6000CA5F089540E050E060E070E08AE598E0D6
:102D70000E941D6008952F923F924F925F926F9232
:102D80007F928F929F92AF92BF92CF92DF92EF92FB
:102D9000FF920F931F93CF93DF93CDB7DEB72897A2
:102DA0000FB6F894DEBF0FBECDBF8C016B015E8302
:102DB0004D830E94B2160115110509F4F6C0F80101
:102DC0000481158118870F830115110509F4EDC0E1
:102DD0006D817E816115710509F4E7C0F801E48415
:102DE000F584068517852081318142815381E21661
:102DF000F3060407150708F0D2C0CB01AA2797FDF8
:102E0000A095BA2F8E0D9F1DA01FB11F281739073F
:102E10004A075B0720F42E193F093E832D83EF817B
:102E2000F885008CF18DE02DFC83EB83DA82C9827A
:102E3000248035804D805E80ABC0EF81F88560884E
:102E40007188828893885101CC24DD244085518586
:102E5000628573858B819C810E94E4137B018C01C8
:102E6000C401B301A60195010E94AC85442737FD3A
:102E70004095542F2E0D3F1D401F511F6091F007AC
:102E80007091F10701E010E0EB81FC8181810E94EB
:102E90001F12892B09F079C0C401B301A601950165
:102EA0000E94AC856101421453040CF46201CB0111
:102EB0008C0D9D1D281639061CF46101C61AD70A0F
:102EC0008091F0079091F107680F791FA601898121
:102ED0009A810E94DA8476010027F7FC0095102F72
:102EE000EF81F88524853585468557852E0D3F1D54
:102EF000401F511F248735874687578780899189CE
:102F0000A289B3898E0D9F1DA01FB11F808B918B4D
:102F1000A28BB38B80819181A281B381281739075D
:102F20004A075B0720F081E090E0978B868BEF816A
:102F3000F8852089318942895389EB81FC81868D0E
:102F4000978DA0A1B1A1281739074A075B07A0F008
:102F5000EF81F88540855185628573858B819C81E1
:102F60000E942914EF81F885608771878287938793
:102F7000108A118A128A138A69817A816C0D7D1DEB
:102F80007A8369834C185D0803C08DEF9FEF09C0F9
:102F90004114510409F051CF0D811E8108C08EEFFC
:102FA0009FEFEF81F885958B848B00E010E00E9405
:102FB000AD16C80128960FB6F894DEBF0FBECDBF80
:102FC000DF91CF911F910F91FF90EF90DF90CF9005
:102FD000BF90AF909F908F907F906F905F904F9039
:102FE0003F902F900895EF92FF920F931F93CF93EE
:102FF000DF93EC010E94B216209749F0EC81FD812D
:10300000309729F0E080F1800281138108C00FEF32
:10301000E02E0FEFF02E0FEF002F0FEF102F0E947A
:10302000AD16C801B701DF91CF911F910F91FF90AD
:10303000EF900895CF93DF93EC010E94B216209792
:1030400019F4CFEFDFEF0BC08C819D81009711F059
:103050000E94C857CE010E94C857C0E0D0E00E942D
:10306000AD16CE01DF91CF9108950F931F938C0180
:103070000E94B216012B11F41092F6070E94AD16B1
:103080001F910F9108952F923F924F925F926F92EE
:103090007F928F929F92AF92BF92CF92DF92EF92E8
:1030A000FF920F931F93CF93DF93CDB7DEB7249793
:1030B0000FB6F894DEBF0FBECDBF182F0E94B21618
:1030C0008091EE079091EF07892B41F480E490E026
:1030D0000E9455579093EF078093EE078091F20777
:1030E0009091F307892B41F480E490E00E945557BA
:1030F0009093F3078093F2078091F0079091F10786
:10310000892B59F480E092E00E9455579093F10783
:103110008093F007892B09F445C18091EE079091C7
:10312000EF07892B09F43EC18091F2079091F307D4
:10313000892B09F437C182E2189FF0011124EC5069
:10314000F84F11928A95E9F7E12EFF242701440CEC
:10315000551CC70135E0880F991F3A95E1F7480ED5
:10316000591E24EF37E0420E531EF2011183812FC6
:103170000E94C412F20195838483812F0E945B1008
:10318000019721F4F201838181608383812F0E9462
:103190005E10019721F4F201838182608383F20142
:1031A000848195818050924019F001E010E0FCC0CC
:1031B000F201838181FF05C020E230E040E050E071
:1031C00038C06091F0077091F10701E010E020E055
:1031D00030E040E050E08E2D0E941F128C01892BC0
:1031E00009F0E2C0E091F007F091F107E250FE4FE4
:1031F00080819181EE5FF14085559A4A09F0D4C0F3
:10320000E653FE4F80819181A281B381EA5CF14057
:103210000097A105B10509F4C7C0EA53FE4F20810C
:10322000318142815381211531054105510509F450
:10323000BBC06091F0077091F10701E010E08E2DA6
:103240000E941F122090F0073090F1074EEF51E0DE
:10325000240E351ED1018D919C91E2E0FEEF2E0EE1
:103260003F1E85559A4A09F09DC0F1018585F201FE
:103270008283F101268937892115310571F0C90151
:10328000AA27BB2789839A83AB83BC83D2011C9274
:1032900081E090E0A0E0B0E010C0F10124A135A1F0
:1032A00046A157A129833A834B835C8381E0D201F5
:1032B0008C9384A595A5A6A5B7A5F20186879787C7
:1032C000A08BB18BF101638574858189928925E09A
:1032D000880F991F2A95E1F7860F971F01970E9483
:1032E00085853B0188249924E684F78400271127EB
:1032F000A48CB58CC68CD78CAE0CBF1CC01ED11E46
:10330000F201A28AB38AC48AD58A29813A814B8183
:103310005C81A20EB31EC41ED51EA68AB78AC08EBB
:10332000D18EF10160897727882799270E945A85D5
:10333000F101248D358D468D578DE20EF31E041F4D
:10334000151FE60CF71C081D191DE60EF71E081FB9
:10335000191FF201E28EF38E048F158FF10185851E
:103360009927F20124813581AC01429FC001439F1E
:10337000900D529F900D1124AA27BB27868F978FFF
:10338000A0A3B1A3668277828086918629813A8143
:103390004B815C81A20EB31EC41ED51EA286B386CD
:1033A000C486D58600E010E00E94AD16C8012496C0
:1033B0000FB6F894DEBF0FBECDBFDF91CF911F9146
:1033C0000F91FF90EF90DF90CF90BF90AF909F90C4
:1033D0008F907F906F905F904F903F902F900895C7
:1033E0002F923F924F925F926F927F928F929F9215
:1033F000AF92BF92CF92DF92EF92FF920F931F9303
:10340000CF93DF93CDB7DEB72E970FB6F894DEBF1C
:103410000FBECDBFFC01892B09F4A1C2848180338A
:103420000CF49DC282330CF490C2863409F097C22A
:103430008CC20E94B2168091F8079091F9070E9401
:1034400055579E878D87892B09F489C23090F507DF
:10345000832D0E94A6122B013C0180EE9FEFAFEF5F
:10346000BFEF480E591E6A1E7B1EE1E8F2E09F0185
:103470002C5F3F4F80819181A281B3818415950596
:10348000A605B70538F0D9018C919927282E8823F5
:1034900041F00CC02B5F3F4F3596B2E0233A3B071B
:1034A00049F78D859E850E94C85759C29927AA273A
:1034B000BB2789839A83AB83BC83C301B201298173
:1034C0003A814B815C810E94AC85DA01C90102E03E
:1034D000880F991FAA1FBB1F0A95D1F781509E4FD5
:1034E000AF4FBF4F19E0B695A795979587951A9559
:1034F000D1F789879A87AB87BC874C015D01880C1F
:10350000991CAA1CBB1C89819A81AB81BC81815A00
:103510009F4FAF4FBF4F880E991EAA1EBB1E8F55DF
:103520009040A040B04089839A83AB83BC83409194
:10353000F8075091F90760E070E08D859E850E9444
:10354000E384CC24DD24760110C001E010E0A70163
:1035500096016D857E85832D0E941E11892B51F465
:103560000894C11CD11CE11CF11CC814D904EA0444
:10357000FB0459F780E090E00E9460806D837E83B9
:103580008F8398874091F8075091F90760E070E0C9
:103590008D859E850E94E384AD85BE85A254BE4F75
:1035A0001D9281E08D938D931D928BE08D931D92E2
:1035B0001C921296EFE3AE2EB12CC12CD12CFD0142
:1035C000A192B192C192D192DF0140825182628276
:1035D0007382AA5CB140BE87AD877EEFE72E71E0B3
:1035E000F72EEA0EFB1E65E5862E6AEA962EF70197
:1035F0009182808201E010E020E030E040E050E085
:10360000BD01832D0E941E118C01892B09F005C17B
:103610004091F8075091F90760E070E08D859E8534
:103620000E94E3848BEEAD85BE858C9388E5FD0119
:10363000818380E982830DE4038393E5948384E4AA
:1036400085831FE41683978385E380878EE28187D5
:1036500080E3828780E092E094878387258680E2FA
:1036600090E09787868782E0808B128A118A148A7D
:10367000138A88EF858B178A168A8FE390E0918FE3
:10368000808F8FEF90E0938F828FED85FE85A48EE3
:10369000B58EC68ED78E40A251A262A273A2898532
:1036A0009A85AB85BC8584A395A3A6A3B7A311A6D1
:1036B00010A613A612A652E0A52EB12CC12CD12C17
:1036C000ED85FE85A4A6B5A6C6A6D7A681E090E0A6
:1036D00091AB80AB86E090E093AB82ABE05CFF4FB8
:1036E0001082329689E28193FE87ED876D817E811B
:1036F0008F819885A30192010E945A85AD85BE8570
:103700006D937D938D939D938EE48D931D9390E2A5
:103710009D938D9321E42D930D9385E48D939D933B
:103720009D939D939D9386E48D932D9384E58D9336
:1037300083E38D9382E38D939D939D939C93A955F1
:10374000B040BE87AD87F7019182808201E010E032
:103750002FE330E040E050E0BD01832D0E941E11B8
:103760008C01892B09F059C001E010E025E430E01C
:1037700040E050E06D857E85832D0E941E11892BCF
:1037800009F0E7C04091F8075091F90760E070E058
:103790008D859E850E94E38481EA9FEFAFEFBFEFA6
:1037A000480E591E6A1E7B1E82E592E5A1E6B1E431
:1037B000ED85FE8580839183A283B383EC51FE4F18
:1037C00082E792E7A1E4B1E681939193A193B1934B
:1037D000FE87ED87C301B20129813A814B815C816B
:1037E0000E94AC85AD85BE852D933D934D935D9331
:1037F000FD01A082B182C282D382EC5EF140FE87DD
:10380000ED87D7018D929C9220E430E040E050E0BB
:10381000BF01832D0E941E118C010115110509F0B5
:1038200086C04091F8075091F90760E070E08D85FF
:103830009E850E94E3842D853E8588EF9FEFAFEF44
:10384000BFE0F90181939193A193B1939F018FEF11
:103850009FEFAFEFBFE0ED85FE8584839583A68360
:10386000B783F90184839583A683B78301E010E0D1
:103870002FE530E040E050E06D857E85832D0E948D
:103880001E118C01892B09F052C0C984DA84EB84A3
:10389000FC848FE590E0A0E0B0E0C80ED91EEA1EDF
:1038A000FB1E01E010E0A70196016D857E85832D4A
:1038B0000E941E11892B09F04CC04091F8075091CD
:1038C000F90760E070E08D859E850E94E38495E4B1
:1038D000AD85BE859C9324E5FD01218388E4828328
:1038E000938382E584838EE4858385E586832783BD
:1038F00080E280878187828788E08387158A148A9F
:10390000138E128EED85FE85148E158E168E178EF3
:1039100089859A85AB85BC85C80ED91EEA1EFB1E1B
:10392000A7019601BF01832D0E941E118C018D8578
:103930009E850E94C8570E94AD16012B81F4832DED
:103940000E944318009769F00AC06050704139F432
:1039500070CD8D859E850E94C8570E94AD168FEF51
:103960009FEF2E960FB6F894DEBF0FBECDBFDF914E
:10397000CF911F910F91FF90EF90DF90CF90BF906C
:10398000AF909F908F907F906F905F904F903F90FF
:103990002F9008950F931F93CF93DF938C0180E0B6
:1039A00092E00E945557EC01892B31F0802F0E9444
:1039B0004318CE010E94C857DF91CF911F910F91FC
:1039C0000895EF92FF920F931F93CF93DF93FC0123
:1039D0008091EC079091ED070097A9F582818634DC
:1039E00009F03FC083818134E1F584818435C9F5D4
:1039F000848595850797A9F537C045E358E16AECBA
:103A00007CE180E090E00E9490138C01892B19F0FA
:103A10000EEF1FEF14C0B70180E090E00E94DA12B1
:103A2000C0E0D0E08C2F0E9443182196C330D1050E
:103A3000C9F781E090E09093ED078093EC07C70110
:103A40000E94C8571CC0019761F48281863449F4F2
:103A500083818D3431F48481803319F400E010E0E7
:103A60000EC00FEF1FEF0BC00E94A81680E092E07F
:103A70000E9455577C01892B09F0BFCFEFCFC801B9
:103A8000DF91CF911F910F91FF90EF9008952F92AA
:103A90003F924F925F926F927F928F929F92AF92DE
:103AA000BF92CF92DF92EF92FF920F931F93CF932B
:103AB000DF93CDB7DEB7A6970FB6F894DEBF0FBE83
:103AC000CDBF9EA38DA34B018091EC079091ED0794
:103AD000892B21F48DA19EA10E94E11C0E94B216A7
:103AE0006090EE077090EF078DA19EA1009709F4FA
:103AF00022C1FC01848180330CF41DC182330CF49B
:103B00001DC1863409F017C119C1F40180818823D1
:103B100009F411C18AE190E00E9455575C0180913F
:103B2000060890910708A0910808B091090800972D
:103B3000A105B10509F41AC1A114B10409F4FBC02F
:103B4000F40180818E3209F4E7C08AE1F501119217
:103B50008A95E9F720900208309003084090040805
:103B600050900508F40180818F3209F006C102C12E
:103B7000FFE3EF16F1040CF003C183010E0D1F1DCE
:103B8000992787FD90950E94CE85F801808308943F
:103B9000E11CF11C0894811C911CF40180818F327E
:103BA00009F4D2C08C3509F4CFC0882309F7CCC002
:103BB0006EE270E0C3010E94EA84009721F40930AC
:103BC0001105D8F50BC0DC011196FD010190002014
:103BD000E9F73197EA1BFB0B349778F58E010B5F01
:103BE0001F4F80E2F80111928A95E9F748E050E012
:103BF00060E270E0C8010E94E38443E050E060E2CC
:103C000070E0CE010D960E94E384D801F301930188
:103C100004C08D932F5F3F4F319680818E3219F013
:103C20008823B9F70DC0F901DE011D9601C08D93FF
:103C3000818131968823D9F703C021E030E002C0AA
:103C400020E030E0F40180818F3209F448C08C35E7
:103C500009F445C0882309F05FC080E2888B809119
:103C6000F70780FD8DC084EF882E87E0982E6901CC
:103C70007E010894E11CF11C92018101A301BE01A7
:103C80006B5F7F4FC4010E94B4149B01AC016115AE
:103C900071058105910509F473C089819A81AB8111
:103CA000BC81F50180839183A283B3832483358310
:103CB000468357832087318742875387148615862A
:103CC00016861786108A118A128A138A918E808E20
:103CD000158A148A178A168A80E090E053C080E122
:103CE000888B8091F70780FD4BC069017E010894A5
:103CF000E11CF11C92018101A301BE016B5F7F4FAA
:103D000084EF97E00E94B4141B012C01611571052A
:103D100081059105A9F12EC0C5010E94C8570BC0AD
:103D200086E090E00E9455578C01009771F5C5011F
:103D30000E94C85733C00FEF1FEF30C08091F607C5
:103D4000882309F0E2CEF7CFE60CF71CF7011082CA
:103D5000F30101900020E9F78F010150104006198E
:103D600017090D30110508F068CF22CFA114B10456
:103D700099F6E1CF0894811C911CEE24FF240DCF0D
:103D800081E090E0019761F6C7CFFC0111821082BB
:103D90008DA19EA193838283B582A4820E94AD16D9
:103DA000C801A6960FB6F894DEBF0FBECDBFDF9157
:103DB000CF911F910F91FF90EF90DF90CF90BF9028
:103DC000AF909F908F907F906F905F904F903F90BB
:103DD0002F9008958FEF9FEF08952F923F924F926B
:103DE0005F926F927F928F929F92AF92BF92CF928B
:103DF000DF92EF92FF920F931F93CF93DF935C01BB
:103E00006B014A0129013801170181E090E00E940D
:103E10001D10C0E0D0E07601850109C0F801819154
:103E20008F010E941210F70181937F012196C8151E
:103E3000D905A4F3C0E0D0E07301820109C0F80104
:103E400081918F010E941210F70181937F012196C9
:103E5000C215D305A4F30E94FA0F80E090E0DF9131
:103E6000CF911F910F91FF90EF90DF90CF90BF9077
:103E7000AF909F908F907F906F905F904F903F900A
:103E80002F900895EF92FF920F931F93CF93DF939C
:103E9000CDB7DEB722970FB6F894DEBF0FBECDBF09
:103EA00087ED89838FEF8A83EE24FF2400E010E002
:103EB00020E030E042E050E0CE010196BC010E94DB
:103EC000ED1E892B19F08FEF90E002C08A819927AF
:103ED00022960FB6F894DEBF0FBECDBFDF91CF9113
:103EE0001F910F91FF90EF9008950F931F930E94E1
:103EF000421F0E94421F082F60E070E020915C0882
:103F000030915D080EC06F5F7F4F80858023918563
:103F1000891739F48AE0189F9001112421563D4FEA
:103F200018C0162F462F5527FA01EE0FFF1FCA01A2
:103F3000A3E0880F991FAA95E1F7E80FF91FE15652
:103F4000FD4F80819181A281B3810097A105B105C8
:103F5000D1F630935D0820935C08CA011F910F9140
:103F60000895EF92FF920F931F93CF93DF937B01FE
:103F70008C01EA0119C0209731F461E070E080E023
:103F800090E00E94355D0894E108F10801091109EB
:103F90008FEFE8168FEFF8068FEF08078FEF1807FF
:103FA00019F48FEF9FEF06C00E94421F87FFE3CFF7
:103FB00080E090E0DF91CF911F910F91FF90EF9003
:103FC00008955F926F927F928F929F92AF92BF926D
:103FD000CF92DF92EF92FF920F931F93CF93DF93D5
:103FE000582E4A015B01E90138018701293031056A
:103FF0001CF08FEF9FEF23C0A90160E070E08EE519
:1040000098E00E94E38450925E0881149104A10418
:10401000B10469F0C501AA27BB2780935F08BB27BD
:10402000AB2D9A2D892D80936008809261087601CE
:104030009301AE016EE578E0CB010E94ED1EDF91A9
:10404000CF911F910F91FF90EF90DF90CF90BF9095
:10405000AF909F908F907F906F905F9008958F9218
:104060009F92AF92BF92CF92DF92EF92FF920F9307
:104070001F93CF93DF934B015C018A016901C90152
:104080000E948580EC01009719F40FEF1FEF36C0F6
:104090007C0124E030E040E050E060E070E084E843
:1040A0000E94E11F892B29F5E0915C08F0915D08E1
:1040B000068004C0880C991CAA1CBB1C0A94D2F769
:1040C000CC24DD24EE24FF2400E010E024E030E0E6
:1040D000B501A40183E80E94E11F892B51F441E05E
:1040E00050E068EE73E080E090E00E94B11F8C0128
:1040F00002C00FEF1FEFCE010E948280C801DF9146
:10410000CF911F910F91FF90EF90DF90CF90BF90D4
:10411000AF909F908F900895CF92DF92EF92FF9291
:104120000F931F93E0915C08F0915D08068004C036
:10413000660F771F881F991F0A94D2F769017A01C9
:104140008A0128E030E0AB01BC0188EE0E94E11F4B
:104150001F910F91FF90EF90DF90CF900895CF9235
:10416000DF92EF92FF920F931F93AA27BB27CC24D5
:10417000DD24EE24FF2400E010E024E030E0AC0178
:10418000BD0181E80E94E11F1F910F91FF90EF9008
:10419000DF90CF90089560957095809590952091CF
:1041A0006608309167084091680850916908262395
:1041B0003723482359232093660830936708409398
:1041C00068085093690880E090E00895AF92BF922C
:1041D000CF92DF92EF92FF920F931F93CF93DF93D3
:1041E000CDB7DEB722970FB6F894DEBF0FBECDBFB6
:1041F0009B015A01492F552749838A83CC24DD240A
:104200007601850142E050E0BE016F5F7F4F87E598
:104210000E943A718A159B0519F480E090E002C073
:104220008FEF9FEF22960FB6F894DEBF0FBECDBF83
:10423000DF91CF911F910F91FF90EF90DF90CF9082
:10424000BF90AF900895AF92BF92CF92DF92EF925E
:10425000FF920F931F93CF93DF93CDB7DEB72297D3
:104260000FB6F894DEBF0FBECDBF9B015A01198275
:104270008A83CC24DD2476018A0142E050E0BE012D
:104280006F5F7F4F8FE60E943A718A159B0519F484
:1042900080E090E002C08FEF9FEF22960FB6F89477
:1042A000DEBF0FBECDBFDF91CF911F910F91FF9069
:1042B000EF90DF90CF90BF90AF9008950F931F9332
:1042C000CF93DF93CDB7DEB721970FB6F894DEBF5B
:1042D0000FBECDBF8C0141E050E0BE016F5F7F4F4C
:1042E0008FE30E942321892BE9F489819927AA274A
:1042F000BB2720916608309167084091680850916B
:104300006908822B932BA42BB52B8093660890937E
:104310006708A0936808B0936908F80180839183C7
:10432000A283B383809166089091670821960FB6A7
:10433000F894DEBF0FBECDBFDF91CF911F910F91DB
:104340000895CF93DF93CDB7DEB724970FB6F894D7
:10435000DEBF0FBECDBF80E00E943670009721F413
:10436000CE0101960E945E2124960FB6F894DEBF1E
:104370000FBECDBFDF91CF910895EF92FF920F93C3
:104380001F93CF93DF93CDB7DEB728970FB6F8947E
:10439000DEBF0FBECDBF8C0148E050E0BE016F5FB5
:1043A0007F4F80E30E9423217C01892B09F073C099
:1043B0002981822F82958F706AE0869FC001112427
:1043C0002F70820F911DD8018D939C932A81822F8B
:1043D00082958F70869FC00111242F70820F911DCE
:1043E000F801938382832B813327C9018F739070E7
:1043F000B4E095958795BA95E1F7AC01A3E0440F39
:10440000551FAA95E1F7880F991F840F951F2F70EC
:104410003070820F931F958384832C81822F829525
:104420008F70869FC00111242F70820F911D97837A
:1044300086832D81822F82958F70869FC0011124E3
:104440002F70820F911D0197918780878E81282F71
:1044500022952F70269FA001112499278F709070AC
:104460008C599F4F480F591F538742872885822FA9
:1044700082958F70869FC00111242F70820F911D2D
:104480004A9724F04C595F4F538742878F81992771
:10449000F80195878487C70128960FB6F894DEBF88
:1044A0000FBECDBFDF91CF911F910F91FF90EF9085
:1044B0000895AF92BF92CF92DF92EF92FF920F9347
:1044C0001F93CF93DF93CDB7DEB723970FB6F89442
:1044D000DEBF0FBECDBF19822FE32A835E01089491
:1044E000A11CB11C892BA1F082E08B83CC24DD249C
:1044F000760100E010E020E030E043E050E0B5015C
:104500008FE60E943A71009789F486E08B8306C09B
:104510001B82CC24DD24760100E010E020E030E0B6
:1045200043E050E0B5018FE60E943A7123960FB642
:10453000F894DEBF0FBECDBFDF91CF911F910F91D9
:10454000FF90EF90DF90CF90BF90AF900895AF9223
:10455000BF92CF92DF92EF92FF920F931F93CF9370
:10456000DF93CDB7DEB721970FB6F894DEBF0FBE4D
:10457000CDBF13E1A12EB12C0FC061E070E080E04F
:1045800090E00E94355D0894A108B108A114B1041F
:1045900019F48FEF9FEF14C0CC24DD24760101E0E5
:1045A00010E09E012F5F3F4F40E050E060E070E080
:1045B00087E50E943A718F5F9F4FF9F280E090E0AB
:1045C00021960FB6F894DEBF0FBECDBFDF91CF911D
:1045D0001F910F91FF90EF90DF90CF90BF90AF9021
:1045E00008952F923F924F925F926F927F928F9297
:1045F0009F92AF92BF92CF92DF92EF92FF920F9372
:104600001F93CF93DF933C014A012B0100E010E0A0
:1046100046C0C3018F73907020E430E0281B390B33
:1046200054012815390508F4590182E0282E312C4F
:104630002A0C3B1CC1010E948580EC01892BA1F151
:10464000872D992788836982A501B201CE01029640
:104650000E94DA8481E090E00E9459228C01892B2B
:1046600031F5CC24DD24760100E010E020E030E0DC
:10467000A101BE0187E50E943A718C01CE010E9422
:10468000828001151105B1F40E94A7228C01892BAB
:1046900089F48A189B086A0C7B1C4A0C5B1C8114E9
:1046A000910409F0B6CF06C00FEF1FEF03C0CE0193
:1046B0000E94828080E090E00E945922C801DF9130
:1046C000CF911F910F91FF90EF90DF90CF90BF900F
:1046D000AF909F908F907F906F905F904F903F90A2
:1046E0002F9008958F929F92AF92BF92CF92DF92B8
:1046F000EF92FF920F931F93CF93DF934C015B01D7
:10470000EA0181E090E00E9459228C01892BC1F4DA
:10471000CC24DD24760100E010E020E030E0AE01A2
:10472000B5018FE60E943A718C01892B29F4892802
:1047300019F00E94A7228C0180E090E00E9459228B
:10474000C801DF91CF911F910F91FF90EF90DF9003
:10475000CF90BF90AF909F908F900895EF92FF926F
:104760000F931F93CF93DF93CDB7DEB72A970FB682
:10477000F894DEBF0FBECDBF8B017A012AE0FE01A7
:10478000319611922A95E9F723E0880F991F2A950F
:10479000E1F78A836115710509F47AC040FF12C000
:1047A000FB0140815181842F6AE00E947985282F86
:1047B0002295207FCA016AE070E00E949985280F47
:1047C00020682B83E1FE12C0F80142815381842FBF
:1047D0006AE00E947985282F2295207FCA016AE02D
:1047E00070E00E949985280F20682C83E2FE12C099
:1047F000F80144815581842F6AE00E947985282F31
:104800002295207FCA016AE070E00E949985280FF6
:1048100020682D83E3FE12C0F80146815781842F62
:104820006AE00E947985282F2295207FCA016AE0DC
:1048300070E00E949985280F20682E83E4FE14C042
:10484000F80140855185842F8F5F6AE00E94798549
:10485000282F2295207FCA0101966AE070E00E940D
:104860009985280F20682F83E7FE12C0F801448540
:104870005585842F6AE00E947985282F2295207F14
:10488000CA016AE070E00E949985280F2068298794
:104890004AE050E0BE016F5F7F4F81E090E00E94F0
:1048A00072232A960FB6F894DEBF0FBECDBFDF91FC
:1048B000CF911F910F91FF90EF900895EF92FF928B
:1048C0000F931F93CF93DF93CDB7DEB728970FB623
:1048D000F894DEBF0FBECDBF7B018A01FA011182C1
:1048E000108292E1FB0111929A95E9F748E050E0BD
:1048F000BE016F5F7F4F880F880F880F0E942321B2
:10490000BC01892B09F09FC0298127FF20C0F80135
:10491000808191818160918380833327C9018F7762
:104920009070F4E095958795FA95E1F7AC01E3E096
:10493000440F551FEA95E1F7880F991F840F951FC3
:104940002F703070820F931FF701918380833A811B
:1049500037FF13C0F8018081918182609183808349
:10496000832F82958F702AE0829FC00111243F70AF
:10497000830F911DF701938382832B8127FF20C032
:10498000F801808191818460918380833327C901FC
:104990008F779070A4E095958795AA95E1F7AC0183
:1049A000F3E0440F551FFA95E1F7880F991F840F24
:1049B000951F2F703070820F931FF70195838483AA
:1049C0003C8137FF13C0F801808191818860918319
:1049D0008083832F82958F702AE0829FC0011124EB
:1049E0003F70830F911DF701978386833D8137FFC9
:1049F00014C0F80180819181806191838083832F2D
:104A000082958F702AE0829FC00111243F70830F2E
:104A1000911D0197F701918780873F8137FF13C070
:104A2000F80180819181806891838083832F8295B2
:104A30008F702AE0829FC00111243F70830F911D67
:104A4000F70195878487CB0128960FB6F894DEBFCF
:104A50000FBECDBFDF91CF911F910F91FF90EF90CF
:104A600008950F931F93CF93DF93CDB7DEB72A97A7
:104A70000FB6F894DEBF0FBECDBF8C018AE0FE01F9
:104A8000319611928A95E9F70115110509F481C053
:104A900080E38A83F80140815181842F6AE00E947B
:104AA0007985282F2295207FCA016AE070E00E9454
:104AB0009985280F2B8342815381842F6AE00E94BD
:104AC0007985282F2295207FCA016AE070E00E9434
:104AD0009985280F2C8344815581842F6AE00E9498
:104AE0007985282F2295207FCA016AE070E00E9414
:104AF0009985280F20682D8346815781842F6AE08D
:104B00000E947985282F2295207FCA016AE070E0F3
:104B10000E949985280F2E8340855185842F8F5FB1
:104B20006AE00E947985282F2295207FCA0101968C
:104B30006AE070E00E949985280F2F834285538593
:104B4000443651059CF0842F84566AE00E94798592
:104B5000282F2295207FCA01845690406AE070E099
:104B60000E949985280F288780E20FC0842F6AE071
:104B70000E947985282F2295207FCA016AE070E083
:104B80000E949985280F288789E18A87F801848502
:104B900089874AE050E0BE016F5F7F4F80E090E080
:104BA0000E9472232A960FB6F894DEBF0FBECDBFC7
:104BB000DF91CF911F910F91089590936F0880938B
:104BC0006E0808950E94560A0895CF92DF92EF92E0
:104BD000FF920F931F93CF93DF936C0160E482E009
:104BE0000E943A0AEE24FF2414C0CE0125E0880F6B
:104BF000991F2A95E1F7F80161918F01682B83E0F5
:104C00000E943A0A2196C830D10579F70894E11C30
:104C1000F11CEC14FD045CF4870183E0000F111F0C
:104C20008A95E1F70D5F1C4FC0E0D0E0DECF60E871
:104C300082E00E943A0ADF91CF911F910F91FF907D
:104C4000EF90DF90CF900895009719F0019751F4FD
:104C500005C0605882E00E943A0A0895605482E0DC
:104C60000E943A0A089590936D0880936C0800970B
:104C700019F0019731F402C080E001C081E00E9488
:104C8000D50884E00E94D508089580916C08909121
:104C90006D08029719F484E00E94D50880916A0893
:104CA00090916B0818161906DCF4809170089091A9
:104CB00071080196909371088093700820916E0896
:104CC00030916F08821793075CF010927108109270
:104CD000700810926B0810926A0880E00E94170A10
:104CE0000895CF93DF93EC01009719F0019781F4B9
:104CF00008C080E00E94170A10926B0810926A08A0
:104D000007C081E00E94170AD0936B08C0936A081D
:104D1000DF91CF91089561E082E00E943A0A85E038
:104D20000E94235C0895AF92BF92CF92DF92EF92E0
:104D3000FF920F931F93CF93DF93EC01FC0101903F
:104D40000020E9F73197E81BF90BE131F105B0F4E8
:104D500000E010E07C0107C0F70181917F010E9413
:104D6000560A0F5F1F4FFE0101900020E9F73197AF
:104D7000EC1BFD0B0E171F0778F330C030EFA32E8E
:104D80003FEFB32EAE0EBF1EEE24FF241EC00E94C6
:104D90008B266E01CE0CDF1C870107C0F6018191C6
:104DA0006F010E94560A0F5F1F4FFE010190002005
:104DB000E9F73197EC1BFD0B0E171F0778F38AEF0D
:104DC0000E94235C0894E11CF11CAE14BF04FCF6A5
:104DD00068EE73E080E090E00E94355DDF91CF9156
:104DE0001F910F91FF90EF90DF90CF90BF90AF9009
:104DF00008950F931F938C0160E070E00E942426B9
:104E00008FEE92E00E94932660E070E0C8010E945D
:104E100024261F910F9108950E945B0A84E090E080
:104E20000E94E525089581E090E0909373088093B7
:104E300072080895AF92BF92CF92DF92EF92FF92E5
:104E40000F931F93CF93DF93CDB7DEB721970FB6A4
:104E5000F894DEBF0FBECDBF5C0119829C0141E01A
:104E600050E061E070E0CE0101960E940C7F019756
:104E700009F07CC02981222319F480E090E078C0F9
:104E8000422F5527213278F05F934F9383E293E0CE
:104E90009F938F930E94AC7F8FEF9FEF0F900F90A7
:104EA0000F900F9065C08A0184E0000F111F8A9552
:104EB000E1F7C80101960E9485807C01892B09F4E5
:104EC00055C0CC24DD249501A80161E070E0C70144
:104ED0008C0D9D1D0E940C7F181619060CF046C003
:104EE000081B190B39F0C80ED91EF701EC0DFD1D7A
:104EF0001082E9CFFF92EF9289E493E09F938F9322
:104F00000E94AC7F44E758E065E573E0C7010E946A
:104F100013859F938F9387E593E09F938F930E94D0
:104F2000AC7F80917408909175089F938F9382E66F
:104F300093E09F938F930E94AC7F8091740890912F
:104F400075080E94932681E090E00E947126C701B7
:104F50000E94828080E090E02DB73EB7245F3F4FF3
:104F60000FB6F8943EBF0FBE2DBF02C08FEF9FEF6C
:104F700021960FB6F894DEBF0FBECDBFDF91CF9163
:104F80001F910F91FF90EF90DF90CF90BF90AF9067
:104F900008952F923F924F925F926F927F928F92DD
:104FA0009F92AF92BF92CF92DF92EF92FF921F93A8
:104FB000CF93DF93CDB7DEB726970FB6F894DEBF59
:104FC0000FBECDBF1C013A014B0180E090E20E9470
:104FD0007558892B19F48DE693E00CC00E94C10C22
:104FE000892B31F480E090E00E94120C892B29F08B
:104FF0008BE893E00E94D37FC2C080E00E94980AB1
:10500000182F0E945658812F0E94980A0E94075E0E
:105010006B837C838D839E8364015301EE24FF2484
:10502000A7C080E00E94980A182FCE0101960E9426
:1050300090582C01812F0E94980A0E94BD0A81304D
:1050400001F189819A818050944078F00E94075E36
:105050002B813C814D815E81621B730B840B950B10
:10506000653071058105910560F00E94075E6B83D4
:105070007C838D839E838BEA93E00E94D37F0E9482
:105080008E0D611471048104910459F089819A8113
:10509000AA27BB27A816B906CA06DB0610F4BA82EF
:1050A000A982F20156C0910161E070E0CF010E9437
:1050B0000C7F7C01892B09F462C080E00E94980A71
:1050C000182FC7010E94F5582C01812F0E94980AC1
:1050D000611471048104910469F0C701AA27BB27F8
:1050E000A81AB90ACA0ADB0A29F4C1010E941A27C0
:1050F0006401530189819A81E816F90608F530E0C8
:10510000E31632E0F306E0F40E94455A9F938F9332
:105110007F936F9387EB93E09F938F930E94AC7F75
:105120006AEF70E080E090E00E94355D4DB75EB7B9
:105130004A5F5F4F0FB6F8945EBF0FBE4DBF02C00F
:105140000E94DD5BF20189819A818E199F099A8301
:10515000898349815A814115510539F0809172083E
:1051600090917308892B09F49ECFE114F10439F072
:105170008091720890917308892B09F452CF26967A
:105180000FB6F894DEBF0FBECDBFDF91CF911F9158
:10519000FF90EF90DF90CF90BF90AF909F908F9057
:1051A0007F906F905F904F903F902F9008958F92D7
:1051B0009F92AF92BF92CF92DF92EF92FF920F93A6
:1051C0001F93CF93DF93EC015A016B0179014801E2
:1051D000CB01BA010E94D244FF92EF929F938F932A
:1051E00085EC93E09F938F930E94AC7F9701B6016B
:1051F000A501CE010E94EE402DB73EB72A5F3F4F7A
:105200000FB6F8943EBF0FBE2DBF892BA9F0CE017B
:105210000E94CE3C9F938F9389ED93E09F938F9351
:105220000E94AC7FCE010E94BE3FEE24FF240F906F
:105230000F900F900F9090C088EF93E00E94D37F63
:105240006BEF73E0CE010E94887D7C01892B29F4ED
:105250008FEF93E00E94D37F7FC00AE114E01F9399
:105260000F9386E294E09F938F930E94AC7F1F93ED
:105270000F9388E394E09F938F93FF92EF920E94A5
:10528000557FC601B5010E94D2449F938F938AE453
:1052900094E09F938F93FF92EF920E94557FB70106
:1052A00085E594E00E949B7FB7018CE694E00E9424
:1052B0009B7FB7018AE794E00E949B7FB7018CE84F
:1052C00094E00E949B7FB70180EA94E00E949B7F5C
:1052D000C7010E94D97D80E092E00E948580EC01A8
:1052E0008DB79EB740960FB6F8949EBF0FBE8DBF88
:1052F00024C06DE070E0CE010E94EA84FC01892B9D
:1053000019F483EA94E017C0108288818823E9F0B9
:105310004CE050E062EC74E0CE010E940585892BE0
:1053200049F4CE010C960E948084F401608371835D
:1053300082839383CE010E94D37FA70160E072E055
:10534000CE010E94E17E892BA1F68AE090E00E94C6
:10535000CC7FCE010E948280C701DF91CF911F9147
:105360000F91FF90EF90DF90CF90BF90AF909F9004
:105370008F9008952F923F924F925F926F927F92FB
:105380008F929F92AF92BF92CF92DF92EF92FF9255
:105390000F931F93CF93DF93CDB7DEB726970FB64A
:1053A000F894DEBF0FBECDBF2C019F938F938FEC7F
:1053B00094E09F938F930E94AC7F20E63AEE40E00A
:1053C00050E060E070E0C2010E941A2D0F900F9033
:1053D0000F900F90892B09F46BC0DE011196E0E568
:1053E000F6E086E001900D928150E1F78FED94E0B8
:1053F0009F938F930E94AC7F20E63AEE40E050E00E
:105400001E010894211C311CB101C2010E941A2DF9
:105410000F900F90892B09F44BC081EF94E00E940C
:105420007C445B016C0181E095E00E947C447B013F
:105430008C018FE095E00E947C443B014C018FE1A0
:1054400095E09F938F930E94AC7FA6019501B101D7
:10545000C2010E94DE460F900F90892B19F080E365
:1054600095E021C0611471048104910409F185E47F
:1054700095E09F938F930E94AC7F96EEC92E96E0A5
:10548000D92E8401730120E030E040E050E060E07C
:1054900070E080E090E00E944A430F900F90892BCB
:1054A00039F488E595E00E94D37F8FEF9FEF69C0C4
:1054B00088EF93E00E94D37F8091940B99279F936C
:1054C0008F938091930B99279F938F938091920B49
:1054D00099279F938F938091910B99279F938F93F7
:1054E0008091900B99279F938F9380918F0B992791
:1054F0009F938F9381E795E09F938F930E94AC7F5A
:105500006091950B7091960B8091970B9091980BF1
:105510000E94D2449F938F9386E995E09F938F9347
:105520000E94AC7F6091990B70919A0B80919B0BBC
:1055300090919C0B0E94D2449F938F9380EA95E0B8
:105540009F938F930E94AC7F60919D0B70919E0BF7
:1055500080919F0B9091A00B0E94D2449F938F93B8
:105560008AEA95E09F938F930E94AC7F80E090E061
:105570002DB73EB7265E3F4F0FB6F8943EBF0FBE25
:105580002DBF26960FB6F894DEBF0FBECDBFDF91BC
:10559000CF911F910F91FF90EF90DF90CF90BF9030
:1055A000AF909F908F907F906F905F904F903F90C3
:1055B0002F900895EF92FF920F931F93CF93DF9355
:1055C000CDB7DEB760970FB6F894DEBF0FBECDBF84
:1055D000109273081092720880E092ECA1E0B0E0A3
:1055E0008D879E87AF87B88B85EB95E00E947C44C2
:1055F00088E392E29A83898388EB9BE0A0E0B0E0A5
:105600008D839E83AF83B88784EB95E09C838B83E7
:1056100040E060E070E080EA96E00E94B360409174
:1056200057075091580763EC75E085EC95E00E94B0
:10563000767E80915707909158070E94EA7DAE01CF
:10564000435F5F4F61E071E00E94DE7C0E943C5846
:105650009F938F938BEC95E09F938F930E94AC7FE9
:105660008BED95E00E94BA290F900F900F900F904C
:10567000892B09F0FFCF0E9454407C01009729F448
:1056800080EE95E00E94D37FFFCF22E030E0AE01B4
:105690004D5F5F4F62E070E00E94CD3F892B21F0AB
:1056A0008BEF95E00E94D37F24E030E0AE014B5FAA
:1056B0005F4F66E070E1C7010E94CD3F892B21F06A
:1056C0008EE096E00E94D37F22E030E0AE014F5F93
:1056D0005F4F62E070E1C7010E94CD3F892B21F04E
:1056E00080E296E00E94D37F85EB95E00E947C44A7
:1056F000AB01BC018E01075F1F4F20E530E0C70101
:105700000E94D7288C01892B71F085E396E00E94D6
:10571000D37F49855A856B857C85C8010E94C9273E
:10572000C8010E94487DC7010E94BE3F0E94AD0A89
:1057300064EF71E080E090E00E94355DC8010E9456
:10574000487D82E496E00E94D37F64E670E080E0CA
:1057500090E00E94355DF9CF8093690608950E941C
:10576000B35E20E033E040E050E06DE675E084E6B3
:1057700096E00E94AF638EEF0E94595B0E94DD5B52
:105780000E94245B209169062F3FC1F393B783B732
:10579000817F822B83BF83B7816083BF889583B766
:1057A0008E7F83BF83B7817F9E70892B83BFE6CFB7
:1057B000CF93DF93DC01FC0187E3819393E0ED015C
:1057C0009983DF01119681E08183FD01918386E059
:1057D000828385E090E0DF91CF91089580917B08EE
:1057E0009927089580917C0890917D0810927D08FA
:1057F00010927C08089520E030E080917B0885308D
:1058000011F421E030E0C9010895DF92EF92FF9298
:105810000F931F93CF93DF93D62E79018A010E94B5
:105820009760EC01892B51F08B85833039F4EF853B
:10583000F889309719F08081863049F081E190E055
:1058400090937D0880937C088FEF9FEF35C00E9476
:105850008B5D609386087093870880938808909387
:105860008908E0928208F0928308009384081093DC
:105870008508D0927B088091790890917A08892BCD
:1058800069F420E032E0AE016CE871E38AE696E06C
:105890000E94AF6390937A08809379088EE798E02E
:1058A0000E94CA5F40E050E060E070E080E898E06D
:1058B0000E941D6080E090E0DF91CF911F910F91D9
:1058C000FF90EF90DF900895FC019A01AB01809169
:1058D0007B08882349F083E090E090937D088093D3
:1058E0007C088FEF9FEF089568E0CF010E94052CA0
:1058F0000895FC019A01AB0180917B08853049F045
:1059000083E090E090937D0880937C088FEF9FEF79
:10591000089569E0CF010E94052C0895CF92DF928F
:10592000EF92FF920F931F93CF93DF93FC0184E2DA
:1059300092E0DF011D920197E9F781E08083818386
:1059400086E08283DF015C96CFE8DBE009900D9270
:105950008150E1F724833583468357830C2CCD2C6B
:10596000D02CD186C086E486F58606871787DF01AE
:10597000A451BF4F93E6FD01919382E8ED01898325
:10598000DF01119683E58183FD013196ED01998355
:10599000DF01119685E3818381E0FD0181836283CC
:1059A00087E090E0DF91CF911F910F91FF90EF90F2
:1059B000DF90CF900895CF93DF93CDB7DEB72297D6
:1059C0000FB6F894DEBF0FBECDBFDC015A8349830A
:1059D000FC0161939F0182E0FD01818389819A81AD
:1059E000082E892F902DF9019283818384E090E025
:1059F00022960FB6F894DEBF0FBECDBFDF91CF91D8
:105A000008950F931F93CF93DF93DC01CA01022FF8
:105A1000FD016193ED0129831127A801BC01CF018C
:105A200001960E94DA84C8010296DF91CF911F91FE
:105A30000F9108954F925F926F927F928F929F92F3
:105A4000AF92BF92CF92DF92EF92FF920F931F938C
:105A5000CF93DF93CDB7DEB760970FB6F894DEBF74
:105A60000FBECDBF3C012B012D873E874F87588B42
:105A70000E9497605C01009769F0FC018385833088
:105A800049F4C784D088C114D10421F0F601808183
:105A9000863019F081E190E039C08E01095F1F4F17
:105AA000F80111928A95E9F746E050E06FEF70E057
:105AB0004E010894811C911CC4010E94E38476016C
:105AC0000894E11CF11C46E050E0B801C7010E94B7
:105AD000CD84892B41F046E050E0B401C7010E941B
