:100000000C94A6040C9418050C9418050C9418056F
:100010000C9418050C94CD330C9418050C94893469
:100020000C9418050C9418050C9418050C941805DC
:100030000C9418050C9475350C9418050C9418053F
:100040000C9418050C94F30D0C9418050C941805D9
:100050000C9418050C9418050C9418050C94FF3496
:100060000C9418050C9476410C9418050C94F141ED
:100070000C9418050C9418050C9418050C9418058C
:100080000C9418050C9418050C9418050C9418057C
:100090000C946B420C9418050C94E6420C94FC40B2
:1000A0000C9418050C9418050C9418050C9418055C
:1000B0000C9418050C9418050C9418050C9418054C
:1000C0000C9418050C9418050C9418057937C23750
:1000D00009382F3843386B38733898387637BA3840
:1000E000013907390D391339303919393039663941
:1000F0003B3950395254432074696D65205B25307B
:1001000032643A253032643A253032645D0A002D7B
:100110002D2D2D2D2D2D2D2D2D2D2D2D2D2D2D2D0F
:100120002D2D2D2D2D2D2D2D2D2D2D2D2D2D2D2DFF
:100130002D2D2D2D2D2D2D2D2D2D2D2D2D2D2D2DEF
:100140002D2D2D2D2D2D2D2D2D2D2D2D2D2D2D2DDF
:100150002D2D2D2D2D2D2D2D2D2D2D2D2D2D2D2DCF
:100160002D2D2D2D2D2D2D2D2D2D2D2D2D2D0054C5
:10017000310077007561727430000A000A2344650B
:1001800062756720000A23496E666F2020000A23EB
:100190004E6F74696320000A235761726E2020003D
:1001A0000A23457272202020000A234372697420BA
:1001B00020000A23416C65727420000A23456D6596
:1001C000726720003F3F203C444D4B3E2000574487
:1001D0003A200056533A200056453A200055543AEA
:1001E000200055443A200055413A200053523A200D
:1001F0000053503A200053473A200053453A20001C
:1002000053543A200052543A200052433A200050AE
:100210004C3A200050413A20004D443A20004D4DC8
:100220003A20004D453A200053593A20004C473AB5
:1002300020004C453A20004B423A2000494E3A20DB
:100240000048543A2000464C3A200046413A2000EB
:1002500044503A2000434D3A200043483A200041A0
:10026000553A200030803000170780B0173C060058
:100270001750003F24000600162012008F57000080
:10028000CE101229009900004D0080404C18060045
:10029000D7960028550D0000480D0600505B093028
:1002A000420080B00180144240BC182840C7133679
:1002B000423C003E03B81400031B1500C259D66F20
:1002C0002400003603981228D55700004D0000285E
:1002D000402BF33624004C80103E1438103E0A7830
:1002E000133E0DB8033E05F8060095550930151468
:1002F0001B00D4FF0300CEFF01000A000024CE162D
:100300008AB5240092F200945261240002FE240077
:10031000B24824004A4501B6F33605D8F3360D98A5
:10032000F0360A5800200000F036141861801336A9
:100330002400123E17B8123E1538053E14B8253673
:10034000240000000A80103E03B8944105B8113E15
:100350002400113E07B8143E1278143E0DF8033EF7
:100360000EF8060051000028D5240000240088B8AB
:100370001200046405040000240000285821944061
:10038000240000240221000024009864030856FE83
:100390002400B6482400D64D2400103A24C0F03280
:1003A00024C056FE2400B6482400D64D24008443C1
:1003B000834496638C8800F4D540003D2480060079
:1003C00091003F00C3FE060053000131248060FE0F
:1003D0002400BE48240034A6030C24432400844295
:1003E000022C060011000028D824003124800600C9
:1003F0001150003924800600110000314C988442CD
:100400004C9000F488400028452800002400F03C6F
:100410004038093041380930103800200000000011
:1004200088270930D01B002880280930811BF3342D
:10043000CC1BF3360ED8F4360DD8F4361258F136FC
:100440000798F1360518F036039805341490F33602
:100450002400F236151800200000F2361798AD80FF
:10046000123E17B8123E1538053E14B81536240052
:1004700000000A80103E0278103E04F8113E107809
:10048000143E1278132980C9143E24C0132980C950
:1004900088404C1800F405400000C0180064240097
:1004A0000000C01B00289530300010030028803F5A
:1004B00001382440006424000000401A0028553709
:1004C0000600D0550000037D84B84C18093005386B
:1004D000093000008AFF24001D29007BB248240057
:1004E00000004118060010508A4044B8002900134B
:1004F000884024000030CC1B1460240030005103DD
:100500000028D53600002400060011000031240028
:1005100030005103003824000028803F0139244076
:10052000006424003000D0030028553F0000037D04
:100530000600D05584B84C18093005380930000041
:100540008AFF24001D29007BB24824008A40CC9BEE
:10055000000041180028553B060010509A682400FE
:100560000030240014602400300092030028853EEF
:10057000060091000600110000005218060053000A
:1005800080B80024060091000438248030009203D3
:10059000003B2400013924400028803F013A2440D8
:1005A0000138244080B8D31BF4361258F136105865
:1005B000F03604D8F036025805341490F33624008F
:1005C000F236151800200000F236179830000000AF
:1005D0000000457869740000000053EF6E000000D1
:1005E000004578697453EF6E4DEA6D5400000000C9
:1005F000070606060606060606060606060606069A
:10060000060606060606060606060606060606068A
:10061000060606060606060606060606060606067A
:100620000606060606060606060706060606060669
:10063000060606060606060606060606060606065A
:10064000060606060606060606060606060606064A
:100650000606060607060606060606060606060639
:10066000060606060606060606060606060606062A
:10067000060606060606060606060606060606061A
:10068000060606060606060606060606060606060A
:1006900006060606060606060606060606060606FA
:1006A00006060606060606060606060606060606EA
:1006B00006060606060606060606060606060606DA
:1006C00006060606060606060606060606060606CA
:1006D00006060606060606060606060606060606BA
:1006E00006060606060606060606060606070606A9
:1006F000060606060606060606060606060606069A
:100700000606060606060606060606060606060689
:100710000606060606060606060606060606060679
:100720000606060606060606060606060606060669
:100730000606060606060606060606060606060659
:100740000606060606060606060606060606060649
:100750000606060606060606060606060606060639
:100760000606060606060606060606060606060629
:100770000606060606060606060606060606060619
:100780000606060606060606060606060606060609
:1007900006060606060606060606060606060606F9
:1007A0000606060606546872656164206661696C17
:1007B00065640043617264507265730043617264E2
:1007C0002072656D6F766564004361726420696EA6
:1007D000736572746564004572726F7220696E6928
:1007E0007469616C6973696E672046696C65207312
:1007F000797374656D20616E6420436172642D6449
:1008000072697665720043617264206D6F756E74F3
:10081000656400696E76616C696420537065656417
:10082000006572726F7220647572696E672043533F
:1008300044207265616400000000000000000000B8
:1008400000000000000000000000000000000000A8
:100850000000000000000000000000000000000098
:100860000000000000000000000000000000000088
:100870000000000000000000000000000000000078
:100880000000000000000000000000000000000068
:100890000000000000000000000000000000000058
:1008A0000000000000000000000000000000000048
:1008B0000000000000000000000000000000000038
:1008C0000000000000000000000000000000000028
:1008D0000000000000000000000000000000000018
:1008E0000000000000000000000000000000000008
:1008F00000000000000000000000000000000000F8
:1009000000000000000000000000000000000000E7
:1009100000000000000000000000000000000000D7
:1009200000000000000000000000000000000000C7
:1009300000000000000000000000000000000000B7
:1009400000000000000000000000000084E8809328
:100950007400479A3F9A469A3E9A81EE809300C36C
:1009600080E4809301C385B78F7785BF80E090E0F6
:10097000359B05C0019641F0359BF8CFFBCF019622
:1009800019F03599F3CFFBCF85B7806885BF4798BD
:100990003F9846983E9887E08093C4008093CC00AF
:1009A00011241FBECFEFD1E2DEBFCDBF15E0A0E026
:1009B000B2E0E8E1F5E900E00BBF02C007900D925C
:1009C000A430B107D9F718E0A4E0B5E001C01D924A
:1009D000AD39B107E1F78FEF9FE79EBF8DBF8FEF76
:1009E0009FE78D5998408158914040F06FEF7EE726
:1009F0006D5978408DE998E00E945B280E941E3175
:100A0000892B41F06BE174E083E898E00E94E949AA
:100A10000E94053120E831E040E050E062E577E2F5
:100A200084E294E00E944D320E9400000C948B4AB4
:100A30000C94000087EF84B98CE08AB98BB18C707C
:100A4000836F8BB98EE88DB98EB18E7881608EB947
:100A500085B7806885BF85B7806885BF8EE080BB1D
:100A600081B38E70816F81BB88E183BB08958FE66F
:100A700091E09F938F9386EC8F930E948F0780E085
:100A800092E09F938F930E94E14484E60E94492C58
:100A90000F900F900F900F900F90E9CF1F93CF936F
:100AA000DF93CDB7DEB762970FB6F894DEBF0FBE07
:100AB000CDBF0E94270F84E60E94492C0E941A0590
:100AC0000E94C9100E94F5080E94530A0E94A406C1
:100AD0000E9458060E94CF088FE091E09F938F9369
:100AE00016EC1F930E948F070E94AD0F0E945122A7
:100AF000CE0101960E946D220F900F900F90892BCE
:100B0000D9F489819A819F938F938B819C819F9344
:100B10008F938D819E819F938F9384EF90E09F931D
:100B20008F931F930E948F078DB79EB709960FB6BC
:100B3000F8949EBF0FBE8DBF0E9425200E94180E04
:100B40000E94CB0940E050E06DE176E08BE394E059
:100B50000E944831892B49F485B5846085BDA89AE7
:100B600080916E00816080936E0081E00E947F2BF7
:100B70000E94D92E789486E092E00E94084568EEA3
:100B800073E080E090E00E945B2D0E94DB26809164
:100B90002308909124089F938F9386E192E09F937E
:100BA0008F930E94E14468EE73E080E090E00E9441
:100BB0005B2D80912308909124080196909324083E
:100BC000809323089F938F938FE192E09F938F935D
:100BD0000E94E1440E948D2668EE73E080E090E080
:100BE0000E945B2D0E94DB268091230890912408AF
:100BF0009F938F9384E392E09F938F930E94E144AD
:100C000082E592E00E94084568EE73E080E090E0A3
:100C10000E945B2D0E94D22668EE73E080E090E097
:100C20000E945B2D0E94DB268DB79EB70C960FB6F7
:100C3000F8949EBF0FBE8DBFFFCF0E94FD080E949B
:100C4000540F0895809104059091050508958091B1
:100C5000040590910505009731F00E948C43109295
:100C60000505109204050895CF93DF93CDB7DEB745
:100C700024970FB6F894DEBF0FBECDBF69837A8389
:100C80008B839C8380910405909105050E94DD4330
:100C9000AE014F5F5F4F63E171E00E9422432496F3
:100CA0000FB6F894DEBF0FBECDBFDF91CF91089590
:100CB000EF92FF920F931F93CF93DF93CDB7DEB7E1
:100CC0002D970FB6F894DEBF0FBECDBF80E092EC3B
:100CD000A1E0B0E08C839D83AE83BF8388E0E82EE3
:100CE000F12CEC0EFD1E64E771E0C7010E949B49E8
:100CF00062E771E08E010F5F1F4FC8010E949B49A0
:100D00004091AD045091AE04B801C7010E943D442A
:100D10009093050580930405009749F00E94DD43F8
:100D2000AE014C5F5F4F61E071E00E9422432D965F
:100D30000FB6F894DEBF0FBECDBFDF91CF911F91EC
:100D40000F91FF90EF900895109205051092040501
:100D500040E060E070E08AE694E00E94D9300895B7
:100D600090910605883010F480930605892F992705
:100D700008952F923F924F925F926F927F928F923F
:100D80009F92AF92BF92CF92DF92EF92FF920F931A
:100D90001F93CF93DF93CDB7DEB7CD54D0400FB6BE
:100DA000F894DEBF0FBECDBF7C016B011A01892B09
:100DB00009F48EC094E0692E712C44245524AA2491
:100DC000BB24A0E0B0E000E010E07EC0C5018F7061
:100DD0009070892B69F54DE450E060E270E08E017F
:100DE0000F5F1F4FC8010E94CE499301220F331F8E
:100DF000220F331F2450304040E050E0D801F20170
:100E0000022E02C0F695E7950A94E2F7EF70F070B3
:100E1000EC59FD4F80818D934F5F5F4F24503040E0
:100E20004615570561F7D301129683010C5C1F4FDD
:100E3000F6019081E92FE295EF70FF27EC59FD4F05
:100E400050814D010894811C911CE92FFF27EF7000
:100E5000F070EC59FD4F4081892F80528F3510F092
:100E60008EE201C0892F9E012F5F3F4FA20FB31F5B
:100E70005C93F901E80DF91D4083F901E00FF11FC2
:100E800080830F5F1F4F0894A11CB11CC5018F7098
:100E90009070892B19F0A214B30489F4F901E00FC2
:100EA000F11F1082B701C9010E94D044B7018AE046
:100EB00090E00E94A84480E190E0480E591E0894FA
:100EC000C11CD11CD4011296A214B30409F07ECF28
:100ED000C35BDF4F0FB6F894DEBF0FBECDBFDF910F
:100EE000CF911F910F91FF90EF90DF90CF90BF9027
:100EF000AF909F908F907F906F905F904F903F90BA
:100F00002F9008956091070570910805611571058E
:100F100029F0992787FD90950E94A84408951F9372
:100F2000CF93DF93CDB7DEB722970FB6F894DEBF2D
:100F30000FBECDBF19856091070570910805611539
:100F4000710509F410C1212F33272770307080916B
:100F500006059927821793070CF405C1812F877026
:100F60008330F1F0843028F48130A1F08230A8F48D
:100F70000EC08530D9F08530B0F08630D1F08730A2
:100F800019F48CE791E017C08AE791E014C08BEB6D
:100F900091E011C082EB91E00EC089EA91E00BC0B4
:100FA00080EA91E008C087E991E005C08EE891E011
:100FB00002C085E891E00E942A4560910705709182
:100FC0000805212F287F283709F4AAC0293790F572
:100FD000283309F499C02933B0F4283109F48EC0BC
:100FE000293138F4283009F486C0203109F053C083
:100FF00055C0283209F485C0203309F455C0203289
:1010000009F049C04EC0283509F484C0293548F498
:10101000283409F47CC0203509F44CC02034D9F5BB
:1010200046C0283609F479C0203709F449C0203673
:1010300091F543C0283B09F47FC0293BA8F4283927
:1010400009F474C0293940F4283809F46CC02039F7
:10105000E9F1203801F537C0283A09F46AC0203B8D
:10106000D9F1203AC1F435C0283D09F46BC0293DBF
:1010700040F4283C09F463C0203DA1F1203C59F420
:101080002EC0283E29F0203F99F1203E21F42DC0AA
:101090008EEC91E059C084EC91E056C08FE592E06F
:1010A00053C08AE592E050C085E592E04DC080E5EE
:1010B00092E04AC08BE492E047C086E492E044C0EC
:1010C00081E492E041C08CE392E03EC087E392E08D
:1010D0003BC082E392E038C08DE292E035C088E206
:1010E00092E032C083E292E02FC08EE192E02CC009
:1010F00089E192E029C084E192E026C08FE092E08D
:1011000023C08AE092E020C085E092E01DC080E02C
:1011100092E01AC08BEF91E017C086EF91E014C007
:1011200081EF91E011C08CEE91E00EC087EE91E06E
:101130000BC082EE91E008C08DED91E005C088ED16
:1011400091E002C083ED91E00E942A45AE01445F28
:101150005F4F5A8349836A857B858091070590910B
:1011600008050E943E4522960FB6F894DEBF0FBEDA
:10117000CDBFDF91CF911F91089580910705909188
:10118000080510920805109207050E94CC430895A7
:101190000E9422069093080580930705089587E032
:1011A000809306050E94C8080895833059F0843062
:1011B00018F4882339F008C0853031F0853040F0CC
:1011C000863091F48B9801C08B9A8093090508951D
:1011D00080910905813021F48B98109209050895BA
:1011E0008B9A81E08093090508958B9810920905E8
:1011F00008958091090599270895A398000000009B
:101200006FB1A39AA498000000004FB1A49A5B9814
:10121000000000008FB15B9A5A98000000002FB1C7
:101220005A9A62956F707727407F5527642B752BEC
:10123000807F992734E0880F991F3A95E1F7682B52
:10124000792B207F3327322F2227622B732B709329
:101250000D0560930C058FEF6F3B780709F458C0BC
:101260008FEF603C7807F8F48BEF6F3F780709F455
:101270005EC08CEF6030780748F48FEE6F3F7807E0
:1012800009F45BC06F5F774F89F548C08EEF6F3F01
:10129000780709F449C08FEF6F37780781F16F5FE6
:1012A0007D4F21F547C08FEF673F780759F18FEFEA
:1012B000683F780760F48FEF6F3D780791F18FEF0B
:1012C0006F3E780741F16F5C7F4F81F40CC08FEF68
:1012D0006D3F780789F08FEF6E3F7807B1F06B5F55
:1012E0007F4F21F406C08EE090E029C088E890E0AE
:1012F00026C081E090E023C082E090E020C083E03F
:1013000090E01DC084E090E01AC085E090E017C036
:1013100086E090E014C087E090E011C088E090E0A3
:101320000EC089E090E00BC08AE090E008C08BE03E
:1013300090E005C08CE090E002C08DE090E08093EA
:101340000E050895E82F862F8150823030F4E03169
:1013500020F4FF27EE5EFA4F6083089580910E051A
:101360009927089580930E05E0910A05F0910B05E9
:10137000309739F48FEF9FEF90930B0580930A0518
:1013800008958FEFEF3FF80729F08481958101964A
:10139000958384830895A39AA49A5B9A5A9A10928B
:1013A00011058FEF9FEF90930D0580930C050FB6FD
:1013B000F8940F9210920B0510920A050F900FBE31
:1013C0008FEF80930E05E2E1F5E082E0819395E0F6
:1013D000E232F907D9F71092100510920F0561E07B
:1013E00088E00E94A20961E08BE00E94A20961E00E
:1013F0008AE00E94A20961E08CE00E94A20908959F
:10140000AB01BC018AE095E00E94433020E030E06F
:101410008F5F9F4F11F421E030E0C90108958130C2
:1014200011F4739A0895882309F4739808959AB172
:101430009F70906F9AB99BB19F70607F962B9BB9FC
:10144000823011F48A9801C08A9A729A00000000D2
:1014500072988A988AB18F708AB98BB18F70806FB9
:101460008BB908950F931F93082F162F8A98899A86
:10147000729A000000004F99FBCF72988A98899861
:10148000612F607F802F0E94170A1295107F612FB5
:10149000802F0E94170A1F910F910895682F83E0F3
:1014A0000E94320A08951F938CE80E94492C10E094
:1014B00063E382E00E94170A84E00E94492C1F5FC8
:1014C0001330B1F762E282E00E94170A81E00E94C5
:1014D000492C68E282E00E94320A85E00E94492C91
:1014E0006CE082E00E94320A85E00E94492C61E0B3
:1014F00082E00E94320A85E00E94492C66E082E088
:101500000E94320A60E882E00E94320A1F91089528
:101510000FB6F8940F929DB3882311F0EE9A01C094
:10152000EE980F900FBE892F992726E09695879504
:101530002A95E1F781709070089580E00E94880AF2
:10154000982F80912205813011F410922205892F65
:101550000E94880A80E090E00895809122059927F2
:101560000895809123059091240508958091230585
:101570009091240508950F931F93CF93DF93EC016F
:101580008B0180E090E00E94CD1005C0FE018491A7
:101590000E94B510219601501040FFEF0F3F1F072A
:1015A000A9F70E94AA10DF91CF911F910F91089582
:1015B0001F9380E00E94880A182F64E070E082ED9B
:1015C00095E00E94BB0A64E070E08EEC95E00E941A
:1015D000BB0A812F0E94880A80E090E01F91089545
:1015E0000F931F93CF93DF938C01EB0180E090E08A
:1015F0000E94CD1005C0F80181918F010E94B510A5
:101600002197FFEFCF3FDF07B1F70E94AA10DF91CC
:10161000CF911F910F910895EF92FF920F931F9317
:10162000F82E8B010E94B110E82E80E00E94AE10CF
:1016300080E090E00E94CD102C9882E00E94B510CE
:101640008F2D0E94B510812F99270E94B510802FF1
:101650000E94B5102C9A0E94AA108E2D0E94AE10E6
:101660001F910F91FF90EF900895DF92EF92FF92FC
:101670000F931F93082FE62E80E00E94880AD82E31
:101680001127102F0027FF240E291F29B8018BE0F6
:101690000E940C0B8D2D0E94880A80E090E01F9123
:1016A0000F91FF90EF90DF900895FF920F931F939B
:1016B0008C0180E00E94880AF82E1C60B80180E04E
:1016C0000E940C0B8F2D0E94880A80E090E01F91F1
:1016D0000F91FF9008951F93CF93DF93CDB7DEB79F
:1016E00021970FB6F894DEBF0FBECDBF898380E08F
:1016F0000E94880A182F80E290E00E94550B63E058
:1017000070E08AED95E00E94BB0A61E070E0CE01D6
:1017100001960E94F00A64E070E086ED95E00E9478
:10172000BB0A812F0E94880A80E090E021960FB6C4
:10173000F894DEBF0FBECDBFDF91CF911F9108950A
:10174000282F332727703070C90153E0880F991F65
:101750005A95E1F7820F931F885C0E946B0B0895E6
:10176000DF92EF92FF920F931F93CF93DF93CDB74A
:10177000DEB721970FB6F894DEBF0FBECDBF8983C9
:101780007B0180E00E94880AD82E80E290E00E94CF
:10179000550B89818295807F885C898363E070E046
:1017A00085EE95E00E94BB0A61E070E0CE010196F3
:1017B0000E94F00A0DED15E064E070E0C8010E949F
:1017C000BB0A8E2D0E94492C64E070E081EE95E00A
:1017D0000E94BB0A64E070E0C8010E94BB0A8D2D24
:1017E0000E94880A80E090E021960FB6F894DEBF50
:1017F0000FBECDBFDF91CF911F910F91FF90EF9062
:10180000DF9008950F931F938C0180E00E94880A57
:1018100010922205C80184600E94550B8AE00E9444
:10182000492C80E48CBB80E090E01F910F910895DB
:10183000DF92EF92FF920F931F93182F0E94B11027
:10184000D82E80E00E94AE1080E090E00E94CD1083
:101850002C9883E00E94B510812F0E94B5100E9441
:10186000BA10E82EFF24FE2CEE240E94BA10082F96
:101870002C9A0E94AA108D2D0E94AE101127C7012C
:10188000802B912B1F910F91FF90EF90DF90089587
:10189000FF920F931F9380E00E94880AF82E8BE03E
:1018A0000E94180C8C018F2D0E94880AC8011F917C
:1018B0000F91FF900895FF920F931F93182F80E0D0
:1018C0000E94880AF82E812F0E94180C8C018F2DFF
:1018D0000E94880AC8011F910F91FF90089589E026
:1018E0000E945B0C9C018FEF213E380790F58DE440
:1018F00024353807A1F18DE42535380768F481E4F3
:1019000024353807F9F08DE424333807D9F081E421
:101910002434380709F516C087E52D363807F9F065
:1019200087E52E36380728F487E52D343807A1F4EB
:1019300009C086E72536380729F08FEF203E3807A3
:1019400059F40DC08091230590912405039739F433
:1019500003C020EE3FEF03C080E090E00895C9018E
:10196000089580E00E94880A2F982C9A2898209A3F
:1019700084E00E94492C80E00E94AE101092220563
:101980002F9A84E00E94492C81E00E94180C74E098
:10199000969587957A95E1F78770907090932405D6
:1019A00080932305039719F460E070EE02C060E0B5
:1019B00078E983E00E940C0B82E30E94492C80E0CE
:1019C00090E00E94550B60E080E00E94350B82E3BE
:1019D0000E94492C8091230590912405039702973A
:1019E00010F482E001C081E00E94AE1040E050E0BF
:1019F00069E07DE085E394E00E94483166E070E0B4
:101A000085E394E00E94C63180E48CBB80E090E0E6
:101A10000895BF92CF92DF92EF92FF920F931F93A0
:101A2000CF93DF93CDB7DEB722970FB6F894DEBF22
:101A30000FBECDBF80912205813009F04FC0669B5B
:101A40004DC080E00E94880AB82E78941A821982CC
:101A500080E090E00E94CD10F0E2EF2EF12C00E04B
:101A600010E0CC24DD2403C0EFE1EE2EF12C8981BF
:101A70009A81C816D906C0F0C114D10419F0C60164
:101A80000E946329CE0101960E94E2288C0189817F
:101A90009A81892B19F0CC24DD2408C082E0809340
:101AA0002205CC24DD2412C0892B41F0F80181915C
:101AB0008F010E94B5100894C11CD11C6699D4CF27
:101AC0000894E108F108E114F10489F60E94AA10D3
:101AD000C6010E94002A8B2D0E94880A22960FB60A
:101AE000F894DEBF0FBECDBFDF91CF911F910F9154
:101AF000FF90EF90DF90CF90BF9008950F931F93CA
:101B0000CF93DF9380912205813009F435C080E0C6
:101B10000E94880AC4E6D2E0FE0165917491E0EF6C
:101B2000F5E0E4918E2F0E940C0B00E010E011C054
:101B3000FE0165917491F801E051FA4FE4918E2F06
:101B40000E940C0BC80164EF71E00E942F4A892BA0
:101B500011F40E94250F0F5F1F4F229681E0053B75
:101B6000180731F781E08093220580E090E00E9421
:101B7000090D81E00E94880A80E090E0DF91CF911A
:101B80001F910F9108951F93CF93DF9380E090E012
:101B90000E94020C80E290E00E94550B80E00E94BF
:101BA000880A182F68E070E088EE95E00E94BB0A72
:101BB00088E20E94492C88E00E94180CEC01812FD9
:101BC0000E94880A8091230590912405039731F49F
:101BD00080E8CF37D80711F4C0E0D0E0CE01DF9124
:101BE000CF911F9108951F920F920FB60F9211245B
:101BF0008F939F93AF93BF9380912808909129086A
:101C0000A0912A08B0912B080196A11DB11D8093C7
:101C1000280890932908A0932A08B0932B08BF9115
:101C2000AF919F918F910F900FBE0F901F901895BD
:101C3000109228081092290810922A0810922B0856
:101C4000109227081092260880916A008C7F80935A
:101C50006A0040E050E068E57EE08FE294E00E9498
:101C60004831892B31F480916A00826080936A0048
:101C7000EC9A809180008760809380008EEB95E0E5
:101C8000909389008093880080916F008260809398
:101C90006F00809181008160809381000FB6F8947D
:101CA0000F9210922605109225050F900FBE0895F1
:101CB00084E00E94D508209128083091290840919D
:101CC0002A0850912B08DA01C9018B5A9040A04094
:101CD000B0404D97A105B10520F41092270810924D
:101CE000260822503040404050402D3031054105FB
:101CF000510588F484E792E09F938F930E94E1441A
:101D00008091260890912708019690932708809348
:101D100026080F900F908091280890912908A09193
:101D20002A08B0912B084097A109B1090E97A10587
:101D3000B10588F487E792E09F938F930E94E14476
:101D40008091260890912708019690932708809308
:101D500026080F900F908091280890912908A09153
:101D60002A08B0912B08855F9140A040B04083368F
:101D70009105A105B10540F410922708109226089C
:101D80008AE090E00E940145809126089091270802
:101D9000089741F410922708109226088AE090E0F4
:101DA0000E940145109228081092290810922A08D2
:101DB00010922B0884E00E94D5080895EF92FF92BC
:101DC0000F931F93AB01BC01A89521E0E12CE8E043
:101DD000FE2E012D112D01C02F5FD801C701022E4B
:101DE00004C0880F991FAA1FBB1F0A94D2F737E0BF
:101DF000B695A795979587953A95D1F78417950746
:101E0000A607B70748F3209328052A3018F0297051
:101E1000209328052091280523FF02C038E201C045
:101E200038E088E190E02770322B0FB6F894A8953F
:101E3000809360000FBE3093600081E0809327059F
:101E40001F910F91FF90EF900895A89508958091AC
:101E50002705882319F08F5F8093270588E10FB647
:101E6000F89480936000109260000FBE08958091F6
:101E700027058230C0F0815080932705813099F486
:101E80002091280523FF02C038E201C038E088E134
:101E900090E02770322B0FB6F894A89580936000DD
:101EA0000FBE30936000089580912C0590912D0510
:101EB0008130910589F08130910530F082309105B3
:101EC00021F10397E9F52DC078993AC081E080931C
:101ED0002B0581E090E020C0789912C080912B05FD
:101EE0008F5F80932B058E3159F581E080932A0511
:101EF00082E090E090932D0580932C0581E021C035
:101F000010922D0510922C051BC0789B19C081E002
:101F100080932B0583E090E090932D0580932C0512
:101F20000FC080912B058F5F80932B05843141F486
:101F300010922A0510922D0510922C0580E001C008
:101F400082E09927089580912A0599270895809124
:101F50002E0590912F05089508950F931F93CF9309
:101F6000DF93CDB7DEB72A970FB6F894DEBF0FBE6A
:101F7000CDBF10922D0510922C0510922A0563EB0F
:101F800077E08E010F5F1F4FC8010E949B49C80177
:101F90000E942B2B892BB1F420E033E040E050E08D
:101FA0006EE670E1C8010E944D32892B59F485EA32
:101FB00097E09F938F9380EE8F930E948F070F90EF
:101FC0000F900F902A960FB6F894DEBF0FBECDBFCC
:101FD000DF91CF911F910F910895FF920F931F935F
:101FE000CF93DF93CDB7DEB72A970FB6F894DEBF55
:101FF0000FBECDBF8CE792E00E94BD30892BB9F4B3
:1020000080E00E94880AF82E40E067E070E08AE7EE
:1020100092E00E94D9308C01892B51F540E067E0B5
:1020200070E08DE992E00E94D9308C0121C00E94BD
:102030008F1480E00E94880AF82EE0918D02F091C2
:102040008E02309729F08AE792E01995892B59F48E
:10205000E091B002F091B102309741F08DE992E049
:102060001995892B19F00FEF1FEF02C000E010E067
:102070008F2D0E94880A01151105C1F486E098E0B1
:102080009F938F9386EE8F930E948F0760E070E09E
:10209000CE0101960E9434430F900F900F902FEFC6
:1020A0008F3F920771F00E940C430BC087ED97E0C1
:1020B0009F938F9383EE8F930E948F070F900F90C3
:1020C0000F90C8012A960FB6F894DEBF0FBECDBFA1
:1020D000DF91CF911F910F91FF90089580912A0574
:1020E0008093290580912A058130B9F480912905D2
:1020F000882349F589EC97E09F938F9386EE8F9321
:102100000E948F070E94ED0F0F900F900F90892B68
:1021100029F780E10E94B209E1CF8823A1F48091E0
:102120002905813081F48CEB97E09F938F9386EEA5
:102130008F930E948F0780912A05809329050F9025
:102140000F900F90CFCF64EF71E080E090E00E949D
:102150005B2DC8CF779A2E982D9A089580933005DD
:10216000089580913005992708958EBD0DB407FE1E
:10217000FDCF08958FEF8EBD0DB407FEFDCF8EB558
:10218000992708958EBD0DB407FEFDCF8EB5992712
:102190000895779A2E982D9A08959C010097F9F446
:1021A00080913005882321F481E08DBD81E504C054
:1021B000813021F41DBC80E58CBD25C0823019F42E
:1021C00081E08DBDF8CF83E198E09F938F938BE7FB
:1021D0008F930E948F070F900F900F9014C001975C
:1021E00041F481E08DBD80E58CBD2D9A2E987798C5
:1021F00008951DBC80E58CBD2130310520F02230D2
:10220000310541F404C0779A2D9A2E9A0895779A51
:102210002E982D98089580E090E0089580E090E059
:10222000089580E090E0089540E050E060E070E0C4
:1022300081E395E00E9443300895CF93DF93CEEF82
:10224000DFEF0E94BA108F3F11F42197D1F7992741
:10225000DF91CF910895CF93DF93CEEFDFEF0E9410
:10226000BA108E3F11F02197D1F79927DF91CF91C6
:102270000895DF92EF92FF920F931F93D82E8B0158
:102280007A0182E090E00E94CD108FEF0E94B5109D
:102290008D2D80640E94B510812F99270E94B51062
:1022A000802F0E94B5108F2D99270E94B5108E2D7A
:1022B0000E94B51085E90E94B5108FEF0E94B510FD
:1022C0001F910F91FF90EF90DF9008956F927F9292
:1022D0008F929F92AF92BF92CF92DF92EF92FF9236
:1022E0000F931F93CF93DF935B0169017A0138014C
:1022F000882499243AC0A601542F4427550FC701BA
:10230000B60127E096958795779567952A95D1F739
:1023100081E10E9439110E942B118E3F29F00E9409
:10232000AA1081E090E026C08501C0E0D0E00E94C4
:10233000BA10F80181938F012196F2E0C030DF07D7
:10234000B1F780E092E0A80EB91E8FEF0E94B510A1
:102350008FEF0E94B5100E94AA100894811C911C56
:102360000894C11CD11CE11CF11C8614970419F6B9
:1023700080E090E0DF91CF911F910F91FF90EF905F
:10238000DF90CF90BF90AF909F908F907F906F9095
:10239000089581E395E00E94F02F08952F923F92D7
:1023A0004F925F926F927F928F929F92AF92BF9265
:1023B000CF92DF92EF92FF920F931F93CF93DF9311
:1023C000CDB7DEB728970FB6F894DEBF0FBECDBFEE
:1023D000F82E6B0139014A0118010E941411FF20E7
:1023E00019F022E030E0A8C0C801AA27BB27860D5B
:1023F000971DA81DB91D20913605309137054091D4
:10240000380550913905281739074A075B0728F422
:1024100083E090E09E838D8302C01E821D828091A6
:1024200033059091340597FD04C0E2E0F0E0FE83AF
:10243000ED8396FD7FC02D813E81232B09F092C054
:10244000DC82CB8272C03FEF2316310409F010F416
:10245000610103C0C12CA1E0DA2E4B805C808401B5
:1024600073011A82198253C0A701542F4427550FB4
:10247000C801B701E7E09695879577956795EA9546
:10248000D1F788E10E9439110E941D118F3F09F494
:1024900045C08EEF0E94B510520118861F82F501CB
:1024A00081915F010E94B5102F8138852F5F3F4FCA
:1024B00038872F832050324091F7E0E0F2E04E0E53
:1024C0005F1E8FEF0E94B5108FEF0E94B5108FEF47
:1024D0000E94B5105FEFA52EB52E0E94BA1088237A
:1024E00039F40894A108B108A114B104B9F0F5CFEA
:1024F0000894E11CF11C011D111DAB2879F00E940C
:10250000AA1029813A812F5F3F4F3A83298389811D
:102510009A818C159D0509F0A7CF11C00E94AA10C1
:10252000E1E0F0E0FE83ED831DC02114310409F0E9
:102530008ACF18C028E030E03E832D8313C0C60147
:10254000AA27BB27680E791E8A1E9B1E2C183D08E1
:10255000DC2CCC24DD0C8B819C818C0D9D1D9C83FF
:102560008B83E3CF0E94C9118D819E8128960FB67F
:10257000F894DEBF0FBECDBFDF91CF911F910F91B9
:10258000FF90EF90DF90CF90BF90AF909F908F9093
:102590007F906F905F904F903F902F9008958F9213
:1025A0009F92AF92BF92CF92DF92EF92FF920F93E2
:1025B0001F93CF93DF93F82EEB0149015A01680175
:1025C0000E941411FF20F1F480913305909134059D
:1025D00097FF18C0C801AA27BB27880D991DAA1DFF
:1025E000BB1D20913605309137054091380550913B
:1025F0003905281739074A075B0708F042C003E08E
:1026000010E044C002E010E041C02FEFC216D10438
:1026100009F010F4E60102C0C0E0D1E08E01A5018E
:102620009401B70183E395E00E9466118C01892B28
:1026300069F5CE01AA27BB27880E991EAA1EBB1ECC
:10264000CC1ADD0A80913A0590913B059C01C29F0E
:10265000C001C39F900DD29F900D1124E80EF91E6A
:10266000C114D10491F600E010E010C001E010E0C8
:10267000A5019401BE0183E395E00E9466118C01DF
:1026800005C07E010130110559F7F0CF0E94C91134
:10269000C801DF91CF911F910F91FF90EF90DF90D4
:1026A000CF90BF90AF909F908F900895EF92FF9240
:1026B0000F931F93182F0E941411112321F0EE2461
:1026C000FF24870108C0E0903605F090370500919F
:1026D0003805109139050E94C911C801B7011F9131
:1026E0000F91FF90EF9008951F93CF93DF93182FD2
:1026F0000E941411112319F0C0E0D0E004C0C09171
:102700003A05D0913B050E94C911CE01DF91CF91CE
:102710001F910895CF92DF92EF92FF920F931F9334
:10272000CF93DF93CDB7DEB760970FB6F894DEBFD7
:102730000FBECDBF6B010E941411809133059091A3
:10274000340597FF8AC040E050E060E070E089E027
:102750000E9439110E942B118E3F61F081E298E0B6
:102760009F938F9383EF8F930E948F070F900F900B
:102770000F9073C08E010F5F1F4F0E94BA10F801B7
:1027800081938F01CE014196E817F907B1F78FEFDA
:102790000E94B5108FEF0E94B5100E94AA10EE8023
:1027A000FFE0EF2221E030E0C90102C0880F991F4D
:1027B000EA94E2F77C016F81772763707070762F5F
:1027C0006627770F770FE885FF27EE0FFF1FEE0FC5
:1027D000FF1F6E2B7F2B09851127EA85FF27E370EA
:1027E000F070DF01AA0FBB1FEA2BFB2BAB85BB27C9
:1027F00086E0169507958A95E1F7602B712B6F5F40
:102800007F4F88279927AA0FAB2FAA1FBB0BB19523
:10281000EA2BFB2B329602C0220F331FEA95E2F718
:10282000442755270E94F049609336057093370579
:102830008093380590933905F0923B05E0923A0574
:102840000E94C91101E010E020E030E040E050E0DB
:10285000B60180E00E94CF1204C00E94C91181E03D
:1028600090E060960FB6F894DEBF0FBECDBFDF914B
:10287000CF911F910F91FF90EF90DF90CF9008952F
:10288000CF93DF9370933D0560933C0550933F05D4
:1028900040933E0589E0E3E3F5E011928A95E9F77C
:1028A0001092350581E395E00E94F02FC0E0D0E062
:1028B0008FEF0E94B5102196CA30D105C9F740E0CC
:1028C00050E060E070E080E00E9439110E941D112C
:1028D000813099F4CFEFDFEF07C040E050E060E0D7
:1028E00070E081E00E9439110E94BA10882319F02B
:1028F000219799F702C0CD2B29F40E94AA1081E0FC
:1029000090E00AC00E94AA1080E090E890933405FD
:102910008093330580E090E0DF91CF91089510928D
:102920004105109240050895EF92FF920F931F9377
:10293000CF93DF93EC017A018B018B8180FD1AC06C
:102940008EEF9FEFAFEFBFEFE80EF91E0A1F1B1FC0
:102950002A81332744275527C801B7010E94F0492F
:10296000AB01BC018A8D9B8DAC8DBD8D480F591F6D
:102970006A1F7B1FCB01BA01DF91CF911F910F918D
:10298000FF90EF9008958FEF9FEF08958FEF9FEFE7
:102990000895282F8F3F11F420E006C0882321F0EE
:1029A00099270E94644A282F822F992787FD9095A6
:1029B00008958F929F92AF92BF92CF92DF92EF9243
:1029C000FF920F931F93FC016A017B01838180FFBB
:1029D00007C0CB01BA016F5F7F4F8F4F9F4F69C018
:1029E000808182889388A488B5886091440570911D
:1029F00045058130A9F5A7019601A7E056954795B1
:102A000037952795AA95D1F7280D391D4A1D5B1DCD
:102A100001E010E081810E94CF12809144059091E5
:102A20004505F601EF77F070EE0FFF1FEE0FFF1F69
:102A3000E80FF91F60817181828193819F706F3FE0
:102A40002FEF72072FEF82072FE0920771F1673F98
:102A50002FEF72072FEF82072FE0920751F525C065
:102A600055274F2D3E2D2D2D280D391D4A1D5B1D3F
:102A700001E010E081810E94CF1280914405909185
:102A80004505F601F070EE0FFF1FE80FF91F2081DA
:102A900031818FEF2F3F380741F08FEF273F380705
:102AA00021F0B9018827992704C060E070E080E038
:102AB00090E01F910F91FF90EF90DF90CF90BF902B
:102AC000AF909F908F9008952F923F924F925F9278
:102AD0006F927F928F929F92AF92BF92CF92DF922E
:102AE000EF92FF920F931F93CF93DF93CDB7DEB793
:102AF0006A970FB6F894DEBF0FBECDBF988B8F8755
:102B00007A8B698B5C8B4B8B18012901FE8AED8ACD
:102B1000D88ECF8AD7011D921D921D921C921397B9
:102B2000DA010D900020E9F71197A41BB50BCD0138
:102B30000C966DE070E00E942F4AF62FF064F98346
:102B4000F53E09F496C18DE0689F900111243B8306
:102B50002A832F3331050CF08CC17901BF2E1E86DC
:102B6000CC24DD2480C1B201A1018F8598890E9407
:102B70009414688779878A879B87EF85F889828193
:102B8000282F33273D872C8731E023163104410459
:102B9000510479F48081882361F482859385A4852A
:102BA000B58588879987AA87BB87268137813D8726
:102BB0002C87688479848A849B8442C1609144050F
:102BC0007091450501E010E0A4019301EF85F889BB
:102BD00081810E94CF1220914405309145053F83A9
:102BE0002E8380914605909147059D838C833A8F73
:102BF000298F9E85913019F4E98DFA8D1DC02F899A
:102C0000388D232B99F5A98DBA8D8C91853E71F164
:102C1000882361F14BE050E069897A89CD010E94F7
:102C2000B849892B19F5E989FA899385E98DFA8DD7
:102C3000838589238917D1F484899589AA27BB279D
:102C4000AC0133272227828D938DAA27BB27282BFF
:102C5000392B4A2B5B2B848D958DA68DB78DED89F5
:102C6000FE8980839183A283B38307C1E98DFA8DA6
:102C700083858F3009F0D0C0A080AB1409F0CCC0A0
:102C8000B6FE0DC0BFEBAB2EAB20AC81BD81AE0D4F
:102C9000BF1D1C920894E108F108CC80DD80E98D0D
:102CA000FA8D868D978D0E94C914F601EE0DFF1DD9
:102CB0008083870101501040E98DFA8D848D958DB8
:102CC0000E94C914F601E00FF11F808301501040EB
:102CD000E98DFA8D808D918D0E94C914F601E00F67
:102CE000F11F808301501040E98DFA8D8689978904
:102CF0000E94C914F601E00FF11F808301501040BB
:102D0000E98DFA8D848995890E94C914F601E00F36
:102D1000F11F808301501040E98DFA8D82899389DB
:102D20000E94C914F601E00FF11F8083015010408A
:102D3000E98DFA8D808991890E94C914F601E00F0E
:102D4000F11F808301501040E98DFA8D86859785AB
:102D50000E94C914F601E00FF11F8083015010405A
:102D6000E98DFA8D818592850E94C914F601E00FE4
:102D7000F11F808301501040E98DFA8D8781908585
:102D80000E94C914F601E00FF11F8083015010402A
:102D9000E98DFA8D858196810E94C914F601E00FB4
:102DA000F11F808301501040E98DFA8D8381948159
:102DB0000E94C914F601E00FF11F808301501040FA
:102DC000E98DFA8D818192810E94C914F601E00F8C
:102DD000F11F8083BA2CBA9429F078010894E10895
:102DE000F1081AC0AB89BC890D900020E9F7119752
:102DF0002B893C89A21BB30BAD01B601C9010E940E
:102E0000B849892B31F4EA80FB80B98031E03E87F4
:102E100003C0EA80FB80B980898D9A8D80969A8F55
:102E2000898F8E819F8180509E4FA98DBA8DA81762
:102E3000B90709F0DECE0894611C711C811C911C3D
:102E4000C301E885F9858E1B9F0B2C853D85821774
:102E500093070CF4B3CEB201A1018F8598890E942B
:102E6000D9141B012C01211431044104510409F02F
:102E70007ACE20E030E040E050E0CA01B9016A9625
:102E80000FB6F894DEBF0FBECDBFDF91CF911F917B
:102E90000F91FF90EF90DF90CF90BF90AF909F90F9
:102EA0008F907F906F905F904F903F902F900895FC
:102EB0008EEA95E00E94F02F08958EEA95E00E9438
:102EC000F02F089540E050E060E070E08EEA95E079
:102ED0000E94433008952F923F924F925F926F92DB
:102EE0007F928F929F92AF92BF92CF92DF92EF929A
:102EF000FF920F931F93CF93DF93CDB7DEB7289741
:102F00000FB6F894DEBF0FBECDBF8C016B015E83A0
:102F10004D830E9462170115110509F4F6C0F801EE
:102F20000481158118870F830115110509F4EDC07F
:102F30006D817E816115710509F4E7C0F801E484B3
:102F4000F584068517852081318142815381E216FF
:102F5000F3060407150708F0D2C0CB01AA2797FD96
:102F6000A095BA2F8E0D9F1DA01FB11F28173907DE
:102F70004A075B0720F42E193F093E832D83EF811A
:102F8000F885008CF18DE02DFC83EB83DA82C98219
:102F9000248035804D805E80ABC0EF81F8856088ED
:102FA0007188828893885101CC24DD244085518525
:102FB000628573858B819C810E9494147B018C01B6
:102FC000C401B301A60195010E94424A442737FD7E
:102FD0004095542F2E0D3F1D401F511F60914405F9
:102FE0007091450501E010E0EB81FC8181810E9438
:102FF000CF12892B09F079C0C401B301A601950154
:103000000E94424A6101421453040CF46201CB0154
:103010008C0D9D1D281639061CF46101C61AD70AAD
:103020008091440590914505680F791FA60189811B
:103030009A810E94C54976010027F7FC0095102F60
:10304000EF81F88524853585468557852E0D3F1DF2
:10305000401F511F2487358746875787808991896C
:10306000A289B3898E0D9F1DA01FB11F808B918BEC
:10307000A28BB38B80819181A281B38128173907FC
:103080004A075B0720F081E090E0978B868BEF8109
:10309000F8852089318942895389EB81FC81868DAD
:1030A000978DA0A1B1A1281739074A075B07A0F0A7
:1030B000EF81F88540855185628573858B819C8180
:1030C0000E94D914EF81F885608771878287938782
:1030D000108A118A128A138A69817A816C0D7D1D8A
:1030E0007A8369834C185D0803C08DEF9FEF09C098
:1030F0004114510409F051CF0D811E8108C08EEF9B
:103100009FEFEF81F885958B848B00E010E00E94A3
:103110005D17C80128960FB6F894DEBF0FBECDBF6D
:10312000DF91CF911F910F91FF90EF90DF90CF90A3
:10313000BF90AF909F908F907F906F905F904F90D7
:103140003F902F900895EF92FF920F931F93CF938C
:10315000DF93EC010E946217209749F0EC81FD811A
:10316000309729F0E080F1800281138108C00FEFD1
:10317000E02E0FEFF02E0FEF002F0FEF102F0E9419
:103180005D17C801B701DF91CF911F910F91FF909B
:10319000EF900895CF93DF93EC010E946217209780
:1031A00019F4CFEFDFEF0BC08C819D81009711F0F8
:1031B0000E94EE27CE010E94EE27C0E0D0E00E94E0
:1031C0005D17CE01DF91CF9108950F931F938C016E
:1031D0000E946217012B11F410924A050E945D179C
:1031E0001F910F9108952F923F924F925F926F928D
:1031F0007F928F929F92AF92BF92CF92DF92EF9287
:10320000FF920F931F93CF93DF93CDB7DEB7249731
:103210000FB6F894DEBF0FBECDBF182F0E94621705
:103220008091420590914305892B41F480E490E020
:103230000E947B2790934305809342058091460529
:1032400090914705892B41F480E490E00E947B2710
:1032500090934705809346058091440590914505DC
:10326000892B59F480E092E00E947B2790934505DA
:1032700080934405892B09F445C1809142059091C2
:103280004305892B09F43EC180914605909147057D
:10329000892B09F437C182E2189FF0011124E85B01
:1032A000FA4F11928A95E9F7E12EFF242701440C89
:1032B000551CC70135E0880F991F3A95E1F7480E74
:1032C000591E28E435E0420E531EF2011183812F6E
:1032D0000E947413F20195838483812F0E940B1145
:1032E000019721F4F201838181608383812F0E9401
:1032F0000E11019721F4F201838182608383F20130
:10330000848195818050924019F001E010E0FCC06A
:10331000F201838181FF05C020E230E040E050E00F
:1033200038C0609144057091450501E010E020E04F
:1033300030E040E050E08E2D0E94CF128C01892BAE
:1033400009F0E2C0E0914405F0914505E250FE4FDE
:1033500080819181EE5FF14085559A4A09F0D4C091
:10336000E653FE4F80819181A281B381EA5CF140F6
:103370000097A105B10509F4C7C0EA53FE4F2081AB
:10338000318142815381211531054105510509F4EF
:10339000BBC0609144057091450501E010E08E2DA1
:1033A0000E94CF1220904405309045054EEF51E029
:1033B000240E351ED1018D919C91E2E0FEEF2E0E80
:1033C0003F1E85559A4A09F09DC0F1018585F2019D
:1033D0008283F101268937892115310571F0C901F0
:1033E000AA27BB2789839A83AB83BC83D2011C9213
:1033F00081E090E0A0E0B0E010C0F10124A135A18F
:1034000046A157A129833A834B835C8381E0D20193
:103410008C9384A595A5A6A5B7A5F2018687978765
:10342000A08BB18BF101638574858189928925E038
:10343000880F991F2A95E1F7860F971F01970E9421
:103440001B4A3B0188249924E684F784002711272E
:10345000A48CB58CC68CD78CAE0CBF1CC01ED11EE4
:10346000F201A28AB38AC48AD58A29813A814B8122
:103470005C81A20EB31EC41ED51EA68AB78AC08E5A
:10348000D18EF10160897727882799270E94F0491A
:10349000F101248D358D468D578DE20EF31E041FEC
:1034A000151FE60CF71C081D191DE60EF71E081F58
:1034B000191FF201E28EF38E048F158FF1018585BD
:1034C0009927F20124813581AC01429FC001439FBD
:1034D000900D529F900D1124AA27BB27868F978F9E
:1034E000A0A3B1A3668277828086918629813A81E2
:1034F0004B815C81A20EB31EC41ED51EA286B3866C
:10350000C486D58600E010E00E945D17C8012496AD
:103510000FB6F894DEBF0FBECDBFDF91CF911F91E4
:103520000F91FF90EF90DF90CF90BF90AF909F9062
:103530008F907F906F905F904F903F902F90089565
:103540002F923F924F925F926F927F928F929F92B3
:10355000AF92BF92CF92DF92EF92FF920F931F93A1
:10356000CF93DF93CDB7DEB72E970FB6F894DEBFBB
:103570000FBECDBFFC01892B09F4A1C28481803329
:103580000CF49DC282330CF490C2863409F097C2C9
:103590008CC20E94621780914C0590914D050E944B
:1035A0007B279E878D87892B09F489C23090490536
:1035B000832D0E9456132B013C0180EE9FEFAFEF4D
:1035C000BFEF480E591E6A1E7B1EE0ECF2E09F0121
:1035D0002C5F3F4F80819181A281B3818415950535
:1035E000A605B70538F0D9018C919927282E882394
:1035F00041F00CC02B5F3F4F3596B2E0223E3B07B7
:1036000049F78D859E850E94EE2759C29927AA27E2
:10361000BB2789839A83AB83BC83C301B201298111
:103620003A814B815C810E94424ADA01C90102E081
:10363000880F991FAA1FBB1F0A95D1F781509E4F73
:10364000AF4FBF4F19E0B695A795979587951A95F7
:10365000D1F789879A87AB87BC874C015D01880CBD
:10366000991CAA1CBB1C89819A81AB81BC81815A9F
:103670009F4FAF4FBF4F880E991EAA1EBB1E8F557E
:103680009040A040B04089839A83AB83BC83409133
:103690004C0550914D0560E070E08D859E850E943F
:1036A000CE49CC24DD24760110C001E010E0A70152
:1036B00096016D857E85832D0E94CE11892B51F454
:1036C0000894C11CD11CE11CF11CC814D904EA04E3
:1036D000FB0459F780E090E00E9495456D837E835E
:1036E0008F83988740914C0550914D0560E070E0C4
:1036F0008D859E850E94CE49AD85BE85A254BE4F64
:103700001D9281E08D938D931D928BE08D931D9280
:103710001C921296EFE3AE2EB12CC12CD12CFD01E0
:10372000A192B192C192D192DF0140825182628214
:103730007382AA5CB140BE87AD877EEFE72E71E051
:10374000F72EEA0EFB1E65E5862E6AEA962EF70135
:103750009182808201E010E020E030E040E050E023
:10376000BD01832D0E94CE118C01892B09F005C16A
:1037700040914C0550914D0560E070E08D859E852F
:103780000E94CE498BEEAD85BE858C9388E5FD0108
:10379000818380E982830DE4038393E5948384E449
:1037A00085831FE41683978385E380878EE2818774
:1037B00080E3828780E092E094878387258680E299
:1037C00090E09787868782E0808B128A118A148A1C
:1037D000138A88EF858B178A168A8FE390E0918F82
:1037E000808F8FEF90E0938F828FED85FE85A48E82
:1037F000B58EC68ED78E40A251A262A273A28985D1
:103800009A85AB85BC8584A395A3A6A3B7A311A66F
:1038100010A613A612A652E0A52EB12CC12CD12CB5
:10382000ED85FE85A4A6B5A6C6A6D7A681E090E044
:1038300091AB80AB86E090E093AB82ABE05CFF4F56
:103840001082329689E28193FE87ED876D817E81B9
:103850008F819885A30192010E94F049AD85BE85B4
:103860006D937D938D939D938EE48D931D9390E244
:103870009D938D9321E42D930D9385E48D939D93DA
:103880009D939D939D9386E48D932D9384E58D93D5
:1038900083E38D9382E38D939D939D939C93A95590
:1038A000B040BE87AD87F7019182808201E010E0D1
:1038B0002FE330E040E050E0BD01832D0E94CE11A7
:1038C0008C01892B09F059C001E010E025E430E0BB
:1038D00040E050E06D857E85832D0E94CE11892BBE
:1038E00009F0E7C040914C0550914D0560E070E053
:1038F0008D859E850E94CE4981EA9FEFAFEFBFEF95
:10390000480E591E6A1E7B1E82E592E5A1E6B1E4CF
:10391000ED85FE8580839183A283B383EC51FE4FB6
:1039200082E792E7A1E4B1E681939193A193B193E9
:10393000FE87ED87C301B20129813A814B815C8109
:103940000E94424AAD85BE852D933D934D935D9374
:10395000FD01A082B182C282D382EC5EF140FE877B
:10396000ED87D7018D929C9220E430E040E050E05A
:10397000BF01832D0E94CE118C010115110509F0A4
:1039800086C040914C0550914D0560E070E08D85FA
:103990009E850E94CE492D853E8588EF9FEFAFEF33
:1039A000BFE0F90181939193A193B1939F018FEFB0
:1039B0009FEFAFEFBFE0ED85FE8584839583A683FF
:1039C000B783F90184839583A683B78301E010E070
:1039D0002FE530E040E050E06D857E85832D0E942C
:1039E000CE118C01892B09F052C0C984DA84EB8492
:1039F000FC848FE590E0A0E0B0E0C80ED91EEA1E7E
:103A0000FB1E01E010E0A70196016D857E85832DE8
:103A10000E94CE11892B09F04CC040914C05509169
:103A20004D0560E070E08D859E850E94CE4995E44D
:103A3000AD85BE859C9324E5FD01218388E48283C6
:103A4000938382E584838EE4858385E5868327835B
:103A500080E280878187828788E08387158A148A3D
:103A6000138E128EED85FE85148E158E168E178E92
:103A700089859A85AB85BC85C80ED91EEA1EFB1EBA
:103A8000A7019601BF01832D0E94CE118C018D8567
:103A90009E850E94EE270E945D17012B81F4832DE5
:103AA0000E94F318009769F00AC06050704139F421
:103AB00070CD8D859E850E94EE270E945D178FEF49
:103AC0009FEF2E960FB6F894DEBF0FBECDBFDF91ED
:103AD000CF911F910F91FF90EF90DF90CF90BF900B
:103AE000AF909F908F907F906F905F904F903F909E
:103AF0002F9008950F931F93CF93DF938C0180E055
:103B000092E00E947B27EC01892B31F0802F0E94EC
:103B1000F318CE010E94EE27DF91CF911F910F91F4
:103B20000895EF92FF920F931F93CF93DF93FC01C1
:103B300080914005909141050097A9F582818634D6
:103B400009F03FC083818134E1F584818435C9F572
:103B5000848595850797A9F537C045EE58E16AE752
:103B60007DE180E090E00E9440148C01892B19F0E7
:103B70000EEF1FEF14C0B70180E090E00E948A139F
:103B8000C0E0D0E08C2F0E94F3182196C330D105FD
:103B9000C9F781E090E09093410580934005C7010B
:103BA0000E94EE271CC0019761F48281863449F49B
:103BB00083818D3431F48481803319F400E010E086
:103BC0000EC00FEF1FEF0BC00E94581780E092E06D
:103BD0000E947B277C01892B09F0BFCFEFCFC80162
:103BE000DF91CF911F910F91FF90EF9008952F9249
:103BF0003F924F925F926F927F928F929F92AF927D
:103C0000BF92CF92DF92EF92FF920F931F93CF93C9
:103C1000DF93CDB7DEB7A6970FB6F894DEBF0FBE21
:103C2000CDBF9EA38DA34B0180914005909141058E
:103C3000892B21F48DA19EA10E94911D0E946217E3
:103C400060904205709043058DA19EA1009709F4F4
:103C500022C1FC01848180330CF41DC182330CF439
:103C60001DC1863409F017C119C1F4018081882370
:103C700009F411C18AE190E00E947B275C018091E8
:103C80005A0590915B05A0915C05B0915D05009788
:103C9000A105B10509F41AC1A114B10409F4FBC0CE
:103CA000F40180818E3209F4E7C08AE1F5011192B6
:103CB0008A95E9F7209056053090570540905805B1
:103CC00050905905F40180818F3209F006C102C17C
:103CD000FFE3EF16F1040CF003C183010E0D1F1D6D
:103CE000992787FD90950E94644AF8018083089483
:103CF000E11CF11C0894811C911CF40180818F321D
:103D000009F4D2C08C3509F4CFC0882309F7CCC0A0
:103D10006EE270E0C3010E94D549009721F409309A
:103D20001105D8F50BC0DC011196FD0101900020B2
:103D3000E9F73197EA1BFB0B349778F58E010B5F9F
:103D40001F4F80E2F80111928A95E9F748E050E0B0
:103D500060E270E0C8010E94CE4943E050E060E2BA
:103D600070E0CE010D960E94CE49D801F301930177
:103D700004C08D932F5F3F4F319680818E3219F0B2
:103D80008823B9F70DC0F901DE011D9601C08D939E
:103D9000818131968823D9F703C021E030E002C049
:103DA00020E030E0F40180818F3209F448C08C3586
:103DB00009F445C0882309F05FC080E2888B8091B8
:103DC0004B0580FD8DC088E4882E85E0982E690122
:103DD0007E010894E11CF11C92018101A301BE0146
:103DE0006B5F7F4FC4010E9464159B01AC0161159C
:103DF00071058105910509F473C089819A81AB81B0
:103E0000BC81F50180839183A283B38324833583AE
:103E100046835783208731874287538714861586C8
:103E200016861786108A118A128A138A918E808EBE
:103E3000158A148A178A168A80E090E053C080E1C0
:103E4000888B80914B0580FD4BC069017E010894F1
:103E5000E11CF11C92018101A301BE016B5F7F4F48
:103E600088E495E00E9464151B012C016115710521
:103E700081059105A9F12EC0C5010E94EE270BC056
:103E800086E090E00E947B278C01009771F5C501C8
:103E90000E94EE2733C00FEF1FEF30C080914A051C
:103EA000882309F0E2CEF7CFE60CF71CF701108269
:103EB000F30101900020E9F78F010150104006192D
:103EC00017090D30110508F068CF22CFA114B104F5
:103ED00099F6E1CF0894811C911CEE24FF240DCFAC
:103EE00081E090E0019761F6C7CFFC01118210825A
:103EF0008DA19EA193838283B582A4820E945D17C7
:103F0000C801A6960FB6F894DEBF0FBECDBFDF91F5
:103F1000CF911F910F91FF90EF90DF90CF90BF90C6
:103F2000AF909F908F907F906F905F904F903F9059
:103F30002F9008958FEF9FEF08952F923F924F9209
:103F40005F926F927F928F929F92AF92BF92CF9229
:103F5000DF92EF92FF920F931F93CF93DF935C0159
:103F60006B014A0129013801170181E090E00E94AC
:103F7000CD10C0E0D0E07601850109C0F801819143
:103F80008F010E94C210F70181937F012196C8150D
:103F9000D905A4F3C0E0D0E07301820109C0F801A3
:103FA00081918F010E94C210F70181937F012196B8
:103FB000C215D305A4F30E94AA1080E090E0DF911F
:103FC000CF911F910F91FF90EF90DF90CF90BF9016
:103FD000AF909F908F907F906F905F904F903F90A9
:103FE0002F900895EF92FF920F931F93CF93DF933B
:103FF000CDB7DEB722970FB6F894DEBF0FBECDBFA8
:1040000087ED89838FEF8A83EE24FF2400E010E0A0
:1040100020E030E042E050E0CE010196BC010E9479
:104020009D1F892B19F08FEF90E002C08A8199279C
:1040300022960FB6F894DEBF0FBECDBFDF91CF91B1
:104040001F910F91FF90EF9008950F931F930E947F
:10405000F21F0E94F21F082F60E070E02091B0056F
:104060003091B1050EC06F5F7F4F808580239185B1
:10407000891739F48AE0189F9001112422523D4F8C
:1040800018C0162F462F5527FA01EE0FFF1FCA0141
:10409000A3E0880F991FAA95E1F7E80FF91FE252F4
:1040A000FD4F80819181A281B3810097A105B10567
:1040B000D1F63093B1052093B005CA011F910F913D
:1040C0000895EF92FF920F931F93CF93DF937B019D
:1040D0008C01EA0119C0209731F461E070E080E0C2
:1040E00090E00E945B2D0894E108F1080109110994
:1040F0008FEFE8168FEFF8068FEF08078FEF18079E
:1041000019F48FEF9FEF06C00E94F21F87FFE3CFE5
:1041100080E090E0DF91CF911F910F91FF90EF90A1
:1041200008955F926F927F928F929F92AF92BF920B
:10413000CF92DF92EF92FF920F931F93CF93DF9373
:10414000582E4A015B01E901380187012930310508
:104150001CF08FEF9FEF23C0A90160E070E082EBBD
:1041600095E00E94CE495092B20581149104A104B9
:10417000B10469F0C501AA27BB278093B305BB270B
:10418000AB2D9A2D892D8093B4058092B5057601CB
:104190009301AE0162EB75E0CB010E949D1FDF91A0
:1041A000CF911F910F91FF90EF90DF90CF90BF9034
:1041B000AF909F908F907F906F905F9008958F92B7
:1041C0009F92AF92BF92CF92DF92EF92FF920F93A6
:1041D0001F93CF93DF934B015C018A016901C901F1
:1041E0000E94BA45EC01009719F40FEF1FEF36C09B
:1041F0007C0124E030E040E050E060E070E084E8E2
:104200000E949120892B29F5E091B005F091B1052C
:10421000068004C0880C991CAA1CBB1C0A94D2F707
:10422000CC24DD24EE24FF2400E010E024E030E084
:10423000B501A40183E80E949120892B51F441E04B
:1042400050E068EE73E080E090E00E9461208C0115
:1042500002C00FEF1FEFCE010E94B745C801DF91EA
:10426000CF911F910F91FF90EF90DF90CF90BF9073
:10427000AF909F908F900895CF92DF92EF92FF9230
:104280000F931F93E091B005F091B105068004C033
:10429000660F771F881F991F0A94D2F769017A0168
:1042A0008A0128E030E0AB01BC0188EE0E94912039
:1042B0001F910F91FF90EF90DF90CF900895CF92D4
:1042C000DF92EF92FF920F931F93AA27BB27CC2474
:1042D000DD24EE24FF2400E010E024E030E0AC0117
:1042E000BD0181E80E9491201F910F91FF90EF90F6
:1042F000DF90CF900895609570958095909520916E
:10430000BA053091BB054091BC055091BD052623EF
:104310003723482359232093BA053093BB05409394
:10432000BC055093BD0580E090E00895AF92BF9228
:10433000CF92DF92EF92FF920F931F93CF93DF9371
:10434000CDB7DEB722970FB6F894DEBF0FBECDBF54
:104350009B015A01492F552749838A83CC24DD24A8
:104360007601850142E050E0BE016F5F7F4F87E537
:104370000E94D83F8A159B0519F480E090E002C0A6
:104380008FEF9FEF22960FB6F894DEBF0FBECDBF22
:10439000DF91CF911F910F91FF90EF90DF90CF9021
:1043A000BF90AF900895AF92BF92CF92DF92EF92FD
:1043B000FF920F931F93CF93DF93CDB7DEB7229772
:1043C0000FB6F894DEBF0FBECDBF9B015A01198214
:1043D0008A83CC24DD2476018A0142E050E0BE01CC
:1043E0006F5F7F4F8FE60E94D83F8A159B0519F4B7
:1043F00080E090E002C08FEF9FEF22960FB6F89416
:10440000DEBF0FBECDBFDF91CF911F910F91FF9007
:10441000EF90DF90CF90BF90AF9008950F931F93D0
:10442000CF93DF93CDB7DEB721970FB6F894DEBFF9
:104430000FBECDBF8C0141E050E0BE016F5F7F4FEA
:104440008FE30E94D321892BE9F489819927AA2738
:10445000BB272091BA053091BB054091BC05509116
:10446000BD05822B932BA42BB52B8093BA0590937B
:10447000BB05A093BC05B093BD05F8018083918373
:10448000A283B3838091BA059091BB0521960FB6A4
:10449000F894DEBF0FBECDBFDF91CF911F910F917A
:1044A0000895CF93DF93CDB7DEB724970FB6F89476
:1044B000DEBF0FBECDBF80E00E94D43E009721F446
:1044C000CE0101960E940E2224960FB6F894DEBF0C
:1044D0000FBECDBFDF91CF910895EF92FF920F9362
:1044E0001F93CF93DF93CDB7DEB728970FB6F8941D
:1044F000DEBF0FBECDBF8C0148E050E0BE016F5F54
:104500007F4F80E30E94D3217C01892B09F073C087
:104510002981822F82958F706AE0869FC0011124C5
:104520002F70820F911DD8018D939C932A81822F29
:1045300082958F70869FC00111242F70820F911D6C
:10454000F801938382832B813327C9018F73907085
:10455000B4E095958795BA95E1F7AC01A3E0440FD7
:10456000551FAA95E1F7880F991F840F951F2F708B
:104570003070820F931F958384832C81822F8295C4
:104580008F70869FC00111242F70820F911D978319
:1045900086832D81822F82958F70869FC001112482
:1045A0002F70820F911D0197918780878E81282F10
:1045B00022952F70269FA001112499278F7090704B
:1045C0008C599F4F480F591F538742872885822F48
:1045D00082958F70869FC00111242F70820F911DCC
:1045E0004A9724F04C595F4F538742878F81992710
:1045F000F80195878487C70128960FB6F894DEBF27
:104600000FBECDBFDF91CF911F910F91FF90EF9023
:104610000895AF92BF92CF92DF92EF92FF920F93E5
:104620001F93CF93DF93CDB7DEB723970FB6F894E0
:10463000DEBF0FBECDBF19822FE32A835E0108942F
:10464000A11CB11C892BA1F082E08B83CC24DD243A
:10465000760100E010E020E030E043E050E0B501FA
:104660008FE60E94D83F009789F486E08B8306C0CE
:104670001B82CC24DD24760100E010E020E030E055
:1046800043E050E0B5018FE60E94D83F23960FB675
:10469000F894DEBF0FBECDBFDF91CF911F910F9178
:1046A000FF90EF90DF90CF90BF90AF900895AF92C2
:1046B000BF92CF92DF92EF92FF920F931F93CF930F
:1046C000DF93CDB7DEB721970FB6F894DEBF0FBEEC
:1046D000CDBF13E1A12EB12C0FC061E070E080E0EE
:1046E00090E00E945B2D0894A108B108A114B104C8
:1046F00019F48FEF9FEF14C0CC24DD24760101E084
:1047000010E09E012F5F3F4F40E050E060E070E01E
:1047100087E50E94D83F8F5F9F4FF9F280E090E0DD
:1047200021960FB6F894DEBF0FBECDBFDF91CF91BB
:104730001F910F91FF90EF90DF90CF90BF90AF90BF
:1047400008952F923F924F925F926F927F928F9235
:104750009F92AF92BF92CF92DF92EF92FF920F9310
:104760001F93CF93DF933C014A012B0100E010E03F
:1047700046C0C3018F73907020E430E0281B390BD2
:1047800054012815390508F4590182E0282E312CEE
:104790002A0C3B1CC1010E94BA45EC01892BA1F1F6
:1047A000872D992788836982A501B201CE010296DF
:1047B0000E94C54981E090E00E9409238C01892B69
:1047C00031F5CC24DD24760100E010E020E030E07B
:1047D000A101BE0187E50E94D83F8C01CE010E9455
:1047E000B74501151105B1F40E9457238C01892B9F
:1047F00089F48A189B086A0C7B1C4A0C5B1C811488
:10480000910409F0B6CF06C00FEF1FEF03C0CE0131
:104810000E94B74580E090E00E940923C801DF9123
:10482000CF911F910F91FF90EF90DF90CF90BF90AD
:10483000AF909F908F907F906F905F904F903F9040
:104840002F9008958F929F92AF92BF92CF92DF9256
:10485000EF92FF920F931F93CF93DF934C015B0175
:10486000EA0181E090E00E9409238C01892BC1F4C8
:10487000CC24DD24760100E010E020E030E0AE0141
:10488000B5018FE60E94D83F8C01892B29F4892835
:1048900019F00E9457238C0180E090E00E940923C8
:1048A000C801DF91CF911F910F91FF90EF90DF90A2
:1048B000CF90BF90AF909F908F900895EF92FF920E
:1048C0000F931F93CF93DF93CDB7DEB72A970FB621
:1048D000F894DEBF0FBECDBF8B017A012AE0FE0146
:1048E000319611922A95E9F723E0880F991F2A95AE
:1048F000E1F78A836115710509F47AC040FF12C09F
:10490000FB0140815181842F6AE00E940F4A282FC9
:104910002295207FCA016AE070E00E942F4A280F8A
:1049200020682B83E1FE12C0F80142815381842F5D
:104930006AE00E940F4A282F2295207FCA016AE070
:1049400070E00E942F4A280F20682C83E2FE12C0DC
:10495000F80144815581842F6AE00E940F4A282F74
:104960002295207FCA016AE070E00E942F4A280F3A
:1049700020682D83E3FE12C0F80146815781842F01
:104980006AE00E940F4A282F2295207FCA016AE020
:1049900070E00E942F4A280F20682E83E4FE14C086
:1049A000F80140855185842F8F5F6AE00E940F4A8D
:1049B000282F2295207FCA0101966AE070E00E94AC
:1049C0002F4A280F20682F83E7FE12C0F801448584
:1049D0005585842F6AE00E940F4A282F2295207F58
:1049E000CA016AE070E00E942F4A280F20682987D8
:1049F0004AE050E0BE016F5F7F4F81E090E00E948F
:104A000022242A960FB6F894DEBF0FBECDBFDF91E9
:104A1000CF911F910F91FF90EF900895EF92FF9229
:104A20000F931F93CF93DF93CDB7DEB728970FB6C1
:104A3000F894DEBF0FBECDBF7B018A01FA0111825F
:104A4000108292E1FB0111929A95E9F748E050E05B
:104A5000BE016F5F7F4F880F880F880F0E94D321A0
:104A6000BC01892B09F09FC0298127FF20C0F801D4
:104A7000808191818160918380833327C9018F7701
:104A80009070F4E095958795FA95E1F7AC01E3E035
:104A9000440F551FEA95E1F7880F991F840F951F62
:104AA0002F703070820F931FF701918380833A81BA
:104AB00037FF13C0F80180819181826091838083E8
:104AC000832F82958F702AE0829FC00111243F704E
:104AD000830F911DF701938382832B8127FF20C0D1
:104AE000F801808191818460918380833327C9019B
:104AF0008F779070A4E095958795AA95E1F7AC0122
:104B0000F3E0440F551FFA95E1F7880F991F840FC2
:104B1000951F2F703070820F931FF7019583848348
:104B20003C8137FF13C0F8018081918188609183B7
:104B30008083832F82958F702AE0829FC001112489
:104B40003F70830F911DF701978386833D8137FF67
:104B500014C0F80180819181806191838083832FCB
:104B600082958F702AE0829FC00111243F70830FCD
:104B7000911D0197F701918780873F8137FF13C00F
:104B8000F80180819181806891838083832F829551
:104B90008F702AE0829FC00111243F70830F911D06
:104BA000F70195878487CB0128960FB6F894DEBF6E
:104BB0000FBECDBFDF91CF911F910F91FF90EF906E
:104BC00008950F931F93CF93DF93CDB7DEB72A9746
:104BD0000FB6F894DEBF0FBECDBF8C018AE0FE0198
:104BE000319611928A95E9F70115110509F481C0F2
:104BF00080E38A83F80140815181842F6AE00E941A
:104C00000F4A282F2295207FCA016AE070E00E9497
:104C10002F4A280F2B8342815381842F6AE00E9400
:104C20000F4A282F2295207FCA016AE070E00E9477
:104C30002F4A280F2C8344815581842F6AE00E94DB
:104C40000F4A282F2295207FCA016AE070E00E9457
:104C50002F4A280F20682D8346815781842F6AE0D0
:104C60000E940F4A282F2295207FCA016AE070E037
:104C70000E942F4A280F2E8340855185842F8F5FF5
:104C80006AE00E940F4A282F2295207FCA010196D0
:104C90006AE070E00E942F4A280F2F8342855385D7
:104CA000443651059CF0842F84566AE00E940F4AD6
:104CB000282F2295207FCA01845690406AE070E038
:104CC0000E942F4A280F288780E20FC0842F6AE0B5
:104CD0000E940F4A282F2295207FCA016AE070E0C7
:104CE0000E942F4A280F288789E18A87F801848546
:104CF00089874AE050E0BE016F5F7F4F80E090E01F
:104D00000E9422242A960FB6F894DEBF0FBECDBFB4
:104D1000DF91CF911F910F910895CF93DF93CDB77E
:104D2000DEB724970FB6F894DEBF0FBECDBF8EE27C
:104D300093E00E94084580E092ECA1E0B0E0898316
:104D40009A83AB83BC8340E060E070E087E494E04A
:104D50000E94D9304091AD045091AE0467E473E0F5
:104D600089E493E00E943D448091AD049091AE04AB
:104D70000E94DD43AE014F5F5F4F61E071E00E9432
:104D8000224343E050E063E278E080E091E00E945B
:104D9000003224960FB6F894DEBF0FBECDBFDF9170
:104DA000CF9108958FE493E00E9408451092250862
:104DB0000E948D2608950F931F93CF93DF93CDB755
:104DC000DEB724970FB6F894DEBF0FBECDBF8BE6DB
:104DD00093E00E94084580E092ECA1E0B0E0898376
:104DE0009A83AB83BC8340E060E070E087E494E0AA
:104DF0000E94D9304091AD045091AE0467E473E055
:104E000089E493E00E943D448091AD049091AE040A
:104E10000E94DD43AE014F5F5F4F61E071E00E9491
:104E2000224343E050E063E278E080E091E00E94BA
:104E3000033280912508833059F085E893E00E9481
:104E4000084510922408109223080FEF1FEF10C09E
:104E500083E090E09F938F9380EE93E09F938F93F6
:104E60000E94E14400E010E00F900F900F900F902F
:104E700083E08093250843E050E063E278E080E03F
:104E800091E00E940032C80124960FB6F894DEBF6C
:104E90000FBECDBFDF91CF911F910F9108958093E9
:104EA0002E0408950E94D92E20E033E040E050E027
:104EB0006EE475E089E294E00E944D328EEF0E942C
:104EC0007F2B0E94032C0E944A2B20912E042F3FFF
:104ED000C1F393B783B7817F822B83BF83B7816090
:104EE00083BF889583B78E7F83BF83B7817F9E7092
:104EF000892B83BFE6CF0F931F93CF93DF9300914E
:104F0000BF051091C0058017910730F080E090E058
:104F100060C0EF01DB012FC0AC014A5F5F4F44303E
:104F2000510510F444E050E0E0916C08F0916D08F8
:104F30006CE678E0C0E0D0E0A0E0B0E017C02081EF
:104F400031812417350760F02417350711F32097B6
:104F500029F0888199812817390710F4EF01DB01C6
:104F6000BF016E5F7F4F0280F381E02D309739F7EC
:104F7000CE01209771F128813981CA010A966A8190
:104F80007B818217930770F4FE01E40FF51F241B49
:104F9000350B318320837383628359834883ED9378
:104FA000FC9302C06D937C93E881F9810E1B1F0B6B
:104FB0001093C0050093BF05EC0FFD1F34978FEED3
:104FC0009EEBADEABEED80839183A283B383CE01D5
:104FD0000296DF91CF911F910F910895CF93DF93A8
:104FE000DC0112976D917C911197E0916C08F09122
:104FF0006D08CCE6D8E03AC040815181CF01840FE2
:10500000951F8A179B07C1F49A01260F371F31831A
:10501000208382819381DF01A20FB31FA817B907F4
:1050200091F58D919C911197280F391F3183208321
:10503000ED018A819B8125C0AE17BF0778F4B98343
:10504000A8832D913C911197CD01820F931F8E174C
:105050009F0779F0ED01FB83EA8315C0A817B90714
:1050600028F1EF0122960280F381E02D309721F69E
:1050700017C0240F351F11963C932E938281938184
:10508000FD01938382838091BF059091C005860FB7
:10509000971F9093C0058093BF0580E090E008C003
:1050A000FD0113821282B983A883EDCF8FEF9FEFAA
:1050B000DF91CF910895FC0161937193CF010E941C
:1050C000EE2708958091BF059091C00508950F9334
:1050D0001F93CF93DF938C010E947B27EC010097F5
:1050E00029F0A80160E070E00E94CE49CE01DF9176
:1050F000CF911F910F9108958091CA059091CB0592
:105100009093CF058093CE059093D2058093D105DF
:105110001092D0051092D30522E02093FFFF21E0EA
:105120002093C1051092C6051092C7051092C805BC
:105130001092C905089580E090E89093CB05809384
:10514000CA0580E090EC9093CD058093CC0580E07B
:1051500090E8A7E0B0E08093C2059093C305A093C8
:10516000C405B093C5050E947C280895FC01809178
:10517000C105882389F49091D0058091D3059817B3
:1051800059F42091CE053091CF058091D1059091B1
:10519000D2058217930740F48091CC059091CD05FC
:1051A0002091CE053091CF05821B930B9183808394
:1051B0008091D0058E5F8093FFFF8091CE05909106
:1051C000CF050895FC018091C105882319F0118253
:1051D000108227C09091D0058091D305981759F47B
:1051E0002091D1053091D2058091CE059091CF05C7
:1051F0002817390768F08091CC059091CD05209152
:10520000D1053091D205821B930B9183808309C015
:10521000821B930B91838083892B19F481E0809307
:10522000C1058091D3058E5F8093FFFF8091D105EA
:105230009091D2050895009709F440C06091CE0581
:105240007091CF05680F791F7093CF056093CE05DD
:105250001092C1059C01442755278091C605909165
:10526000C705A091C805B091C905820F931FA41F5F
:10527000B51F8093C6059093C705A093C805B0934A
:10528000C9058091CC059091CD0568177907B1F4D7
:105290008091CA059091CB059093CF058093CE0560
:1052A0008091D0058F5F8093D0058E3114F01092DD
:1052B000D0058091D0058E5F8093FFFF8091CE0551
:1052C0009091CF050895009709F452C06091D105DF
:1052D0007091D205680F791F7093D2056093D10544
:1052E0009C01442755278091C6059091C705A09140
:1052F000C805B091C905821B930BA40BB50B809315
:10530000C6059093C705A093C805B093C9058091C1
:10531000CC059091CD0568177907B1F48091CA0545
:105320009091CB059093D2058093D1058091D305C0
:105330008F5F8093D3058E3114F01092D305809146
:10534000D3058E5F8093FFFF2091D1053091D20568
:105350008091CE059091CF052817390749F4909197
:10536000D3058091D005981719F481E08093C10589
:105370008091D1059091D20508950097D9F160915F
:10538000CE057091CF05680F791F7093CF0560939C
:10539000CE059C01442755278091C6059091C705ED
:1053A000A091C805B091C905820F931FA41FB51F16
:1053B0008093C6059093C705A093C805B093C9050F
:1053C0001092C1058091CC059091CD0568177907A1
:1053D00089F48091CA059091CB059093CF05809375
:1053E000CE058091D0058F5F8093D0058E3114F06B
:1053F0001092D0058091D3058E5F8093FFFF0895B2
:10540000009709F44DC06091D1057091D205680FE5
:10541000791F7093D2056093D1059C0144275527CD
:105420008091C6059091C705A091C805B091C905A6
:10543000821B930BA40BB50B8093C6059093C705F5
:10544000A093C805B093C9058091CC059091CD0576
:105450006817790789F48091CA059091CB059093DC
:10546000D2058093D1058091D3058F5F8093D305BA
:105470008E3114F01092D3052091D1053091D205D0
:105480008091CE059091CF052817390749F4909166
:10549000D3058091D005981719F481E08093C10558
:1054A0008091D0058E5F8093FFFF08956091C205C3
:1054B0007091C3058091C4059091C5052091C605E2
:1054C0003091C7054091C8055091C905621B730B07
:1054D000840B950B08956091C6057091C705809166
:1054E000C8059091C90508958091C6059091C7059A
:1054F000A091C805B091C90580509044A040B0402B
:105500008093C6059093C705A093C805B093C905BD
:105510008091D3058F5F8093D3058E3114F0109264
:10552000D3058091D3058E5F8093FFFF0895CF93BD
:10553000DF93DC019B01EC01788F6F8B1D821C8255
:105540000FB6F8940F92EB01E881F9818FEFEF3FEE
:10555000F80749F4ED018C819D8101969D838C8330
:10556000E0E0F0E015C0309799F00F900FBEED012C
:105570009A8908C09F012E5F3F4F0280F381E02D82
:10558000309719F082899817A8F70FB6F8940F9200
:10559000ED01FB83EA83F901B183A083EA81FB81FA
:1055A000309771F084819581892B51F08C819D8198
:1055B00024813581820F931F9D838C8315821482F1
:1055C0000F900FBEDF91CF910895CF93DF939C0191
:1055D000DB010FB6F8940F92ED91FC9111970F90AB
:1055E0000FBE8FEFEF3FF80731F527C0828193811F
:1055F000E217F307E9F40FB6F8940F9211969C9313
:105600008E9384819581892B59F0A281B381109763
:1056100029F084819581ED019D838C83158214820C
:105620000F900FBEF90113821282108E178A05C0E7
:10563000DF011296FC013097C9F6DF91CF910895F2
:10564000FB01168A158A82E0878760E778E0CF0140
:105650000E94972A08950F931F93CF93DF938C0195
:10566000C0916E08D0916F080CC0B801CE010696AB
:105670000E94E049892B11F4CE0107C00990D8811E
:10568000C02D209791F780E090E0DF91CF911F919E
:105690000F910895E0917408F0917508309741F0EA
:1056A000838994890E94EE271092750810927408DD
:1056B0000895CF93DF93C0916E08D0916F080E9438
:1056C0004A2B2091720830917308EEE6F8E00AC088
:1056D00088819981C217D30719F49183808304C00C
:1056E000FE01EC012097A1F7809172089091730858
:1056F0009093750880937408DF91CF9108950F936C
:105700001F93182FE0917208F0917308028960E7E7
:1057100078E0CF010E94E52AE0917208F0917308C9
:10572000128B1F3F49F060E778E0809172089091FA
:1057300073080E94972A02C00E94592BE0917208B8
:10574000F09173088091700890917108E817F9073B
:1057500019F481E0878709C082E087870FB6F89443
:105760000F920E940E320F900FBE802F99271F912B
:105770000F9108958FEF0E947F2B0895CF93DF93B1
:10578000C0916E08D0916F0820C00FB6F8940F92A8
:105790008C819D810F900FBE892BA1F0EF89F88D30
:1057A0000FB6F8940F928C819D8101979D838C8315
:1057B0000F900FBE808191818F5F9F4F19F0CF01B5
:1057C0000E94612F0990D881C02D2097F1F60E9488
:1057D0004D2EE0917208F0917308809170089091BD
:1057E0007108E817F90761F08785813011F482E0CC
:1057F00087870FB6F8940F920E940E320F900FBE5B
:10580000DF91CF910895E0917208F0917308828141
:105810009381892B69F060E778E0CF010E94E52A47
:1058200060E778E080917208909173080E94972A4F
:105830000E94BE2B089580917C0890917D08A091D4
:105840007E08B0917F080196A11DB11D80937C0850
:1058500090937D08A0937E08B0937F0808959B01E4
:10586000AC016091760870917708809178089091EA
:1058700079080E94F04928EE33E040E050E00E94B1
:10588000424A01C000002150310941095109D0F7B5
:1058900008959927AA27BB27BC01CD0128EE33E044
:1058A00040E050E00E94F0490E942F2C0895CF93D1
:1058B000DF93EC011B821A82E0917A08F0917B0859
:1058C0001AC0288539854A855B8580859185A285A2
:1058D000B385281739074A075B0780F0281B390B67
:1058E0004A0B5B0B288739874A875B87FB83EA83F0
:1058F0000190F081E02D309721F718C0821B930BA7
:10590000A40BB50B80879187A287B387F983E883BF
:10591000D383C283EA81FB81309719F0D183C0839E
:1059200008C0D0937B08C0937A0803C019821882FC
:10593000F1CFDF91CF910895CF93DF93FC011482D3
:105940001582168217821586148680859185A28518
:10595000B3850097A105B10561F1A281B381808172
:105960009181109719F08D939C9304C090937B08BC
:1059700080937A08C081D1812097A1F082819381A0
:105980009B838A8388859985AA85BB8520853185F7
:1059900042855385820F931FA41FB51F888799875F
:1059A000AA87BB871086118612861386CF010E94B4
:1059B000572CDF91CF9108950FB6F8940F92609114
:1059C0007C0870917D0880917E0890917F080F90EF
:1059D0000FBE0895AF92BF92CF92DF92EF92FF92E7
:1059E0000F93CF93DF936B017C01EA01590180E1B2
:1059F00090E00E947B27FC01892B81F10FB6F8947F
:105A00000F9280917C0890917D08A0917E08B091C2
:105A10007F080F900FBE8C0D9D1DAE1DBF1D2091E8
:105A2000D4053091D5054091D6055091D705821BFC
:105A3000930BA40BB50B80879187A287B38700FFD8
:105A400005C0148215821682178204C0C482D582D2
:105A5000E682F782D587C487B786A686CF01DF9115
:105A6000CF910F91FF90EF90DF90CF90BF90AF90CC
:105A700008950F93CF93DF930E94EA2CEC010097D7
:105A800011F00E94572CCE01DF91CF910F91089514
:105A9000CF92DF92EF92FF920F936A0179010E94F9
:105AA0001F339701A6010E94392D0F91FF90EF90AF
:105AB000DF90CF900895AF92BF92CF92DF92EF9296
:105AC000FF920F93CF93DF935B016C01611571051A
:105AD00081059105D1F1C0E7D8E0BE01809172083F
